{
  "_format": "hh-sol-artifact-1",
  "contractName": "NFTContract",
  "sourceName": "contracts/NFTContract.sol",
  "abi": [
    {
      "inputs": [
        {
          "internalType": "string",
          "name": "_name",
          "type": "string"
        },
        {
          "internalType": "string",
          "name": "_symbol",
          "type": "string"
        },
        {
          "internalType": "string",
          "name": "_uri",
          "type": "string"
        }
      ],
      "stateMutability": "nonpayable",
      "type": "constructor"
    },
    {
      "anonymous": false,
      "inputs": [
        {
          "indexed": true,
          "internalType": "address",
          "name": "owner",
          "type": "address"
        },
        {
          "indexed": true,
          "internalType": "address",
          "name": "approved",
          "type": "address"
        },
        {
          "indexed": true,
          "internalType": "uint256",
          "name": "tokenId",
          "type": "uint256"
        }
      ],
      "name": "Approval",
      "type": "event"
    },
    {
      "anonymous": false,
      "inputs": [
        {
          "indexed": true,
          "internalType": "address",
          "name": "owner",
          "type": "address"
        },
        {
          "indexed": true,
          "internalType": "address",
          "name": "operator",
          "type": "address"
        },
        {
          "indexed": false,
          "internalType": "bool",
          "name": "approved",
          "type": "bool"
        }
      ],
      "name": "ApprovalForAll",
      "type": "event"
    },
    {
      "anonymous": false,
      "inputs": [
        {
          "indexed": true,
          "internalType": "address",
          "name": "previousOwner",
          "type": "address"
        },
        {
          "indexed": true,
          "internalType": "address",
          "name": "newOwner",
          "type": "address"
        }
      ],
      "name": "OwnershipTransferred",
      "type": "event"
    },
    {
      "anonymous": false,
      "inputs": [
        {
          "indexed": true,
          "internalType": "address",
          "name": "from",
          "type": "address"
        },
        {
          "indexed": true,
          "internalType": "address",
          "name": "to",
          "type": "address"
        },
        {
          "indexed": true,
          "internalType": "uint256",
          "name": "tokenId",
          "type": "uint256"
        }
      ],
      "name": "Transfer",
      "type": "event"
    },
    {
      "inputs": [
        {
          "internalType": "address",
          "name": "to",
          "type": "address"
        },
        {
          "internalType": "uint256",
          "name": "tokenId",
          "type": "uint256"
        }
      ],
      "name": "approve",
      "outputs": [],
      "stateMutability": "nonpayable",
      "type": "function"
    },
    {
      "inputs": [
        {
          "internalType": "address",
          "name": "owner",
          "type": "address"
        }
      ],
      "name": "balanceOf",
      "outputs": [
        {
          "internalType": "uint256",
          "name": "",
          "type": "uint256"
        }
      ],
      "stateMutability": "view",
      "type": "function"
    },
    {
      "inputs": [],
      "name": "baseURI",
      "outputs": [
        {
          "internalType": "string",
          "name": "",
          "type": "string"
        }
      ],
      "stateMutability": "view",
      "type": "function"
    },
    {
      "inputs": [
        {
          "internalType": "uint256",
          "name": "tokenId",
          "type": "uint256"
        }
      ],
      "name": "getApproved",
      "outputs": [
        {
          "internalType": "address",
          "name": "",
          "type": "address"
        }
      ],
      "stateMutability": "view",
      "type": "function"
    },
    {
      "inputs": [],
      "name": "getCurrentTokenId",
      "outputs": [
        {
          "internalType": "uint256",
          "name": "",
          "type": "uint256"
        }
      ],
      "stateMutability": "view",
      "type": "function"
    },
    {
      "inputs": [
        {
          "internalType": "uint256",
          "name": "_tokenId",
          "type": "uint256"
        }
      ],
      "name": "getTokenURI",
      "outputs": [
        {
          "internalType": "string",
          "name": "",
          "type": "string"
        }
      ],
      "stateMutability": "view",
      "type": "function"
    },
    {
      "inputs": [
        {
          "internalType": "address",
          "name": "owner",
          "type": "address"
        },
        {
          "internalType": "address",
          "name": "operator",
          "type": "address"
        }
      ],
      "name": "isApprovedForAll",
      "outputs": [
        {
          "internalType": "bool",
          "name": "",
          "type": "bool"
        }
      ],
      "stateMutability": "view",
      "type": "function"
    },
    {
      "inputs": [
        {
          "internalType": "address",
          "name": "_to",
          "type": "address"
        }
      ],
      "name": "mint",
      "outputs": [
        {
          "internalType": "uint256",
          "name": "",
          "type": "uint256"
        }
      ],
      "stateMutability": "nonpayable",
      "type": "function"
    },
    {
      "inputs": [
        {
          "internalType": "address",
          "name": "_to",
          "type": "address"
        },
        {
          "internalType": "uint256",
          "name": "_count",
          "type": "uint256"
        }
      ],
      "name": "mintBatch",
      "outputs": [],
      "stateMutability": "nonpayable",
      "type": "function"
    },
    {
      "inputs": [],
      "name": "name",
      "outputs": [
        {
          "internalType": "string",
          "name": "",
          "type": "string"
        }
      ],
      "stateMutability": "view",
      "type": "function"
    },
    {
      "inputs": [],
      "name": "owner",
      "outputs": [
        {
          "internalType": "address",
          "name": "",
          "type": "address"
        }
      ],
      "stateMutability": "view",
      "type": "function"
    },
    {
      "inputs": [
        {
          "internalType": "uint256",
          "name": "tokenId",
          "type": "uint256"
        }
      ],
      "name": "ownerOf",
      "outputs": [
        {
          "internalType": "address",
          "name": "",
          "type": "address"
        }
      ],
      "stateMutability": "view",
      "type": "function"
    },
    {
      "inputs": [],
      "name": "renounceOwnership",
      "outputs": [],
      "stateMutability": "nonpayable",
      "type": "function"
    },
    {
      "inputs": [
        {
          "internalType": "address",
          "name": "from",
          "type": "address"
        },
        {
          "internalType": "address",
          "name": "to",
          "type": "address"
        },
        {
          "internalType": "uint256",
          "name": "tokenId",
          "type": "uint256"
        }
      ],
      "name": "safeTransferFrom",
      "outputs": [],
      "stateMutability": "nonpayable",
      "type": "function"
    },
    {
      "inputs": [
        {
          "internalType": "address",
          "name": "from",
          "type": "address"
        },
        {
          "internalType": "address",
          "name": "to",
          "type": "address"
        },
        {
          "internalType": "uint256",
          "name": "tokenId",
          "type": "uint256"
        },
        {
          "internalType": "bytes",
          "name": "_data",
          "type": "bytes"
        }
      ],
      "name": "safeTransferFrom",
      "outputs": [],
      "stateMutability": "nonpayable",
      "type": "function"
    },
    {
      "inputs": [
        {
          "internalType": "address",
          "name": "operator",
          "type": "address"
        },
        {
          "internalType": "bool",
          "name": "approved",
          "type": "bool"
        }
      ],
      "name": "setApprovalForAll",
      "outputs": [],
      "stateMutability": "nonpayable",
      "type": "function"
    },
    {
      "inputs": [
        {
          "internalType": "bytes4",
          "name": "interfaceId",
          "type": "bytes4"
        }
      ],
      "name": "supportsInterface",
      "outputs": [
        {
          "internalType": "bool",
          "name": "",
          "type": "bool"
        }
      ],
      "stateMutability": "view",
      "type": "function"
    },
    {
      "inputs": [],
      "name": "symbol",
      "outputs": [
        {
          "internalType": "string",
          "name": "",
          "type": "string"
        }
      ],
      "stateMutability": "view",
      "type": "function"
    },
    {
      "inputs": [
        {
          "internalType": "uint256",
          "name": "tokenId",
          "type": "uint256"
        }
      ],
      "name": "tokenURI",
      "outputs": [
        {
          "internalType": "string",
          "name": "",
          "type": "string"
        }
      ],
      "stateMutability": "view",
      "type": "function"
    },
    {
      "inputs": [
        {
          "internalType": "address",
          "name": "_from",
          "type": "address"
        },
        {
          "internalType": "address",
          "name": "_to",
          "type": "address"
        },
        {
          "internalType": "uint256",
          "name": "_tokenId",
          "type": "uint256"
        }
      ],
      "name": "transfer",
      "outputs": [],
      "stateMutability": "nonpayable",
      "type": "function"
    },
    {
      "inputs": [
        {
          "internalType": "address",
          "name": "from",
          "type": "address"
        },
        {
          "internalType": "address",
          "name": "to",
          "type": "address"
        },
        {
          "internalType": "uint256",
          "name": "tokenId",
          "type": "uint256"
        }
      ],
      "name": "transferFrom",
      "outputs": [],
      "stateMutability": "nonpayable",
      "type": "function"
    },
    {
      "inputs": [
        {
          "internalType": "address",
          "name": "newOwner",
          "type": "address"
        }
      ],
      "name": "transferOwnership",
      "outputs": [],
      "stateMutability": "nonpayable",
      "type": "function"
    },
    {
      "inputs": [
        {
          "internalType": "address",
          "name": "_from",
          "type": "address"
        },
        {
          "internalType": "address",
          "name": "_to",
          "type": "address"
        },
        {
          "internalType": "uint256",
          "name": "_tokenId",
          "type": "uint256"
        },
        {
          "internalType": "bytes",
          "name": "_msgHash",
          "type": "bytes"
        },
        {
          "internalType": "uint8",
          "name": "_v",
          "type": "uint8"
        },
        {
          "internalType": "bytes32",
          "name": "_r",
          "type": "bytes32"
        },
        {
          "internalType": "bytes32",
          "name": "_s",
          "type": "bytes32"
        }
      ],
      "name": "verifiedTransfer",
      "outputs": [],
      "stateMutability": "nonpayable",
      "type": "function"
    }
  ],
  "bytecode": "0x60806040523480156200001157600080fd5b50604051620021c8380380620021c88339810160408190526200003491620001a3565b82826000620000448382620002c3565b506001620000538282620002c3565b505050620000706200006a6200008860201b60201c565b6200008c565b60086200007e8282620002c3565b505050506200038f565b3390565b600780546001600160a01b038381166001600160a01b0319831681179093556040519116919082907f8be0079c531659141344cd1fd0a4f28419497f9722a3daafe3b4186f6b6457e090600090a35050565b634e487b7160e01b600052604160045260246000fd5b600082601f8301126200010657600080fd5b81516001600160401b0380821115620001235762000123620000de565b604051601f8301601f19908116603f011681019082821181831017156200014e576200014e620000de565b816040528381526020925086838588010111156200016b57600080fd5b600091505b838210156200018f578582018301518183018401529082019062000170565b600093810190920192909252949350505050565b600080600060608486031215620001b957600080fd5b83516001600160401b0380821115620001d157600080fd5b620001df87838801620000f4565b94506020860151915080821115620001f657600080fd5b6200020487838801620000f4565b935060408601519150808211156200021b57600080fd5b506200022a86828701620000f4565b9150509250925092565b600181811c908216806200024957607f821691505b6020821081036200026a57634e487b7160e01b600052602260045260246000fd5b50919050565b601f821115620002be57600081815260208120601f850160051c81016020861015620002995750805b601f850160051c820191505b81811015620002ba57828155600101620002a5565b5050505b505050565b81516001600160401b03811115620002df57620002df620000de565b620002f781620002f0845462000234565b8462000270565b602080601f8311600181146200032f5760008415620003165750858301515b600019600386901b1c1916600185901b178555620002ba565b600085815260208120601f198616915b8281101562000360578886015182559484019460019091019084016200033f565b50858210156200037f5787850151600019600388901b60f8161c191681555b5050505050600190811b01905550565b611e29806200039f6000396000f3fe608060405234801561001057600080fd5b506004361061014d5760003560e01c80636a627842116100c3578063a22cb4651161007c578063a22cb465146102a6578063b88d4fde146102b9578063beabacc8146102cc578063c87b56dd146102df578063e985e9c5146102f2578063f2fde38b1461030557600080fd5b80636a627842146102575780636c0360eb1461026a57806370a0823114610272578063715018a6146102855780638da5cb5b1461028d57806395d89b411461029e57600080fd5b806323b872dd1161011557806323b872dd146101e2578063248b71fc146101f55780633bb3a24d1461020857806342842e0e1461021b578063561892361461022e5780636352211e1461024457600080fd5b806301ffc9a71461015257806306fdde031461017a578063081812fc1461018f578063095ea7b3146101ba5780630a56bc7e146101cf575b600080fd5b610165610160366004611685565b610318565b60405190151581526020015b60405180910390f35b61018261036a565b60405161017191906116f2565b6101a261019d366004611705565b6103fc565b6040516001600160a01b039091168152602001610171565b6101cd6101c8366004611735565b610489565b005b6101cd6101dd366004611802565b61059e565b6101cd6101f0366004611897565b610668565b6101cd610203366004611735565b610699565b610182610216366004611705565b6106ea565b6101cd610229366004611897565b6106f5565b610236610710565b604051908152602001610171565b6101a2610252366004611705565b610720565b6102366102653660046118d3565b610797565b6101826107ff565b6102366102803660046118d3565b61088d565b6101cd610914565b6007546001600160a01b03166101a2565b61018261094a565b6101cd6102b43660046118ee565b610959565b6101cd6102c736600461192a565b610968565b6101cd6102da366004611897565b6109a0565b6101826102ed366004611705565b610a1a565b610165610300366004611992565b610b90565b6101cd6103133660046118d3565b610bbe565b60006001600160e01b031982166380ac58cd60e01b148061034957506001600160e01b03198216635b5e139f60e01b145b8061036457506301ffc9a760e01b6001600160e01b03198316145b92915050565b606060008054610379906119c5565b80601f01602080910402602001604051908101604052809291908181526020018280546103a5906119c5565b80156103f25780601f106103c7576101008083540402835291602001916103f2565b820191906000526020600020905b8154815290600101906020018083116103d557829003601f168201915b5050505050905090565b600061040782610c59565b61046d5760405162461bcd60e51b815260206004820152602c60248201527f4552433732313a20617070726f76656420717565727920666f72206e6f6e657860448201526b34b9ba32b73a103a37b5b2b760a11b60648201526084015b60405180910390fd5b506000908152600460205260409020546001600160a01b031690565b600061049482610720565b9050806001600160a01b0316836001600160a01b0316036105015760405162461bcd60e51b815260206004820152602160248201527f4552433732313a20617070726f76616c20746f2063757272656e74206f776e656044820152603960f91b6064820152608401610464565b336001600160a01b038216148061051d575061051d8133610b90565b61058f5760405162461bcd60e51b815260206004820152603860248201527f4552433732313a20617070726f76652063616c6c6572206973206e6f74206f7760448201527f6e6572206e6f7220617070726f76656420666f7220616c6c00000000000000006064820152608401610464565b6105998383610c76565b505050565b86856105aa8282610ce4565b6105f65760405162461bcd60e51b815260206004820152601e60248201527f46726f6d206973206e6f74206f776e6572206e6f7220617070726f76656400006044820152606401610464565b6106038987878787610dad565b6106425760405162461bcd60e51b815260206004820152601060248201526f4661696c656420746f2076657269667960801b6044820152606401610464565b61065d89898960405180602001604052806000815250610dda565b505050505050505050565b6106723382610ce4565b61068e5760405162461bcd60e51b8152600401610464906119ff565b610599838383610e0d565b6007546001600160a01b031633146106c35760405162461bcd60e51b815260040161046490611a50565b60005b81811015610599576106d783610797565b50806106e281611a9b565b9150506106c6565b606061036482610a1a565b61059983838360405180602001604052806000815250610968565b600061071b60095490565b905090565b6000818152600260205260408120546001600160a01b0316806103645760405162461bcd60e51b815260206004820152602960248201527f4552433732313a206f776e657220717565727920666f72206e6f6e657869737460448201526832b73a103a37b5b2b760b91b6064820152608401610464565b6007546000906001600160a01b031633146107c45760405162461bcd60e51b815260040161046490611a50565b6107d2600980546001019055565b60006107dd60095490565b90506107e98382610fa9565b610364816107f5610fc3565b610ffd565b919050565b6008805461080c906119c5565b80601f0160208091040260200160405190810160405280929190818152602001828054610838906119c5565b80156108855780601f1061085a57610100808354040283529160200191610885565b820191906000526020600020905b81548152906001019060200180831161086857829003601f168201915b505050505081565b60006001600160a01b0382166108f85760405162461bcd60e51b815260206004820152602a60248201527f4552433732313a2062616c616e636520717565727920666f7220746865207a65604482015269726f206164647265737360b01b6064820152608401610464565b506001600160a01b031660009081526003602052604090205490565b6007546001600160a01b0316331461093e5760405162461bcd60e51b815260040161046490611a50565b6109486000611081565b565b606060018054610379906119c5565b6109643383836110d3565b5050565b6109723383610ce4565b61098e5760405162461bcd60e51b8152600401610464906119ff565b61099a84848484610dda565b50505050565b82816109ac8282610ce4565b6109f85760405162461bcd60e51b815260206004820152601e60248201527f46726f6d206973206e6f74206f776e6572206e6f7220617070726f76656400006044820152606401610464565b610a1385858560405180602001604052806000815250610dda565b5050505050565b6060610a2582610c59565b610a8b5760405162461bcd60e51b815260206004820152603160248201527f45524337323155524953746f726167653a2055524920717565727920666f72206044820152703737b732bc34b9ba32b73a103a37b5b2b760791b6064820152608401610464565b60008281526006602052604081208054610aa4906119c5565b80601f0160208091040260200160405190810160405280929190818152602001828054610ad0906119c5565b8015610b1d5780601f10610af257610100808354040283529160200191610b1d565b820191906000526020600020905b815481529060010190602001808311610b0057829003601f168201915b505050505090506000610b3b60408051602081019091526000815290565b90508051600003610b4d575092915050565b815115610b7f578082604051602001610b67929190611ab4565b60405160208183030381529060405292505050919050565b610b88846111a1565b949350505050565b6001600160a01b03918216600090815260056020908152604080832093909416825291909152205460ff1690565b6007546001600160a01b03163314610be85760405162461bcd60e51b815260040161046490611a50565b6001600160a01b038116610c4d5760405162461bcd60e51b815260206004820152602660248201527f4f776e61626c653a206e6577206f776e657220697320746865207a65726f206160448201526564647265737360d01b6064820152608401610464565b610c5681611081565b50565b6000908152600260205260409020546001600160a01b0316151590565b600081815260046020526040902080546001600160a01b0319166001600160a01b0384169081179091558190610cab82610720565b6001600160a01b03167f8c5be1e5ebec7d5bd14f71427d1e84f3dd0314c0f7b2291e5b200ac8c7c3b92560405160405180910390a45050565b6000610cef82610c59565b610d505760405162461bcd60e51b815260206004820152602c60248201527f4552433732313a206f70657261746f7220717565727920666f72206e6f6e657860448201526b34b9ba32b73a103a37b5b2b760a11b6064820152608401610464565b6000610d5b83610720565b9050806001600160a01b0316846001600160a01b03161480610d825750610d828185610b90565b80610b885750836001600160a01b0316610d9b846103fc565b6001600160a01b031614949350505050565b6000610dbb85858585611279565b6001600160a01b0316866001600160a01b031614905095945050505050565b610de5848484610e0d565b610df18484848461130a565b61099a5760405162461bcd60e51b815260040161046490611ae3565b826001600160a01b0316610e2082610720565b6001600160a01b031614610e845760405162461bcd60e51b815260206004820152602560248201527f4552433732313a207472616e736665722066726f6d20696e636f72726563742060448201526437bbb732b960d91b6064820152608401610464565b6001600160a01b038216610ee65760405162461bcd60e51b8152602060048201526024808201527f4552433732313a207472616e7366657220746f20746865207a65726f206164646044820152637265737360e01b6064820152608401610464565b610ef1600082610c76565b6001600160a01b0383166000908152600360205260408120805460019290610f1a908490611b35565b90915550506001600160a01b0382166000908152600360205260408120805460019290610f48908490611b48565b909155505060008181526002602052604080822080546001600160a01b0319166001600160a01b0386811691821790925591518493918716917fddf252ad1be2c89b69c2b068fc378daa952ba7f163c4a11628f55a4df523b3ef91a4505050565b610964828260405180602001604052806000815250611408565b60606008610fd8610fd360095490565b61143b565b604051602001610fe9929190611b5b565b604051602081830303815290604052905090565b61100682610c59565b6110695760405162461bcd60e51b815260206004820152602e60248201527f45524337323155524953746f726167653a2055524920736574206f66206e6f6e60448201526d32bc34b9ba32b73a103a37b5b2b760911b6064820152608401610464565b60008281526006602052604090206105998282611c40565b600780546001600160a01b038381166001600160a01b0319831681179093556040519116919082907f8be0079c531659141344cd1fd0a4f28419497f9722a3daafe3b4186f6b6457e090600090a35050565b816001600160a01b0316836001600160a01b0316036111345760405162461bcd60e51b815260206004820152601960248201527f4552433732313a20617070726f766520746f2063616c6c6572000000000000006044820152606401610464565b6001600160a01b03838116600081815260056020908152604080832094871680845294825291829020805460ff191686151590811790915591519182527f17307eab39ab6107e8899845ad3d59bd9653f200f220920489ca2b5937696c31910160405180910390a3505050565b60606111ac82610c59565b6112105760405162461bcd60e51b815260206004820152602f60248201527f4552433732314d657461646174613a2055524920717565727920666f72206e6f60448201526e3732bc34b9ba32b73a103a37b5b2b760891b6064820152608401610464565b600061122760408051602081019091526000815290565b905060008151116112475760405180602001604052806000815250611272565b806112518461143b565b604051602001611262929190611ab4565b6040516020818303038152906040525b9392505050565b6000808560405160200161128d9190611d00565b60408051601f1981840301815282825280516020918201206000845290830180835281905260ff8816918301919091526060820186905260808201859052915060019060a0016020604051602081039080840390855afa1580156112f5573d6000803e3d6000fd5b5050604051601f190151979650505050505050565b60006001600160a01b0384163b1561140057604051630a85bd0160e11b81526001600160a01b0385169063150b7a029061134e903390899088908890600401611d45565b6020604051808303816000875af1925050508015611389575060408051601f3d908101601f1916820190925261138691810190611d82565b60015b6113e6573d8080156113b7576040519150601f19603f3d011682016040523d82523d6000602084013e6113bc565b606091505b5080516000036113de5760405162461bcd60e51b815260040161046490611ae3565b805181602001fd5b6001600160e01b031916630a85bd0160e11b149050610b88565b506001610b88565b611412838361153c565b61141f600084848461130a565b6105995760405162461bcd60e51b815260040161046490611ae3565b6060816000036114625750506040805180820190915260018152600360fc1b602082015290565b8160005b811561148c578061147681611a9b565b91506114859050600a83611db5565b9150611466565b60008167ffffffffffffffff8111156114a7576114a761175f565b6040519080825280601f01601f1916602001820160405280156114d1576020820181803683370190505b5090505b8415610b88576114e6600183611b35565b91506114f3600a86611dc9565b6114fe906030611b48565b60f81b81838151811061151357611513611ddd565b60200101906001600160f81b031916908160001a905350611535600a86611db5565b94506114d5565b6001600160a01b0382166115925760405162461bcd60e51b815260206004820181905260248201527f4552433732313a206d696e7420746f20746865207a65726f20616464726573736044820152606401610464565b61159b81610c59565b156115e85760405162461bcd60e51b815260206004820152601c60248201527f4552433732313a20746f6b656e20616c7265616479206d696e746564000000006044820152606401610464565b6001600160a01b0382166000908152600360205260408120805460019290611611908490611b48565b909155505060008181526002602052604080822080546001600160a01b0319166001600160a01b03861690811790915590518392907fddf252ad1be2c89b69c2b068fc378daa952ba7f163c4a11628f55a4df523b3ef908290a45050565b6001600160e01b031981168114610c5657600080fd5b60006020828403121561169757600080fd5b81356112728161166f565b60005b838110156116bd5781810151838201526020016116a5565b50506000910152565b600081518084526116de8160208601602086016116a2565b601f01601f19169290920160200192915050565b60208152600061127260208301846116c6565b60006020828403121561171757600080fd5b5035919050565b80356001600160a01b03811681146107fa57600080fd5b6000806040838503121561174857600080fd5b6117518361171e565b946020939093013593505050565b634e487b7160e01b600052604160045260246000fd5b600082601f83011261178657600080fd5b813567ffffffffffffffff808211156117a1576117a161175f565b604051601f8301601f19908116603f011681019082821181831017156117c9576117c961175f565b816040528381528660208588010111156117e257600080fd5b836020870160208301376000602085830101528094505050505092915050565b600080600080600080600060e0888a03121561181d57600080fd5b6118268861171e565b96506118346020890161171e565b955060408801359450606088013567ffffffffffffffff81111561185757600080fd5b6118638a828b01611775565b945050608088013560ff8116811461187a57600080fd5b9699959850939692959460a0840135945060c09093013592915050565b6000806000606084860312156118ac57600080fd5b6118b58461171e565b92506118c36020850161171e565b9150604084013590509250925092565b6000602082840312156118e557600080fd5b6112728261171e565b6000806040838503121561190157600080fd5b61190a8361171e565b91506020830135801515811461191f57600080fd5b809150509250929050565b6000806000806080858703121561194057600080fd5b6119498561171e565b93506119576020860161171e565b925060408501359150606085013567ffffffffffffffff81111561197a57600080fd5b61198687828801611775565b91505092959194509250565b600080604083850312156119a557600080fd5b6119ae8361171e565b91506119bc6020840161171e565b90509250929050565b600181811c908216806119d957607f821691505b6020821081036119f957634e487b7160e01b600052602260045260246000fd5b50919050565b60208082526031908201527f4552433732313a207472616e736665722063616c6c6572206973206e6f74206f6040820152701ddb995c881b9bdc88185c1c1c9bdd9959607a1b606082015260800190565b6020808252818101527f4f776e61626c653a2063616c6c6572206973206e6f7420746865206f776e6572604082015260600190565b634e487b7160e01b600052601160045260246000fd5b600060018201611aad57611aad611a85565b5060010190565b60008351611ac68184602088016116a2565b835190830190611ada8183602088016116a2565b01949350505050565b60208082526032908201527f4552433732313a207472616e7366657220746f206e6f6e20455243373231526560408201527131b2b4bb32b91034b6b83632b6b2b73a32b960711b606082015260800190565b8181038181111561036457610364611a85565b8082018082111561036457610364611a85565b6000808454611b69816119c5565b60018281168015611b815760018114611b9657611bc5565b60ff1984168752821515830287019450611bc5565b8860005260208060002060005b85811015611bbc5781548a820152908401908201611ba3565b50505082870194505b505050508351611bd98183602088016116a2565b64173539b7b760d91b9101908152600501949350505050565b601f82111561059957600081815260208120601f850160051c81016020861015611c195750805b601f850160051c820191505b81811015611c3857828155600101611c25565b505050505050565b815167ffffffffffffffff811115611c5a57611c5a61175f565b611c6e81611c6884546119c5565b84611bf2565b602080601f831160018114611ca35760008415611c8b5750858301515b600019600386901b1c1916600185901b178555611c38565b600085815260208120601f198616915b82811015611cd257888601518255948401946001909101908401611cb3565b5085821015611cf05787850151600019600388901b60f8161c191681555b5050505050600190811b01905550565b7f19457468657265756d205369676e6564204d6573736167653a0a333200000000815260008251611d3881601c8501602087016116a2565b91909101601c0192915050565b6001600160a01b0385811682528416602082015260408101839052608060608201819052600090611d78908301846116c6565b9695505050505050565b600060208284031215611d9457600080fd5b81516112728161166f565b634e487b7160e01b600052601260045260246000fd5b600082611dc457611dc4611d9f565b500490565b600082611dd857611dd8611d9f565b500690565b634e487b7160e01b600052603260045260246000fdfea2646970667358221220846daf733fe2008e72674bce30aba55d1f0c7c4f7fa2b6afd28bdf8afea2f11064736f6c63430008140033",
  "linkReferences": {},
  "deployedLinkReferences": {}
}