{"@matterlabs/zksync-contracts/l1/contracts/zksync/Verifier.sol":{"Verifier":{"abi":[{"inputs":[{"components":[{"components":[{"internalType":"uint256","name":"value","type":"uint256"}],"internalType":"struct PairingsBn254.Fr","name":"zero","type":"tuple"},{"components":[{"internalType":"uint256","name":"value","type":"uint256"}],"internalType":"struct PairingsBn254.Fr","name":"alpha","type":"tuple"},{"components":[{"internalType":"uint256","name":"value","type":"uint256"}],"internalType":"struct PairingsBn254.Fr","name":"beta","type":"tuple"},{"components":[{"internalType":"uint256","name":"value","type":"uint256"}],"internalType":"struct PairingsBn254.Fr","name":"gamma","type":"tuple"},{"components":[{"internalType":"uint256","name":"value","type":"uint256"}],"internalType":"struct PairingsBn254.Fr[9]","name":"alpha_values","type":"tuple[9]"},{"components":[{"internalType":"uint256","name":"value","type":"uint256"}],"internalType":"struct PairingsBn254.Fr","name":"eta","type":"tuple"},{"components":[{"internalType":"uint256","name":"value","type":"uint256"}],"internalType":"struct PairingsBn254.Fr","name":"beta_lookup","type":"tuple"},{"components":[{"internalType":"uint256","name":"value","type":"uint256"}],"internalType":"struct PairingsBn254.Fr","name":"gamma_lookup","type":"tuple"},{"components":[{"internalType":"uint256","name":"value","type":"uint256"}],"internalType":"struct PairingsBn254.Fr","name":"beta_plus_one","type":"tuple"},{"components":[{"internalType":"uint256","name":"value","type":"uint256"}],"internalType":"struct PairingsBn254.Fr","name":"beta_gamma","type":"tuple"},{"components":[{"internalType":"uint256","name":"value","type":"uint256"}],"internalType":"struct PairingsBn254.Fr","name":"v","type":"tuple"},{"components":[{"internalType":"uint256","name":"value","type":"uint256"}],"internalType":"struct PairingsBn254.Fr","name":"u","type":"tuple"},{"components":[{"internalType":"uint256","name":"value","type":"uint256"}],"internalType":"struct PairingsBn254.Fr","name":"z","type":"tuple"},{"components":[{"internalType":"uint256","name":"value","type":"uint256"}],"internalType":"struct PairingsBn254.Fr","name":"z_omega","type":"tuple"},{"components":[{"internalType":"uint256","name":"value","type":"uint256"}],"internalType":"struct PairingsBn254.Fr","name":"z_minus_last_omega","type":"tuple"},{"components":[{"internalType":"uint256","name":"value","type":"uint256"}],"internalType":"struct PairingsBn254.Fr","name":"l_0_at_z","type":"tuple"},{"components":[{"internalType":"uint256","name":"value","type":"uint256"}],"internalType":"struct PairingsBn254.Fr","name":"l_n_minus_one_at_z","type":"tuple"},{"components":[{"internalType":"uint256","name":"value","type":"uint256"}],"internalType":"struct PairingsBn254.Fr","name":"t","type":"tuple"},{"components":[{"internalType":"uint256","name":"X","type":"uint256"},{"internalType":"uint256","name":"Y","type":"uint256"}],"internalType":"struct PairingsBn254.G1Point","name":"tp","type":"tuple"}],"internalType":"struct Plonk4VerifierWithAccessToDNext.PartialVerifierState","name":"state","type":"tuple"}],"name":"compute_powers_of_alpha","outputs":[],"stateMutability":"pure","type":"function"},{"inputs":[],"name":"get_verification_key","outputs":[{"components":[{"internalType":"uint256","name":"domain_size","type":"uint256"},{"internalType":"uint256","name":"num_inputs","type":"uint256"},{"components":[{"internalType":"uint256","name":"value","type":"uint256"}],"internalType":"struct PairingsBn254.Fr","name":"omega","type":"tuple"},{"components":[{"internalType":"uint256","name":"X","type":"uint256"},{"internalType":"uint256","name":"Y","type":"uint256"}],"internalType":"struct PairingsBn254.G1Point[2]","name":"gate_selectors_commitments","type":"tuple[2]"},{"components":[{"internalType":"uint256","name":"X","type":"uint256"},{"internalType":"uint256","name":"Y","type":"uint256"}],"internalType":"struct PairingsBn254.G1Point[8]","name":"gate_setup_commitments","type":"tuple[8]"},{"components":[{"internalType":"uint256","name":"X","type":"uint256"},{"internalType":"uint256","name":"Y","type":"uint256"}],"internalType":"struct PairingsBn254.G1Point[4]","name":"permutation_commitments","type":"tuple[4]"},{"components":[{"internalType":"uint256","name":"X","type":"uint256"},{"internalType":"uint256","name":"Y","type":"uint256"}],"internalType":"struct PairingsBn254.G1Point","name":"lookup_selector_commitment","type":"tuple"},{"components":[{"internalType":"uint256","name":"X","type":"uint256"},{"internalType":"uint256","name":"Y","type":"uint256"}],"internalType":"struct PairingsBn254.G1Point[4]","name":"lookup_tables_commitments","type":"tuple[4]"},{"components":[{"internalType":"uint256","name":"X","type":"uint256"},{"internalType":"uint256","name":"Y","type":"uint256"}],"internalType":"struct PairingsBn254.G1Point","name":"lookup_table_type_commitment","type":"tuple"},{"components":[{"internalType":"uint256","name":"value","type":"uint256"}],"internalType":"struct PairingsBn254.Fr[3]","name":"non_residues","type":"tuple[3]"},{"components":[{"internalType":"uint256[2]","name":"X","type":"uint256[2]"},{"internalType":"uint256[2]","name":"Y","type":"uint256[2]"}],"internalType":"struct PairingsBn254.G2Point[2]","name":"g2_elements","type":"tuple[2]"}],"internalType":"struct VerificationKey","name":"vk","type":"tuple"}],"stateMutability":"pure","type":"function"},{"inputs":[{"components":[{"internalType":"uint256","name":"domain_size","type":"uint256"},{"internalType":"uint256","name":"num_inputs","type":"uint256"},{"components":[{"internalType":"uint256","name":"value","type":"uint256"}],"internalType":"struct PairingsBn254.Fr","name":"omega","type":"tuple"},{"components":[{"internalType":"uint256","name":"X","type":"uint256"},{"internalType":"uint256","name":"Y","type":"uint256"}],"internalType":"struct PairingsBn254.G1Point[2]","name":"gate_selectors_commitments","type":"tuple[2]"},{"components":[{"internalType":"uint256","name":"X","type":"uint256"},{"internalType":"uint256","name":"Y","type":"uint256"}],"internalType":"struct PairingsBn254.G1Point[8]","name":"gate_setup_commitments","type":"tuple[8]"},{"components":[{"internalType":"uint256","name":"X","type":"uint256"},{"internalType":"uint256","name":"Y","type":"uint256"}],"internalType":"struct PairingsBn254.G1Point[4]","name":"permutation_commitments","type":"tuple[4]"},{"components":[{"internalType":"uint256","name":"X","type":"uint256"},{"internalType":"uint256","name":"Y","type":"uint256"}],"internalType":"struct PairingsBn254.G1Point","name":"lookup_selector_commitment","type":"tuple"},{"components":[{"internalType":"uint256","name":"X","type":"uint256"},{"internalType":"uint256","name":"Y","type":"uint256"}],"internalType":"struct PairingsBn254.G1Point[4]","name":"lookup_tables_commitments","type":"tuple[4]"},{"components":[{"internalType":"uint256","name":"X","type":"uint256"},{"internalType":"uint256","name":"Y","type":"uint256"}],"internalType":"struct PairingsBn254.G1Point","name":"lookup_table_type_commitment","type":"tuple"},{"components":[{"internalType":"uint256","name":"value","type":"uint256"}],"internalType":"struct PairingsBn254.Fr[3]","name":"non_residues","type":"tuple[3]"},{"components":[{"internalType":"uint256[2]","name":"X","type":"uint256[2]"},{"internalType":"uint256[2]","name":"Y","type":"uint256[2]"}],"internalType":"struct PairingsBn254.G2Point[2]","name":"g2_elements","type":"tuple[2]"}],"internalType":"struct VerificationKey","name":"vk","type":"tuple"},{"components":[{"internalType":"uint256[]","name":"input_values","type":"uint256[]"},{"components":[{"internalType":"uint256","name":"X","type":"uint256"},{"internalType":"uint256","name":"Y","type":"uint256"}],"internalType":"struct PairingsBn254.G1Point[4]","name":"state_polys_commitments","type":"tuple[4]"},{"components":[{"internalType":"uint256","name":"X","type":"uint256"},{"internalType":"uint256","name":"Y","type":"uint256"}],"internalType":"struct PairingsBn254.G1Point","name":"copy_permutation_grand_product_commitment","type":"tuple"},{"components":[{"internalType":"uint256","name":"X","type":"uint256"},{"internalType":"uint256","name":"Y","type":"uint256"}],"internalType":"struct PairingsBn254.G1Point[4]","name":"quotient_poly_parts_commitments","type":"tuple[4]"},{"components":[{"internalType":"uint256","name":"value","type":"uint256"}],"internalType":"struct PairingsBn254.Fr[4]","name":"state_polys_openings_at_z","type":"tuple[4]"},{"components":[{"internalType":"uint256","name":"value","type":"uint256"}],"internalType":"struct PairingsBn254.Fr[1]","name":"state_polys_openings_at_z_omega","type":"tuple[1]"},{"components":[{"internalType":"uint256","name":"value","type":"uint256"}],"internalType":"struct PairingsBn254.Fr[1]","name":"gate_selectors_openings_at_z","type":"tuple[1]"},{"components":[{"internalType":"uint256","name":"value","type":"uint256"}],"internalType":"struct PairingsBn254.Fr[3]","name":"copy_permutation_polys_openings_at_z","type":"tuple[3]"},{"components":[{"internalType":"uint256","name":"value","type":"uint256"}],"internalType":"struct PairingsBn254.Fr","name":"copy_permutation_grand_product_opening_at_z_omega","type":"tuple"},{"components":[{"internalType":"uint256","name":"value","type":"uint256"}],"internalType":"struct PairingsBn254.Fr","name":"quotient_poly_opening_at_z","type":"tuple"},{"components":[{"internalType":"uint256","name":"value","type":"uint256"}],"internalType":"struct PairingsBn254.Fr","name":"linearization_poly_opening_at_z","type":"tuple"},{"components":[{"internalType":"uint256","name":"X","type":"uint256"},{"internalType":"uint256","name":"Y","type":"uint256"}],"internalType":"struct PairingsBn254.G1Point","name":"lookup_s_poly_commitment","type":"tuple"},{"components":[{"internalType":"uint256","name":"X","type":"uint256"},{"internalType":"uint256","name":"Y","type":"uint256"}],"internalType":"struct PairingsBn254.G1Point","name":"lookup_grand_product_commitment","type":"tuple"},{"components":[{"internalType":"uint256","name":"value","type":"uint256"}],"internalType":"struct PairingsBn254.Fr","name":"lookup_s_poly_opening_at_z_omega","type":"tuple"},{"components":[{"internalType":"uint256","name":"value","type":"uint256"}],"internalType":"struct PairingsBn254.Fr","name":"lookup_grand_product_opening_at_z_omega","type":"tuple"},{"components":[{"internalType":"uint256","name":"value","type":"uint256"}],"internalType":"struct PairingsBn254.Fr","name":"lookup_t_poly_opening_at_z","type":"tuple"},{"components":[{"internalType":"uint256","name":"value","type":"uint256"}],"internalType":"struct PairingsBn254.Fr","name":"lookup_t_poly_opening_at_z_omega","type":"tuple"},{"components":[{"internalType":"uint256","name":"value","type":"uint256"}],"internalType":"struct PairingsBn254.Fr","name":"lookup_selector_poly_opening_at_z","type":"tuple"},{"components":[{"internalType":"uint256","name":"value","type":"uint256"}],"internalType":"struct PairingsBn254.Fr","name":"lookup_table_type_poly_opening_at_z","type":"tuple"},{"components":[{"internalType":"uint256","name":"X","type":"uint256"},{"internalType":"uint256","name":"Y","type":"uint256"}],"internalType":"struct PairingsBn254.G1Point","name":"opening_proof_at_z","type":"tuple"},{"components":[{"internalType":"uint256","name":"X","type":"uint256"},{"internalType":"uint256","name":"Y","type":"uint256"}],"internalType":"struct PairingsBn254.G1Point","name":"opening_proof_at_z_omega","type":"tuple"}],"internalType":"struct Plonk4VerifierWithAccessToDNext.Proof","name":"proof","type":"tuple"},{"components":[{"components":[{"internalType":"uint256","name":"value","type":"uint256"}],"internalType":"struct PairingsBn254.Fr","name":"zero","type":"tuple"},{"components":[{"internalType":"uint256","name":"value","type":"uint256"}],"internalType":"struct PairingsBn254.Fr","name":"alpha","type":"tuple"},{"components":[{"internalType":"uint256","name":"value","type":"uint256"}],"internalType":"struct PairingsBn254.Fr","name":"beta","type":"tuple"},{"components":[{"internalType":"uint256","name":"value","type":"uint256"}],"internalType":"struct PairingsBn254.Fr","name":"gamma","type":"tuple"},{"components":[{"internalType":"uint256","name":"value","type":"uint256"}],"internalType":"struct PairingsBn254.Fr[9]","name":"alpha_values","type":"tuple[9]"},{"components":[{"internalType":"uint256","name":"value","type":"uint256"}],"internalType":"struct PairingsBn254.Fr","name":"eta","type":"tuple"},{"components":[{"internalType":"uint256","name":"value","type":"uint256"}],"internalType":"struct PairingsBn254.Fr","name":"beta_lookup","type":"tuple"},{"components":[{"internalType":"uint256","name":"value","type":"uint256"}],"internalType":"struct PairingsBn254.Fr","name":"gamma_lookup","type":"tuple"},{"components":[{"internalType":"uint256","name":"value","type":"uint256"}],"internalType":"struct PairingsBn254.Fr","name":"beta_plus_one","type":"tuple"},{"components":[{"internalType":"uint256","name":"value","type":"uint256"}],"internalType":"struct PairingsBn254.Fr","name":"beta_gamma","type":"tuple"},{"components":[{"internalType":"uint256","name":"value","type":"uint256"}],"internalType":"struct PairingsBn254.Fr","name":"v","type":"tuple"},{"components":[{"internalType":"uint256","name":"value","type":"uint256"}],"internalType":"struct PairingsBn254.Fr","name":"u","type":"tuple"},{"components":[{"internalType":"uint256","name":"value","type":"uint256"}],"internalType":"struct PairingsBn254.Fr","name":"z","type":"tuple"},{"components":[{"internalType":"uint256","name":"value","type":"uint256"}],"internalType":"struct PairingsBn254.Fr","name":"z_omega","type":"tuple"},{"components":[{"internalType":"uint256","name":"value","type":"uint256"}],"internalType":"struct PairingsBn254.Fr","name":"z_minus_last_omega","type":"tuple"},{"components":[{"internalType":"uint256","name":"value","type":"uint256"}],"internalType":"struct PairingsBn254.Fr","name":"l_0_at_z","type":"tuple"},{"components":[{"internalType":"uint256","name":"value","type":"uint256"}],"internalType":"struct PairingsBn254.Fr","name":"l_n_minus_one_at_z","type":"tuple"},{"components":[{"internalType":"uint256","name":"value","type":"uint256"}],"internalType":"struct PairingsBn254.Fr","name":"t","type":"tuple"},{"components":[{"internalType":"uint256","name":"X","type":"uint256"},{"internalType":"uint256","name":"Y","type":"uint256"}],"internalType":"struct PairingsBn254.G1Point","name":"tp","type":"tuple"}],"internalType":"struct Plonk4VerifierWithAccessToDNext.PartialVerifierState","name":"state","type":"tuple"}],"name":"prepare_queries","outputs":[{"components":[{"components":[{"internalType":"uint256","name":"X","type":"uint256"},{"internalType":"uint256","name":"Y","type":"uint256"}],"internalType":"struct PairingsBn254.G1Point[13]","name":"commitments_at_z","type":"tuple[13]"},{"components":[{"internalType":"uint256","name":"value","type":"uint256"}],"internalType":"struct PairingsBn254.Fr[13]","name":"values_at_z","type":"tuple[13]"},{"components":[{"internalType":"uint256","name":"X","type":"uint256"},{"internalType":"uint256","name":"Y","type":"uint256"}],"internalType":"struct PairingsBn254.G1Point[6]","name":"commitments_at_z_omega","type":"tuple[6]"},{"components":[{"internalType":"uint256","name":"value","type":"uint256"}],"internalType":"struct PairingsBn254.Fr[6]","name":"values_at_z_omega","type":"tuple[6]"}],"internalType":"struct Plonk4VerifierWithAccessToDNext.Queries","name":"queries","type":"tuple"}],"stateMutability":"view","type":"function"},{"inputs":[{"components":[{"internalType":"uint256","name":"domain_size","type":"uint256"},{"internalType":"uint256","name":"num_inputs","type":"uint256"},{"components":[{"internalType":"uint256","name":"value","type":"uint256"}],"internalType":"struct PairingsBn254.Fr","name":"omega","type":"tuple"},{"components":[{"internalType":"uint256","name":"X","type":"uint256"},{"internalType":"uint256","name":"Y","type":"uint256"}],"internalType":"struct PairingsBn254.G1Point[2]","name":"gate_selectors_commitments","type":"tuple[2]"},{"components":[{"internalType":"uint256","name":"X","type":"uint256"},{"internalType":"uint256","name":"Y","type":"uint256"}],"internalType":"struct PairingsBn254.G1Point[8]","name":"gate_setup_commitments","type":"tuple[8]"},{"components":[{"internalType":"uint256","name":"X","type":"uint256"},{"internalType":"uint256","name":"Y","type":"uint256"}],"internalType":"struct PairingsBn254.G1Point[4]","name":"permutation_commitments","type":"tuple[4]"},{"components":[{"internalType":"uint256","name":"X","type":"uint256"},{"internalType":"uint256","name":"Y","type":"uint256"}],"internalType":"struct PairingsBn254.G1Point","name":"lookup_selector_commitment","type":"tuple"},{"components":[{"internalType":"uint256","name":"X","type":"uint256"},{"internalType":"uint256","name":"Y","type":"uint256"}],"internalType":"struct PairingsBn254.G1Point[4]","name":"lookup_tables_commitments","type":"tuple[4]"},{"components":[{"internalType":"uint256","name":"X","type":"uint256"},{"internalType":"uint256","name":"Y","type":"uint256"}],"internalType":"struct PairingsBn254.G1Point","name":"lookup_table_type_commitment","type":"tuple"},{"components":[{"internalType":"uint256","name":"value","type":"uint256"}],"internalType":"struct PairingsBn254.Fr[3]","name":"non_residues","type":"tuple[3]"},{"components":[{"internalType":"uint256[2]","name":"X","type":"uint256[2]"},{"internalType":"uint256[2]","name":"Y","type":"uint256[2]"}],"internalType":"struct PairingsBn254.G2Point[2]","name":"g2_elements","type":"tuple[2]"}],"internalType":"struct VerificationKey","name":"vk","type":"tuple"},{"components":[{"internalType":"uint256[]","name":"input_values","type":"uint256[]"},{"components":[{"internalType":"uint256","name":"X","type":"uint256"},{"internalType":"uint256","name":"Y","type":"uint256"}],"internalType":"struct PairingsBn254.G1Point[4]","name":"state_polys_commitments","type":"tuple[4]"},{"components":[{"internalType":"uint256","name":"X","type":"uint256"},{"internalType":"uint256","name":"Y","type":"uint256"}],"internalType":"struct PairingsBn254.G1Point","name":"copy_permutation_grand_product_commitment","type":"tuple"},{"components":[{"internalType":"uint256","name":"X","type":"uint256"},{"internalType":"uint256","name":"Y","type":"uint256"}],"internalType":"struct PairingsBn254.G1Point[4]","name":"quotient_poly_parts_commitments","type":"tuple[4]"},{"components":[{"internalType":"uint256","name":"value","type":"uint256"}],"internalType":"struct PairingsBn254.Fr[4]","name":"state_polys_openings_at_z","type":"tuple[4]"},{"components":[{"internalType":"uint256","name":"value","type":"uint256"}],"internalType":"struct PairingsBn254.Fr[1]","name":"state_polys_openings_at_z_omega","type":"tuple[1]"},{"components":[{"internalType":"uint256","name":"value","type":"uint256"}],"internalType":"struct PairingsBn254.Fr[1]","name":"gate_selectors_openings_at_z","type":"tuple[1]"},{"components":[{"internalType":"uint256","name":"value","type":"uint256"}],"internalType":"struct PairingsBn254.Fr[3]","name":"copy_permutation_polys_openings_at_z","type":"tuple[3]"},{"components":[{"internalType":"uint256","name":"value","type":"uint256"}],"internalType":"struct PairingsBn254.Fr","name":"copy_permutation_grand_product_opening_at_z_omega","type":"tuple"},{"components":[{"internalType":"uint256","name":"value","type":"uint256"}],"internalType":"struct PairingsBn254.Fr","name":"quotient_poly_opening_at_z","type":"tuple"},{"components":[{"internalType":"uint256","name":"value","type":"uint256"}],"internalType":"struct PairingsBn254.Fr","name":"linearization_poly_opening_at_z","type":"tuple"},{"components":[{"internalType":"uint256","name":"X","type":"uint256"},{"internalType":"uint256","name":"Y","type":"uint256"}],"internalType":"struct PairingsBn254.G1Point","name":"lookup_s_poly_commitment","type":"tuple"},{"components":[{"internalType":"uint256","name":"X","type":"uint256"},{"internalType":"uint256","name":"Y","type":"uint256"}],"internalType":"struct PairingsBn254.G1Point","name":"lookup_grand_product_commitment","type":"tuple"},{"components":[{"internalType":"uint256","name":"value","type":"uint256"}],"internalType":"struct PairingsBn254.Fr","name":"lookup_s_poly_opening_at_z_omega","type":"tuple"},{"components":[{"internalType":"uint256","name":"value","type":"uint256"}],"internalType":"struct PairingsBn254.Fr","name":"lookup_grand_product_opening_at_z_omega","type":"tuple"},{"components":[{"internalType":"uint256","name":"value","type":"uint256"}],"internalType":"struct PairingsBn254.Fr","name":"lookup_t_poly_opening_at_z","type":"tuple"},{"components":[{"internalType":"uint256","name":"value","type":"uint256"}],"internalType":"struct PairingsBn254.Fr","name":"lookup_t_poly_opening_at_z_omega","type":"tuple"},{"components":[{"internalType":"uint256","name":"value","type":"uint256"}],"internalType":"struct PairingsBn254.Fr","name":"lookup_selector_poly_opening_at_z","type":"tuple"},{"components":[{"internalType":"uint256","name":"value","type":"uint256"}],"internalType":"struct PairingsBn254.Fr","name":"lookup_table_type_poly_opening_at_z","type":"tuple"},{"components":[{"internalType":"uint256","name":"X","type":"uint256"},{"internalType":"uint256","name":"Y","type":"uint256"}],"internalType":"struct PairingsBn254.G1Point","name":"opening_proof_at_z","type":"tuple"},{"components":[{"internalType":"uint256","name":"X","type":"uint256"},{"internalType":"uint256","name":"Y","type":"uint256"}],"internalType":"struct PairingsBn254.G1Point","name":"opening_proof_at_z_omega","type":"tuple"}],"internalType":"struct Plonk4VerifierWithAccessToDNext.Proof","name":"proof","type":"tuple"},{"components":[{"components":[{"internalType":"uint256","name":"value","type":"uint256"}],"internalType":"struct PairingsBn254.Fr","name":"zero","type":"tuple"},{"components":[{"internalType":"uint256","name":"value","type":"uint256"}],"internalType":"struct PairingsBn254.Fr","name":"alpha","type":"tuple"},{"components":[{"internalType":"uint256","name":"value","type":"uint256"}],"internalType":"struct PairingsBn254.Fr","name":"beta","type":"tuple"},{"components":[{"internalType":"uint256","name":"value","type":"uint256"}],"internalType":"struct PairingsBn254.Fr","name":"gamma","type":"tuple"},{"components":[{"internalType":"uint256","name":"value","type":"uint256"}],"internalType":"struct PairingsBn254.Fr[9]","name":"alpha_values","type":"tuple[9]"},{"components":[{"internalType":"uint256","name":"value","type":"uint256"}],"internalType":"struct PairingsBn254.Fr","name":"eta","type":"tuple"},{"components":[{"internalType":"uint256","name":"value","type":"uint256"}],"internalType":"struct PairingsBn254.Fr","name":"beta_lookup","type":"tuple"},{"components":[{"internalType":"uint256","name":"value","type":"uint256"}],"internalType":"struct PairingsBn254.Fr","name":"gamma_lookup","type":"tuple"},{"components":[{"internalType":"uint256","name":"value","type":"uint256"}],"internalType":"struct PairingsBn254.Fr","name":"beta_plus_one","type":"tuple"},{"components":[{"internalType":"uint256","name":"value","type":"uint256"}],"internalType":"struct PairingsBn254.Fr","name":"beta_gamma","type":"tuple"},{"components":[{"internalType":"uint256","name":"value","type":"uint256"}],"internalType":"struct PairingsBn254.Fr","name":"v","type":"tuple"},{"components":[{"internalType":"uint256","name":"value","type":"uint256"}],"internalType":"struct PairingsBn254.Fr","name":"u","type":"tuple"},{"components":[{"internalType":"uint256","name":"value","type":"uint256"}],"internalType":"struct PairingsBn254.Fr","name":"z","type":"tuple"},{"components":[{"internalType":"uint256","name":"value","type":"uint256"}],"internalType":"struct PairingsBn254.Fr","name":"z_omega","type":"tuple"},{"components":[{"internalType":"uint256","name":"value","type":"uint256"}],"internalType":"struct PairingsBn254.Fr","name":"z_minus_last_omega","type":"tuple"},{"components":[{"internalType":"uint256","name":"value","type":"uint256"}],"internalType":"struct PairingsBn254.Fr","name":"l_0_at_z","type":"tuple"},{"components":[{"internalType":"uint256","name":"value","type":"uint256"}],"internalType":"struct PairingsBn254.Fr","name":"l_n_minus_one_at_z","type":"tuple"},{"components":[{"internalType":"uint256","name":"value","type":"uint256"}],"internalType":"struct PairingsBn254.Fr","name":"t","type":"tuple"},{"components":[{"internalType":"uint256","name":"X","type":"uint256"},{"internalType":"uint256","name":"Y","type":"uint256"}],"internalType":"struct PairingsBn254.G1Point","name":"tp","type":"tuple"}],"internalType":"struct Plonk4VerifierWithAccessToDNext.PartialVerifierState","name":"state","type":"tuple"}],"name":"rescue_custom_gate_linearization_contribution","outputs":[{"components":[{"internalType":"uint256","name":"X","type":"uint256"},{"internalType":"uint256","name":"Y","type":"uint256"}],"internalType":"struct PairingsBn254.G1Point","name":"result","type":"tuple"}],"stateMutability":"view","type":"function"},{"inputs":[{"internalType":"uint256[]","name":"public_inputs","type":"uint256[]"},{"internalType":"uint256[]","name":"serialized_proof","type":"uint256[]"}],"name":"verify_serialized_proof","outputs":[{"internalType":"bool","name":"","type":"bool"}],"stateMutability":"view","type":"function"}],"evm":{"bytecode":{"linkReferences":{},"object":"608060405234801561001057600080fd5b50614948806100206000396000f3fe608060405234801561001057600080fd5b50600436106100575760003560e01c8063330deb9f1461005c5780633ec236cb14610084578063bd5794e2146100a4578063c2ef6041146100b9578063fec4e96e146100d9575b600080fd5b61006f61006a366004613ac8565b6100ee565b60405190151581526020015b60405180910390f35b6100976100923660046143e2565b610131565b60405161007b919061450c565b6100ac610286565b60405161007b919061465b565b6100cc6100c73660046143e2565b610ae4565b60405161007b919061478e565b6100ec6100e7366004614828565b610e48565b005b6000806100f9610286565b6020810151909150851461010c57600080fd5b600061011a87878787610ef6565b9050610126818361134e565b979650505050505050565b6040805180820190915260008082526020820152604080516020810190915260008152604080516020810190915260008152608085015161018a9060005b60200201516040805160208101909152600081529051815290565b91506101968280611633565b60808501516101ae9060015b6020020151839061164d565b60808401516101c69060015b60200201518390611633565b6101d0818361167f565b60808501516101e090600161016f565b91506101ec8280611633565b60808501516101fc9060026101a2565b608084015161020c9060026101ba565b610216818361167f565b608085015161022690600261016f565b60808601519092506102399060006101ba565b60808501516102499060036101a2565b60808401516102599060036101ba565b610263818361167f565b606086015161027c90829060015b602002015190611699565b9695505050505050565b61028e613355565b60016020820152630400000081526102c57f1dba8b5bdd64ef6ce29a9039aca3c0e524395c43b9227b96c75090cc6cc7ec976116d8565b60408201526103147f08fa9d6f0dd6ac1cbeb94ae20fe7a23df05cb1095df66fb561190e615a4037ef7f196dcc8692fe322d21375920559944c12ba7b1ba8b732344cf4ba2e3aa0fc8b4611713565b6080820151526103637e74aaf5d97bd57551311a8b3e4aa7840bc55896502020b2f43ad6a98d81a4437f2d275a3ad153dc9d89ebb9c9b6a0afd2dde82470554e9738d905c328fbb4c8bc611713565b6080820151602001526103b67f287f1975a9aeaef5d2bb0767b5ef538f76e82f7da01c0cb6db8c6f920818ec4f7f2fff6f53594129f794a7731d963d27e72f385c5c6d8e08829e6f66a9d29a12ea611713565b6080820151604001526104097f038809fa3d4b7320d43e023454194f0a7878baa7e73a295d2d105260f1c34cbc7f25418b1105cf45b2a3da6c349bab1d9caaf145eaf24d1e8fb92c11654c000781611713565b60808201516060015261045c7f0561cafd527ac3f0bc550db77d87cd1c63938f7ec051e62ebf84a5bbe07f98407f28f87201b4cbe19f1517a1c29ca6d6cb074502ccfed4c31c8931c6992c3eea43611713565b60808281015101526104ae7f27e0af572bac6e36d31c33808cb44c0ef8ceee5e2850e916fb01f3747db724917f1da20087ba61c59366b21e31e4ac6889d357cf11bf16b94d875f94f41525c427611713565b608082015160a001526105017f2c2bcafea8f93d07f96874f470985a8d272c09c8ed49373f36497ee80bd8da177f299276cf6dca1a7e3780f6276c5d067403f6e024e83e0cc1ab4c5f7252b7f653611713565b608082015160c001526105547f0ba9d4a53e050da25b8410045b634f1ca065ff74acd35bab1a72bf1f20047ef37f1f1eefc8b0507a08f852f554bd7abcbd506e52de390ca127477a678d212abfe5611713565b608082015160e001526105a77f1c6b68d9920620012d85a4850dad9bd6d03ae8bbc7a08b827199e85dba1ef2b17f0f6380560d1b585628ed259289cec19d3a7c70c60e66bbfebfcb70c8c312d91e611713565b6060820151526105f67f0dfead780e5067181aae631ff734a33fca302773472997daca58ba49dbd20dcc7ef13fa6e356f525d2fd1c533acf2858c0d2b9f0a9b3180f94e1543929c75073611713565b6060820151602001526106497f1df0747c787934650d99c5696f9273088ad07ec3e0825c9d39685a9b9978ebed7f2ace2a277becbc69af4e89518eb50960a733d9d71354845ea43d2e65c8e0e4cb611713565b60a0820151526106997f06598c8236a5f5045cd7444dc87f3e1f66f99bf01251e13be4dc0ab1f7f1af4b7f14ca234fe9b3bb1e5517fc60d6b90f8ad44b0899a2d4f71a64c9640b3142ce8b611713565b60a0820151602001526106ec7f01889e2c684caefde60471748f4259196ecf4209a735ccdf7b1816f05bafa50a7f092d287a080bfe2fd40ad392ff290e462cd0e347b8fd9d05b90af234ce77a11b611713565b60a08201516040015261073f7f0dd98eeb5bc12c221da969398b67750a8774dbdd37a78da52367f9fc0e566d5c7f06750ceb40c9fb87fc424df9599340938b7552b759914a90cb0e41d3915c945b611713565b60a0820151606001526107927f2f491c662ae53ceb358f57a868dc00b89befa853bd9a449127ea2d46820995bd7f231fe6538634ff8b6fa21ca248fb15e7f43d82eb0bfa705490d24ddb3e3cad77611713565b60c08201526107e17f0ebe0de4a2f39df3b903da484c1641ffdffb77ff87ce4f9508c548659eb22d3c7f12a3209440242d5662729558f1017ed9dcc08fe49a99554dd45f5f15da5e4e0b611713565b60e0820151526108317f1b7d54f8065ca63bed0bfbb9280a1011b886d07e0c0a26a66ecc96af68c53bf97f2c51121fff5b8f58c302f03c74e0cb176ae5a1d1730dec4696eb9cce3fe284ca611713565b60e0820151602001526108847f0138733c5faa9db6d4b8df9748081e38405999e511fb22d40f77cf3aef293c447f269bee1c1ac28053238f7fe789f1ea2e481742d6d16ae78ed81e87c254af0765611713565b60e0820151604001526108d77f1b1be7279d59445065a95f01f16686adfa798ec4f1e6845ffcec9b837e88372e7f057c90cb96d8259238ed86b05f629efd55f472a721efeeb56926e979433e6c0e611713565b60e08201516060015261092a7f12cd873a6f18a4a590a846d9ebf61565197edf457efd26bc408eb61b72f37b597f19890cbdac892682e7a5910ca6c238c082130e1c71f33d0c9c901153377770d1611713565b61010082015261093a60056116d8565b6101208201515261094b60076116d8565b6101208201516020015261095f600a6116d8565b61012082015160026020020181905250610a2160405180604001604052807f198e9393920d483a7260bfb731fb5d25f1aa493335a9e71297e485b7aef312c281526020017f1800deef121f1e76426a00665e5c4479674322d4f75edadd46debd5cd992f6ed81525060405180604001604052807f090689d0585ff075ec9e99ad690c3395bc4b313370b38ef355acdadcd122975b81526020017f12c85ea5db8c6deb4aab71808dcb408fe3d1e7690c43d37b4ce6cc0166fa7daa81525061173e565b610140820151526040805180820182527f260e01b251f6f1c7e7ff4e580791dee8ea51d87a358e038b4efe30fac09383c181527f0118c4d5b837bcc2bc89b5b398b5974e9f5944073b32078b7e231fec938883b060208281019190915282518084019093527f04fc6369f7110fe3d25156c1bb9a72859cf2a04641f99ba4ee413c80da6a5fe483527f22febda3c0c0632a56475b4214e5615e11e6dd3f96e6cea2854a87d4dacc5e5590830152610ad79161173e565b6101408201516020015290565b610aec61341c565b600260005b6004811015610b6f5784602001518160048110610b1057610b1061484c565b6020020151835183600d8110610b2857610b2861484c565b602002015260808501518160048110610b4357610b4361484c565b6020020151836020015183600d8110610b5e57610b5e61484c565b602002015260019182019101610af1565b50606085015151825182600d8110610b8957610b8961484c565b602002015260c084015160006020020151826020015182600d8110610bb057610bb061484c565b602002015260010160005b610bc760016004614878565b811015610c43578560a001518160048110610be457610be461484c565b6020020151835183600d8110610bfc57610bfc61484c565b602002015260e08501518160038110610c1757610c1761484c565b6020020151836020015183600d8110610c3257610c3261484c565b602002015260019182019101610bbb565b5060408481015190830151526020840151610c6060016004614878565b60048110610c7057610c7061484c565b6020908102919091015160408401518201526101008501516060840180519190915260a0808701515191519092015260e08601515190840151600090610cc6906040805160208101909152600081529051815290565b905060015b6004811015610d1957610cee828960e0015183600481106102715761027161484c565b6102408701819052610d01908490611746565b60a0860151610d11908390611633565b600101610ccb565b508351829084600d8110610d2f57610d2f61484c565b6020020181905250856101e00151846020015184600d8110610d5357610d5361484c565b602002015260c087015184516001949094019384600d8110610d7757610d7761484c565b6020020181905250856102200151846020015184600d8110610d9b57610d9b61484c565b602002015261010087015184516001949094019384600d8110610dc057610dc061484c565b6020020181905250856102400151846020015184600d8110610de457610de461484c565b602002015250610160850151604084810180518201929092526101a0870151606080870180519093019190915261018088015183518201526101c0880151825190910152905160809081019290925261020090950151945101939093529392505050565b602081015151600003610e5a57600080fd5b610e6460016116d8565b608082018051919091526020808301805160408051808501825260008082529251815294518401949094529051835192830190935281529051815260025b6009811015610ef1576020830151610ebb908390611633565b6040805160208101909152600081528251815283608001518260098110610ee457610ee461484c565b6020020152600101610ea2565b505050565b610efe613456565b602c8214610f0b57600080fd5b836001600160401b03811115610f2357610f23613b33565b604051908082528060200260200182016040528015610f4c578160200160208202803683370190505b50815260005b84811015610f9c57858582818110610f6c57610f6c61484c565b9050602002013582600001518281518110610f8957610f8961484c565b6020908102919091010152600101610f52565b506000805b600481101561101657610fed858584818110610fbf57610fbf61484c565b905060200201358686610fd28660010190565b818110610fe157610fe161484c565b90506020020135611755565b836020015182600481106110035761100361484c565b6020020152600282019150600101610fa1565b5061103f84848381811061102c5761102c61484c565b905060200201358585610fd28560010190565b604083015260020161105c84848381811061102c5761102c61484c565b61016083015260020161107a84848381811061102c5761102c61484c565b61018083015260020160005b60048110156110cd576110a4858584818110610fbf57610fbf61484c565b836060015182600481106110ba576110ba61484c565b6020020152600282019150600101611086565b5060005b6004811015611122576110fb8585848181106110ef576110ef61484c565b905060200201356116d8565b836080015182600481106111115761111161484c565b6020020152600191820191016110d1565b5060005b600181101561116b576111448585848181106110ef576110ef61484c565b8360a00151826001811061115a5761115a61484c565b602002015260019182019101611126565b5060005b60018110156111b45761118d8585848181106110ef576110ef61484c565b8360c0015182600181106111a3576111a361484c565b60200201526001918201910161116f565b5060005b60038110156111fd576111d68585848181106110ef576110ef61484c565b8360e0015182600381106111ec576111ec61484c565b6020020152600191820191016111b8565b506112138484838181106110ef576110ef61484c565b6101008301526001016112318484838181106110ef576110ef61484c565b6101a083015260010161124f8484838181106110ef576110ef61484c565b6101c083015260010161126d8484838181106110ef576110ef61484c565b6101e083015260010161128b8484838181106110ef576110ef61484c565b6102008301526001016112a98484838181106110ef576110ef61484c565b6102208301526001016112c78484838181106110ef576110ef61484c565b6102408301526001016112e58484838181106110ef576110ef61484c565b6101208301526001016113038484838181106110ef576110ef61484c565b61014083015260010161132184848381811061102c5761102c61484c565b61026083015260020161133f84848381811061102c5761102c61484c565b61028083015250949350505050565b60008061135b84846118ed565b9050611368838583611c26565b151560000361137b57600091505061162d565b60608401516000906113b490825b6020020151604080518082019091526000808252602080830191825283518352929092015190915290565b84516101808401519192506000916113cb91611f30565b604080516020808201835260008083528451835283518085019094528084529083015291925060015b600481101561143e57611416896060015182600481106113895761138961484c565b91506114228284611faf565b61142c8583611746565b6114368385611633565b6001016113f4565b50505050600061144f858785610ae4565b8051839052610120870151602082015152905061146d858785611fba565b8151602090810191909152610140870151818301805190920152815151905151600061149960016116d8565b90506114b8604051806040016040528060008152602001600081525090565b60015b600d811015611541576101408801516114d5908490611633565b6114ef83876000015183600d81106102715761027161484c565b91506114fb8583611746565b856020015181600d81106115115761151161484c565b602002015161022089018190526115289084611633565b61022088015161153990859061167f565b6001016114bb565b50610140870151611553908390611633565b60006115708387604001516000600681106102715761027161484c565b6060870151519091506115838185611633565b60015b600681101561160c576101408a01516115a0908690611633565b6115ba85896040015183600681106102715761027161484c565b93506115c68385611746565b876060015181600681106115dc576115dc61484c565b60200201516102208b018190526115f39086611633565b6102208a015161160490839061167f565b600101611586565b506116218b61014001518d8b89868a8761240c565b99505050505050505050505b92915050565b6000805160206148f3833981519152815183510990915250565b6000805160206148f38339815191528151611676906000805160206148f3833981519152614878565b83510890915250565b6000805160206148f3833981519152815183510890915250565b604080518082019091526000808252602082015282511580156116c0575082602001516001145b156116cd57600060208401525b61162d8383836125a7565b6040805160208101909152600081526000805160206148f3833981519152821061170157600080fd5b50604080516020810190915290815290565b60408051808201909152600080825260208201525b5060408051808201909152918252602082015290565b611728613664565b6117518282846125e9565b5050565b604080518082019091526000808252602082015282158015611775575081155b1561179657604051806040016040528084815260200183815250905061162d565b6000805160206148d383398151915283106117ed5760405162461bcd60e51b81526020600482015260126024820152711e08185e1a5cc81a5cdb89dd081d985b1a5960721b60448201526064015b60405180910390fd5b6000805160206148d3833981519152821061183f5760405162461bcd60e51b81526020600482015260126024820152711e48185e1a5cc81a5cdb89dd081d985b1a5960721b60448201526064016117e4565b60006000805160206148d3833981519152838409905060006000805160206148d383398151915285860990506000805160206148d383398151915285820990506000805160206148d38339815191526003820890508082146118d55760405162461bcd60e51b815260206004820152600f60248201526e6973206e6f74206f6e20637572766560881b60448201526064016117e4565b50506040805180820190915292835250602082015290565b6118f5613684565b60408051606081018252600080825260208201819052918101829052905b83602001518110156119575761194f856000015182815181106119385761193861484c565b60200260200101518361267990919063ffffffff16565b600101611913565b5060005b6004811015611991576119898560200151826004811061197d5761197d61484c565b60200201518390612707565b60010161195b565b5061199b81612723565b60a08301526101608401516119b1908290612707565b6119ba81612723565b60408301526119c881612723565b606083015260408401516119dd908290612707565b6119e681612723565b60c08301526119f481612723565b60e0830152610180840151611a0a908290612707565b611a1381612723565b602083015260005b6004811015611a4557611a3d8560600151826004811061197d5761197d61484c565b600101611a1b565b50611a4f81612723565b610180830152610120840151611a669082906127c9565b60005b6004811015611a9f57611a9785608001518260048110611a8b57611a8b61484c565b602002015183906127c9565b600101611a69565b5060005b6001811015611acd57611ac58560a001518260018110611a8b57611a8b61484c565b600101611aa3565b5060005b6001811015611afb57611af38560c001518260018110611a8b57611a8b61484c565b600101611ad1565b5060005b6003811015611b2957611b218560e001518260038110611a8b57611a8b61484c565b600101611aff565b506101808201516040805160208101825260008152915182526101a08401829052840151611b579190611633565b610100840151611b689082906127c9565b6101e0840151611b799082906127c9565b610220840151611b8a9082906127c9565b610240840151611b9b9082906127c9565b6101a0840151611bac9082906127c9565b6101c0840151611bbd9082906127c9565b610200840151611bce9082906127c9565b610140840151611bdf9082906127c9565b611be881612723565b610140830152610260840151611bff908290612707565b610280840151611c10908290612707565b611c1981612723565b6101608301525092915050565b60008084602001516001600160401b03811115611c4557611c45613b33565b604051908082528060200260200182016040528015611c6e578160200160208202803683370190505b50905060005b8151811015611ca35780828281518110611c9057611c9061484c565b6020908102919091010152600101611c74565b506000856020015111611cb557600080fd5b6000611cc160006116d8565b905060005b8660200151811015611d3f57611ceb81886000015189604001518861018001516127d7565b61022086015285518051611d2691611d1a9184908110611d0d57611d0d61484c565b60200260200101516116d8565b61022087015190611633565b610220850151611d3790839061167f565b600101611cc6565b5060c0850151611d589060005b60200201518290611633565b61014085015160408051602081019091526000815290518152611d7b818361167f565b611d8485610e48565b6080850151600090611d9790600461016f565b9050611db18761010001518261163390919063ffffffff16565b611dbd60016004614878565b600314611dc957600080fd5b60408051602081019091526000815260005b6003811015611e5d57611dfd8960e00151826003811061016f5761016f61484c565b9150611e1688604001518361163390919063ffffffff16565b611e3b89608001518260048110611e2f57611e2f61484c565b6020020151839061167f565b6060880151611e4b90839061167f565b611e558383611633565b600101611ddb565b506080880151611e6e90600361016f565b9050611e8787606001518261167f90919063ffffffff16565b611e918282611633565b611e9b838361164d565b6000611eb08a60000151896101800151612885565b6080890151909150611ec3906005611d4c565b611ecd848261164d565b6000611eda8b8b8b61290b565b9050611ee6858261167f565b6101208a0151604080516020810190915260008152905181528b516101808b0151611f1b91611f1491612b5b565b8290611633565b945194519094149a9950505050505050505050565b604080516020808201835260008252825160c0810184528181528082018290529283015283516060830152608082018390526000805160206148f383398151915260a083015290611f7f613838565b600060208260c08560055afa905080611f9757600080fd5b50604080516020810190915290518152949350505050565b6117518282846125a7565b6040805180820190915260008082526020820152611fd9600080611713565b905060006120088460800151600060048110611ff757611ff761484c565b602002015160808701516000610271565b90506120148282611746565b6080840151612030906001602002015160808701516001610271565b905061203c8282611746565b6080840151612058906002602002015160808701516002610271565b90506120648282611746565b6080840151612080906003602002015160808701516003610271565b905061208c8282611746565b608084015160009061209e908261016f565b60808601519091506120b1906001611d4c565b60808601516120c39082906004610271565b91506120cf8383611746565b60808501516120df90600061016f565b60808601519091506120f2906002611d4c565b60808601516121049082906005610271565b91506121108383611746565b608086015160c00151612124908490611746565b60a085015151608087015161213b91906007610271565b91506121478383611746565b60c085015151612158908490611faf565b6000612165878787610131565b90506121718482611746565b61217d60016004614878565b60031461218957600080fd5b600061219560016116d8565b905060006121b3876080015160046009811061016f5761016f61484c565b905060005b600481101561227b57610180880151604080516020810190915260008152905181529450806000036121f3576121ee8584611633565b612224565b6101208a015161222490612208600184614878565b600381106122185761221861484c565b60200201518690611633565b6040880151612234908690611633565b606088015161224490869061167f565b6122698960800151826004811061225d5761225d61484c565b6020020151869061167f565b6122738286611633565b6001016121b8565b50604088015161228b9082611699565b94506122978686611746565b60808701516122a790600461016f565b90506122c087604001518261163390919063ffffffff16565b6101008801516122d1908290611633565b60005b6122e060016004614878565b811015612354576123008960e00151826003811061016f5761016f61484c565b945061231988604001518661163390919063ffffffff16565b606088015161232990869061167f565b6123428960800151826004811061225d5761225d61484c565b61234c8286611633565b6001016122d4565b5060a08901516123679082906003610271565b94506123738686612b8a565b61238d60008a600001518b604001518a61018001516127d7565b6101e08801819052516000036123a257600080fd5b506101e08601516040805160208101909152600081529051815260808701516123cc906005611d4c565b60408801516123db9082611699565b94506123e78686611746565b60006123f38989612b95565b90506123ff8782611746565b5050505050509392505050565b6040805180820190915260008082526020808301828152875184529087015190529061244687610160015186611faf90919063ffffffff16565b6124508186611746565b60408051602081019091526000815283518152610160880151612474908290611633565b61247e818661167f565b60006124b6826124b0604080518082018252600080825260209182015281518083019092526001825260029082015290565b90611699565b90506124c28382612b8a565b6101808901516102608b01516124d791611699565b905060006124fa8a6101a001516040805160208101909152600081529051815290565b90506125148a61016001518261163390919063ffffffff16565b6102808b01516000906125279083611699565b90506125338382611746565b61253d8584611746565b600061255c8c61016001518e610280015161169990919063ffffffff16565b90506125768d61026001518261174690919063ffffffff16565b61257f81612e63565b8d5160208f015161259288838584612ea3565b98505050505050505050979650505050505050565b6125af613856565b835181526020840151816001602002015282518160026020020152600060408360608460075afa9050806125e257600080fd5b5050505050565b81511580156125fa57506020820151155b15612612578251815260209283015192019190915250565b825115801561262357506020830151155b15612638578151815260209182015191015250565b612640613874565b8351815260208085015181830152835160408301528301518160035b6020020152600060408360808460065afa9050806125e257600080fd5b81516020808401516040516000928101929092526024820183905260448201526064810183905260840160408051808303601f1901815291815281516020928301208552848201519051600160e01b928101929092526024820183905260448201526064810183905260840160408051601f1981840301815291905280516020918201209301929092525050565b612715828260000151612679565b611751828260200151612679565b60408051602081019091526000815281516020808401516040808601519051600160e11b938101939093526024830193909352604482015260e09190911b6001600160e01b03191660648201526000906068016040516020818303038152906040528051906020012090506001836040018181516127a1919061488b565b63ffffffff1690525060408051602081019091526001600160fd1b0391909116815292915050565b611751828260000151612679565b6040805160208101909152600081528385106127f257600080fd5b60006127fe60016116d8565b9050600061280c8588611f30565b90506128188487611f30565b9250612824838361164d565b825160000361283257600080fd5b61283c8382611633565b60408051602081019091526000815284518152612859818361164d565b612865611f14886116d8565b61286e81612fa3565b905061287a8482611633565b505050949350505050565b60408051602081019091526000815260006128a060016116d8565b905060006128ad856116d8565b604080516020810190915260008152855181529091506128cd818461164d565b6128d78183611633565b6128e081612fa3565b90506128ec8587611f30565b93506128f8848461164d565b6129028482611633565b50505092915050565b604080516020810190915260008152604080516020810190915260008152600061293560016116d8565b90506129558460c001516040805160208101909152600081529051815290565b6101008501819052612967908261167f565b61010084015160408051602081019091526000815290518152610120850181905260e08501516129979190611633565b6101a08501516040805160208101909152600081529051815291506129c98460c001518361163390919063ffffffff16565b6101208401516129da90839061167f565b6101c08501516129eb908390611633565b60808401516129fb9060066101ba565b6000612a1c60018860000151612a119190614878565b604089015190611f30565b9050612a3d8561018001516040805160208101909152600081529051815290565b6101c08601819052612a4f908261164d565b6101c0850151612a60908490611633565b612a6a848461167f565b612a846000886000015189604001518861018001516127d7565b6101e0860181905260408051602081019091526000815290518152608086015160e00151909350612ab6908490611633565b612ac0848461164d565b6000612ae260018960000151612ad69190614878565b61012088015190611f30565b9050612b0a60018960000151612af89190614878565b895160408b01516101808a01516127d7565b6102008701819052604080516020810190915260008152905181529350612b318482611633565b60808601516101000151612b46908590611633565b612b50858561164d565b505050509392505050565b604080516020810190915260008152612b748284611f30565b905061162d612b8360016116d8565b829061164d565b611751828284612fe2565b60408051808201909152600080825260208201526000612bb560006116d8565b9050612bcd6040518060200160405280600081525090565b60408051602080820183526000918290526101c08801518351918201909352908152905181526080850151612c03906006611d4c565b6101c0850151612c14908290611633565b610160860151600090612c279083611699565b9050612c338582611746565b610200870151604080516020810190915260008152905181529150612c658660c001518361163390919063ffffffff16565b6101e0870151612c7690839061167f565b610120860151612c8790839061167f565b6040805160208101909152600081526000612ca260016116d8565b9050612cba6040518060200160405280600081525090565b60005b612cc960016004614878565b811015612d1757612ce98b60800151826004811061016f5761016f61484c565b9150612cf58284611633565b612cff848361167f565b60a08a0151612d0f908490611633565b600101612cbd565b506102408a0151604080516020810190915260008152905181529550612d3d8683611633565b612d47838761167f565b6102208a0151612d58908490611633565b60e0890151612d6890849061167f565b612d728584611633565b610100890151612d83908690611633565b604080516020810190915260008152875181529550612da2868661164d565b6080890151869550612db5906006612218565b6101c0890151612dc6908690611633565b6101e08901516040805160208101909152600081529051815260808a0151909650612dfa9060075b60200201518790611633565b612e04858761167f565b6102008901516040805160208101909152600081529051815260808a0151909650612e30906008612dee565b612e3a858761167f565b6101808a0151612e4a9086611699565b9350612e568885611746565b5050505050505092915050565b8060200151600003612e7e57805115612e7b57600080fd5b50565b6020810151612e9b906000805160206148d3833981519152614878565b602090910152565b60408051600280825260608201909252600091829190816020015b6040805180820190915260008082526020820152815260200190600190039081612ebe5750506040805160028082526060820190925291925060009190602082015b612f08613664565b815260200190600190039081612f005790505090508682600081518110612f3157612f3161484c565b60200260200101819052508482600181518110612f5057612f5061484c565b60200260200101819052508581600081518110612f6f57612f6f61484c565b60200260200101819052508381600181518110612f8e57612f8e61484c565b6020026020010181905250610126828261308c565b6040805160208101909152600081528151600003612fc057600080fd5b61162d82612fdd60026000805160206148f3833981519152614878565b611f30565b8151158015612ff357506020820151155b1561300b578251815260209283015192019190915250565b825115801561301c57506020830151155b1561304c57815181526020820151613042906000805160206148d3833981519152614878565b6020909101525050565b613054613874565b835181526020808501518183015283516040830152830151613084906000805160206148d3833981519152614878565b81600361265c565b6000815183511461309c57600080fd5b825160006130ab8260066148a8565b90506000816001600160401b038111156130c7576130c7613b33565b6040519080825280602002602001820160405280156130f0578160200160208202803683370190505b50905060005b83811015613321578681815181106131105761311061484c565b6020026020010151600001518282600661312a91906148a8565b6131359060006148bf565b815181106131455761314561484c565b6020026020010181815250508681815181106131635761316361484c565b6020026020010151602001518282600661317d91906148a8565b6131889060016148bf565b815181106131985761319861484c565b6020026020010181815250508581815181106131b6576131b661484c565b60209081029190910101515151826131cf8360066148a8565b6131da9060026148bf565b815181106131ea576131ea61484c565b6020026020010181815250508581815181106132085761320861484c565b602090810291909101810151510151826132238360066148a8565b61322e9060036148bf565b8151811061323e5761323e61484c565b60200260200101818152505085818151811061325c5761325c61484c565b60200260200101516020015160006002811061327a5761327a61484c565b60200201518261328b8360066148a8565b6132969060046148bf565b815181106132a6576132a661484c565b6020026020010181815250508581815181106132c4576132c461484c565b6020026020010151602001516001600281106132e2576132e261484c565b6020020151826132f38360066148a8565b6132fe9060056148bf565b8151811061330e5761330e61484c565b60209081029190910101526001016130f6565b5061332a613838565b6000602082602086026020860160085afa90508061334757600080fd5b505115159695505050505050565b60405180610160016040528060008152602001600081526020016133856040518060200160405280600081525090565b8152602001613392613892565b815260200161339f6138cb565b81526020016133ac6138f7565b81526020016133ce604051806040016040528060008152602001600081525090565b81526020016133db6138f7565b81526020016133fd604051806040016040528060008152602001600081525090565b815260200161340a613920565b8152602001613417613954565b905290565b604051806080016040528061342f613981565b815260200161343c6139ad565b81526020016134496139d0565b81526020016134176139fa565b604051806102a00160405280606081526020016134716138f7565b8152602001613493604051806040016040528060008152602001600081525090565b81526020016134a06138f7565b81526020016134ad613a1b565b815260408051808201825260006020808301828152835280850192909252825180840184529182019081528152908201526060016134e9613920565b81526020016135046040518060200160405280600081525090565b815260200161351f6040518060200160405280600081525090565b815260200161353a6040518060200160405280600081525090565b815260200161355c604051806040016040528060008152602001600081525090565b815260200161357e604051806040016040528060008152602001600081525090565b81526020016135996040518060200160405280600081525090565b81526020016135b46040518060200160405280600081525090565b81526020016135cf6040518060200160405280600081525090565b81526020016135ea6040518060200160405280600081525090565b81526020016136056040518060200160405280600081525090565b81526020016136206040518060200160405280600081525090565b8152602001613642604051806040016040528060008152602001600081525090565b8152602001613417604051806040016040528060008152602001600081525090565b6040518060400160405280613677613a3c565b8152602001613417613a3c565b60408051610280810182526000610260820181815282528251602080820185528282528084019190915283518082018552828152838501528351908101909352825290606082019081526020016136d9613a5a565b81526020016136f46040518060200160405280600081525090565b815260200161370f6040518060200160405280600081525090565b815260200161372a6040518060200160405280600081525090565b81526020016137456040518060200160405280600081525090565b81526020016137606040518060200160405280600081525090565b815260200161377b6040518060200160405280600081525090565b81526020016137966040518060200160405280600081525090565b81526020016137b16040518060200160405280600081525090565b81526020016137cc6040518060200160405280600081525090565b81526020016137e76040518060200160405280600081525090565b81526020016138026040518060200160405280600081525090565b815260200161381d6040518060200160405280600081525090565b81526020016136426040518060200160405280600081525090565b60405180602001604052806001906020820280368337509192915050565b60405180606001604052806003906020820280368337509192915050565b60405180608001604052806004906020820280368337509192915050565b60405180604001604052806002905b60408051808201909152600080825260208201528152602001906001900390816138a15790505090565b6040805161014081019091526000610100820181815261012083019190915281526007602082016138a1565b6040805160c0810190915260006080820181815260a083019190915281526003602082016138a1565b60405180606001604052806003905b60408051602081019091526000815281526020019060019003908161392f5790505090565b60405180604001604052806002905b61396b613664565b8152602001906001900390816139635790505090565b604080516101e0810190915260006101a082018181526101c08301919091528152600c602082016138a1565b604080516101c0810190915260006101a082019081528152600c6020820161392f565b604080516101008101909152600060c0820181815260e083019190915281526005602082016138a1565b6040805160e08101909152600060c08201908152815260056020820161392f565b6040805160a08101909152600060808201908152815260036020820161392f565b60405180604001604052806002906020820280368337509192915050565b60408051610140810190915260006101208201908152815260086020820161392f565b60008083601f840112613a8f57600080fd5b5081356001600160401b03811115613aa657600080fd5b6020830191508360208260051b8501011115613ac157600080fd5b9250929050565b60008060008060408587031215613ade57600080fd5b84356001600160401b0380821115613af557600080fd5b613b0188838901613a7d565b90965094506020870135915080821115613b1a57600080fd5b50613b2787828801613a7d565b95989497509550505050565b634e487b7160e01b600052604160045260246000fd5b604080519081016001600160401b0381118282101715613b6b57613b6b613b33565b60405290565b6040516102a081016001600160401b0381118282101715613b6b57613b6b613b33565b60405161026081016001600160401b0381118282101715613b6b57613b6b613b33565b60405161016081016001600160401b0381118282101715613b6b57613b6b613b33565b604051608081016001600160401b0381118282101715613b6b57613b6b613b33565b600060208284031215613c0e57600080fd5b604051602081018181106001600160401b0382111715613c3057613c30613b33565b6040529135825250919050565b600060408284031215613c4f57600080fd5b613c57613b49565b9050813581526020820135602082015292915050565b600082601f830112613c7e57600080fd5b613c86613b49565b806080840185811115613c9857600080fd5b845b81811015613cbc57613cac8782613c3d565b8452602090930192604001613c9a565b509095945050505050565b600082601f830112613cd857600080fd5b6040805161010081018181106001600160401b0382111715613cfc57613cfc613b33565b825280610200850186811115613d1157600080fd5b855b81811015613d3457613d258882613c3d565b83526020909201918401613d13565b50919695505050505050565b600082601f830112613d5157600080fd5b613d59613bda565b80610100840185811115613d6c57600080fd5b845b81811015613cbc57613d808782613c3d565b8452602090930192604001613d6e565b600082601f830112613da157600080fd5b604051606081018181106001600160401b0382111715613dc357613dc3613b33565b604052806060840185811115613dd857600080fd5b845b81811015613dfa57613dec8782613bfc565b835260209283019201613dda565b509195945050505050565b600082601f830112613e1657600080fd5b613e1e613b49565b806040840185811115613e3057600080fd5b845b81811015613cbc578035845260209384019301613e32565b600082601f830112613e5b57600080fd5b613e63613b49565b80610100840185811115613e7657600080fd5b845b81811015613cbc5760808188031215613e915760008081fd5b613e99613b49565b613ea38883613e05565b8152613eb28860408401613e05565b6020828101919091529085529390930192608001613e78565b600082601f830112613edc57600080fd5b813560206001600160401b0380831115613ef857613ef8613b33565b8260051b604051601f19603f83011681018181108482111715613f1d57613f1d613b33565b604052938452858101830193838101925087851115613f3b57600080fd5b83870191505b8482101561012657813583529183019190830190613f41565b600082601f830112613f6b57600080fd5b613f73613bda565b806080840185811115613f8557600080fd5b845b81811015613cbc57613f998782613bfc565b845260209384019301613f87565b600082601f830112613fb857600080fd5b60405160208082018281106001600160401b0382111715613fdb57613fdb613b33565b6040528184820186811115613fef57600080fd5b855b81811015614010576140038882613bfc565b8352918301918301613ff1565b50929695505050505050565b60006105a0828403121561402f57600080fd5b614037613b71565b905081356001600160401b0381111561404f57600080fd5b61405b84828501613ecb565b82525061406b8360208401613d40565b602082015261012061407f84828501613c3d565b604083015261016061409385828601613d40565b60608401526102606140a786828701613f5a565b60808501526140ba866102e08701613fa7565b60a08501526140cd866103008701613fa7565b60c08501526140e0866103208701613d90565b60e08501526140f3866103808701613bfc565b610100850152614107866103a08701613bfc565b83850152614119866103c08701613bfc565b61014085015261412d866103e08701613c3d565b8285015261413f866104208701613c3d565b610180850152614153866104608701613bfc565b6101a0850152614167866104808701613bfc565b6101c085015261417b866104a08701613bfc565b6101e085015261418f866104c08701613bfc565b6102008501526141a3866104e08701613bfc565b6102208501526141b7866105008701613bfc565b6102408501526141cb866105208701613c3d565b818501525050506141e0836105608401613c3d565b61028082015292915050565b600082601f8301126141fd57600080fd5b6040516101208082018281106001600160401b038211171561422157614221613b33565b6040528301818582111561423457600080fd5b845b82811015613dfa576142488782613bfc565b825260209182019101614236565b6000610380828403121561426957600080fd5b614271613b94565b905061427d8383613bfc565b815261428c8360208401613bfc565b602082015261429e8360408401613bfc565b60408201526142b08360608401613bfc565b60608201526142c283608084016141ec565b60808201526101a06142d684828501613bfc565b60a08301526101c06142ea85828601613bfc565b60c08401526101e06142fe86828701613bfc565b60e085015261020061431287828801613bfc565b61010086015261022061432788828901613bfc565b61012087015261024061433c89828a01613bfc565b610140880152614350896102608a01613bfc565b610160880152614364896102808a01613bfc565b610180880152614378896102a08a01613bfc565b8688015261438a896102c08a01613bfc565b8588015261439c896102e08a01613bfc565b848801526143ae896103008a01613bfc565b838801526143c0896103208a01613bfc565b828801526143d2896103408a01613c3d565b8188015250505050505092915050565b6000806000838503610a608112156143f957600080fd5b6106c08082121561440957600080fd5b614411613bb7565b9150853582526020860135602083015261442e8760408801613bfc565b60408301526144408760608801613c6d565b60608301526144528760e08801613cc7565b6080830152614465876102e08801613d40565b60a0830152614478876103e08801613c3d565b60c083015261448b876104208801613d40565b60e083015261449e876105208801613c3d565b6101008301526144b2876105608801613d90565b6101208301526144c6876105c08801613e4a565b6101408301529093508401356001600160401b038111156144e657600080fd5b6144f28682870161401c565b925050614503856106e08601614256565b90509250925092565b81518152602080830151908201526040810161162d565b8060005b600281101561455b5761454584835180518252602090810151910152565b6040939093019260209190910190600101614527565b50505050565b8060005b600881101561455b5761458384835180518252602090810151910152565b6040939093019260209190910190600101614565565b8060005b600481101561455b576145bb84835180518252602090810151910152565b604093909301926020919091019060010161459d565b8060005b600381101561455b578151518452602093840193909101906001016145d5565b8060005b600281101561455b5781518452602093840193909101906001016145f9565b8060005b600281101561455b5781516146328582516145f5565b6020908101519061464660408701836145f5565b6080959095019492909201915060010161461c565b60006106c082019050825182526020830151602083015260408301516146846040840182519052565b5060608301516146976060840182614523565b5060808301516146aa60e0840182614561565b5060a08301516146be6102e0840182614599565b5060c083015180516103e08401526020015161040083015260e08301516146e9610420840182614599565b506101008301518051610520840152602001516105408301526101208301516147166105608401826145d1565b5061014083015161472b6105c0840182614618565b5092915050565b8060005b600681101561455b5761475484835180518252602090810151910152565b6040939093019260209190910190600101614736565b8060005b600681101561455b5781515184526020938401939091019060010161476e565b81516107208201908260005b600d8110156147ce576147b882845180518252602090810151910152565b602092909201916040919091019060010161479a565b505050602080840151610340840160005b600d8110156147fd57825151825291830191908301906001016147df565b5050505060408301516148146104e0840182614732565b50606083015161472b61066084018261476a565b6000610380828403121561483b57600080fd5b6148458383614256565b9392505050565b634e487b7160e01b600052603260045260246000fd5b634e487b7160e01b600052601160045260246000fd5b8181038181111561162d5761162d614862565b63ffffffff81811683821601908082111561472b5761472b614862565b808202811582820484141761162d5761162d614862565b8082018082111561162d5761162d61486256fe30644e72e131a029b85045b68181585d97816a916871ca8d3c208c16d87cfd4730644e72e131a029b85045b68181585d2833e84879b9709143e1f593f0000001a264697066735822122093b5bc51013c184370424e12b1c836ab5b130f43c86e1a8f5df549e65ee24f3d64736f6c63430008140033","opcodes":"PUSH1 0x80 PUSH1 0x40 MSTORE CALLVALUE DUP1 ISZERO PUSH2 0x10 JUMPI PUSH1 0x0 DUP1 REVERT JUMPDEST POP PUSH2 0x4948 DUP1 PUSH2 0x20 PUSH1 0x0 CODECOPY PUSH1 0x0 RETURN INVALID PUSH1 0x80 PUSH1 0x40 MSTORE CALLVALUE DUP1 ISZERO PUSH2 0x10 JUMPI PUSH1 0x0 DUP1 REVERT JUMPDEST POP PUSH1 0x4 CALLDATASIZE LT PUSH2 0x57 JUMPI PUSH1 0x0 CALLDATALOAD PUSH1 0xE0 SHR DUP1 PUSH4 0x330DEB9F EQ PUSH2 0x5C JUMPI DUP1 PUSH4 0x3EC236CB EQ PUSH2 0x84 JUMPI DUP1 PUSH4 0xBD5794E2 EQ PUSH2 0xA4 JUMPI DUP1 PUSH4 0xC2EF6041 EQ PUSH2 0xB9 JUMPI DUP1 PUSH4 0xFEC4E96E EQ PUSH2 0xD9 JUMPI JUMPDEST PUSH1 0x0 DUP1 REVERT JUMPDEST PUSH2 0x6F PUSH2 0x6A CALLDATASIZE PUSH1 0x4 PUSH2 0x3AC8 JUMP JUMPDEST PUSH2 0xEE JUMP JUMPDEST PUSH1 0x40 MLOAD SWAP1 ISZERO ISZERO DUP2 MSTORE PUSH1 0x20 ADD JUMPDEST PUSH1 0x40 MLOAD DUP1 SWAP2 SUB SWAP1 RETURN JUMPDEST PUSH2 0x97 PUSH2 0x92 CALLDATASIZE PUSH1 0x4 PUSH2 0x43E2 JUMP JUMPDEST PUSH2 0x131 JUMP JUMPDEST PUSH1 0x40 MLOAD PUSH2 0x7B SWAP2 SWAP1 PUSH2 0x450C JUMP JUMPDEST PUSH2 0xAC PUSH2 0x286 JUMP JUMPDEST PUSH1 0x40 MLOAD PUSH2 0x7B SWAP2 SWAP1 PUSH2 0x465B JUMP JUMPDEST PUSH2 0xCC PUSH2 0xC7 CALLDATASIZE PUSH1 0x4 PUSH2 0x43E2 JUMP JUMPDEST PUSH2 0xAE4 JUMP JUMPDEST PUSH1 0x40 MLOAD PUSH2 0x7B SWAP2 SWAP1 PUSH2 0x478E JUMP JUMPDEST PUSH2 0xEC PUSH2 0xE7 CALLDATASIZE PUSH1 0x4 PUSH2 0x4828 JUMP JUMPDEST PUSH2 0xE48 JUMP JUMPDEST STOP JUMPDEST PUSH1 0x0 DUP1 PUSH2 0xF9 PUSH2 0x286 JUMP JUMPDEST PUSH1 0x20 DUP2 ADD MLOAD SWAP1 SWAP2 POP DUP6 EQ PUSH2 0x10C JUMPI PUSH1 0x0 DUP1 REVERT JUMPDEST PUSH1 0x0 PUSH2 0x11A DUP8 DUP8 DUP8 DUP8 PUSH2 0xEF6 JUMP JUMPDEST SWAP1 POP PUSH2 0x126 DUP2 DUP4 PUSH2 0x134E JUMP JUMPDEST SWAP8 SWAP7 POP POP POP POP POP POP POP JUMP JUMPDEST PUSH1 0x40 DUP1 MLOAD DUP1 DUP3 ADD SWAP1 SWAP2 MSTORE PUSH1 0x0 DUP1 DUP3 MSTORE PUSH1 0x20 DUP3 ADD MSTORE PUSH1 0x40 DUP1 MLOAD PUSH1 0x20 DUP2 ADD SWAP1 SWAP2 MSTORE PUSH1 0x0 DUP2 MSTORE PUSH1 0x40 DUP1 MLOAD PUSH1 0x20 DUP2 ADD SWAP1 SWAP2 MSTORE PUSH1 0x0 DUP2 MSTORE PUSH1 0x80 DUP6 ADD MLOAD PUSH2 0x18A SWAP1 PUSH1 0x0 JUMPDEST PUSH1 0x20 MUL ADD MLOAD PUSH1 0x40 DUP1 MLOAD PUSH1 0x20 DUP2 ADD SWAP1 SWAP2 MSTORE PUSH1 0x0 DUP2 MSTORE SWAP1 MLOAD DUP2 MSTORE SWAP1 JUMP JUMPDEST SWAP2 POP PUSH2 0x196 DUP3 DUP1 PUSH2 0x1633 JUMP JUMPDEST PUSH1 0x80 DUP6 ADD MLOAD PUSH2 0x1AE SWAP1 PUSH1 0x1 JUMPDEST PUSH1 0x20 MUL ADD MLOAD DUP4 SWAP1 PUSH2 0x164D JUMP JUMPDEST PUSH1 0x80 DUP5 ADD MLOAD PUSH2 0x1C6 SWAP1 PUSH1 0x1 JUMPDEST PUSH1 0x20 MUL ADD MLOAD DUP4 SWAP1 PUSH2 0x1633 JUMP JUMPDEST PUSH2 0x1D0 DUP2 DUP4 PUSH2 0x167F JUMP JUMPDEST PUSH1 0x80 DUP6 ADD MLOAD PUSH2 0x1E0 SWAP1 PUSH1 0x1 PUSH2 0x16F JUMP JUMPDEST SWAP2 POP PUSH2 0x1EC DUP3 DUP1 PUSH2 0x1633 JUMP JUMPDEST PUSH1 0x80 DUP6 ADD MLOAD PUSH2 0x1FC SWAP1 PUSH1 0x2 PUSH2 0x1A2 JUMP JUMPDEST PUSH1 0x80 DUP5 ADD MLOAD PUSH2 0x20C SWAP1 PUSH1 0x2 PUSH2 0x1BA JUMP JUMPDEST PUSH2 0x216 DUP2 DUP4 PUSH2 0x167F JUMP JUMPDEST PUSH1 0x80 DUP6 ADD MLOAD PUSH2 0x226 SWAP1 PUSH1 0x2 PUSH2 0x16F JUMP JUMPDEST PUSH1 0x80 DUP7 ADD MLOAD SWAP1 SWAP3 POP PUSH2 0x239 SWAP1 PUSH1 0x0 PUSH2 0x1BA JUMP JUMPDEST PUSH1 0x80 DUP6 ADD MLOAD PUSH2 0x249 SWAP1 PUSH1 0x3 PUSH2 0x1A2 JUMP JUMPDEST PUSH1 0x80 DUP5 ADD MLOAD PUSH2 0x259 SWAP1 PUSH1 0x3 PUSH2 0x1BA JUMP JUMPDEST PUSH2 0x263 DUP2 DUP4 PUSH2 0x167F JUMP JUMPDEST PUSH1 0x60 DUP7 ADD MLOAD PUSH2 0x27C SWAP1 DUP3 SWAP1 PUSH1 0x1 JUMPDEST PUSH1 0x20 MUL ADD MLOAD SWAP1 PUSH2 0x1699 JUMP JUMPDEST SWAP7 SWAP6 POP POP POP POP POP POP JUMP JUMPDEST PUSH2 0x28E PUSH2 0x3355 JUMP JUMPDEST PUSH1 0x1 PUSH1 0x20 DUP3 ADD MSTORE PUSH4 0x4000000 DUP2 MSTORE PUSH2 0x2C5 PUSH32 0x1DBA8B5BDD64EF6CE29A9039ACA3C0E524395C43B9227B96C75090CC6CC7EC97 PUSH2 0x16D8 JUMP JUMPDEST PUSH1 0x40 DUP3 ADD MSTORE PUSH2 0x314 PUSH32 0x8FA9D6F0DD6AC1CBEB94AE20FE7A23DF05CB1095DF66FB561190E615A4037EF PUSH32 0x196DCC8692FE322D21375920559944C12BA7B1BA8B732344CF4BA2E3AA0FC8B4 PUSH2 0x1713 JUMP JUMPDEST PUSH1 0x80 DUP3 ADD MLOAD MSTORE PUSH2 0x363 PUSH31 0x74AAF5D97BD57551311A8B3E4AA7840BC55896502020B2F43AD6A98D81A443 PUSH32 0x2D275A3AD153DC9D89EBB9C9B6A0AFD2DDE82470554E9738D905C328FBB4C8BC PUSH2 0x1713 JUMP JUMPDEST PUSH1 0x80 DUP3 ADD MLOAD PUSH1 0x20 ADD MSTORE PUSH2 0x3B6 PUSH32 0x287F1975A9AEAEF5D2BB0767B5EF538F76E82F7DA01C0CB6DB8C6F920818EC4F PUSH32 0x2FFF6F53594129F794A7731D963D27E72F385C5C6D8E08829E6F66A9D29A12EA PUSH2 0x1713 JUMP JUMPDEST PUSH1 0x80 DUP3 ADD MLOAD PUSH1 0x40 ADD MSTORE PUSH2 0x409 PUSH32 0x38809FA3D4B7320D43E023454194F0A7878BAA7E73A295D2D105260F1C34CBC PUSH32 0x25418B1105CF45B2A3DA6C349BAB1D9CAAF145EAF24D1E8FB92C11654C000781 PUSH2 0x1713 JUMP JUMPDEST PUSH1 0x80 DUP3 ADD MLOAD PUSH1 0x60 ADD MSTORE PUSH2 0x45C PUSH32 0x561CAFD527AC3F0BC550DB77D87CD1C63938F7EC051E62EBF84A5BBE07F9840 PUSH32 0x28F87201B4CBE19F1517A1C29CA6D6CB074502CCFED4C31C8931C6992C3EEA43 PUSH2 0x1713 JUMP JUMPDEST PUSH1 0x80 DUP3 DUP2 ADD MLOAD ADD MSTORE PUSH2 0x4AE PUSH32 0x27E0AF572BAC6E36D31C33808CB44C0EF8CEEE5E2850E916FB01F3747DB72491 PUSH32 0x1DA20087BA61C59366B21E31E4AC6889D357CF11BF16B94D875F94F41525C427 PUSH2 0x1713 JUMP JUMPDEST PUSH1 0x80 DUP3 ADD MLOAD PUSH1 0xA0 ADD MSTORE PUSH2 0x501 PUSH32 0x2C2BCAFEA8F93D07F96874F470985A8D272C09C8ED49373F36497EE80BD8DA17 PUSH32 0x299276CF6DCA1A7E3780F6276C5D067403F6E024E83E0CC1AB4C5F7252B7F653 PUSH2 0x1713 JUMP JUMPDEST PUSH1 0x80 DUP3 ADD MLOAD PUSH1 0xC0 ADD MSTORE PUSH2 0x554 PUSH32 0xBA9D4A53E050DA25B8410045B634F1CA065FF74ACD35BAB1A72BF1F20047EF3 PUSH32 0x1F1EEFC8B0507A08F852F554BD7ABCBD506E52DE390CA127477A678D212ABFE5 PUSH2 0x1713 JUMP JUMPDEST PUSH1 0x80 DUP3 ADD MLOAD PUSH1 0xE0 ADD MSTORE PUSH2 0x5A7 PUSH32 0x1C6B68D9920620012D85A4850DAD9BD6D03AE8BBC7A08B827199E85DBA1EF2B1 PUSH32 0xF6380560D1B585628ED259289CEC19D3A7C70C60E66BBFEBFCB70C8C312D91E PUSH2 0x1713 JUMP JUMPDEST PUSH1 0x60 DUP3 ADD MLOAD MSTORE PUSH2 0x5F6 PUSH32 0xDFEAD780E5067181AAE631FF734A33FCA302773472997DACA58BA49DBD20DCC PUSH31 0xF13FA6E356F525D2FD1C533ACF2858C0D2B9F0A9B3180F94E1543929C75073 PUSH2 0x1713 JUMP JUMPDEST PUSH1 0x60 DUP3 ADD MLOAD PUSH1 0x20 ADD MSTORE PUSH2 0x649 PUSH32 0x1DF0747C787934650D99C5696F9273088AD07EC3E0825C9D39685A9B9978EBED PUSH32 0x2ACE2A277BECBC69AF4E89518EB50960A733D9D71354845EA43D2E65C8E0E4CB PUSH2 0x1713 JUMP JUMPDEST PUSH1 0xA0 DUP3 ADD MLOAD MSTORE PUSH2 0x699 PUSH32 0x6598C8236A5F5045CD7444DC87F3E1F66F99BF01251E13BE4DC0AB1F7F1AF4B PUSH32 0x14CA234FE9B3BB1E5517FC60D6B90F8AD44B0899A2D4F71A64C9640B3142CE8B PUSH2 0x1713 JUMP JUMPDEST PUSH1 0xA0 DUP3 ADD MLOAD PUSH1 0x20 ADD MSTORE PUSH2 0x6EC PUSH32 0x1889E2C684CAEFDE60471748F4259196ECF4209A735CCDF7B1816F05BAFA50A PUSH32 0x92D287A080BFE2FD40AD392FF290E462CD0E347B8FD9D05B90AF234CE77A11B PUSH2 0x1713 JUMP JUMPDEST PUSH1 0xA0 DUP3 ADD MLOAD PUSH1 0x40 ADD MSTORE PUSH2 0x73F PUSH32 0xDD98EEB5BC12C221DA969398B67750A8774DBDD37A78DA52367F9FC0E566D5C PUSH32 0x6750CEB40C9FB87FC424DF9599340938B7552B759914A90CB0E41D3915C945B PUSH2 0x1713 JUMP JUMPDEST PUSH1 0xA0 DUP3 ADD MLOAD PUSH1 0x60 ADD MSTORE PUSH2 0x792 PUSH32 0x2F491C662AE53CEB358F57A868DC00B89BEFA853BD9A449127EA2D46820995BD PUSH32 0x231FE6538634FF8B6FA21CA248FB15E7F43D82EB0BFA705490D24DDB3E3CAD77 PUSH2 0x1713 JUMP JUMPDEST PUSH1 0xC0 DUP3 ADD MSTORE PUSH2 0x7E1 PUSH32 0xEBE0DE4A2F39DF3B903DA484C1641FFDFFB77FF87CE4F9508C548659EB22D3C PUSH32 0x12A3209440242D5662729558F1017ED9DCC08FE49A99554DD45F5F15DA5E4E0B PUSH2 0x1713 JUMP JUMPDEST PUSH1 0xE0 DUP3 ADD MLOAD MSTORE PUSH2 0x831 PUSH32 0x1B7D54F8065CA63BED0BFBB9280A1011B886D07E0C0A26A66ECC96AF68C53BF9 PUSH32 0x2C51121FFF5B8F58C302F03C74E0CB176AE5A1D1730DEC4696EB9CCE3FE284CA PUSH2 0x1713 JUMP JUMPDEST PUSH1 0xE0 DUP3 ADD MLOAD PUSH1 0x20 ADD MSTORE PUSH2 0x884 PUSH32 0x138733C5FAA9DB6D4B8DF9748081E38405999E511FB22D40F77CF3AEF293C44 PUSH32 0x269BEE1C1AC28053238F7FE789F1EA2E481742D6D16AE78ED81E87C254AF0765 PUSH2 0x1713 JUMP JUMPDEST PUSH1 0xE0 DUP3 ADD MLOAD PUSH1 0x40 ADD MSTORE PUSH2 0x8D7 PUSH32 0x1B1BE7279D59445065A95F01F16686ADFA798EC4F1E6845FFCEC9B837E88372E PUSH32 0x57C90CB96D8259238ED86B05F629EFD55F472A721EFEEB56926E979433E6C0E PUSH2 0x1713 JUMP JUMPDEST PUSH1 0xE0 DUP3 ADD MLOAD PUSH1 0x60 ADD MSTORE PUSH2 0x92A PUSH32 0x12CD873A6F18A4A590A846D9EBF61565197EDF457EFD26BC408EB61B72F37B59 PUSH32 0x19890CBDAC892682E7A5910CA6C238C082130E1C71F33D0C9C901153377770D1 PUSH2 0x1713 JUMP JUMPDEST PUSH2 0x100 DUP3 ADD MSTORE PUSH2 0x93A PUSH1 0x5 PUSH2 0x16D8 JUMP JUMPDEST PUSH2 0x120 DUP3 ADD MLOAD MSTORE PUSH2 0x94B PUSH1 0x7 PUSH2 0x16D8 JUMP JUMPDEST PUSH2 0x120 DUP3 ADD MLOAD PUSH1 0x20 ADD MSTORE PUSH2 0x95F PUSH1 0xA PUSH2 0x16D8 JUMP JUMPDEST PUSH2 0x120 DUP3 ADD MLOAD PUSH1 0x2 PUSH1 0x20 MUL ADD DUP2 SWAP1 MSTORE POP PUSH2 0xA21 PUSH1 0x40 MLOAD DUP1 PUSH1 0x40 ADD PUSH1 0x40 MSTORE DUP1 PUSH32 0x198E9393920D483A7260BFB731FB5D25F1AA493335A9E71297E485B7AEF312C2 DUP2 MSTORE PUSH1 0x20 ADD PUSH32 0x1800DEEF121F1E76426A00665E5C4479674322D4F75EDADD46DEBD5CD992F6ED DUP2 MSTORE POP PUSH1 0x40 MLOAD DUP1 PUSH1 0x40 ADD PUSH1 0x40 MSTORE DUP1 PUSH32 0x90689D0585FF075EC9E99AD690C3395BC4B313370B38EF355ACDADCD122975B DUP2 MSTORE PUSH1 0x20 ADD PUSH32 0x12C85EA5DB8C6DEB4AAB71808DCB408FE3D1E7690C43D37B4CE6CC0166FA7DAA DUP2 MSTORE POP PUSH2 0x173E JUMP JUMPDEST PUSH2 0x140 DUP3 ADD MLOAD MSTORE PUSH1 0x40 DUP1 MLOAD DUP1 DUP3 ADD DUP3 MSTORE PUSH32 0x260E01B251F6F1C7E7FF4E580791DEE8EA51D87A358E038B4EFE30FAC09383C1 DUP2 MSTORE PUSH32 0x118C4D5B837BCC2BC89B5B398B5974E9F5944073B32078B7E231FEC938883B0 PUSH1 0x20 DUP3 DUP2 ADD SWAP2 SWAP1 SWAP2 MSTORE DUP3 MLOAD DUP1 DUP5 ADD SWAP1 SWAP4 MSTORE PUSH32 0x4FC6369F7110FE3D25156C1BB9A72859CF2A04641F99BA4EE413C80DA6A5FE4 DUP4 MSTORE PUSH32 0x22FEBDA3C0C0632A56475B4214E5615E11E6DD3F96E6CEA2854A87D4DACC5E55 SWAP1 DUP4 ADD MSTORE PUSH2 0xAD7 SWAP2 PUSH2 0x173E JUMP JUMPDEST PUSH2 0x140 DUP3 ADD MLOAD PUSH1 0x20 ADD MSTORE SWAP1 JUMP JUMPDEST PUSH2 0xAEC PUSH2 0x341C JUMP JUMPDEST PUSH1 0x2 PUSH1 0x0 JUMPDEST PUSH1 0x4 DUP2 LT ISZERO PUSH2 0xB6F JUMPI DUP5 PUSH1 0x20 ADD MLOAD DUP2 PUSH1 0x4 DUP2 LT PUSH2 0xB10 JUMPI PUSH2 0xB10 PUSH2 0x484C JUMP JUMPDEST PUSH1 0x20 MUL ADD MLOAD DUP4 MLOAD DUP4 PUSH1 0xD DUP2 LT PUSH2 0xB28 JUMPI PUSH2 0xB28 PUSH2 0x484C JUMP JUMPDEST PUSH1 0x20 MUL ADD MSTORE PUSH1 0x80 DUP6 ADD MLOAD DUP2 PUSH1 0x4 DUP2 LT PUSH2 0xB43 JUMPI PUSH2 0xB43 PUSH2 0x484C JUMP JUMPDEST PUSH1 0x20 MUL ADD MLOAD DUP4 PUSH1 0x20 ADD MLOAD DUP4 PUSH1 0xD DUP2 LT PUSH2 0xB5E JUMPI PUSH2 0xB5E PUSH2 0x484C JUMP JUMPDEST PUSH1 0x20 MUL ADD MSTORE PUSH1 0x1 SWAP2 DUP3 ADD SWAP2 ADD PUSH2 0xAF1 JUMP JUMPDEST POP PUSH1 0x60 DUP6 ADD MLOAD MLOAD DUP3 MLOAD DUP3 PUSH1 0xD DUP2 LT PUSH2 0xB89 JUMPI PUSH2 0xB89 PUSH2 0x484C JUMP JUMPDEST PUSH1 0x20 MUL ADD MSTORE PUSH1 0xC0 DUP5 ADD MLOAD PUSH1 0x0 PUSH1 0x20 MUL ADD MLOAD DUP3 PUSH1 0x20 ADD MLOAD DUP3 PUSH1 0xD DUP2 LT PUSH2 0xBB0 JUMPI PUSH2 0xBB0 PUSH2 0x484C JUMP JUMPDEST PUSH1 0x20 MUL ADD MSTORE PUSH1 0x1 ADD PUSH1 0x0 JUMPDEST PUSH2 0xBC7 PUSH1 0x1 PUSH1 0x4 PUSH2 0x4878 JUMP JUMPDEST DUP2 LT ISZERO PUSH2 0xC43 JUMPI DUP6 PUSH1 0xA0 ADD MLOAD DUP2 PUSH1 0x4 DUP2 LT PUSH2 0xBE4 JUMPI PUSH2 0xBE4 PUSH2 0x484C JUMP JUMPDEST PUSH1 0x20 MUL ADD MLOAD DUP4 MLOAD DUP4 PUSH1 0xD DUP2 LT PUSH2 0xBFC JUMPI PUSH2 0xBFC PUSH2 0x484C JUMP JUMPDEST PUSH1 0x20 MUL ADD MSTORE PUSH1 0xE0 DUP6 ADD MLOAD DUP2 PUSH1 0x3 DUP2 LT PUSH2 0xC17 JUMPI PUSH2 0xC17 PUSH2 0x484C JUMP JUMPDEST PUSH1 0x20 MUL ADD MLOAD DUP4 PUSH1 0x20 ADD MLOAD DUP4 PUSH1 0xD DUP2 LT PUSH2 0xC32 JUMPI PUSH2 0xC32 PUSH2 0x484C JUMP JUMPDEST PUSH1 0x20 MUL ADD MSTORE PUSH1 0x1 SWAP2 DUP3 ADD SWAP2 ADD PUSH2 0xBBB JUMP JUMPDEST POP PUSH1 0x40 DUP5 DUP2 ADD MLOAD SWAP1 DUP4 ADD MLOAD MSTORE PUSH1 0x20 DUP5 ADD MLOAD PUSH2 0xC60 PUSH1 0x1 PUSH1 0x4 PUSH2 0x4878 JUMP JUMPDEST PUSH1 0x4 DUP2 LT PUSH2 0xC70 JUMPI PUSH2 0xC70 PUSH2 0x484C JUMP JUMPDEST PUSH1 0x20 SWAP1 DUP2 MUL SWAP2 SWAP1 SWAP2 ADD MLOAD PUSH1 0x40 DUP5 ADD MLOAD DUP3 ADD MSTORE PUSH2 0x100 DUP6 ADD MLOAD PUSH1 0x60 DUP5 ADD DUP1 MLOAD SWAP2 SWAP1 SWAP2 MSTORE PUSH1 0xA0 DUP1 DUP8 ADD MLOAD MLOAD SWAP2 MLOAD SWAP1 SWAP3 ADD MSTORE PUSH1 0xE0 DUP7 ADD MLOAD MLOAD SWAP1 DUP5 ADD MLOAD PUSH1 0x0 SWAP1 PUSH2 0xCC6 SWAP1 PUSH1 0x40 DUP1 MLOAD PUSH1 0x20 DUP2 ADD SWAP1 SWAP2 MSTORE PUSH1 0x0 DUP2 MSTORE SWAP1 MLOAD DUP2 MSTORE SWAP1 JUMP JUMPDEST SWAP1 POP PUSH1 0x1 JUMPDEST PUSH1 0x4 DUP2 LT ISZERO PUSH2 0xD19 JUMPI PUSH2 0xCEE DUP3 DUP10 PUSH1 0xE0 ADD MLOAD DUP4 PUSH1 0x4 DUP2 LT PUSH2 0x271 JUMPI PUSH2 0x271 PUSH2 0x484C JUMP JUMPDEST PUSH2 0x240 DUP8 ADD DUP2 SWAP1 MSTORE PUSH2 0xD01 SWAP1 DUP5 SWAP1 PUSH2 0x1746 JUMP JUMPDEST PUSH1 0xA0 DUP7 ADD MLOAD PUSH2 0xD11 SWAP1 DUP4 SWAP1 PUSH2 0x1633 JUMP JUMPDEST PUSH1 0x1 ADD PUSH2 0xCCB JUMP JUMPDEST POP DUP4 MLOAD DUP3 SWAP1 DUP5 PUSH1 0xD DUP2 LT PUSH2 0xD2F JUMPI PUSH2 0xD2F PUSH2 0x484C JUMP JUMPDEST PUSH1 0x20 MUL ADD DUP2 SWAP1 MSTORE POP DUP6 PUSH2 0x1E0 ADD MLOAD DUP5 PUSH1 0x20 ADD MLOAD DUP5 PUSH1 0xD DUP2 LT PUSH2 0xD53 JUMPI PUSH2 0xD53 PUSH2 0x484C JUMP JUMPDEST PUSH1 0x20 MUL ADD MSTORE PUSH1 0xC0 DUP8 ADD MLOAD DUP5 MLOAD PUSH1 0x1 SWAP5 SWAP1 SWAP5 ADD SWAP4 DUP5 PUSH1 0xD DUP2 LT PUSH2 0xD77 JUMPI PUSH2 0xD77 PUSH2 0x484C JUMP JUMPDEST PUSH1 0x20 MUL ADD DUP2 SWAP1 MSTORE POP DUP6 PUSH2 0x220 ADD MLOAD DUP5 PUSH1 0x20 ADD MLOAD DUP5 PUSH1 0xD DUP2 LT PUSH2 0xD9B JUMPI PUSH2 0xD9B PUSH2 0x484C JUMP JUMPDEST PUSH1 0x20 MUL ADD MSTORE PUSH2 0x100 DUP8 ADD MLOAD DUP5 MLOAD PUSH1 0x1 SWAP5 SWAP1 SWAP5 ADD SWAP4 DUP5 PUSH1 0xD DUP2 LT PUSH2 0xDC0 JUMPI PUSH2 0xDC0 PUSH2 0x484C JUMP JUMPDEST PUSH1 0x20 MUL ADD DUP2 SWAP1 MSTORE POP DUP6 PUSH2 0x240 ADD MLOAD DUP5 PUSH1 0x20 ADD MLOAD DUP5 PUSH1 0xD DUP2 LT PUSH2 0xDE4 JUMPI PUSH2 0xDE4 PUSH2 0x484C JUMP JUMPDEST PUSH1 0x20 MUL ADD MSTORE POP PUSH2 0x160 DUP6 ADD MLOAD PUSH1 0x40 DUP5 DUP2 ADD DUP1 MLOAD DUP3 ADD SWAP3 SWAP1 SWAP3 MSTORE PUSH2 0x1A0 DUP8 ADD MLOAD PUSH1 0x60 DUP1 DUP8 ADD DUP1 MLOAD SWAP1 SWAP4 ADD SWAP2 SWAP1 SWAP2 MSTORE PUSH2 0x180 DUP9 ADD MLOAD DUP4 MLOAD DUP3 ADD MSTORE PUSH2 0x1C0 DUP9 ADD MLOAD DUP3 MLOAD SWAP1 SWAP2 ADD MSTORE SWAP1 MLOAD PUSH1 0x80 SWAP1 DUP2 ADD SWAP3 SWAP1 SWAP3 MSTORE PUSH2 0x200 SWAP1 SWAP6 ADD MLOAD SWAP5 MLOAD ADD SWAP4 SWAP1 SWAP4 MSTORE SWAP4 SWAP3 POP POP POP JUMP JUMPDEST PUSH1 0x20 DUP2 ADD MLOAD MLOAD PUSH1 0x0 SUB PUSH2 0xE5A JUMPI PUSH1 0x0 DUP1 REVERT JUMPDEST PUSH2 0xE64 PUSH1 0x1 PUSH2 0x16D8 JUMP JUMPDEST PUSH1 0x80 DUP3 ADD DUP1 MLOAD SWAP2 SWAP1 SWAP2 MSTORE PUSH1 0x20 DUP1 DUP4 ADD DUP1 MLOAD PUSH1 0x40 DUP1 MLOAD DUP1 DUP6 ADD DUP3 MSTORE PUSH1 0x0 DUP1 DUP3 MSTORE SWAP3 MLOAD DUP2 MSTORE SWAP5 MLOAD DUP5 ADD SWAP5 SWAP1 SWAP5 MSTORE SWAP1 MLOAD DUP4 MLOAD SWAP3 DUP4 ADD SWAP1 SWAP4 MSTORE DUP2 MSTORE SWAP1 MLOAD DUP2 MSTORE PUSH1 0x2 JUMPDEST PUSH1 0x9 DUP2 LT ISZERO PUSH2 0xEF1 JUMPI PUSH1 0x20 DUP4 ADD MLOAD PUSH2 0xEBB SWAP1 DUP4 SWAP1 PUSH2 0x1633 JUMP JUMPDEST PUSH1 0x40 DUP1 MLOAD PUSH1 0x20 DUP2 ADD SWAP1 SWAP2 MSTORE PUSH1 0x0 DUP2 MSTORE DUP3 MLOAD DUP2 MSTORE DUP4 PUSH1 0x80 ADD MLOAD DUP3 PUSH1 0x9 DUP2 LT PUSH2 0xEE4 JUMPI PUSH2 0xEE4 PUSH2 0x484C JUMP JUMPDEST PUSH1 0x20 MUL ADD MSTORE PUSH1 0x1 ADD PUSH2 0xEA2 JUMP JUMPDEST POP POP POP JUMP JUMPDEST PUSH2 0xEFE PUSH2 0x3456 JUMP JUMPDEST PUSH1 0x2C DUP3 EQ PUSH2 0xF0B JUMPI PUSH1 0x0 DUP1 REVERT JUMPDEST DUP4 PUSH1 0x1 PUSH1 0x1 PUSH1 0x40 SHL SUB DUP2 GT ISZERO PUSH2 0xF23 JUMPI PUSH2 0xF23 PUSH2 0x3B33 JUMP JUMPDEST PUSH1 0x40 MLOAD SWAP1 DUP1 DUP3 MSTORE DUP1 PUSH1 0x20 MUL PUSH1 0x20 ADD DUP3 ADD PUSH1 0x40 MSTORE DUP1 ISZERO PUSH2 0xF4C JUMPI DUP2 PUSH1 0x20 ADD PUSH1 0x20 DUP3 MUL DUP1 CALLDATASIZE DUP4 CALLDATACOPY ADD SWAP1 POP JUMPDEST POP DUP2 MSTORE PUSH1 0x0 JUMPDEST DUP5 DUP2 LT ISZERO PUSH2 0xF9C JUMPI DUP6 DUP6 DUP3 DUP2 DUP2 LT PUSH2 0xF6C JUMPI PUSH2 0xF6C PUSH2 0x484C JUMP JUMPDEST SWAP1 POP PUSH1 0x20 MUL ADD CALLDATALOAD DUP3 PUSH1 0x0 ADD MLOAD DUP3 DUP2 MLOAD DUP2 LT PUSH2 0xF89 JUMPI PUSH2 0xF89 PUSH2 0x484C JUMP JUMPDEST PUSH1 0x20 SWAP1 DUP2 MUL SWAP2 SWAP1 SWAP2 ADD ADD MSTORE PUSH1 0x1 ADD PUSH2 0xF52 JUMP JUMPDEST POP PUSH1 0x0 DUP1 JUMPDEST PUSH1 0x4 DUP2 LT ISZERO PUSH2 0x1016 JUMPI PUSH2 0xFED DUP6 DUP6 DUP5 DUP2 DUP2 LT PUSH2 0xFBF JUMPI PUSH2 0xFBF PUSH2 0x484C JUMP JUMPDEST SWAP1 POP PUSH1 0x20 MUL ADD CALLDATALOAD DUP7 DUP7 PUSH2 0xFD2 DUP7 PUSH1 0x1 ADD SWAP1 JUMP JUMPDEST DUP2 DUP2 LT PUSH2 0xFE1 JUMPI PUSH2 0xFE1 PUSH2 0x484C JUMP JUMPDEST SWAP1 POP PUSH1 0x20 MUL ADD CALLDATALOAD PUSH2 0x1755 JUMP JUMPDEST DUP4 PUSH1 0x20 ADD MLOAD DUP3 PUSH1 0x4 DUP2 LT PUSH2 0x1003 JUMPI PUSH2 0x1003 PUSH2 0x484C JUMP JUMPDEST PUSH1 0x20 MUL ADD MSTORE PUSH1 0x2 DUP3 ADD SWAP2 POP PUSH1 0x1 ADD PUSH2 0xFA1 JUMP JUMPDEST POP PUSH2 0x103F DUP5 DUP5 DUP4 DUP2 DUP2 LT PUSH2 0x102C JUMPI PUSH2 0x102C PUSH2 0x484C JUMP JUMPDEST SWAP1 POP PUSH1 0x20 MUL ADD CALLDATALOAD DUP6 DUP6 PUSH2 0xFD2 DUP6 PUSH1 0x1 ADD SWAP1 JUMP JUMPDEST PUSH1 0x40 DUP4 ADD MSTORE PUSH1 0x2 ADD PUSH2 0x105C DUP5 DUP5 DUP4 DUP2 DUP2 LT PUSH2 0x102C JUMPI PUSH2 0x102C PUSH2 0x484C JUMP JUMPDEST PUSH2 0x160 DUP4 ADD MSTORE PUSH1 0x2 ADD PUSH2 0x107A DUP5 DUP5 DUP4 DUP2 DUP2 LT PUSH2 0x102C JUMPI PUSH2 0x102C PUSH2 0x484C JUMP JUMPDEST PUSH2 0x180 DUP4 ADD MSTORE PUSH1 0x2 ADD PUSH1 0x0 JUMPDEST PUSH1 0x4 DUP2 LT ISZERO PUSH2 0x10CD JUMPI PUSH2 0x10A4 DUP6 DUP6 DUP5 DUP2 DUP2 LT PUSH2 0xFBF JUMPI PUSH2 0xFBF PUSH2 0x484C JUMP JUMPDEST DUP4 PUSH1 0x60 ADD MLOAD DUP3 PUSH1 0x4 DUP2 LT PUSH2 0x10BA JUMPI PUSH2 0x10BA PUSH2 0x484C JUMP JUMPDEST PUSH1 0x20 MUL ADD MSTORE PUSH1 0x2 DUP3 ADD SWAP2 POP PUSH1 0x1 ADD PUSH2 0x1086 JUMP JUMPDEST POP PUSH1 0x0 JUMPDEST PUSH1 0x4 DUP2 LT ISZERO PUSH2 0x1122 JUMPI PUSH2 0x10FB DUP6 DUP6 DUP5 DUP2 DUP2 LT PUSH2 0x10EF JUMPI PUSH2 0x10EF PUSH2 0x484C JUMP JUMPDEST SWAP1 POP PUSH1 0x20 MUL ADD CALLDATALOAD PUSH2 0x16D8 JUMP JUMPDEST DUP4 PUSH1 0x80 ADD MLOAD DUP3 PUSH1 0x4 DUP2 LT PUSH2 0x1111 JUMPI PUSH2 0x1111 PUSH2 0x484C JUMP JUMPDEST PUSH1 0x20 MUL ADD MSTORE PUSH1 0x1 SWAP2 DUP3 ADD SWAP2 ADD PUSH2 0x10D1 JUMP JUMPDEST POP PUSH1 0x0 JUMPDEST PUSH1 0x1 DUP2 LT ISZERO PUSH2 0x116B JUMPI PUSH2 0x1144 DUP6 DUP6 DUP5 DUP2 DUP2 LT PUSH2 0x10EF JUMPI PUSH2 0x10EF PUSH2 0x484C JUMP JUMPDEST DUP4 PUSH1 0xA0 ADD MLOAD DUP3 PUSH1 0x1 DUP2 LT PUSH2 0x115A JUMPI PUSH2 0x115A PUSH2 0x484C JUMP JUMPDEST PUSH1 0x20 MUL ADD MSTORE PUSH1 0x1 SWAP2 DUP3 ADD SWAP2 ADD PUSH2 0x1126 JUMP JUMPDEST POP PUSH1 0x0 JUMPDEST PUSH1 0x1 DUP2 LT ISZERO PUSH2 0x11B4 JUMPI PUSH2 0x118D DUP6 DUP6 DUP5 DUP2 DUP2 LT PUSH2 0x10EF JUMPI PUSH2 0x10EF PUSH2 0x484C JUMP JUMPDEST DUP4 PUSH1 0xC0 ADD MLOAD DUP3 PUSH1 0x1 DUP2 LT PUSH2 0x11A3 JUMPI PUSH2 0x11A3 PUSH2 0x484C JUMP JUMPDEST PUSH1 0x20 MUL ADD MSTORE PUSH1 0x1 SWAP2 DUP3 ADD SWAP2 ADD PUSH2 0x116F JUMP JUMPDEST POP PUSH1 0x0 JUMPDEST PUSH1 0x3 DUP2 LT ISZERO PUSH2 0x11FD JUMPI PUSH2 0x11D6 DUP6 DUP6 DUP5 DUP2 DUP2 LT PUSH2 0x10EF JUMPI PUSH2 0x10EF PUSH2 0x484C JUMP JUMPDEST DUP4 PUSH1 0xE0 ADD MLOAD DUP3 PUSH1 0x3 DUP2 LT PUSH2 0x11EC JUMPI PUSH2 0x11EC PUSH2 0x484C JUMP JUMPDEST PUSH1 0x20 MUL ADD MSTORE PUSH1 0x1 SWAP2 DUP3 ADD SWAP2 ADD PUSH2 0x11B8 JUMP JUMPDEST POP PUSH2 0x1213 DUP5 DUP5 DUP4 DUP2 DUP2 LT PUSH2 0x10EF JUMPI PUSH2 0x10EF PUSH2 0x484C JUMP JUMPDEST PUSH2 0x100 DUP4 ADD MSTORE PUSH1 0x1 ADD PUSH2 0x1231 DUP5 DUP5 DUP4 DUP2 DUP2 LT PUSH2 0x10EF JUMPI PUSH2 0x10EF PUSH2 0x484C JUMP JUMPDEST PUSH2 0x1A0 DUP4 ADD MSTORE PUSH1 0x1 ADD PUSH2 0x124F DUP5 DUP5 DUP4 DUP2 DUP2 LT PUSH2 0x10EF JUMPI PUSH2 0x10EF PUSH2 0x484C JUMP JUMPDEST PUSH2 0x1C0 DUP4 ADD MSTORE PUSH1 0x1 ADD PUSH2 0x126D DUP5 DUP5 DUP4 DUP2 DUP2 LT PUSH2 0x10EF JUMPI PUSH2 0x10EF PUSH2 0x484C JUMP JUMPDEST PUSH2 0x1E0 DUP4 ADD MSTORE PUSH1 0x1 ADD PUSH2 0x128B DUP5 DUP5 DUP4 DUP2 DUP2 LT PUSH2 0x10EF JUMPI PUSH2 0x10EF PUSH2 0x484C JUMP JUMPDEST PUSH2 0x200 DUP4 ADD MSTORE PUSH1 0x1 ADD PUSH2 0x12A9 DUP5 DUP5 DUP4 DUP2 DUP2 LT PUSH2 0x10EF JUMPI PUSH2 0x10EF PUSH2 0x484C JUMP JUMPDEST PUSH2 0x220 DUP4 ADD MSTORE PUSH1 0x1 ADD PUSH2 0x12C7 DUP5 DUP5 DUP4 DUP2 DUP2 LT PUSH2 0x10EF JUMPI PUSH2 0x10EF PUSH2 0x484C JUMP JUMPDEST PUSH2 0x240 DUP4 ADD MSTORE PUSH1 0x1 ADD PUSH2 0x12E5 DUP5 DUP5 DUP4 DUP2 DUP2 LT PUSH2 0x10EF JUMPI PUSH2 0x10EF PUSH2 0x484C JUMP JUMPDEST PUSH2 0x120 DUP4 ADD MSTORE PUSH1 0x1 ADD PUSH2 0x1303 DUP5 DUP5 DUP4 DUP2 DUP2 LT PUSH2 0x10EF JUMPI PUSH2 0x10EF PUSH2 0x484C JUMP JUMPDEST PUSH2 0x140 DUP4 ADD MSTORE PUSH1 0x1 ADD PUSH2 0x1321 DUP5 DUP5 DUP4 DUP2 DUP2 LT PUSH2 0x102C JUMPI PUSH2 0x102C PUSH2 0x484C JUMP JUMPDEST PUSH2 0x260 DUP4 ADD MSTORE PUSH1 0x2 ADD PUSH2 0x133F DUP5 DUP5 DUP4 DUP2 DUP2 LT PUSH2 0x102C JUMPI PUSH2 0x102C PUSH2 0x484C JUMP JUMPDEST PUSH2 0x280 DUP4 ADD MSTORE POP SWAP5 SWAP4 POP POP POP POP JUMP JUMPDEST PUSH1 0x0 DUP1 PUSH2 0x135B DUP5 DUP5 PUSH2 0x18ED JUMP JUMPDEST SWAP1 POP PUSH2 0x1368 DUP4 DUP6 DUP4 PUSH2 0x1C26 JUMP JUMPDEST ISZERO ISZERO PUSH1 0x0 SUB PUSH2 0x137B JUMPI PUSH1 0x0 SWAP2 POP POP PUSH2 0x162D JUMP JUMPDEST PUSH1 0x60 DUP5 ADD MLOAD PUSH1 0x0 SWAP1 PUSH2 0x13B4 SWAP1 DUP3 JUMPDEST PUSH1 0x20 MUL ADD MLOAD PUSH1 0x40 DUP1 MLOAD DUP1 DUP3 ADD SWAP1 SWAP2 MSTORE PUSH1 0x0 DUP1 DUP3 MSTORE PUSH1 0x20 DUP1 DUP4 ADD SWAP2 DUP3 MSTORE DUP4 MLOAD DUP4 MSTORE SWAP3 SWAP1 SWAP3 ADD MLOAD SWAP1 SWAP2 MSTORE SWAP1 JUMP JUMPDEST DUP5 MLOAD PUSH2 0x180 DUP5 ADD MLOAD SWAP2 SWAP3 POP PUSH1 0x0 SWAP2 PUSH2 0x13CB SWAP2 PUSH2 0x1F30 JUMP JUMPDEST PUSH1 0x40 DUP1 MLOAD PUSH1 0x20 DUP1 DUP3 ADD DUP4 MSTORE PUSH1 0x0 DUP1 DUP4 MSTORE DUP5 MLOAD DUP4 MSTORE DUP4 MLOAD DUP1 DUP6 ADD SWAP1 SWAP5 MSTORE DUP1 DUP5 MSTORE SWAP1 DUP4 ADD MSTORE SWAP2 SWAP3 POP PUSH1 0x1 JUMPDEST PUSH1 0x4 DUP2 LT ISZERO PUSH2 0x143E JUMPI PUSH2 0x1416 DUP10 PUSH1 0x60 ADD MLOAD DUP3 PUSH1 0x4 DUP2 LT PUSH2 0x1389 JUMPI PUSH2 0x1389 PUSH2 0x484C JUMP JUMPDEST SWAP2 POP PUSH2 0x1422 DUP3 DUP5 PUSH2 0x1FAF JUMP JUMPDEST PUSH2 0x142C DUP6 DUP4 PUSH2 0x1746 JUMP JUMPDEST PUSH2 0x1436 DUP4 DUP6 PUSH2 0x1633 JUMP JUMPDEST PUSH1 0x1 ADD PUSH2 0x13F4 JUMP JUMPDEST POP POP POP POP PUSH1 0x0 PUSH2 0x144F DUP6 DUP8 DUP6 PUSH2 0xAE4 JUMP JUMPDEST DUP1 MLOAD DUP4 SWAP1 MSTORE PUSH2 0x120 DUP8 ADD MLOAD PUSH1 0x20 DUP3 ADD MLOAD MSTORE SWAP1 POP PUSH2 0x146D DUP6 DUP8 DUP6 PUSH2 0x1FBA JUMP JUMPDEST DUP2 MLOAD PUSH1 0x20 SWAP1 DUP2 ADD SWAP2 SWAP1 SWAP2 MSTORE PUSH2 0x140 DUP8 ADD MLOAD DUP2 DUP4 ADD DUP1 MLOAD SWAP1 SWAP3 ADD MSTORE DUP2 MLOAD MLOAD SWAP1 MLOAD MLOAD PUSH1 0x0 PUSH2 0x1499 PUSH1 0x1 PUSH2 0x16D8 JUMP JUMPDEST SWAP1 POP PUSH2 0x14B8 PUSH1 0x40 MLOAD DUP1 PUSH1 0x40 ADD PUSH1 0x40 MSTORE DUP1 PUSH1 0x0 DUP2 MSTORE PUSH1 0x20 ADD PUSH1 0x0 DUP2 MSTORE POP SWAP1 JUMP JUMPDEST PUSH1 0x1 JUMPDEST PUSH1 0xD DUP2 LT ISZERO PUSH2 0x1541 JUMPI PUSH2 0x140 DUP9 ADD MLOAD PUSH2 0x14D5 SWAP1 DUP5 SWAP1 PUSH2 0x1633 JUMP JUMPDEST PUSH2 0x14EF DUP4 DUP8 PUSH1 0x0 ADD MLOAD DUP4 PUSH1 0xD DUP2 LT PUSH2 0x271 JUMPI PUSH2 0x271 PUSH2 0x484C JUMP JUMPDEST SWAP2 POP PUSH2 0x14FB DUP6 DUP4 PUSH2 0x1746 JUMP JUMPDEST DUP6 PUSH1 0x20 ADD MLOAD DUP2 PUSH1 0xD DUP2 LT PUSH2 0x1511 JUMPI PUSH2 0x1511 PUSH2 0x484C JUMP JUMPDEST PUSH1 0x20 MUL ADD MLOAD PUSH2 0x220 DUP10 ADD DUP2 SWAP1 MSTORE PUSH2 0x1528 SWAP1 DUP5 PUSH2 0x1633 JUMP JUMPDEST PUSH2 0x220 DUP9 ADD MLOAD PUSH2 0x1539 SWAP1 DUP6 SWAP1 PUSH2 0x167F JUMP JUMPDEST PUSH1 0x1 ADD PUSH2 0x14BB JUMP JUMPDEST POP PUSH2 0x140 DUP8 ADD MLOAD PUSH2 0x1553 SWAP1 DUP4 SWAP1 PUSH2 0x1633 JUMP JUMPDEST PUSH1 0x0 PUSH2 0x1570 DUP4 DUP8 PUSH1 0x40 ADD MLOAD PUSH1 0x0 PUSH1 0x6 DUP2 LT PUSH2 0x271 JUMPI PUSH2 0x271 PUSH2 0x484C JUMP JUMPDEST PUSH1 0x60 DUP8 ADD MLOAD MLOAD SWAP1 SWAP2 POP PUSH2 0x1583 DUP2 DUP6 PUSH2 0x1633 JUMP JUMPDEST PUSH1 0x1 JUMPDEST PUSH1 0x6 DUP2 LT ISZERO PUSH2 0x160C JUMPI PUSH2 0x140 DUP11 ADD MLOAD PUSH2 0x15A0 SWAP1 DUP7 SWAP1 PUSH2 0x1633 JUMP JUMPDEST PUSH2 0x15BA DUP6 DUP10 PUSH1 0x40 ADD MLOAD DUP4 PUSH1 0x6 DUP2 LT PUSH2 0x271 JUMPI PUSH2 0x271 PUSH2 0x484C JUMP JUMPDEST SWAP4 POP PUSH2 0x15C6 DUP4 DUP6 PUSH2 0x1746 JUMP JUMPDEST DUP8 PUSH1 0x60 ADD MLOAD DUP2 PUSH1 0x6 DUP2 LT PUSH2 0x15DC JUMPI PUSH2 0x15DC PUSH2 0x484C JUMP JUMPDEST PUSH1 0x20 MUL ADD MLOAD PUSH2 0x220 DUP12 ADD DUP2 SWAP1 MSTORE PUSH2 0x15F3 SWAP1 DUP7 PUSH2 0x1633 JUMP JUMPDEST PUSH2 0x220 DUP11 ADD MLOAD PUSH2 0x1604 SWAP1 DUP4 SWAP1 PUSH2 0x167F JUMP JUMPDEST PUSH1 0x1 ADD PUSH2 0x1586 JUMP JUMPDEST POP PUSH2 0x1621 DUP12 PUSH2 0x140 ADD MLOAD DUP14 DUP12 DUP10 DUP7 DUP11 DUP8 PUSH2 0x240C JUMP JUMPDEST SWAP10 POP POP POP POP POP POP POP POP POP POP JUMPDEST SWAP3 SWAP2 POP POP JUMP JUMPDEST PUSH1 0x0 DUP1 MLOAD PUSH1 0x20 PUSH2 0x48F3 DUP4 CODECOPY DUP2 MLOAD SWAP2 MSTORE DUP2 MLOAD DUP4 MLOAD MULMOD SWAP1 SWAP2 MSTORE POP JUMP JUMPDEST PUSH1 0x0 DUP1 MLOAD PUSH1 0x20 PUSH2 0x48F3 DUP4 CODECOPY DUP2 MLOAD SWAP2 MSTORE DUP2 MLOAD PUSH2 0x1676 SWAP1 PUSH1 0x0 DUP1 MLOAD PUSH1 0x20 PUSH2 0x48F3 DUP4 CODECOPY DUP2 MLOAD SWAP2 MSTORE PUSH2 0x4878 JUMP JUMPDEST DUP4 MLOAD ADDMOD SWAP1 SWAP2 MSTORE POP JUMP JUMPDEST PUSH1 0x0 DUP1 MLOAD PUSH1 0x20 PUSH2 0x48F3 DUP4 CODECOPY DUP2 MLOAD SWAP2 MSTORE DUP2 MLOAD DUP4 MLOAD ADDMOD SWAP1 SWAP2 MSTORE POP JUMP JUMPDEST PUSH1 0x40 DUP1 MLOAD DUP1 DUP3 ADD SWAP1 SWAP2 MSTORE PUSH1 0x0 DUP1 DUP3 MSTORE PUSH1 0x20 DUP3 ADD MSTORE DUP3 MLOAD ISZERO DUP1 ISZERO PUSH2 0x16C0 JUMPI POP DUP3 PUSH1 0x20 ADD MLOAD PUSH1 0x1 EQ JUMPDEST ISZERO PUSH2 0x16CD JUMPI PUSH1 0x0 PUSH1 0x20 DUP5 ADD MSTORE JUMPDEST PUSH2 0x162D DUP4 DUP4 DUP4 PUSH2 0x25A7 JUMP JUMPDEST PUSH1 0x40 DUP1 MLOAD PUSH1 0x20 DUP2 ADD SWAP1 SWAP2 MSTORE PUSH1 0x0 DUP2 MSTORE PUSH1 0x0 DUP1 MLOAD PUSH1 0x20 PUSH2 0x48F3 DUP4 CODECOPY DUP2 MLOAD SWAP2 MSTORE DUP3 LT PUSH2 0x1701 JUMPI PUSH1 0x0 DUP1 REVERT JUMPDEST POP PUSH1 0x40 DUP1 MLOAD PUSH1 0x20 DUP2 ADD SWAP1 SWAP2 MSTORE SWAP1 DUP2 MSTORE SWAP1 JUMP JUMPDEST PUSH1 0x40 DUP1 MLOAD DUP1 DUP3 ADD SWAP1 SWAP2 MSTORE PUSH1 0x0 DUP1 DUP3 MSTORE PUSH1 0x20 DUP3 ADD MSTORE JUMPDEST POP PUSH1 0x40 DUP1 MLOAD DUP1 DUP3 ADD SWAP1 SWAP2 MSTORE SWAP2 DUP3 MSTORE PUSH1 0x20 DUP3 ADD MSTORE SWAP1 JUMP JUMPDEST PUSH2 0x1728 PUSH2 0x3664 JUMP JUMPDEST PUSH2 0x1751 DUP3 DUP3 DUP5 PUSH2 0x25E9 JUMP JUMPDEST POP POP JUMP JUMPDEST PUSH1 0x40 DUP1 MLOAD DUP1 DUP3 ADD SWAP1 SWAP2 MSTORE PUSH1 0x0 DUP1 DUP3 MSTORE PUSH1 0x20 DUP3 ADD MSTORE DUP3 ISZERO DUP1 ISZERO PUSH2 0x1775 JUMPI POP DUP2 ISZERO JUMPDEST ISZERO PUSH2 0x1796 JUMPI PUSH1 0x40 MLOAD DUP1 PUSH1 0x40 ADD PUSH1 0x40 MSTORE DUP1 DUP5 DUP2 MSTORE PUSH1 0x20 ADD DUP4 DUP2 MSTORE POP SWAP1 POP PUSH2 0x162D JUMP JUMPDEST PUSH1 0x0 DUP1 MLOAD PUSH1 0x20 PUSH2 0x48D3 DUP4 CODECOPY DUP2 MLOAD SWAP2 MSTORE DUP4 LT PUSH2 0x17ED JUMPI PUSH1 0x40 MLOAD PUSH3 0x461BCD PUSH1 0xE5 SHL DUP2 MSTORE PUSH1 0x20 PUSH1 0x4 DUP3 ADD MSTORE PUSH1 0x12 PUSH1 0x24 DUP3 ADD MSTORE PUSH18 0x1E08185E1A5CC81A5CDB89DD081D985B1A59 PUSH1 0x72 SHL PUSH1 0x44 DUP3 ADD MSTORE PUSH1 0x64 ADD JUMPDEST PUSH1 0x40 MLOAD DUP1 SWAP2 SUB SWAP1 REVERT JUMPDEST PUSH1 0x0 DUP1 MLOAD PUSH1 0x20 PUSH2 0x48D3 DUP4 CODECOPY DUP2 MLOAD SWAP2 MSTORE DUP3 LT PUSH2 0x183F JUMPI PUSH1 0x40 MLOAD PUSH3 0x461BCD PUSH1 0xE5 SHL DUP2 MSTORE PUSH1 0x20 PUSH1 0x4 DUP3 ADD MSTORE PUSH1 0x12 PUSH1 0x24 DUP3 ADD MSTORE PUSH18 0x1E48185E1A5CC81A5CDB89DD081D985B1A59 PUSH1 0x72 SHL PUSH1 0x44 DUP3 ADD MSTORE PUSH1 0x64 ADD PUSH2 0x17E4 JUMP JUMPDEST PUSH1 0x0 PUSH1 0x0 DUP1 MLOAD PUSH1 0x20 PUSH2 0x48D3 DUP4 CODECOPY DUP2 MLOAD SWAP2 MSTORE DUP4 DUP5 MULMOD SWAP1 POP PUSH1 0x0 PUSH1 0x0 DUP1 MLOAD PUSH1 0x20 PUSH2 0x48D3 DUP4 CODECOPY DUP2 MLOAD SWAP2 MSTORE DUP6 DUP7 MULMOD SWAP1 POP PUSH1 0x0 DUP1 MLOAD PUSH1 0x20 PUSH2 0x48D3 DUP4 CODECOPY DUP2 MLOAD SWAP2 MSTORE DUP6 DUP3 MULMOD SWAP1 POP PUSH1 0x0 DUP1 MLOAD PUSH1 0x20 PUSH2 0x48D3 DUP4 CODECOPY DUP2 MLOAD SWAP2 MSTORE PUSH1 0x3 DUP3 ADDMOD SWAP1 POP DUP1 DUP3 EQ PUSH2 0x18D5 JUMPI PUSH1 0x40 MLOAD PUSH3 0x461BCD PUSH1 0xE5 SHL DUP2 MSTORE PUSH1 0x20 PUSH1 0x4 DUP3 ADD MSTORE PUSH1 0xF PUSH1 0x24 DUP3 ADD MSTORE PUSH15 0x6973206E6F74206F6E206375727665 PUSH1 0x88 SHL PUSH1 0x44 DUP3 ADD MSTORE PUSH1 0x64 ADD PUSH2 0x17E4 JUMP JUMPDEST POP POP PUSH1 0x40 DUP1 MLOAD DUP1 DUP3 ADD SWAP1 SWAP2 MSTORE SWAP3 DUP4 MSTORE POP PUSH1 0x20 DUP3 ADD MSTORE SWAP1 JUMP JUMPDEST PUSH2 0x18F5 PUSH2 0x3684 JUMP JUMPDEST PUSH1 0x40 DUP1 MLOAD PUSH1 0x60 DUP2 ADD DUP3 MSTORE PUSH1 0x0 DUP1 DUP3 MSTORE PUSH1 0x20 DUP3 ADD DUP2 SWAP1 MSTORE SWAP2 DUP2 ADD DUP3 SWAP1 MSTORE SWAP1 JUMPDEST DUP4 PUSH1 0x20 ADD MLOAD DUP2 LT ISZERO PUSH2 0x1957 JUMPI PUSH2 0x194F DUP6 PUSH1 0x0 ADD MLOAD DUP3 DUP2 MLOAD DUP2 LT PUSH2 0x1938 JUMPI PUSH2 0x1938 PUSH2 0x484C JUMP JUMPDEST PUSH1 0x20 MUL PUSH1 0x20 ADD ADD MLOAD DUP4 PUSH2 0x2679 SWAP1 SWAP2 SWAP1 PUSH4 0xFFFFFFFF AND JUMP JUMPDEST PUSH1 0x1 ADD PUSH2 0x1913 JUMP JUMPDEST POP PUSH1 0x0 JUMPDEST PUSH1 0x4 DUP2 LT ISZERO PUSH2 0x1991 JUMPI PUSH2 0x1989 DUP6 PUSH1 0x20 ADD MLOAD DUP3 PUSH1 0x4 DUP2 LT PUSH2 0x197D JUMPI PUSH2 0x197D PUSH2 0x484C JUMP JUMPDEST PUSH1 0x20 MUL ADD MLOAD DUP4 SWAP1 PUSH2 0x2707 JUMP JUMPDEST PUSH1 0x1 ADD PUSH2 0x195B JUMP JUMPDEST POP PUSH2 0x199B DUP2 PUSH2 0x2723 JUMP JUMPDEST PUSH1 0xA0 DUP4 ADD MSTORE PUSH2 0x160 DUP5 ADD MLOAD PUSH2 0x19B1 SWAP1 DUP3 SWAP1 PUSH2 0x2707 JUMP JUMPDEST PUSH2 0x19BA DUP2 PUSH2 0x2723 JUMP JUMPDEST PUSH1 0x40 DUP4 ADD MSTORE PUSH2 0x19C8 DUP2 PUSH2 0x2723 JUMP JUMPDEST PUSH1 0x60 DUP4 ADD MSTORE PUSH1 0x40 DUP5 ADD MLOAD PUSH2 0x19DD SWAP1 DUP3 SWAP1 PUSH2 0x2707 JUMP JUMPDEST PUSH2 0x19E6 DUP2 PUSH2 0x2723 JUMP JUMPDEST PUSH1 0xC0 DUP4 ADD MSTORE PUSH2 0x19F4 DUP2 PUSH2 0x2723 JUMP JUMPDEST PUSH1 0xE0 DUP4 ADD MSTORE PUSH2 0x180 DUP5 ADD MLOAD PUSH2 0x1A0A SWAP1 DUP3 SWAP1 PUSH2 0x2707 JUMP JUMPDEST PUSH2 0x1A13 DUP2 PUSH2 0x2723 JUMP JUMPDEST PUSH1 0x20 DUP4 ADD MSTORE PUSH1 0x0 JUMPDEST PUSH1 0x4 DUP2 LT ISZERO PUSH2 0x1A45 JUMPI PUSH2 0x1A3D DUP6 PUSH1 0x60 ADD MLOAD DUP3 PUSH1 0x4 DUP2 LT PUSH2 0x197D JUMPI PUSH2 0x197D PUSH2 0x484C JUMP JUMPDEST PUSH1 0x1 ADD PUSH2 0x1A1B JUMP JUMPDEST POP PUSH2 0x1A4F DUP2 PUSH2 0x2723 JUMP JUMPDEST PUSH2 0x180 DUP4 ADD MSTORE PUSH2 0x120 DUP5 ADD MLOAD PUSH2 0x1A66 SWAP1 DUP3 SWAP1 PUSH2 0x27C9 JUMP JUMPDEST PUSH1 0x0 JUMPDEST PUSH1 0x4 DUP2 LT ISZERO PUSH2 0x1A9F JUMPI PUSH2 0x1A97 DUP6 PUSH1 0x80 ADD MLOAD DUP3 PUSH1 0x4 DUP2 LT PUSH2 0x1A8B JUMPI PUSH2 0x1A8B PUSH2 0x484C JUMP JUMPDEST PUSH1 0x20 MUL ADD MLOAD DUP4 SWAP1 PUSH2 0x27C9 JUMP JUMPDEST PUSH1 0x1 ADD PUSH2 0x1A69 JUMP JUMPDEST POP PUSH1 0x0 JUMPDEST PUSH1 0x1 DUP2 LT ISZERO PUSH2 0x1ACD JUMPI PUSH2 0x1AC5 DUP6 PUSH1 0xA0 ADD MLOAD DUP3 PUSH1 0x1 DUP2 LT PUSH2 0x1A8B JUMPI PUSH2 0x1A8B PUSH2 0x484C JUMP JUMPDEST PUSH1 0x1 ADD PUSH2 0x1AA3 JUMP JUMPDEST POP PUSH1 0x0 JUMPDEST PUSH1 0x1 DUP2 LT ISZERO PUSH2 0x1AFB JUMPI PUSH2 0x1AF3 DUP6 PUSH1 0xC0 ADD MLOAD DUP3 PUSH1 0x1 DUP2 LT PUSH2 0x1A8B JUMPI PUSH2 0x1A8B PUSH2 0x484C JUMP JUMPDEST PUSH1 0x1 ADD PUSH2 0x1AD1 JUMP JUMPDEST POP PUSH1 0x0 JUMPDEST PUSH1 0x3 DUP2 LT ISZERO PUSH2 0x1B29 JUMPI PUSH2 0x1B21 DUP6 PUSH1 0xE0 ADD MLOAD DUP3 PUSH1 0x3 DUP2 LT PUSH2 0x1A8B JUMPI PUSH2 0x1A8B PUSH2 0x484C JUMP JUMPDEST PUSH1 0x1 ADD PUSH2 0x1AFF JUMP JUMPDEST POP PUSH2 0x180 DUP3 ADD MLOAD PUSH1 0x40 DUP1 MLOAD PUSH1 0x20 DUP2 ADD DUP3 MSTORE PUSH1 0x0 DUP2 MSTORE SWAP2 MLOAD DUP3 MSTORE PUSH2 0x1A0 DUP5 ADD DUP3 SWAP1 MSTORE DUP5 ADD MLOAD PUSH2 0x1B57 SWAP2 SWAP1 PUSH2 0x1633 JUMP JUMPDEST PUSH2 0x100 DUP5 ADD MLOAD PUSH2 0x1B68 SWAP1 DUP3 SWAP1 PUSH2 0x27C9 JUMP JUMPDEST PUSH2 0x1E0 DUP5 ADD MLOAD PUSH2 0x1B79 SWAP1 DUP3 SWAP1 PUSH2 0x27C9 JUMP JUMPDEST PUSH2 0x220 DUP5 ADD MLOAD PUSH2 0x1B8A SWAP1 DUP3 SWAP1 PUSH2 0x27C9 JUMP JUMPDEST PUSH2 0x240 DUP5 ADD MLOAD PUSH2 0x1B9B SWAP1 DUP3 SWAP1 PUSH2 0x27C9 JUMP JUMPDEST PUSH2 0x1A0 DUP5 ADD MLOAD PUSH2 0x1BAC SWAP1 DUP3 SWAP1 PUSH2 0x27C9 JUMP JUMPDEST PUSH2 0x1C0 DUP5 ADD MLOAD PUSH2 0x1BBD SWAP1 DUP3 SWAP1 PUSH2 0x27C9 JUMP JUMPDEST PUSH2 0x200 DUP5 ADD MLOAD PUSH2 0x1BCE SWAP1 DUP3 SWAP1 PUSH2 0x27C9 JUMP JUMPDEST PUSH2 0x140 DUP5 ADD MLOAD PUSH2 0x1BDF SWAP1 DUP3 SWAP1 PUSH2 0x27C9 JUMP JUMPDEST PUSH2 0x1BE8 DUP2 PUSH2 0x2723 JUMP JUMPDEST PUSH2 0x140 DUP4 ADD MSTORE PUSH2 0x260 DUP5 ADD MLOAD PUSH2 0x1BFF SWAP1 DUP3 SWAP1 PUSH2 0x2707 JUMP JUMPDEST PUSH2 0x280 DUP5 ADD MLOAD PUSH2 0x1C10 SWAP1 DUP3 SWAP1 PUSH2 0x2707 JUMP JUMPDEST PUSH2 0x1C19 DUP2 PUSH2 0x2723 JUMP JUMPDEST PUSH2 0x160 DUP4 ADD MSTORE POP SWAP3 SWAP2 POP POP JUMP JUMPDEST PUSH1 0x0 DUP1 DUP5 PUSH1 0x20 ADD MLOAD PUSH1 0x1 PUSH1 0x1 PUSH1 0x40 SHL SUB DUP2 GT ISZERO PUSH2 0x1C45 JUMPI PUSH2 0x1C45 PUSH2 0x3B33 JUMP JUMPDEST PUSH1 0x40 MLOAD SWAP1 DUP1 DUP3 MSTORE DUP1 PUSH1 0x20 MUL PUSH1 0x20 ADD DUP3 ADD PUSH1 0x40 MSTORE DUP1 ISZERO PUSH2 0x1C6E JUMPI DUP2 PUSH1 0x20 ADD PUSH1 0x20 DUP3 MUL DUP1 CALLDATASIZE DUP4 CALLDATACOPY ADD SWAP1 POP JUMPDEST POP SWAP1 POP PUSH1 0x0 JUMPDEST DUP2 MLOAD DUP2 LT ISZERO PUSH2 0x1CA3 JUMPI DUP1 DUP3 DUP3 DUP2 MLOAD DUP2 LT PUSH2 0x1C90 JUMPI PUSH2 0x1C90 PUSH2 0x484C JUMP JUMPDEST PUSH1 0x20 SWAP1 DUP2 MUL SWAP2 SWAP1 SWAP2 ADD ADD MSTORE PUSH1 0x1 ADD PUSH2 0x1C74 JUMP JUMPDEST POP PUSH1 0x0 DUP6 PUSH1 0x20 ADD MLOAD GT PUSH2 0x1CB5 JUMPI PUSH1 0x0 DUP1 REVERT JUMPDEST PUSH1 0x0 PUSH2 0x1CC1 PUSH1 0x0 PUSH2 0x16D8 JUMP JUMPDEST SWAP1 POP PUSH1 0x0 JUMPDEST DUP7 PUSH1 0x20 ADD MLOAD DUP2 LT ISZERO PUSH2 0x1D3F JUMPI PUSH2 0x1CEB DUP2 DUP9 PUSH1 0x0 ADD MLOAD DUP10 PUSH1 0x40 ADD MLOAD DUP9 PUSH2 0x180 ADD MLOAD PUSH2 0x27D7 JUMP JUMPDEST PUSH2 0x220 DUP7 ADD MSTORE DUP6 MLOAD DUP1 MLOAD PUSH2 0x1D26 SWAP2 PUSH2 0x1D1A SWAP2 DUP5 SWAP1 DUP2 LT PUSH2 0x1D0D JUMPI PUSH2 0x1D0D PUSH2 0x484C JUMP JUMPDEST PUSH1 0x20 MUL PUSH1 0x20 ADD ADD MLOAD PUSH2 0x16D8 JUMP JUMPDEST PUSH2 0x220 DUP8 ADD MLOAD SWAP1 PUSH2 0x1633 JUMP JUMPDEST PUSH2 0x220 DUP6 ADD MLOAD PUSH2 0x1D37 SWAP1 DUP4 SWAP1 PUSH2 0x167F JUMP JUMPDEST PUSH1 0x1 ADD PUSH2 0x1CC6 JUMP JUMPDEST POP PUSH1 0xC0 DUP6 ADD MLOAD PUSH2 0x1D58 SWAP1 PUSH1 0x0 JUMPDEST PUSH1 0x20 MUL ADD MLOAD DUP3 SWAP1 PUSH2 0x1633 JUMP JUMPDEST PUSH2 0x140 DUP6 ADD MLOAD PUSH1 0x40 DUP1 MLOAD PUSH1 0x20 DUP2 ADD SWAP1 SWAP2 MSTORE PUSH1 0x0 DUP2 MSTORE SWAP1 MLOAD DUP2 MSTORE PUSH2 0x1D7B DUP2 DUP4 PUSH2 0x167F JUMP JUMPDEST PUSH2 0x1D84 DUP6 PUSH2 0xE48 JUMP JUMPDEST PUSH1 0x80 DUP6 ADD MLOAD PUSH1 0x0 SWAP1 PUSH2 0x1D97 SWAP1 PUSH1 0x4 PUSH2 0x16F JUMP JUMPDEST SWAP1 POP PUSH2 0x1DB1 DUP8 PUSH2 0x100 ADD MLOAD DUP3 PUSH2 0x1633 SWAP1 SWAP2 SWAP1 PUSH4 0xFFFFFFFF AND JUMP JUMPDEST PUSH2 0x1DBD PUSH1 0x1 PUSH1 0x4 PUSH2 0x4878 JUMP JUMPDEST PUSH1 0x3 EQ PUSH2 0x1DC9 JUMPI PUSH1 0x0 DUP1 REVERT JUMPDEST PUSH1 0x40 DUP1 MLOAD PUSH1 0x20 DUP2 ADD SWAP1 SWAP2 MSTORE PUSH1 0x0 DUP2 MSTORE PUSH1 0x0 JUMPDEST PUSH1 0x3 DUP2 LT ISZERO PUSH2 0x1E5D JUMPI PUSH2 0x1DFD DUP10 PUSH1 0xE0 ADD MLOAD DUP3 PUSH1 0x3 DUP2 LT PUSH2 0x16F JUMPI PUSH2 0x16F PUSH2 0x484C JUMP JUMPDEST SWAP2 POP PUSH2 0x1E16 DUP9 PUSH1 0x40 ADD MLOAD DUP4 PUSH2 0x1633 SWAP1 SWAP2 SWAP1 PUSH4 0xFFFFFFFF AND JUMP JUMPDEST PUSH2 0x1E3B DUP10 PUSH1 0x80 ADD MLOAD DUP3 PUSH1 0x4 DUP2 LT PUSH2 0x1E2F JUMPI PUSH2 0x1E2F PUSH2 0x484C JUMP JUMPDEST PUSH1 0x20 MUL ADD MLOAD DUP4 SWAP1 PUSH2 0x167F JUMP JUMPDEST PUSH1 0x60 DUP9 ADD MLOAD PUSH2 0x1E4B SWAP1 DUP4 SWAP1 PUSH2 0x167F JUMP JUMPDEST PUSH2 0x1E55 DUP4 DUP4 PUSH2 0x1633 JUMP JUMPDEST PUSH1 0x1 ADD PUSH2 0x1DDB JUMP JUMPDEST POP PUSH1 0x80 DUP9 ADD MLOAD PUSH2 0x1E6E SWAP1 PUSH1 0x3 PUSH2 0x16F JUMP JUMPDEST SWAP1 POP PUSH2 0x1E87 DUP8 PUSH1 0x60 ADD MLOAD DUP3 PUSH2 0x167F SWAP1 SWAP2 SWAP1 PUSH4 0xFFFFFFFF AND JUMP JUMPDEST PUSH2 0x1E91 DUP3 DUP3 PUSH2 0x1633 JUMP JUMPDEST PUSH2 0x1E9B DUP4 DUP4 PUSH2 0x164D JUMP JUMPDEST PUSH1 0x0 PUSH2 0x1EB0 DUP11 PUSH1 0x0 ADD MLOAD DUP10 PUSH2 0x180 ADD MLOAD PUSH2 0x2885 JUMP JUMPDEST PUSH1 0x80 DUP10 ADD MLOAD SWAP1 SWAP2 POP PUSH2 0x1EC3 SWAP1 PUSH1 0x5 PUSH2 0x1D4C JUMP JUMPDEST PUSH2 0x1ECD DUP5 DUP3 PUSH2 0x164D JUMP JUMPDEST PUSH1 0x0 PUSH2 0x1EDA DUP12 DUP12 DUP12 PUSH2 0x290B JUMP JUMPDEST SWAP1 POP PUSH2 0x1EE6 DUP6 DUP3 PUSH2 0x167F JUMP JUMPDEST PUSH2 0x120 DUP11 ADD MLOAD PUSH1 0x40 DUP1 MLOAD PUSH1 0x20 DUP2 ADD SWAP1 SWAP2 MSTORE PUSH1 0x0 DUP2 MSTORE SWAP1 MLOAD DUP2 MSTORE DUP12 MLOAD PUSH2 0x180 DUP12 ADD MLOAD PUSH2 0x1F1B SWAP2 PUSH2 0x1F14 SWAP2 PUSH2 0x2B5B JUMP JUMPDEST DUP3 SWAP1 PUSH2 0x1633 JUMP JUMPDEST SWAP5 MLOAD SWAP5 MLOAD SWAP1 SWAP5 EQ SWAP11 SWAP10 POP POP POP POP POP POP POP POP POP POP JUMP JUMPDEST PUSH1 0x40 DUP1 MLOAD PUSH1 0x20 DUP1 DUP3 ADD DUP4 MSTORE PUSH1 0x0 DUP3 MSTORE DUP3 MLOAD PUSH1 0xC0 DUP2 ADD DUP5 MSTORE DUP2 DUP2 MSTORE DUP1 DUP3 ADD DUP3 SWAP1 MSTORE SWAP3 DUP4 ADD MSTORE DUP4 MLOAD PUSH1 0x60 DUP4 ADD MSTORE PUSH1 0x80 DUP3 ADD DUP4 SWAP1 MSTORE PUSH1 0x0 DUP1 MLOAD PUSH1 0x20 PUSH2 0x48F3 DUP4 CODECOPY DUP2 MLOAD SWAP2 MSTORE PUSH1 0xA0 DUP4 ADD MSTORE SWAP1 PUSH2 0x1F7F PUSH2 0x3838 JUMP JUMPDEST PUSH1 0x0 PUSH1 0x20 DUP3 PUSH1 0xC0 DUP6 PUSH1 0x5 GAS STATICCALL SWAP1 POP DUP1 PUSH2 0x1F97 JUMPI PUSH1 0x0 DUP1 REVERT JUMPDEST POP PUSH1 0x40 DUP1 MLOAD PUSH1 0x20 DUP2 ADD SWAP1 SWAP2 MSTORE SWAP1 MLOAD DUP2 MSTORE SWAP5 SWAP4 POP POP POP POP JUMP JUMPDEST PUSH2 0x1751 DUP3 DUP3 DUP5 PUSH2 0x25A7 JUMP JUMPDEST PUSH1 0x40 DUP1 MLOAD DUP1 DUP3 ADD SWAP1 SWAP2 MSTORE PUSH1 0x0 DUP1 DUP3 MSTORE PUSH1 0x20 DUP3 ADD MSTORE PUSH2 0x1FD9 PUSH1 0x0 DUP1 PUSH2 0x1713 JUMP JUMPDEST SWAP1 POP PUSH1 0x0 PUSH2 0x2008 DUP5 PUSH1 0x80 ADD MLOAD PUSH1 0x0 PUSH1 0x4 DUP2 LT PUSH2 0x1FF7 JUMPI PUSH2 0x1FF7 PUSH2 0x484C JUMP JUMPDEST PUSH1 0x20 MUL ADD MLOAD PUSH1 0x80 DUP8 ADD MLOAD PUSH1 0x0 PUSH2 0x271 JUMP JUMPDEST SWAP1 POP PUSH2 0x2014 DUP3 DUP3 PUSH2 0x1746 JUMP JUMPDEST PUSH1 0x80 DUP5 ADD MLOAD PUSH2 0x2030 SWAP1 PUSH1 0x1 PUSH1 0x20 MUL ADD MLOAD PUSH1 0x80 DUP8 ADD MLOAD PUSH1 0x1 PUSH2 0x271 JUMP JUMPDEST SWAP1 POP PUSH2 0x203C DUP3 DUP3 PUSH2 0x1746 JUMP JUMPDEST PUSH1 0x80 DUP5 ADD MLOAD PUSH2 0x2058 SWAP1 PUSH1 0x2 PUSH1 0x20 MUL ADD MLOAD PUSH1 0x80 DUP8 ADD MLOAD PUSH1 0x2 PUSH2 0x271 JUMP JUMPDEST SWAP1 POP PUSH2 0x2064 DUP3 DUP3 PUSH2 0x1746 JUMP JUMPDEST PUSH1 0x80 DUP5 ADD MLOAD PUSH2 0x2080 SWAP1 PUSH1 0x3 PUSH1 0x20 MUL ADD MLOAD PUSH1 0x80 DUP8 ADD MLOAD PUSH1 0x3 PUSH2 0x271 JUMP JUMPDEST SWAP1 POP PUSH2 0x208C DUP3 DUP3 PUSH2 0x1746 JUMP JUMPDEST PUSH1 0x80 DUP5 ADD MLOAD PUSH1 0x0 SWAP1 PUSH2 0x209E SWAP1 DUP3 PUSH2 0x16F JUMP JUMPDEST PUSH1 0x80 DUP7 ADD MLOAD SWAP1 SWAP2 POP PUSH2 0x20B1 SWAP1 PUSH1 0x1 PUSH2 0x1D4C JUMP JUMPDEST PUSH1 0x80 DUP7 ADD MLOAD PUSH2 0x20C3 SWAP1 DUP3 SWAP1 PUSH1 0x4 PUSH2 0x271 JUMP JUMPDEST SWAP2 POP PUSH2 0x20CF DUP4 DUP4 PUSH2 0x1746 JUMP JUMPDEST PUSH1 0x80 DUP6 ADD MLOAD PUSH2 0x20DF SWAP1 PUSH1 0x0 PUSH2 0x16F JUMP JUMPDEST PUSH1 0x80 DUP7 ADD MLOAD SWAP1 SWAP2 POP PUSH2 0x20F2 SWAP1 PUSH1 0x2 PUSH2 0x1D4C JUMP JUMPDEST PUSH1 0x80 DUP7 ADD MLOAD PUSH2 0x2104 SWAP1 DUP3 SWAP1 PUSH1 0x5 PUSH2 0x271 JUMP JUMPDEST SWAP2 POP PUSH2 0x2110 DUP4 DUP4 PUSH2 0x1746 JUMP JUMPDEST PUSH1 0x80 DUP7 ADD MLOAD PUSH1 0xC0 ADD MLOAD PUSH2 0x2124 SWAP1 DUP5 SWAP1 PUSH2 0x1746 JUMP JUMPDEST PUSH1 0xA0 DUP6 ADD MLOAD MLOAD PUSH1 0x80 DUP8 ADD MLOAD PUSH2 0x213B SWAP2 SWAP1 PUSH1 0x7 PUSH2 0x271 JUMP JUMPDEST SWAP2 POP PUSH2 0x2147 DUP4 DUP4 PUSH2 0x1746 JUMP JUMPDEST PUSH1 0xC0 DUP6 ADD MLOAD MLOAD PUSH2 0x2158 SWAP1 DUP5 SWAP1 PUSH2 0x1FAF JUMP JUMPDEST PUSH1 0x0 PUSH2 0x2165 DUP8 DUP8 DUP8 PUSH2 0x131 JUMP JUMPDEST SWAP1 POP PUSH2 0x2171 DUP5 DUP3 PUSH2 0x1746 JUMP JUMPDEST PUSH2 0x217D PUSH1 0x1 PUSH1 0x4 PUSH2 0x4878 JUMP JUMPDEST PUSH1 0x3 EQ PUSH2 0x2189 JUMPI PUSH1 0x0 DUP1 REVERT JUMPDEST PUSH1 0x0 PUSH2 0x2195 PUSH1 0x1 PUSH2 0x16D8 JUMP JUMPDEST SWAP1 POP PUSH1 0x0 PUSH2 0x21B3 DUP8 PUSH1 0x80 ADD MLOAD PUSH1 0x4 PUSH1 0x9 DUP2 LT PUSH2 0x16F JUMPI PUSH2 0x16F PUSH2 0x484C JUMP JUMPDEST SWAP1 POP PUSH1 0x0 JUMPDEST PUSH1 0x4 DUP2 LT ISZERO PUSH2 0x227B JUMPI PUSH2 0x180 DUP9 ADD MLOAD PUSH1 0x40 DUP1 MLOAD PUSH1 0x20 DUP2 ADD SWAP1 SWAP2 MSTORE PUSH1 0x0 DUP2 MSTORE SWAP1 MLOAD DUP2 MSTORE SWAP5 POP DUP1 PUSH1 0x0 SUB PUSH2 0x21F3 JUMPI PUSH2 0x21EE DUP6 DUP5 PUSH2 0x1633 JUMP JUMPDEST PUSH2 0x2224 JUMP JUMPDEST PUSH2 0x120 DUP11 ADD MLOAD PUSH2 0x2224 SWAP1 PUSH2 0x2208 PUSH1 0x1 DUP5 PUSH2 0x4878 JUMP JUMPDEST PUSH1 0x3 DUP2 LT PUSH2 0x2218 JUMPI PUSH2 0x2218 PUSH2 0x484C JUMP JUMPDEST PUSH1 0x20 MUL ADD MLOAD DUP7 SWAP1 PUSH2 0x1633 JUMP JUMPDEST PUSH1 0x40 DUP9 ADD MLOAD PUSH2 0x2234 SWAP1 DUP7 SWAP1 PUSH2 0x1633 JUMP JUMPDEST PUSH1 0x60 DUP9 ADD MLOAD PUSH2 0x2244 SWAP1 DUP7 SWAP1 PUSH2 0x167F JUMP JUMPDEST PUSH2 0x2269 DUP10 PUSH1 0x80 ADD MLOAD DUP3 PUSH1 0x4 DUP2 LT PUSH2 0x225D JUMPI PUSH2 0x225D PUSH2 0x484C JUMP JUMPDEST PUSH1 0x20 MUL ADD MLOAD DUP7 SWAP1 PUSH2 0x167F JUMP JUMPDEST PUSH2 0x2273 DUP3 DUP7 PUSH2 0x1633 JUMP JUMPDEST PUSH1 0x1 ADD PUSH2 0x21B8 JUMP JUMPDEST POP PUSH1 0x40 DUP9 ADD MLOAD PUSH2 0x228B SWAP1 DUP3 PUSH2 0x1699 JUMP JUMPDEST SWAP5 POP PUSH2 0x2297 DUP7 DUP7 PUSH2 0x1746 JUMP JUMPDEST PUSH1 0x80 DUP8 ADD MLOAD PUSH2 0x22A7 SWAP1 PUSH1 0x4 PUSH2 0x16F JUMP JUMPDEST SWAP1 POP PUSH2 0x22C0 DUP8 PUSH1 0x40 ADD MLOAD DUP3 PUSH2 0x1633 SWAP1 SWAP2 SWAP1 PUSH4 0xFFFFFFFF AND JUMP JUMPDEST PUSH2 0x100 DUP9 ADD MLOAD PUSH2 0x22D1 SWAP1 DUP3 SWAP1 PUSH2 0x1633 JUMP JUMPDEST PUSH1 0x0 JUMPDEST PUSH2 0x22E0 PUSH1 0x1 PUSH1 0x4 PUSH2 0x4878 JUMP JUMPDEST DUP2 LT ISZERO PUSH2 0x2354 JUMPI PUSH2 0x2300 DUP10 PUSH1 0xE0 ADD MLOAD DUP3 PUSH1 0x3 DUP2 LT PUSH2 0x16F JUMPI PUSH2 0x16F PUSH2 0x484C JUMP JUMPDEST SWAP5 POP PUSH2 0x2319 DUP9 PUSH1 0x40 ADD MLOAD DUP7 PUSH2 0x1633 SWAP1 SWAP2 SWAP1 PUSH4 0xFFFFFFFF AND JUMP JUMPDEST PUSH1 0x60 DUP9 ADD MLOAD PUSH2 0x2329 SWAP1 DUP7 SWAP1 PUSH2 0x167F JUMP JUMPDEST PUSH2 0x2342 DUP10 PUSH1 0x80 ADD MLOAD DUP3 PUSH1 0x4 DUP2 LT PUSH2 0x225D JUMPI PUSH2 0x225D PUSH2 0x484C JUMP JUMPDEST PUSH2 0x234C DUP3 DUP7 PUSH2 0x1633 JUMP JUMPDEST PUSH1 0x1 ADD PUSH2 0x22D4 JUMP JUMPDEST POP PUSH1 0xA0 DUP10 ADD MLOAD PUSH2 0x2367 SWAP1 DUP3 SWAP1 PUSH1 0x3 PUSH2 0x271 JUMP JUMPDEST SWAP5 POP PUSH2 0x2373 DUP7 DUP7 PUSH2 0x2B8A JUMP JUMPDEST PUSH2 0x238D PUSH1 0x0 DUP11 PUSH1 0x0 ADD MLOAD DUP12 PUSH1 0x40 ADD MLOAD DUP11 PUSH2 0x180 ADD MLOAD PUSH2 0x27D7 JUMP JUMPDEST PUSH2 0x1E0 DUP9 ADD DUP2 SWAP1 MSTORE MLOAD PUSH1 0x0 SUB PUSH2 0x23A2 JUMPI PUSH1 0x0 DUP1 REVERT JUMPDEST POP PUSH2 0x1E0 DUP7 ADD MLOAD PUSH1 0x40 DUP1 MLOAD PUSH1 0x20 DUP2 ADD SWAP1 SWAP2 MSTORE PUSH1 0x0 DUP2 MSTORE SWAP1 MLOAD DUP2 MSTORE PUSH1 0x80 DUP8 ADD MLOAD PUSH2 0x23CC SWAP1 PUSH1 0x5 PUSH2 0x1D4C JUMP JUMPDEST PUSH1 0x40 DUP9 ADD MLOAD PUSH2 0x23DB SWAP1 DUP3 PUSH2 0x1699 JUMP JUMPDEST SWAP5 POP PUSH2 0x23E7 DUP7 DUP7 PUSH2 0x1746 JUMP JUMPDEST PUSH1 0x0 PUSH2 0x23F3 DUP10 DUP10 PUSH2 0x2B95 JUMP JUMPDEST SWAP1 POP PUSH2 0x23FF DUP8 DUP3 PUSH2 0x1746 JUMP JUMPDEST POP POP POP POP POP POP SWAP4 SWAP3 POP POP POP JUMP JUMPDEST PUSH1 0x40 DUP1 MLOAD DUP1 DUP3 ADD SWAP1 SWAP2 MSTORE PUSH1 0x0 DUP1 DUP3 MSTORE PUSH1 0x20 DUP1 DUP4 ADD DUP3 DUP2 MSTORE DUP8 MLOAD DUP5 MSTORE SWAP1 DUP8 ADD MLOAD SWAP1 MSTORE SWAP1 PUSH2 0x2446 DUP8 PUSH2 0x160 ADD MLOAD DUP7 PUSH2 0x1FAF SWAP1 SWAP2 SWAP1 PUSH4 0xFFFFFFFF AND JUMP JUMPDEST PUSH2 0x2450 DUP2 DUP7 PUSH2 0x1746 JUMP JUMPDEST PUSH1 0x40 DUP1 MLOAD PUSH1 0x20 DUP2 ADD SWAP1 SWAP2 MSTORE PUSH1 0x0 DUP2 MSTORE DUP4 MLOAD DUP2 MSTORE PUSH2 0x160 DUP9 ADD MLOAD PUSH2 0x2474 SWAP1 DUP3 SWAP1 PUSH2 0x1633 JUMP JUMPDEST PUSH2 0x247E DUP2 DUP7 PUSH2 0x167F JUMP JUMPDEST PUSH1 0x0 PUSH2 0x24B6 DUP3 PUSH2 0x24B0 PUSH1 0x40 DUP1 MLOAD DUP1 DUP3 ADD DUP3 MSTORE PUSH1 0x0 DUP1 DUP3 MSTORE PUSH1 0x20 SWAP2 DUP3 ADD MSTORE DUP2 MLOAD DUP1 DUP4 ADD SWAP1 SWAP3 MSTORE PUSH1 0x1 DUP3 MSTORE PUSH1 0x2 SWAP1 DUP3 ADD MSTORE SWAP1 JUMP JUMPDEST SWAP1 PUSH2 0x1699 JUMP JUMPDEST SWAP1 POP PUSH2 0x24C2 DUP4 DUP3 PUSH2 0x2B8A JUMP JUMPDEST PUSH2 0x180 DUP10 ADD MLOAD PUSH2 0x260 DUP12 ADD MLOAD PUSH2 0x24D7 SWAP2 PUSH2 0x1699 JUMP JUMPDEST SWAP1 POP PUSH1 0x0 PUSH2 0x24FA DUP11 PUSH2 0x1A0 ADD MLOAD PUSH1 0x40 DUP1 MLOAD PUSH1 0x20 DUP2 ADD SWAP1 SWAP2 MSTORE PUSH1 0x0 DUP2 MSTORE SWAP1 MLOAD DUP2 MSTORE SWAP1 JUMP JUMPDEST SWAP1 POP PUSH2 0x2514 DUP11 PUSH2 0x160 ADD MLOAD DUP3 PUSH2 0x1633 SWAP1 SWAP2 SWAP1 PUSH4 0xFFFFFFFF AND JUMP JUMPDEST PUSH2 0x280 DUP12 ADD MLOAD PUSH1 0x0 SWAP1 PUSH2 0x2527 SWAP1 DUP4 PUSH2 0x1699 JUMP JUMPDEST SWAP1 POP PUSH2 0x2533 DUP4 DUP3 PUSH2 0x1746 JUMP JUMPDEST PUSH2 0x253D DUP6 DUP5 PUSH2 0x1746 JUMP JUMPDEST PUSH1 0x0 PUSH2 0x255C DUP13 PUSH2 0x160 ADD MLOAD DUP15 PUSH2 0x280 ADD MLOAD PUSH2 0x1699 SWAP1 SWAP2 SWAP1 PUSH4 0xFFFFFFFF AND JUMP JUMPDEST SWAP1 POP PUSH2 0x2576 DUP14 PUSH2 0x260 ADD MLOAD DUP3 PUSH2 0x1746 SWAP1 SWAP2 SWAP1 PUSH4 0xFFFFFFFF AND JUMP JUMPDEST PUSH2 0x257F DUP2 PUSH2 0x2E63 JUMP JUMPDEST DUP14 MLOAD PUSH1 0x20 DUP16 ADD MLOAD PUSH2 0x2592 DUP9 DUP4 DUP6 DUP5 PUSH2 0x2EA3 JUMP JUMPDEST SWAP9 POP POP POP POP POP POP POP POP POP SWAP8 SWAP7 POP POP POP POP POP POP POP JUMP JUMPDEST PUSH2 0x25AF PUSH2 0x3856 JUMP JUMPDEST DUP4 MLOAD DUP2 MSTORE PUSH1 0x20 DUP5 ADD MLOAD DUP2 PUSH1 0x1 PUSH1 0x20 MUL ADD MSTORE DUP3 MLOAD DUP2 PUSH1 0x2 PUSH1 0x20 MUL ADD MSTORE PUSH1 0x0 PUSH1 0x40 DUP4 PUSH1 0x60 DUP5 PUSH1 0x7 GAS STATICCALL SWAP1 POP DUP1 PUSH2 0x25E2 JUMPI PUSH1 0x0 DUP1 REVERT JUMPDEST POP POP POP POP POP JUMP JUMPDEST DUP2 MLOAD ISZERO DUP1 ISZERO PUSH2 0x25FA JUMPI POP PUSH1 0x20 DUP3 ADD MLOAD ISZERO JUMPDEST ISZERO PUSH2 0x2612 JUMPI DUP3 MLOAD DUP2 MSTORE PUSH1 0x20 SWAP3 DUP4 ADD MLOAD SWAP3 ADD SWAP2 SWAP1 SWAP2 MSTORE POP JUMP JUMPDEST DUP3 MLOAD ISZERO DUP1 ISZERO PUSH2 0x2623 JUMPI POP PUSH1 0x20 DUP4 ADD MLOAD ISZERO JUMPDEST ISZERO PUSH2 0x2638 JUMPI DUP2 MLOAD DUP2 MSTORE PUSH1 0x20 SWAP2 DUP3 ADD MLOAD SWAP2 ADD MSTORE POP JUMP JUMPDEST PUSH2 0x2640 PUSH2 0x3874 JUMP JUMPDEST DUP4 MLOAD DUP2 MSTORE PUSH1 0x20 DUP1 DUP6 ADD MLOAD DUP2 DUP4 ADD MSTORE DUP4 MLOAD PUSH1 0x40 DUP4 ADD MSTORE DUP4 ADD MLOAD DUP2 PUSH1 0x3 JUMPDEST PUSH1 0x20 MUL ADD MSTORE PUSH1 0x0 PUSH1 0x40 DUP4 PUSH1 0x80 DUP5 PUSH1 0x6 GAS STATICCALL SWAP1 POP DUP1 PUSH2 0x25E2 JUMPI PUSH1 0x0 DUP1 REVERT JUMPDEST DUP2 MLOAD PUSH1 0x20 DUP1 DUP5 ADD MLOAD PUSH1 0x40 MLOAD PUSH1 0x0 SWAP3 DUP2 ADD SWAP3 SWAP1 SWAP3 MSTORE PUSH1 0x24 DUP3 ADD DUP4 SWAP1 MSTORE PUSH1 0x44 DUP3 ADD MSTORE PUSH1 0x64 DUP2 ADD DUP4 SWAP1 MSTORE PUSH1 0x84 ADD PUSH1 0x40 DUP1 MLOAD DUP1 DUP4 SUB PUSH1 0x1F NOT ADD DUP2 MSTORE SWAP2 DUP2 MSTORE DUP2 MLOAD PUSH1 0x20 SWAP3 DUP4 ADD KECCAK256 DUP6 MSTORE DUP5 DUP3 ADD MLOAD SWAP1 MLOAD PUSH1 0x1 PUSH1 0xE0 SHL SWAP3 DUP2 ADD SWAP3 SWAP1 SWAP3 MSTORE PUSH1 0x24 DUP3 ADD DUP4 SWAP1 MSTORE PUSH1 0x44 DUP3 ADD MSTORE PUSH1 0x64 DUP2 ADD DUP4 SWAP1 MSTORE PUSH1 0x84 ADD PUSH1 0x40 DUP1 MLOAD PUSH1 0x1F NOT DUP2 DUP5 SUB ADD DUP2 MSTORE SWAP2 SWAP1 MSTORE DUP1 MLOAD PUSH1 0x20 SWAP2 DUP3 ADD KECCAK256 SWAP4 ADD SWAP3 SWAP1 SWAP3 MSTORE POP POP JUMP JUMPDEST PUSH2 0x2715 DUP3 DUP3 PUSH1 0x0 ADD MLOAD PUSH2 0x2679 JUMP JUMPDEST PUSH2 0x1751 DUP3 DUP3 PUSH1 0x20 ADD MLOAD PUSH2 0x2679 JUMP JUMPDEST PUSH1 0x40 DUP1 MLOAD PUSH1 0x20 DUP2 ADD SWAP1 SWAP2 MSTORE PUSH1 0x0 DUP2 MSTORE DUP2 MLOAD PUSH1 0x20 DUP1 DUP5 ADD MLOAD PUSH1 0x40 DUP1 DUP7 ADD MLOAD SWAP1 MLOAD PUSH1 0x1 PUSH1 0xE1 SHL SWAP4 DUP2 ADD SWAP4 SWAP1 SWAP4 MSTORE PUSH1 0x24 DUP4 ADD SWAP4 SWAP1 SWAP4 MSTORE PUSH1 0x44 DUP3 ADD MSTORE PUSH1 0xE0 SWAP2 SWAP1 SWAP2 SHL PUSH1 0x1 PUSH1 0x1 PUSH1 0xE0 SHL SUB NOT AND PUSH1 0x64 DUP3 ADD MSTORE PUSH1 0x0 SWAP1 PUSH1 0x68 ADD PUSH1 0x40 MLOAD PUSH1 0x20 DUP2 DUP4 SUB SUB DUP2 MSTORE SWAP1 PUSH1 0x40 MSTORE DUP1 MLOAD SWAP1 PUSH1 0x20 ADD KECCAK256 SWAP1 POP PUSH1 0x1 DUP4 PUSH1 0x40 ADD DUP2 DUP2 MLOAD PUSH2 0x27A1 SWAP2 SWAP1 PUSH2 0x488B JUMP JUMPDEST PUSH4 0xFFFFFFFF AND SWAP1 MSTORE POP PUSH1 0x40 DUP1 MLOAD PUSH1 0x20 DUP2 ADD SWAP1 SWAP2 MSTORE PUSH1 0x1 PUSH1 0x1 PUSH1 0xFD SHL SUB SWAP2 SWAP1 SWAP2 AND DUP2 MSTORE SWAP3 SWAP2 POP POP JUMP JUMPDEST PUSH2 0x1751 DUP3 DUP3 PUSH1 0x0 ADD MLOAD PUSH2 0x2679 JUMP JUMPDEST PUSH1 0x40 DUP1 MLOAD PUSH1 0x20 DUP2 ADD SWAP1 SWAP2 MSTORE PUSH1 0x0 DUP2 MSTORE DUP4 DUP6 LT PUSH2 0x27F2 JUMPI PUSH1 0x0 DUP1 REVERT JUMPDEST PUSH1 0x0 PUSH2 0x27FE PUSH1 0x1 PUSH2 0x16D8 JUMP JUMPDEST SWAP1 POP PUSH1 0x0 PUSH2 0x280C DUP6 DUP9 PUSH2 0x1F30 JUMP JUMPDEST SWAP1 POP PUSH2 0x2818 DUP5 DUP8 PUSH2 0x1F30 JUMP JUMPDEST SWAP3 POP PUSH2 0x2824 DUP4 DUP4 PUSH2 0x164D JUMP JUMPDEST DUP3 MLOAD PUSH1 0x0 SUB PUSH2 0x2832 JUMPI PUSH1 0x0 DUP1 REVERT JUMPDEST PUSH2 0x283C DUP4 DUP3 PUSH2 0x1633 JUMP JUMPDEST PUSH1 0x40 DUP1 MLOAD PUSH1 0x20 DUP2 ADD SWAP1 SWAP2 MSTORE PUSH1 0x0 DUP2 MSTORE DUP5 MLOAD DUP2 MSTORE PUSH2 0x2859 DUP2 DUP4 PUSH2 0x164D JUMP JUMPDEST PUSH2 0x2865 PUSH2 0x1F14 DUP9 PUSH2 0x16D8 JUMP JUMPDEST PUSH2 0x286E DUP2 PUSH2 0x2FA3 JUMP JUMPDEST SWAP1 POP PUSH2 0x287A DUP5 DUP3 PUSH2 0x1633 JUMP JUMPDEST POP POP POP SWAP5 SWAP4 POP POP POP POP JUMP JUMPDEST PUSH1 0x40 DUP1 MLOAD PUSH1 0x20 DUP2 ADD SWAP1 SWAP2 MSTORE PUSH1 0x0 DUP2 MSTORE PUSH1 0x0 PUSH2 0x28A0 PUSH1 0x1 PUSH2 0x16D8 JUMP JUMPDEST SWAP1 POP PUSH1 0x0 PUSH2 0x28AD DUP6 PUSH2 0x16D8 JUMP JUMPDEST PUSH1 0x40 DUP1 MLOAD PUSH1 0x20 DUP2 ADD SWAP1 SWAP2 MSTORE PUSH1 0x0 DUP2 MSTORE DUP6 MLOAD DUP2 MSTORE SWAP1 SWAP2 POP PUSH2 0x28CD DUP2 DUP5 PUSH2 0x164D JUMP JUMPDEST PUSH2 0x28D7 DUP2 DUP4 PUSH2 0x1633 JUMP JUMPDEST PUSH2 0x28E0 DUP2 PUSH2 0x2FA3 JUMP JUMPDEST SWAP1 POP PUSH2 0x28EC DUP6 DUP8 PUSH2 0x1F30 JUMP JUMPDEST SWAP4 POP PUSH2 0x28F8 DUP5 DUP5 PUSH2 0x164D JUMP JUMPDEST PUSH2 0x2902 DUP5 DUP3 PUSH2 0x1633 JUMP JUMPDEST POP POP POP SWAP3 SWAP2 POP POP JUMP JUMPDEST PUSH1 0x40 DUP1 MLOAD PUSH1 0x20 DUP2 ADD SWAP1 SWAP2 MSTORE PUSH1 0x0 DUP2 MSTORE PUSH1 0x40 DUP1 MLOAD PUSH1 0x20 DUP2 ADD SWAP1 SWAP2 MSTORE PUSH1 0x0 DUP2 MSTORE PUSH1 0x0 PUSH2 0x2935 PUSH1 0x1 PUSH2 0x16D8 JUMP JUMPDEST SWAP1 POP PUSH2 0x2955 DUP5 PUSH1 0xC0 ADD MLOAD PUSH1 0x40 DUP1 MLOAD PUSH1 0x20 DUP2 ADD SWAP1 SWAP2 MSTORE PUSH1 0x0 DUP2 MSTORE SWAP1 MLOAD DUP2 MSTORE SWAP1 JUMP JUMPDEST PUSH2 0x100 DUP6 ADD DUP2 SWAP1 MSTORE PUSH2 0x2967 SWAP1 DUP3 PUSH2 0x167F JUMP JUMPDEST PUSH2 0x100 DUP5 ADD MLOAD PUSH1 0x40 DUP1 MLOAD PUSH1 0x20 DUP2 ADD SWAP1 SWAP2 MSTORE PUSH1 0x0 DUP2 MSTORE SWAP1 MLOAD DUP2 MSTORE PUSH2 0x120 DUP6 ADD DUP2 SWAP1 MSTORE PUSH1 0xE0 DUP6 ADD MLOAD PUSH2 0x2997 SWAP2 SWAP1 PUSH2 0x1633 JUMP JUMPDEST PUSH2 0x1A0 DUP6 ADD MLOAD PUSH1 0x40 DUP1 MLOAD PUSH1 0x20 DUP2 ADD SWAP1 SWAP2 MSTORE PUSH1 0x0 DUP2 MSTORE SWAP1 MLOAD DUP2 MSTORE SWAP2 POP PUSH2 0x29C9 DUP5 PUSH1 0xC0 ADD MLOAD DUP4 PUSH2 0x1633 SWAP1 SWAP2 SWAP1 PUSH4 0xFFFFFFFF AND JUMP JUMPDEST PUSH2 0x120 DUP5 ADD MLOAD PUSH2 0x29DA SWAP1 DUP4 SWAP1 PUSH2 0x167F JUMP JUMPDEST PUSH2 0x1C0 DUP6 ADD MLOAD PUSH2 0x29EB SWAP1 DUP4 SWAP1 PUSH2 0x1633 JUMP JUMPDEST PUSH1 0x80 DUP5 ADD MLOAD PUSH2 0x29FB SWAP1 PUSH1 0x6 PUSH2 0x1BA JUMP JUMPDEST PUSH1 0x0 PUSH2 0x2A1C PUSH1 0x1 DUP9 PUSH1 0x0 ADD MLOAD PUSH2 0x2A11 SWAP2 SWAP1 PUSH2 0x4878 JUMP JUMPDEST PUSH1 0x40 DUP10 ADD MLOAD SWAP1 PUSH2 0x1F30 JUMP JUMPDEST SWAP1 POP PUSH2 0x2A3D DUP6 PUSH2 0x180 ADD MLOAD PUSH1 0x40 DUP1 MLOAD PUSH1 0x20 DUP2 ADD SWAP1 SWAP2 MSTORE PUSH1 0x0 DUP2 MSTORE SWAP1 MLOAD DUP2 MSTORE SWAP1 JUMP JUMPDEST PUSH2 0x1C0 DUP7 ADD DUP2 SWAP1 MSTORE PUSH2 0x2A4F SWAP1 DUP3 PUSH2 0x164D JUMP JUMPDEST PUSH2 0x1C0 DUP6 ADD MLOAD PUSH2 0x2A60 SWAP1 DUP5 SWAP1 PUSH2 0x1633 JUMP JUMPDEST PUSH2 0x2A6A DUP5 DUP5 PUSH2 0x167F JUMP JUMPDEST PUSH2 0x2A84 PUSH1 0x0 DUP9 PUSH1 0x0 ADD MLOAD DUP10 PUSH1 0x40 ADD MLOAD DUP9 PUSH2 0x180 ADD MLOAD PUSH2 0x27D7 JUMP JUMPDEST PUSH2 0x1E0 DUP7 ADD DUP2 SWAP1 MSTORE PUSH1 0x40 DUP1 MLOAD PUSH1 0x20 DUP2 ADD SWAP1 SWAP2 MSTORE PUSH1 0x0 DUP2 MSTORE SWAP1 MLOAD DUP2 MSTORE PUSH1 0x80 DUP7 ADD MLOAD PUSH1 0xE0 ADD MLOAD SWAP1 SWAP4 POP PUSH2 0x2AB6 SWAP1 DUP5 SWAP1 PUSH2 0x1633 JUMP JUMPDEST PUSH2 0x2AC0 DUP5 DUP5 PUSH2 0x164D JUMP JUMPDEST PUSH1 0x0 PUSH2 0x2AE2 PUSH1 0x1 DUP10 PUSH1 0x0 ADD MLOAD PUSH2 0x2AD6 SWAP2 SWAP1 PUSH2 0x4878 JUMP JUMPDEST PUSH2 0x120 DUP9 ADD MLOAD SWAP1 PUSH2 0x1F30 JUMP JUMPDEST SWAP1 POP PUSH2 0x2B0A PUSH1 0x1 DUP10 PUSH1 0x0 ADD MLOAD PUSH2 0x2AF8 SWAP2 SWAP1 PUSH2 0x4878 JUMP JUMPDEST DUP10 MLOAD PUSH1 0x40 DUP12 ADD MLOAD PUSH2 0x180 DUP11 ADD MLOAD PUSH2 0x27D7 JUMP JUMPDEST PUSH2 0x200 DUP8 ADD DUP2 SWAP1 MSTORE PUSH1 0x40 DUP1 MLOAD PUSH1 0x20 DUP2 ADD SWAP1 SWAP2 MSTORE PUSH1 0x0 DUP2 MSTORE SWAP1 MLOAD DUP2 MSTORE SWAP4 POP PUSH2 0x2B31 DUP5 DUP3 PUSH2 0x1633 JUMP JUMPDEST PUSH1 0x80 DUP7 ADD MLOAD PUSH2 0x100 ADD MLOAD PUSH2 0x2B46 SWAP1 DUP6 SWAP1 PUSH2 0x1633 JUMP JUMPDEST PUSH2 0x2B50 DUP6 DUP6 PUSH2 0x164D JUMP JUMPDEST POP POP POP POP SWAP4 SWAP3 POP POP POP JUMP JUMPDEST PUSH1 0x40 DUP1 MLOAD PUSH1 0x20 DUP2 ADD SWAP1 SWAP2 MSTORE PUSH1 0x0 DUP2 MSTORE PUSH2 0x2B74 DUP3 DUP5 PUSH2 0x1F30 JUMP JUMPDEST SWAP1 POP PUSH2 0x162D PUSH2 0x2B83 PUSH1 0x1 PUSH2 0x16D8 JUMP JUMPDEST DUP3 SWAP1 PUSH2 0x164D JUMP JUMPDEST PUSH2 0x1751 DUP3 DUP3 DUP5 PUSH2 0x2FE2 JUMP JUMPDEST PUSH1 0x40 DUP1 MLOAD DUP1 DUP3 ADD SWAP1 SWAP2 MSTORE PUSH1 0x0 DUP1 DUP3 MSTORE PUSH1 0x20 DUP3 ADD MSTORE PUSH1 0x0 PUSH2 0x2BB5 PUSH1 0x0 PUSH2 0x16D8 JUMP JUMPDEST SWAP1 POP PUSH2 0x2BCD PUSH1 0x40 MLOAD DUP1 PUSH1 0x20 ADD PUSH1 0x40 MSTORE DUP1 PUSH1 0x0 DUP2 MSTORE POP SWAP1 JUMP JUMPDEST PUSH1 0x40 DUP1 MLOAD PUSH1 0x20 DUP1 DUP3 ADD DUP4 MSTORE PUSH1 0x0 SWAP2 DUP3 SWAP1 MSTORE PUSH2 0x1C0 DUP9 ADD MLOAD DUP4 MLOAD SWAP2 DUP3 ADD SWAP1 SWAP4 MSTORE SWAP1 DUP2 MSTORE SWAP1 MLOAD DUP2 MSTORE PUSH1 0x80 DUP6 ADD MLOAD PUSH2 0x2C03 SWAP1 PUSH1 0x6 PUSH2 0x1D4C JUMP JUMPDEST PUSH2 0x1C0 DUP6 ADD MLOAD PUSH2 0x2C14 SWAP1 DUP3 SWAP1 PUSH2 0x1633 JUMP JUMPDEST PUSH2 0x160 DUP7 ADD MLOAD PUSH1 0x0 SWAP1 PUSH2 0x2C27 SWAP1 DUP4 PUSH2 0x1699 JUMP JUMPDEST SWAP1 POP PUSH2 0x2C33 DUP6 DUP3 PUSH2 0x1746 JUMP JUMPDEST PUSH2 0x200 DUP8 ADD MLOAD PUSH1 0x40 DUP1 MLOAD PUSH1 0x20 DUP2 ADD SWAP1 SWAP2 MSTORE PUSH1 0x0 DUP2 MSTORE SWAP1 MLOAD DUP2 MSTORE SWAP2 POP PUSH2 0x2C65 DUP7 PUSH1 0xC0 ADD MLOAD DUP4 PUSH2 0x1633 SWAP1 SWAP2 SWAP1 PUSH4 0xFFFFFFFF AND JUMP JUMPDEST PUSH2 0x1E0 DUP8 ADD MLOAD PUSH2 0x2C76 SWAP1 DUP4 SWAP1 PUSH2 0x167F JUMP JUMPDEST PUSH2 0x120 DUP7 ADD MLOAD PUSH2 0x2C87 SWAP1 DUP4 SWAP1 PUSH2 0x167F JUMP JUMPDEST PUSH1 0x40 DUP1 MLOAD PUSH1 0x20 DUP2 ADD SWAP1 SWAP2 MSTORE PUSH1 0x0 DUP2 MSTORE PUSH1 0x0 PUSH2 0x2CA2 PUSH1 0x1 PUSH2 0x16D8 JUMP JUMPDEST SWAP1 POP PUSH2 0x2CBA PUSH1 0x40 MLOAD DUP1 PUSH1 0x20 ADD PUSH1 0x40 MSTORE DUP1 PUSH1 0x0 DUP2 MSTORE POP SWAP1 JUMP JUMPDEST PUSH1 0x0 JUMPDEST PUSH2 0x2CC9 PUSH1 0x1 PUSH1 0x4 PUSH2 0x4878 JUMP JUMPDEST DUP2 LT ISZERO PUSH2 0x2D17 JUMPI PUSH2 0x2CE9 DUP12 PUSH1 0x80 ADD MLOAD DUP3 PUSH1 0x4 DUP2 LT PUSH2 0x16F JUMPI PUSH2 0x16F PUSH2 0x484C JUMP JUMPDEST SWAP2 POP PUSH2 0x2CF5 DUP3 DUP5 PUSH2 0x1633 JUMP JUMPDEST PUSH2 0x2CFF DUP5 DUP4 PUSH2 0x167F JUMP JUMPDEST PUSH1 0xA0 DUP11 ADD MLOAD PUSH2 0x2D0F SWAP1 DUP5 SWAP1 PUSH2 0x1633 JUMP JUMPDEST PUSH1 0x1 ADD PUSH2 0x2CBD JUMP JUMPDEST POP PUSH2 0x240 DUP11 ADD MLOAD PUSH1 0x40 DUP1 MLOAD PUSH1 0x20 DUP2 ADD SWAP1 SWAP2 MSTORE PUSH1 0x0 DUP2 MSTORE SWAP1 MLOAD DUP2 MSTORE SWAP6 POP PUSH2 0x2D3D DUP7 DUP4 PUSH2 0x1633 JUMP JUMPDEST PUSH2 0x2D47 DUP4 DUP8 PUSH2 0x167F JUMP JUMPDEST PUSH2 0x220 DUP11 ADD MLOAD PUSH2 0x2D58 SWAP1 DUP5 SWAP1 PUSH2 0x1633 JUMP JUMPDEST PUSH1 0xE0 DUP10 ADD MLOAD PUSH2 0x2D68 SWAP1 DUP5 SWAP1 PUSH2 0x167F JUMP JUMPDEST PUSH2 0x2D72 DUP6 DUP5 PUSH2 0x1633 JUMP JUMPDEST PUSH2 0x100 DUP10 ADD MLOAD PUSH2 0x2D83 SWAP1 DUP7 SWAP1 PUSH2 0x1633 JUMP JUMPDEST PUSH1 0x40 DUP1 MLOAD PUSH1 0x20 DUP2 ADD SWAP1 SWAP2 MSTORE PUSH1 0x0 DUP2 MSTORE DUP8 MLOAD DUP2 MSTORE SWAP6 POP PUSH2 0x2DA2 DUP7 DUP7 PUSH2 0x164D JUMP JUMPDEST PUSH1 0x80 DUP10 ADD MLOAD DUP7 SWAP6 POP PUSH2 0x2DB5 SWAP1 PUSH1 0x6 PUSH2 0x2218 JUMP JUMPDEST PUSH2 0x1C0 DUP10 ADD MLOAD PUSH2 0x2DC6 SWAP1 DUP7 SWAP1 PUSH2 0x1633 JUMP JUMPDEST PUSH2 0x1E0 DUP10 ADD MLOAD PUSH1 0x40 DUP1 MLOAD PUSH1 0x20 DUP2 ADD SWAP1 SWAP2 MSTORE PUSH1 0x0 DUP2 MSTORE SWAP1 MLOAD DUP2 MSTORE PUSH1 0x80 DUP11 ADD MLOAD SWAP1 SWAP7 POP PUSH2 0x2DFA SWAP1 PUSH1 0x7 JUMPDEST PUSH1 0x20 MUL ADD MLOAD DUP8 SWAP1 PUSH2 0x1633 JUMP JUMPDEST PUSH2 0x2E04 DUP6 DUP8 PUSH2 0x167F JUMP JUMPDEST PUSH2 0x200 DUP10 ADD MLOAD PUSH1 0x40 DUP1 MLOAD PUSH1 0x20 DUP2 ADD SWAP1 SWAP2 MSTORE PUSH1 0x0 DUP2 MSTORE SWAP1 MLOAD DUP2 MSTORE PUSH1 0x80 DUP11 ADD MLOAD SWAP1 SWAP7 POP PUSH2 0x2E30 SWAP1 PUSH1 0x8 PUSH2 0x2DEE JUMP JUMPDEST PUSH2 0x2E3A DUP6 DUP8 PUSH2 0x167F JUMP JUMPDEST PUSH2 0x180 DUP11 ADD MLOAD PUSH2 0x2E4A SWAP1 DUP7 PUSH2 0x1699 JUMP JUMPDEST SWAP4 POP PUSH2 0x2E56 DUP9 DUP6 PUSH2 0x1746 JUMP JUMPDEST POP POP POP POP POP POP POP SWAP3 SWAP2 POP POP JUMP JUMPDEST DUP1 PUSH1 0x20 ADD MLOAD PUSH1 0x0 SUB PUSH2 0x2E7E JUMPI DUP1 MLOAD ISZERO PUSH2 0x2E7B JUMPI PUSH1 0x0 DUP1 REVERT JUMPDEST POP JUMP JUMPDEST PUSH1 0x20 DUP2 ADD MLOAD PUSH2 0x2E9B SWAP1 PUSH1 0x0 DUP1 MLOAD PUSH1 0x20 PUSH2 0x48D3 DUP4 CODECOPY DUP2 MLOAD SWAP2 MSTORE PUSH2 0x4878 JUMP JUMPDEST PUSH1 0x20 SWAP1 SWAP2 ADD MSTORE JUMP JUMPDEST PUSH1 0x40 DUP1 MLOAD PUSH1 0x2 DUP1 DUP3 MSTORE PUSH1 0x60 DUP3 ADD SWAP1 SWAP3 MSTORE PUSH1 0x0 SWAP2 DUP3 SWAP2 SWAP1 DUP2 PUSH1 0x20 ADD JUMPDEST PUSH1 0x40 DUP1 MLOAD DUP1 DUP3 ADD SWAP1 SWAP2 MSTORE PUSH1 0x0 DUP1 DUP3 MSTORE PUSH1 0x20 DUP3 ADD MSTORE DUP2 MSTORE PUSH1 0x20 ADD SWAP1 PUSH1 0x1 SWAP1 SUB SWAP1 DUP2 PUSH2 0x2EBE JUMPI POP POP PUSH1 0x40 DUP1 MLOAD PUSH1 0x2 DUP1 DUP3 MSTORE PUSH1 0x60 DUP3 ADD SWAP1 SWAP3 MSTORE SWAP2 SWAP3 POP PUSH1 0x0 SWAP2 SWAP1 PUSH1 0x20 DUP3 ADD JUMPDEST PUSH2 0x2F08 PUSH2 0x3664 JUMP JUMPDEST DUP2 MSTORE PUSH1 0x20 ADD SWAP1 PUSH1 0x1 SWAP1 SUB SWAP1 DUP2 PUSH2 0x2F00 JUMPI SWAP1 POP POP SWAP1 POP DUP7 DUP3 PUSH1 0x0 DUP2 MLOAD DUP2 LT PUSH2 0x2F31 JUMPI PUSH2 0x2F31 PUSH2 0x484C JUMP JUMPDEST PUSH1 0x20 MUL PUSH1 0x20 ADD ADD DUP2 SWAP1 MSTORE POP DUP5 DUP3 PUSH1 0x1 DUP2 MLOAD DUP2 LT PUSH2 0x2F50 JUMPI PUSH2 0x2F50 PUSH2 0x484C JUMP JUMPDEST PUSH1 0x20 MUL PUSH1 0x20 ADD ADD DUP2 SWAP1 MSTORE POP DUP6 DUP2 PUSH1 0x0 DUP2 MLOAD DUP2 LT PUSH2 0x2F6F JUMPI PUSH2 0x2F6F PUSH2 0x484C JUMP JUMPDEST PUSH1 0x20 MUL PUSH1 0x20 ADD ADD DUP2 SWAP1 MSTORE POP DUP4 DUP2 PUSH1 0x1 DUP2 MLOAD DUP2 LT PUSH2 0x2F8E JUMPI PUSH2 0x2F8E PUSH2 0x484C JUMP JUMPDEST PUSH1 0x20 MUL PUSH1 0x20 ADD ADD DUP2 SWAP1 MSTORE POP PUSH2 0x126 DUP3 DUP3 PUSH2 0x308C JUMP JUMPDEST PUSH1 0x40 DUP1 MLOAD PUSH1 0x20 DUP2 ADD SWAP1 SWAP2 MSTORE PUSH1 0x0 DUP2 MSTORE DUP2 MLOAD PUSH1 0x0 SUB PUSH2 0x2FC0 JUMPI PUSH1 0x0 DUP1 REVERT JUMPDEST PUSH2 0x162D DUP3 PUSH2 0x2FDD PUSH1 0x2 PUSH1 0x0 DUP1 MLOAD PUSH1 0x20 PUSH2 0x48F3 DUP4 CODECOPY DUP2 MLOAD SWAP2 MSTORE PUSH2 0x4878 JUMP JUMPDEST PUSH2 0x1F30 JUMP JUMPDEST DUP2 MLOAD ISZERO DUP1 ISZERO PUSH2 0x2FF3 JUMPI POP PUSH1 0x20 DUP3 ADD MLOAD ISZERO JUMPDEST ISZERO PUSH2 0x300B JUMPI DUP3 MLOAD DUP2 MSTORE PUSH1 0x20 SWAP3 DUP4 ADD MLOAD SWAP3 ADD SWAP2 SWAP1 SWAP2 MSTORE POP JUMP JUMPDEST DUP3 MLOAD ISZERO DUP1 ISZERO PUSH2 0x301C JUMPI POP PUSH1 0x20 DUP4 ADD MLOAD ISZERO JUMPDEST ISZERO PUSH2 0x304C JUMPI DUP2 MLOAD DUP2 MSTORE PUSH1 0x20 DUP3 ADD MLOAD PUSH2 0x3042 SWAP1 PUSH1 0x0 DUP1 MLOAD PUSH1 0x20 PUSH2 0x48D3 DUP4 CODECOPY DUP2 MLOAD SWAP2 MSTORE PUSH2 0x4878 JUMP JUMPDEST PUSH1 0x20 SWAP1 SWAP2 ADD MSTORE POP POP JUMP JUMPDEST PUSH2 0x3054 PUSH2 0x3874 JUMP JUMPDEST DUP4 MLOAD DUP2 MSTORE PUSH1 0x20 DUP1 DUP6 ADD MLOAD DUP2 DUP4 ADD MSTORE DUP4 MLOAD PUSH1 0x40 DUP4 ADD MSTORE DUP4 ADD MLOAD PUSH2 0x3084 SWAP1 PUSH1 0x0 DUP1 MLOAD PUSH1 0x20 PUSH2 0x48D3 DUP4 CODECOPY DUP2 MLOAD SWAP2 MSTORE PUSH2 0x4878 JUMP JUMPDEST DUP2 PUSH1 0x3 PUSH2 0x265C JUMP JUMPDEST PUSH1 0x0 DUP2 MLOAD DUP4 MLOAD EQ PUSH2 0x309C JUMPI PUSH1 0x0 DUP1 REVERT JUMPDEST DUP3 MLOAD PUSH1 0x0 PUSH2 0x30AB DUP3 PUSH1 0x6 PUSH2 0x48A8 JUMP JUMPDEST SWAP1 POP PUSH1 0x0 DUP2 PUSH1 0x1 PUSH1 0x1 PUSH1 0x40 SHL SUB DUP2 GT ISZERO PUSH2 0x30C7 JUMPI PUSH2 0x30C7 PUSH2 0x3B33 JUMP JUMPDEST PUSH1 0x40 MLOAD SWAP1 DUP1 DUP3 MSTORE DUP1 PUSH1 0x20 MUL PUSH1 0x20 ADD DUP3 ADD PUSH1 0x40 MSTORE DUP1 ISZERO PUSH2 0x30F0 JUMPI DUP2 PUSH1 0x20 ADD PUSH1 0x20 DUP3 MUL DUP1 CALLDATASIZE DUP4 CALLDATACOPY ADD SWAP1 POP JUMPDEST POP SWAP1 POP PUSH1 0x0 JUMPDEST DUP4 DUP2 LT ISZERO PUSH2 0x3321 JUMPI DUP7 DUP2 DUP2 MLOAD DUP2 LT PUSH2 0x3110 JUMPI PUSH2 0x3110 PUSH2 0x484C JUMP JUMPDEST PUSH1 0x20 MUL PUSH1 0x20 ADD ADD MLOAD PUSH1 0x0 ADD MLOAD DUP3 DUP3 PUSH1 0x6 PUSH2 0x312A SWAP2 SWAP1 PUSH2 0x48A8 JUMP JUMPDEST PUSH2 0x3135 SWAP1 PUSH1 0x0 PUSH2 0x48BF JUMP JUMPDEST DUP2 MLOAD DUP2 LT PUSH2 0x3145 JUMPI PUSH2 0x3145 PUSH2 0x484C JUMP JUMPDEST PUSH1 0x20 MUL PUSH1 0x20 ADD ADD DUP2 DUP2 MSTORE POP POP DUP7 DUP2 DUP2 MLOAD DUP2 LT PUSH2 0x3163 JUMPI PUSH2 0x3163 PUSH2 0x484C JUMP JUMPDEST PUSH1 0x20 MUL PUSH1 0x20 ADD ADD MLOAD PUSH1 0x20 ADD MLOAD DUP3 DUP3 PUSH1 0x6 PUSH2 0x317D SWAP2 SWAP1 PUSH2 0x48A8 JUMP JUMPDEST PUSH2 0x3188 SWAP1 PUSH1 0x1 PUSH2 0x48BF JUMP JUMPDEST DUP2 MLOAD DUP2 LT PUSH2 0x3198 JUMPI PUSH2 0x3198 PUSH2 0x484C JUMP JUMPDEST PUSH1 0x20 MUL PUSH1 0x20 ADD ADD DUP2 DUP2 MSTORE POP POP DUP6 DUP2 DUP2 MLOAD DUP2 LT PUSH2 0x31B6 JUMPI PUSH2 0x31B6 PUSH2 0x484C JUMP JUMPDEST PUSH1 0x20 SWAP1 DUP2 MUL SWAP2 SWAP1 SWAP2 ADD ADD MLOAD MLOAD MLOAD DUP3 PUSH2 0x31CF DUP4 PUSH1 0x6 PUSH2 0x48A8 JUMP JUMPDEST PUSH2 0x31DA SWAP1 PUSH1 0x2 PUSH2 0x48BF JUMP JUMPDEST DUP2 MLOAD DUP2 LT PUSH2 0x31EA JUMPI PUSH2 0x31EA PUSH2 0x484C JUMP JUMPDEST PUSH1 0x20 MUL PUSH1 0x20 ADD ADD DUP2 DUP2 MSTORE POP POP DUP6 DUP2 DUP2 MLOAD DUP2 LT PUSH2 0x3208 JUMPI PUSH2 0x3208 PUSH2 0x484C JUMP JUMPDEST PUSH1 0x20 SWAP1 DUP2 MUL SWAP2 SWAP1 SWAP2 ADD DUP2 ADD MLOAD MLOAD ADD MLOAD DUP3 PUSH2 0x3223 DUP4 PUSH1 0x6 PUSH2 0x48A8 JUMP JUMPDEST PUSH2 0x322E SWAP1 PUSH1 0x3 PUSH2 0x48BF JUMP JUMPDEST DUP2 MLOAD DUP2 LT PUSH2 0x323E JUMPI PUSH2 0x323E PUSH2 0x484C JUMP JUMPDEST PUSH1 0x20 MUL PUSH1 0x20 ADD ADD DUP2 DUP2 MSTORE POP POP DUP6 DUP2 DUP2 MLOAD DUP2 LT PUSH2 0x325C JUMPI PUSH2 0x325C PUSH2 0x484C JUMP JUMPDEST PUSH1 0x20 MUL PUSH1 0x20 ADD ADD MLOAD PUSH1 0x20 ADD MLOAD PUSH1 0x0 PUSH1 0x2 DUP2 LT PUSH2 0x327A JUMPI PUSH2 0x327A PUSH2 0x484C JUMP JUMPDEST PUSH1 0x20 MUL ADD MLOAD DUP3 PUSH2 0x328B DUP4 PUSH1 0x6 PUSH2 0x48A8 JUMP JUMPDEST PUSH2 0x3296 SWAP1 PUSH1 0x4 PUSH2 0x48BF JUMP JUMPDEST DUP2 MLOAD DUP2 LT PUSH2 0x32A6 JUMPI PUSH2 0x32A6 PUSH2 0x484C JUMP JUMPDEST PUSH1 0x20 MUL PUSH1 0x20 ADD ADD DUP2 DUP2 MSTORE POP POP DUP6 DUP2 DUP2 MLOAD DUP2 LT PUSH2 0x32C4 JUMPI PUSH2 0x32C4 PUSH2 0x484C JUMP JUMPDEST PUSH1 0x20 MUL PUSH1 0x20 ADD ADD MLOAD PUSH1 0x20 ADD MLOAD PUSH1 0x1 PUSH1 0x2 DUP2 LT PUSH2 0x32E2 JUMPI PUSH2 0x32E2 PUSH2 0x484C JUMP JUMPDEST PUSH1 0x20 MUL ADD MLOAD DUP3 PUSH2 0x32F3 DUP4 PUSH1 0x6 PUSH2 0x48A8 JUMP JUMPDEST PUSH2 0x32FE SWAP1 PUSH1 0x5 PUSH2 0x48BF JUMP JUMPDEST DUP2 MLOAD DUP2 LT PUSH2 0x330E JUMPI PUSH2 0x330E PUSH2 0x484C JUMP JUMPDEST PUSH1 0x20 SWAP1 DUP2 MUL SWAP2 SWAP1 SWAP2 ADD ADD MSTORE PUSH1 0x1 ADD PUSH2 0x30F6 JUMP JUMPDEST POP PUSH2 0x332A PUSH2 0x3838 JUMP JUMPDEST PUSH1 0x0 PUSH1 0x20 DUP3 PUSH1 0x20 DUP7 MUL PUSH1 0x20 DUP7 ADD PUSH1 0x8 GAS STATICCALL SWAP1 POP DUP1 PUSH2 0x3347 JUMPI PUSH1 0x0 DUP1 REVERT JUMPDEST POP MLOAD ISZERO ISZERO SWAP7 SWAP6 POP POP POP POP POP POP JUMP JUMPDEST PUSH1 0x40 MLOAD DUP1 PUSH2 0x160 ADD PUSH1 0x40 MSTORE DUP1 PUSH1 0x0 DUP2 MSTORE PUSH1 0x20 ADD PUSH1 0x0 DUP2 MSTORE PUSH1 0x20 ADD PUSH2 0x3385 PUSH1 0x40 MLOAD DUP1 PUSH1 0x20 ADD PUSH1 0x40 MSTORE DUP1 PUSH1 0x0 DUP2 MSTORE POP SWAP1 JUMP JUMPDEST DUP2 MSTORE PUSH1 0x20 ADD PUSH2 0x3392 PUSH2 0x3892 JUMP JUMPDEST DUP2 MSTORE PUSH1 0x20 ADD PUSH2 0x339F PUSH2 0x38CB JUMP JUMPDEST DUP2 MSTORE PUSH1 0x20 ADD PUSH2 0x33AC PUSH2 0x38F7 JUMP JUMPDEST DUP2 MSTORE PUSH1 0x20 ADD PUSH2 0x33CE PUSH1 0x40 MLOAD DUP1 PUSH1 0x40 ADD PUSH1 0x40 MSTORE DUP1 PUSH1 0x0 DUP2 MSTORE PUSH1 0x20 ADD PUSH1 0x0 DUP2 MSTORE POP SWAP1 JUMP JUMPDEST DUP2 MSTORE PUSH1 0x20 ADD PUSH2 0x33DB PUSH2 0x38F7 JUMP JUMPDEST DUP2 MSTORE PUSH1 0x20 ADD PUSH2 0x33FD PUSH1 0x40 MLOAD DUP1 PUSH1 0x40 ADD PUSH1 0x40 MSTORE DUP1 PUSH1 0x0 DUP2 MSTORE PUSH1 0x20 ADD PUSH1 0x0 DUP2 MSTORE POP SWAP1 JUMP JUMPDEST DUP2 MSTORE PUSH1 0x20 ADD PUSH2 0x340A PUSH2 0x3920 JUMP JUMPDEST DUP2 MSTORE PUSH1 0x20 ADD PUSH2 0x3417 PUSH2 0x3954 JUMP JUMPDEST SWAP1 MSTORE SWAP1 JUMP JUMPDEST PUSH1 0x40 MLOAD DUP1 PUSH1 0x80 ADD PUSH1 0x40 MSTORE DUP1 PUSH2 0x342F PUSH2 0x3981 JUMP JUMPDEST DUP2 MSTORE PUSH1 0x20 ADD PUSH2 0x343C PUSH2 0x39AD JUMP JUMPDEST DUP2 MSTORE PUSH1 0x20 ADD PUSH2 0x3449 PUSH2 0x39D0 JUMP JUMPDEST DUP2 MSTORE PUSH1 0x20 ADD PUSH2 0x3417 PUSH2 0x39FA JUMP JUMPDEST PUSH1 0x40 MLOAD DUP1 PUSH2 0x2A0 ADD PUSH1 0x40 MSTORE DUP1 PUSH1 0x60 DUP2 MSTORE PUSH1 0x20 ADD PUSH2 0x3471 PUSH2 0x38F7 JUMP JUMPDEST DUP2 MSTORE PUSH1 0x20 ADD PUSH2 0x3493 PUSH1 0x40 MLOAD DUP1 PUSH1 0x40 ADD PUSH1 0x40 MSTORE DUP1 PUSH1 0x0 DUP2 MSTORE PUSH1 0x20 ADD PUSH1 0x0 DUP2 MSTORE POP SWAP1 JUMP JUMPDEST DUP2 MSTORE PUSH1 0x20 ADD PUSH2 0x34A0 PUSH2 0x38F7 JUMP JUMPDEST DUP2 MSTORE PUSH1 0x20 ADD PUSH2 0x34AD PUSH2 0x3A1B JUMP JUMPDEST DUP2 MSTORE PUSH1 0x40 DUP1 MLOAD DUP1 DUP3 ADD DUP3 MSTORE PUSH1 0x0 PUSH1 0x20 DUP1 DUP4 ADD DUP3 DUP2 MSTORE DUP4 MSTORE DUP1 DUP6 ADD SWAP3 SWAP1 SWAP3 MSTORE DUP3 MLOAD DUP1 DUP5 ADD DUP5 MSTORE SWAP2 DUP3 ADD SWAP1 DUP2 MSTORE DUP2 MSTORE SWAP1 DUP3 ADD MSTORE PUSH1 0x60 ADD PUSH2 0x34E9 PUSH2 0x3920 JUMP JUMPDEST DUP2 MSTORE PUSH1 0x20 ADD PUSH2 0x3504 PUSH1 0x40 MLOAD DUP1 PUSH1 0x20 ADD PUSH1 0x40 MSTORE DUP1 PUSH1 0x0 DUP2 MSTORE POP SWAP1 JUMP JUMPDEST DUP2 MSTORE PUSH1 0x20 ADD PUSH2 0x351F PUSH1 0x40 MLOAD DUP1 PUSH1 0x20 ADD PUSH1 0x40 MSTORE DUP1 PUSH1 0x0 DUP2 MSTORE POP SWAP1 JUMP JUMPDEST DUP2 MSTORE PUSH1 0x20 ADD PUSH2 0x353A PUSH1 0x40 MLOAD DUP1 PUSH1 0x20 ADD PUSH1 0x40 MSTORE DUP1 PUSH1 0x0 DUP2 MSTORE POP SWAP1 JUMP JUMPDEST DUP2 MSTORE PUSH1 0x20 ADD PUSH2 0x355C PUSH1 0x40 MLOAD DUP1 PUSH1 0x40 ADD PUSH1 0x40 MSTORE DUP1 PUSH1 0x0 DUP2 MSTORE PUSH1 0x20 ADD PUSH1 0x0 DUP2 MSTORE POP SWAP1 JUMP JUMPDEST DUP2 MSTORE PUSH1 0x20 ADD PUSH2 0x357E PUSH1 0x40 MLOAD DUP1 PUSH1 0x40 ADD PUSH1 0x40 MSTORE DUP1 PUSH1 0x0 DUP2 MSTORE PUSH1 0x20 ADD PUSH1 0x0 DUP2 MSTORE POP SWAP1 JUMP JUMPDEST DUP2 MSTORE PUSH1 0x20 ADD PUSH2 0x3599 PUSH1 0x40 MLOAD DUP1 PUSH1 0x20 ADD PUSH1 0x40 MSTORE DUP1 PUSH1 0x0 DUP2 MSTORE POP SWAP1 JUMP JUMPDEST DUP2 MSTORE PUSH1 0x20 ADD PUSH2 0x35B4 PUSH1 0x40 MLOAD DUP1 PUSH1 0x20 ADD PUSH1 0x40 MSTORE DUP1 PUSH1 0x0 DUP2 MSTORE POP SWAP1 JUMP JUMPDEST DUP2 MSTORE PUSH1 0x20 ADD PUSH2 0x35CF PUSH1 0x40 MLOAD DUP1 PUSH1 0x20 ADD PUSH1 0x40 MSTORE DUP1 PUSH1 0x0 DUP2 MSTORE POP SWAP1 JUMP JUMPDEST DUP2 MSTORE PUSH1 0x20 ADD PUSH2 0x35EA PUSH1 0x40 MLOAD DUP1 PUSH1 0x20 ADD PUSH1 0x40 MSTORE DUP1 PUSH1 0x0 DUP2 MSTORE POP SWAP1 JUMP JUMPDEST DUP2 MSTORE PUSH1 0x20 ADD PUSH2 0x3605 PUSH1 0x40 MLOAD DUP1 PUSH1 0x20 ADD PUSH1 0x40 MSTORE DUP1 PUSH1 0x0 DUP2 MSTORE POP SWAP1 JUMP JUMPDEST DUP2 MSTORE PUSH1 0x20 ADD PUSH2 0x3620 PUSH1 0x40 MLOAD DUP1 PUSH1 0x20 ADD PUSH1 0x40 MSTORE DUP1 PUSH1 0x0 DUP2 MSTORE POP SWAP1 JUMP JUMPDEST DUP2 MSTORE PUSH1 0x20 ADD PUSH2 0x3642 PUSH1 0x40 MLOAD DUP1 PUSH1 0x40 ADD PUSH1 0x40 MSTORE DUP1 PUSH1 0x0 DUP2 MSTORE PUSH1 0x20 ADD PUSH1 0x0 DUP2 MSTORE POP SWAP1 JUMP JUMPDEST DUP2 MSTORE PUSH1 0x20 ADD PUSH2 0x3417 PUSH1 0x40 MLOAD DUP1 PUSH1 0x40 ADD PUSH1 0x40 MSTORE DUP1 PUSH1 0x0 DUP2 MSTORE PUSH1 0x20 ADD PUSH1 0x0 DUP2 MSTORE POP SWAP1 JUMP JUMPDEST PUSH1 0x40 MLOAD DUP1 PUSH1 0x40 ADD PUSH1 0x40 MSTORE DUP1 PUSH2 0x3677 PUSH2 0x3A3C JUMP JUMPDEST DUP2 MSTORE PUSH1 0x20 ADD PUSH2 0x3417 PUSH2 0x3A3C JUMP JUMPDEST PUSH1 0x40 DUP1 MLOAD PUSH2 0x280 DUP2 ADD DUP3 MSTORE PUSH1 0x0 PUSH2 0x260 DUP3 ADD DUP2 DUP2 MSTORE DUP3 MSTORE DUP3 MLOAD PUSH1 0x20 DUP1 DUP3 ADD DUP6 MSTORE DUP3 DUP3 MSTORE DUP1 DUP5 ADD SWAP2 SWAP1 SWAP2 MSTORE DUP4 MLOAD DUP1 DUP3 ADD DUP6 MSTORE DUP3 DUP2 MSTORE DUP4 DUP6 ADD MSTORE DUP4 MLOAD SWAP1 DUP2 ADD SWAP1 SWAP4 MSTORE DUP3 MSTORE SWAP1 PUSH1 0x60 DUP3 ADD SWAP1 DUP2 MSTORE PUSH1 0x20 ADD PUSH2 0x36D9 PUSH2 0x3A5A JUMP JUMPDEST DUP2 MSTORE PUSH1 0x20 ADD PUSH2 0x36F4 PUSH1 0x40 MLOAD DUP1 PUSH1 0x20 ADD PUSH1 0x40 MSTORE DUP1 PUSH1 0x0 DUP2 MSTORE POP SWAP1 JUMP JUMPDEST DUP2 MSTORE PUSH1 0x20 ADD PUSH2 0x370F PUSH1 0x40 MLOAD DUP1 PUSH1 0x20 ADD PUSH1 0x40 MSTORE DUP1 PUSH1 0x0 DUP2 MSTORE POP SWAP1 JUMP JUMPDEST DUP2 MSTORE PUSH1 0x20 ADD PUSH2 0x372A PUSH1 0x40 MLOAD DUP1 PUSH1 0x20 ADD PUSH1 0x40 MSTORE DUP1 PUSH1 0x0 DUP2 MSTORE POP SWAP1 JUMP JUMPDEST DUP2 MSTORE PUSH1 0x20 ADD PUSH2 0x3745 PUSH1 0x40 MLOAD DUP1 PUSH1 0x20 ADD PUSH1 0x40 MSTORE DUP1 PUSH1 0x0 DUP2 MSTORE POP SWAP1 JUMP JUMPDEST DUP2 MSTORE PUSH1 0x20 ADD PUSH2 0x3760 PUSH1 0x40 MLOAD DUP1 PUSH1 0x20 ADD PUSH1 0x40 MSTORE DUP1 PUSH1 0x0 DUP2 MSTORE POP SWAP1 JUMP JUMPDEST DUP2 MSTORE PUSH1 0x20 ADD PUSH2 0x377B PUSH1 0x40 MLOAD DUP1 PUSH1 0x20 ADD PUSH1 0x40 MSTORE DUP1 PUSH1 0x0 DUP2 MSTORE POP SWAP1 JUMP JUMPDEST DUP2 MSTORE PUSH1 0x20 ADD PUSH2 0x3796 PUSH1 0x40 MLOAD DUP1 PUSH1 0x20 ADD PUSH1 0x40 MSTORE DUP1 PUSH1 0x0 DUP2 MSTORE POP SWAP1 JUMP JUMPDEST DUP2 MSTORE PUSH1 0x20 ADD PUSH2 0x37B1 PUSH1 0x40 MLOAD DUP1 PUSH1 0x20 ADD PUSH1 0x40 MSTORE DUP1 PUSH1 0x0 DUP2 MSTORE POP SWAP1 JUMP JUMPDEST DUP2 MSTORE PUSH1 0x20 ADD PUSH2 0x37CC PUSH1 0x40 MLOAD DUP1 PUSH1 0x20 ADD PUSH1 0x40 MSTORE DUP1 PUSH1 0x0 DUP2 MSTORE POP SWAP1 JUMP JUMPDEST DUP2 MSTORE PUSH1 0x20 ADD PUSH2 0x37E7 PUSH1 0x40 MLOAD DUP1 PUSH1 0x20 ADD PUSH1 0x40 MSTORE DUP1 PUSH1 0x0 DUP2 MSTORE POP SWAP1 JUMP JUMPDEST DUP2 MSTORE PUSH1 0x20 ADD PUSH2 0x3802 PUSH1 0x40 MLOAD DUP1 PUSH1 0x20 ADD PUSH1 0x40 MSTORE DUP1 PUSH1 0x0 DUP2 MSTORE POP SWAP1 JUMP JUMPDEST DUP2 MSTORE PUSH1 0x20 ADD PUSH2 0x381D PUSH1 0x40 MLOAD DUP1 PUSH1 0x20 ADD PUSH1 0x40 MSTORE DUP1 PUSH1 0x0 DUP2 MSTORE POP SWAP1 JUMP JUMPDEST DUP2 MSTORE PUSH1 0x20 ADD PUSH2 0x3642 PUSH1 0x40 MLOAD DUP1 PUSH1 0x20 ADD PUSH1 0x40 MSTORE DUP1 PUSH1 0x0 DUP2 MSTORE POP SWAP1 JUMP JUMPDEST PUSH1 0x40 MLOAD DUP1 PUSH1 0x20 ADD PUSH1 0x40 MSTORE DUP1 PUSH1 0x1 SWAP1 PUSH1 0x20 DUP3 MUL DUP1 CALLDATASIZE DUP4 CALLDATACOPY POP SWAP2 SWAP3 SWAP2 POP POP JUMP JUMPDEST PUSH1 0x40 MLOAD DUP1 PUSH1 0x60 ADD PUSH1 0x40 MSTORE DUP1 PUSH1 0x3 SWAP1 PUSH1 0x20 DUP3 MUL DUP1 CALLDATASIZE DUP4 CALLDATACOPY POP SWAP2 SWAP3 SWAP2 POP POP JUMP JUMPDEST PUSH1 0x40 MLOAD DUP1 PUSH1 0x80 ADD PUSH1 0x40 MSTORE DUP1 PUSH1 0x4 SWAP1 PUSH1 0x20 DUP3 MUL DUP1 CALLDATASIZE DUP4 CALLDATACOPY POP SWAP2 SWAP3 SWAP2 POP POP JUMP JUMPDEST PUSH1 0x40 MLOAD DUP1 PUSH1 0x40 ADD PUSH1 0x40 MSTORE DUP1 PUSH1 0x2 SWAP1 JUMPDEST PUSH1 0x40 DUP1 MLOAD DUP1 DUP3 ADD SWAP1 SWAP2 MSTORE PUSH1 0x0 DUP1 DUP3 MSTORE PUSH1 0x20 DUP3 ADD MSTORE DUP2 MSTORE PUSH1 0x20 ADD SWAP1 PUSH1 0x1 SWAP1 SUB SWAP1 DUP2 PUSH2 0x38A1 JUMPI SWAP1 POP POP SWAP1 JUMP JUMPDEST PUSH1 0x40 DUP1 MLOAD PUSH2 0x140 DUP2 ADD SWAP1 SWAP2 MSTORE PUSH1 0x0 PUSH2 0x100 DUP3 ADD DUP2 DUP2 MSTORE PUSH2 0x120 DUP4 ADD SWAP2 SWAP1 SWAP2 MSTORE DUP2 MSTORE PUSH1 0x7 PUSH1 0x20 DUP3 ADD PUSH2 0x38A1 JUMP JUMPDEST PUSH1 0x40 DUP1 MLOAD PUSH1 0xC0 DUP2 ADD SWAP1 SWAP2 MSTORE PUSH1 0x0 PUSH1 0x80 DUP3 ADD DUP2 DUP2 MSTORE PUSH1 0xA0 DUP4 ADD SWAP2 SWAP1 SWAP2 MSTORE DUP2 MSTORE PUSH1 0x3 PUSH1 0x20 DUP3 ADD PUSH2 0x38A1 JUMP JUMPDEST PUSH1 0x40 MLOAD DUP1 PUSH1 0x60 ADD PUSH1 0x40 MSTORE DUP1 PUSH1 0x3 SWAP1 JUMPDEST PUSH1 0x40 DUP1 MLOAD PUSH1 0x20 DUP2 ADD SWAP1 SWAP2 MSTORE PUSH1 0x0 DUP2 MSTORE DUP2 MSTORE PUSH1 0x20 ADD SWAP1 PUSH1 0x1 SWAP1 SUB SWAP1 DUP2 PUSH2 0x392F JUMPI SWAP1 POP POP SWAP1 JUMP JUMPDEST PUSH1 0x40 MLOAD DUP1 PUSH1 0x40 ADD PUSH1 0x40 MSTORE DUP1 PUSH1 0x2 SWAP1 JUMPDEST PUSH2 0x396B PUSH2 0x3664 JUMP JUMPDEST DUP2 MSTORE PUSH1 0x20 ADD SWAP1 PUSH1 0x1 SWAP1 SUB SWAP1 DUP2 PUSH2 0x3963 JUMPI SWAP1 POP POP SWAP1 JUMP JUMPDEST PUSH1 0x40 DUP1 MLOAD PUSH2 0x1E0 DUP2 ADD SWAP1 SWAP2 MSTORE PUSH1 0x0 PUSH2 0x1A0 DUP3 ADD DUP2 DUP2 MSTORE PUSH2 0x1C0 DUP4 ADD SWAP2 SWAP1 SWAP2 MSTORE DUP2 MSTORE PUSH1 0xC PUSH1 0x20 DUP3 ADD PUSH2 0x38A1 JUMP JUMPDEST PUSH1 0x40 DUP1 MLOAD PUSH2 0x1C0 DUP2 ADD SWAP1 SWAP2 MSTORE PUSH1 0x0 PUSH2 0x1A0 DUP3 ADD SWAP1 DUP2 MSTORE DUP2 MSTORE PUSH1 0xC PUSH1 0x20 DUP3 ADD PUSH2 0x392F JUMP JUMPDEST PUSH1 0x40 DUP1 MLOAD PUSH2 0x100 DUP2 ADD SWAP1 SWAP2 MSTORE PUSH1 0x0 PUSH1 0xC0 DUP3 ADD DUP2 DUP2 MSTORE PUSH1 0xE0 DUP4 ADD SWAP2 SWAP1 SWAP2 MSTORE DUP2 MSTORE PUSH1 0x5 PUSH1 0x20 DUP3 ADD PUSH2 0x38A1 JUMP JUMPDEST PUSH1 0x40 DUP1 MLOAD PUSH1 0xE0 DUP2 ADD SWAP1 SWAP2 MSTORE PUSH1 0x0 PUSH1 0xC0 DUP3 ADD SWAP1 DUP2 MSTORE DUP2 MSTORE PUSH1 0x5 PUSH1 0x20 DUP3 ADD PUSH2 0x392F JUMP JUMPDEST PUSH1 0x40 DUP1 MLOAD PUSH1 0xA0 DUP2 ADD SWAP1 SWAP2 MSTORE PUSH1 0x0 PUSH1 0x80 DUP3 ADD SWAP1 DUP2 MSTORE DUP2 MSTORE PUSH1 0x3 PUSH1 0x20 DUP3 ADD PUSH2 0x392F JUMP JUMPDEST PUSH1 0x40 MLOAD DUP1 PUSH1 0x40 ADD PUSH1 0x40 MSTORE DUP1 PUSH1 0x2 SWAP1 PUSH1 0x20 DUP3 MUL DUP1 CALLDATASIZE DUP4 CALLDATACOPY POP SWAP2 SWAP3 SWAP2 POP POP JUMP JUMPDEST PUSH1 0x40 DUP1 MLOAD PUSH2 0x140 DUP2 ADD SWAP1 SWAP2 MSTORE PUSH1 0x0 PUSH2 0x120 DUP3 ADD SWAP1 DUP2 MSTORE DUP2 MSTORE PUSH1 0x8 PUSH1 0x20 DUP3 ADD PUSH2 0x392F JUMP JUMPDEST PUSH1 0x0 DUP1 DUP4 PUSH1 0x1F DUP5 ADD SLT PUSH2 0x3A8F JUMPI PUSH1 0x0 DUP1 REVERT JUMPDEST POP DUP2 CALLDATALOAD PUSH1 0x1 PUSH1 0x1 PUSH1 0x40 SHL SUB DUP2 GT ISZERO PUSH2 0x3AA6 JUMPI PUSH1 0x0 DUP1 REVERT JUMPDEST PUSH1 0x20 DUP4 ADD SWAP2 POP DUP4 PUSH1 0x20 DUP3 PUSH1 0x5 SHL DUP6 ADD ADD GT ISZERO PUSH2 0x3AC1 JUMPI PUSH1 0x0 DUP1 REVERT JUMPDEST SWAP3 POP SWAP3 SWAP1 POP JUMP JUMPDEST PUSH1 0x0 DUP1 PUSH1 0x0 DUP1 PUSH1 0x40 DUP6 DUP8 SUB SLT ISZERO PUSH2 0x3ADE JUMPI PUSH1 0x0 DUP1 REVERT JUMPDEST DUP5 CALLDATALOAD PUSH1 0x1 PUSH1 0x1 PUSH1 0x40 SHL SUB DUP1 DUP3 GT ISZERO PUSH2 0x3AF5 JUMPI PUSH1 0x0 DUP1 REVERT JUMPDEST PUSH2 0x3B01 DUP9 DUP4 DUP10 ADD PUSH2 0x3A7D JUMP JUMPDEST SWAP1 SWAP7 POP SWAP5 POP PUSH1 0x20 DUP8 ADD CALLDATALOAD SWAP2 POP DUP1 DUP3 GT ISZERO PUSH2 0x3B1A JUMPI PUSH1 0x0 DUP1 REVERT JUMPDEST POP PUSH2 0x3B27 DUP8 DUP3 DUP9 ADD PUSH2 0x3A7D JUMP JUMPDEST SWAP6 SWAP9 SWAP5 SWAP8 POP SWAP6 POP POP POP POP JUMP JUMPDEST PUSH4 0x4E487B71 PUSH1 0xE0 SHL PUSH1 0x0 MSTORE PUSH1 0x41 PUSH1 0x4 MSTORE PUSH1 0x24 PUSH1 0x0 REVERT JUMPDEST PUSH1 0x40 DUP1 MLOAD SWAP1 DUP2 ADD PUSH1 0x1 PUSH1 0x1 PUSH1 0x40 SHL SUB DUP2 GT DUP3 DUP3 LT OR ISZERO PUSH2 0x3B6B JUMPI PUSH2 0x3B6B PUSH2 0x3B33 JUMP JUMPDEST PUSH1 0x40 MSTORE SWAP1 JUMP JUMPDEST PUSH1 0x40 MLOAD PUSH2 0x2A0 DUP2 ADD PUSH1 0x1 PUSH1 0x1 PUSH1 0x40 SHL SUB DUP2 GT DUP3 DUP3 LT OR ISZERO PUSH2 0x3B6B JUMPI PUSH2 0x3B6B PUSH2 0x3B33 JUMP JUMPDEST PUSH1 0x40 MLOAD PUSH2 0x260 DUP2 ADD PUSH1 0x1 PUSH1 0x1 PUSH1 0x40 SHL SUB DUP2 GT DUP3 DUP3 LT OR ISZERO PUSH2 0x3B6B JUMPI PUSH2 0x3B6B PUSH2 0x3B33 JUMP JUMPDEST PUSH1 0x40 MLOAD PUSH2 0x160 DUP2 ADD PUSH1 0x1 PUSH1 0x1 PUSH1 0x40 SHL SUB DUP2 GT DUP3 DUP3 LT OR ISZERO PUSH2 0x3B6B JUMPI PUSH2 0x3B6B PUSH2 0x3B33 JUMP JUMPDEST PUSH1 0x40 MLOAD PUSH1 0x80 DUP2 ADD PUSH1 0x1 PUSH1 0x1 PUSH1 0x40 SHL SUB DUP2 GT DUP3 DUP3 LT OR ISZERO PUSH2 0x3B6B JUMPI PUSH2 0x3B6B PUSH2 0x3B33 JUMP JUMPDEST PUSH1 0x0 PUSH1 0x20 DUP3 DUP5 SUB SLT ISZERO PUSH2 0x3C0E JUMPI PUSH1 0x0 DUP1 REVERT JUMPDEST PUSH1 0x40 MLOAD PUSH1 0x20 DUP2 ADD DUP2 DUP2 LT PUSH1 0x1 PUSH1 0x1 PUSH1 0x40 SHL SUB DUP3 GT OR ISZERO PUSH2 0x3C30 JUMPI PUSH2 0x3C30 PUSH2 0x3B33 JUMP JUMPDEST PUSH1 0x40 MSTORE SWAP2 CALLDATALOAD DUP3 MSTORE POP SWAP2 SWAP1 POP JUMP JUMPDEST PUSH1 0x0 PUSH1 0x40 DUP3 DUP5 SUB SLT ISZERO PUSH2 0x3C4F JUMPI PUSH1 0x0 DUP1 REVERT JUMPDEST PUSH2 0x3C57 PUSH2 0x3B49 JUMP JUMPDEST SWAP1 POP DUP2 CALLDATALOAD DUP2 MSTORE PUSH1 0x20 DUP3 ADD CALLDATALOAD PUSH1 0x20 DUP3 ADD MSTORE SWAP3 SWAP2 POP POP JUMP JUMPDEST PUSH1 0x0 DUP3 PUSH1 0x1F DUP4 ADD SLT PUSH2 0x3C7E JUMPI PUSH1 0x0 DUP1 REVERT JUMPDEST PUSH2 0x3C86 PUSH2 0x3B49 JUMP JUMPDEST DUP1 PUSH1 0x80 DUP5 ADD DUP6 DUP2 GT ISZERO PUSH2 0x3C98 JUMPI PUSH1 0x0 DUP1 REVERT JUMPDEST DUP5 JUMPDEST DUP2 DUP2 LT ISZERO PUSH2 0x3CBC JUMPI PUSH2 0x3CAC DUP8 DUP3 PUSH2 0x3C3D JUMP JUMPDEST DUP5 MSTORE PUSH1 0x20 SWAP1 SWAP4 ADD SWAP3 PUSH1 0x40 ADD PUSH2 0x3C9A JUMP JUMPDEST POP SWAP1 SWAP6 SWAP5 POP POP POP POP POP JUMP JUMPDEST PUSH1 0x0 DUP3 PUSH1 0x1F DUP4 ADD SLT PUSH2 0x3CD8 JUMPI PUSH1 0x0 DUP1 REVERT JUMPDEST PUSH1 0x40 DUP1 MLOAD PUSH2 0x100 DUP2 ADD DUP2 DUP2 LT PUSH1 0x1 PUSH1 0x1 PUSH1 0x40 SHL SUB DUP3 GT OR ISZERO PUSH2 0x3CFC JUMPI PUSH2 0x3CFC PUSH2 0x3B33 JUMP JUMPDEST DUP3 MSTORE DUP1 PUSH2 0x200 DUP6 ADD DUP7 DUP2 GT ISZERO PUSH2 0x3D11 JUMPI PUSH1 0x0 DUP1 REVERT JUMPDEST DUP6 JUMPDEST DUP2 DUP2 LT ISZERO PUSH2 0x3D34 JUMPI PUSH2 0x3D25 DUP9 DUP3 PUSH2 0x3C3D JUMP JUMPDEST DUP4 MSTORE PUSH1 0x20 SWAP1 SWAP3 ADD SWAP2 DUP5 ADD PUSH2 0x3D13 JUMP JUMPDEST POP SWAP2 SWAP7 SWAP6 POP POP POP POP POP POP JUMP JUMPDEST PUSH1 0x0 DUP3 PUSH1 0x1F DUP4 ADD SLT PUSH2 0x3D51 JUMPI PUSH1 0x0 DUP1 REVERT JUMPDEST PUSH2 0x3D59 PUSH2 0x3BDA JUMP JUMPDEST DUP1 PUSH2 0x100 DUP5 ADD DUP6 DUP2 GT ISZERO PUSH2 0x3D6C JUMPI PUSH1 0x0 DUP1 REVERT JUMPDEST DUP5 JUMPDEST DUP2 DUP2 LT ISZERO PUSH2 0x3CBC JUMPI PUSH2 0x3D80 DUP8 DUP3 PUSH2 0x3C3D JUMP JUMPDEST DUP5 MSTORE PUSH1 0x20 SWAP1 SWAP4 ADD SWAP3 PUSH1 0x40 ADD PUSH2 0x3D6E JUMP JUMPDEST PUSH1 0x0 DUP3 PUSH1 0x1F DUP4 ADD SLT PUSH2 0x3DA1 JUMPI PUSH1 0x0 DUP1 REVERT JUMPDEST PUSH1 0x40 MLOAD PUSH1 0x60 DUP2 ADD DUP2 DUP2 LT PUSH1 0x1 PUSH1 0x1 PUSH1 0x40 SHL SUB DUP3 GT OR ISZERO PUSH2 0x3DC3 JUMPI PUSH2 0x3DC3 PUSH2 0x3B33 JUMP JUMPDEST PUSH1 0x40 MSTORE DUP1 PUSH1 0x60 DUP5 ADD DUP6 DUP2 GT ISZERO PUSH2 0x3DD8 JUMPI PUSH1 0x0 DUP1 REVERT JUMPDEST DUP5 JUMPDEST DUP2 DUP2 LT ISZERO PUSH2 0x3DFA JUMPI PUSH2 0x3DEC DUP8 DUP3 PUSH2 0x3BFC JUMP JUMPDEST DUP4 MSTORE PUSH1 0x20 SWAP3 DUP4 ADD SWAP3 ADD PUSH2 0x3DDA JUMP JUMPDEST POP SWAP2 SWAP6 SWAP5 POP POP POP POP POP JUMP JUMPDEST PUSH1 0x0 DUP3 PUSH1 0x1F DUP4 ADD SLT PUSH2 0x3E16 JUMPI PUSH1 0x0 DUP1 REVERT JUMPDEST PUSH2 0x3E1E PUSH2 0x3B49 JUMP JUMPDEST DUP1 PUSH1 0x40 DUP5 ADD DUP6 DUP2 GT ISZERO PUSH2 0x3E30 JUMPI PUSH1 0x0 DUP1 REVERT JUMPDEST DUP5 JUMPDEST DUP2 DUP2 LT ISZERO PUSH2 0x3CBC JUMPI DUP1 CALLDATALOAD DUP5 MSTORE PUSH1 0x20 SWAP4 DUP5 ADD SWAP4 ADD PUSH2 0x3E32 JUMP JUMPDEST PUSH1 0x0 DUP3 PUSH1 0x1F DUP4 ADD SLT PUSH2 0x3E5B JUMPI PUSH1 0x0 DUP1 REVERT JUMPDEST PUSH2 0x3E63 PUSH2 0x3B49 JUMP JUMPDEST DUP1 PUSH2 0x100 DUP5 ADD DUP6 DUP2 GT ISZERO PUSH2 0x3E76 JUMPI PUSH1 0x0 DUP1 REVERT JUMPDEST DUP5 JUMPDEST DUP2 DUP2 LT ISZERO PUSH2 0x3CBC JUMPI PUSH1 0x80 DUP2 DUP9 SUB SLT ISZERO PUSH2 0x3E91 JUMPI PUSH1 0x0 DUP1 DUP2 REVERT JUMPDEST PUSH2 0x3E99 PUSH2 0x3B49 JUMP JUMPDEST PUSH2 0x3EA3 DUP9 DUP4 PUSH2 0x3E05 JUMP JUMPDEST DUP2 MSTORE PUSH2 0x3EB2 DUP9 PUSH1 0x40 DUP5 ADD PUSH2 0x3E05 JUMP JUMPDEST PUSH1 0x20 DUP3 DUP2 ADD SWAP2 SWAP1 SWAP2 MSTORE SWAP1 DUP6 MSTORE SWAP4 SWAP1 SWAP4 ADD SWAP3 PUSH1 0x80 ADD PUSH2 0x3E78 JUMP JUMPDEST PUSH1 0x0 DUP3 PUSH1 0x1F DUP4 ADD SLT PUSH2 0x3EDC JUMPI PUSH1 0x0 DUP1 REVERT JUMPDEST DUP2 CALLDATALOAD PUSH1 0x20 PUSH1 0x1 PUSH1 0x1 PUSH1 0x40 SHL SUB DUP1 DUP4 GT ISZERO PUSH2 0x3EF8 JUMPI PUSH2 0x3EF8 PUSH2 0x3B33 JUMP JUMPDEST DUP3 PUSH1 0x5 SHL PUSH1 0x40 MLOAD PUSH1 0x1F NOT PUSH1 0x3F DUP4 ADD AND DUP2 ADD DUP2 DUP2 LT DUP5 DUP3 GT OR ISZERO PUSH2 0x3F1D JUMPI PUSH2 0x3F1D PUSH2 0x3B33 JUMP JUMPDEST PUSH1 0x40 MSTORE SWAP4 DUP5 MSTORE DUP6 DUP2 ADD DUP4 ADD SWAP4 DUP4 DUP2 ADD SWAP3 POP DUP8 DUP6 GT ISZERO PUSH2 0x3F3B JUMPI PUSH1 0x0 DUP1 REVERT JUMPDEST DUP4 DUP8 ADD SWAP2 POP JUMPDEST DUP5 DUP3 LT ISZERO PUSH2 0x126 JUMPI DUP2 CALLDATALOAD DUP4 MSTORE SWAP2 DUP4 ADD SWAP2 SWAP1 DUP4 ADD SWAP1 PUSH2 0x3F41 JUMP JUMPDEST PUSH1 0x0 DUP3 PUSH1 0x1F DUP4 ADD SLT PUSH2 0x3F6B JUMPI PUSH1 0x0 DUP1 REVERT JUMPDEST PUSH2 0x3F73 PUSH2 0x3BDA JUMP JUMPDEST DUP1 PUSH1 0x80 DUP5 ADD DUP6 DUP2 GT ISZERO PUSH2 0x3F85 JUMPI PUSH1 0x0 DUP1 REVERT JUMPDEST DUP5 JUMPDEST DUP2 DUP2 LT ISZERO PUSH2 0x3CBC JUMPI PUSH2 0x3F99 DUP8 DUP3 PUSH2 0x3BFC JUMP JUMPDEST DUP5 MSTORE PUSH1 0x20 SWAP4 DUP5 ADD SWAP4 ADD PUSH2 0x3F87 JUMP JUMPDEST PUSH1 0x0 DUP3 PUSH1 0x1F DUP4 ADD SLT PUSH2 0x3FB8 JUMPI PUSH1 0x0 DUP1 REVERT JUMPDEST PUSH1 0x40 MLOAD PUSH1 0x20 DUP1 DUP3 ADD DUP3 DUP2 LT PUSH1 0x1 PUSH1 0x1 PUSH1 0x40 SHL SUB DUP3 GT OR ISZERO PUSH2 0x3FDB JUMPI PUSH2 0x3FDB PUSH2 0x3B33 JUMP JUMPDEST PUSH1 0x40 MSTORE DUP2 DUP5 DUP3 ADD DUP7 DUP2 GT ISZERO PUSH2 0x3FEF JUMPI PUSH1 0x0 DUP1 REVERT JUMPDEST DUP6 JUMPDEST DUP2 DUP2 LT ISZERO PUSH2 0x4010 JUMPI PUSH2 0x4003 DUP9 DUP3 PUSH2 0x3BFC JUMP JUMPDEST DUP4 MSTORE SWAP2 DUP4 ADD SWAP2 DUP4 ADD PUSH2 0x3FF1 JUMP JUMPDEST POP SWAP3 SWAP7 SWAP6 POP POP POP POP POP POP JUMP JUMPDEST PUSH1 0x0 PUSH2 0x5A0 DUP3 DUP5 SUB SLT ISZERO PUSH2 0x402F JUMPI PUSH1 0x0 DUP1 REVERT JUMPDEST PUSH2 0x4037 PUSH2 0x3B71 JUMP JUMPDEST SWAP1 POP DUP2 CALLDATALOAD PUSH1 0x1 PUSH1 0x1 PUSH1 0x40 SHL SUB DUP2 GT ISZERO PUSH2 0x404F JUMPI PUSH1 0x0 DUP1 REVERT JUMPDEST PUSH2 0x405B DUP5 DUP3 DUP6 ADD PUSH2 0x3ECB JUMP JUMPDEST DUP3 MSTORE POP PUSH2 0x406B DUP4 PUSH1 0x20 DUP5 ADD PUSH2 0x3D40 JUMP JUMPDEST PUSH1 0x20 DUP3 ADD MSTORE PUSH2 0x120 PUSH2 0x407F DUP5 DUP3 DUP6 ADD PUSH2 0x3C3D JUMP JUMPDEST PUSH1 0x40 DUP4 ADD MSTORE PUSH2 0x160 PUSH2 0x4093 DUP6 DUP3 DUP7 ADD PUSH2 0x3D40 JUMP JUMPDEST PUSH1 0x60 DUP5 ADD MSTORE PUSH2 0x260 PUSH2 0x40A7 DUP7 DUP3 DUP8 ADD PUSH2 0x3F5A JUMP JUMPDEST PUSH1 0x80 DUP6 ADD MSTORE PUSH2 0x40BA DUP7 PUSH2 0x2E0 DUP8 ADD PUSH2 0x3FA7 JUMP JUMPDEST PUSH1 0xA0 DUP6 ADD MSTORE PUSH2 0x40CD DUP7 PUSH2 0x300 DUP8 ADD PUSH2 0x3FA7 JUMP JUMPDEST PUSH1 0xC0 DUP6 ADD MSTORE PUSH2 0x40E0 DUP7 PUSH2 0x320 DUP8 ADD PUSH2 0x3D90 JUMP JUMPDEST PUSH1 0xE0 DUP6 ADD MSTORE PUSH2 0x40F3 DUP7 PUSH2 0x380 DUP8 ADD PUSH2 0x3BFC JUMP JUMPDEST PUSH2 0x100 DUP6 ADD MSTORE PUSH2 0x4107 DUP7 PUSH2 0x3A0 DUP8 ADD PUSH2 0x3BFC JUMP JUMPDEST DUP4 DUP6 ADD MSTORE PUSH2 0x4119 DUP7 PUSH2 0x3C0 DUP8 ADD PUSH2 0x3BFC JUMP JUMPDEST PUSH2 0x140 DUP6 ADD MSTORE PUSH2 0x412D DUP7 PUSH2 0x3E0 DUP8 ADD PUSH2 0x3C3D JUMP JUMPDEST DUP3 DUP6 ADD MSTORE PUSH2 0x413F DUP7 PUSH2 0x420 DUP8 ADD PUSH2 0x3C3D JUMP JUMPDEST PUSH2 0x180 DUP6 ADD MSTORE PUSH2 0x4153 DUP7 PUSH2 0x460 DUP8 ADD PUSH2 0x3BFC JUMP JUMPDEST PUSH2 0x1A0 DUP6 ADD MSTORE PUSH2 0x4167 DUP7 PUSH2 0x480 DUP8 ADD PUSH2 0x3BFC JUMP JUMPDEST PUSH2 0x1C0 DUP6 ADD MSTORE PUSH2 0x417B DUP7 PUSH2 0x4A0 DUP8 ADD PUSH2 0x3BFC JUMP JUMPDEST PUSH2 0x1E0 DUP6 ADD MSTORE PUSH2 0x418F DUP7 PUSH2 0x4C0 DUP8 ADD PUSH2 0x3BFC JUMP JUMPDEST PUSH2 0x200 DUP6 ADD MSTORE PUSH2 0x41A3 DUP7 PUSH2 0x4E0 DUP8 ADD PUSH2 0x3BFC JUMP JUMPDEST PUSH2 0x220 DUP6 ADD MSTORE PUSH2 0x41B7 DUP7 PUSH2 0x500 DUP8 ADD PUSH2 0x3BFC JUMP JUMPDEST PUSH2 0x240 DUP6 ADD MSTORE PUSH2 0x41CB DUP7 PUSH2 0x520 DUP8 ADD PUSH2 0x3C3D JUMP JUMPDEST DUP2 DUP6 ADD MSTORE POP POP POP PUSH2 0x41E0 DUP4 PUSH2 0x560 DUP5 ADD PUSH2 0x3C3D JUMP JUMPDEST PUSH2 0x280 DUP3 ADD MSTORE SWAP3 SWAP2 POP POP JUMP JUMPDEST PUSH1 0x0 DUP3 PUSH1 0x1F DUP4 ADD SLT PUSH2 0x41FD JUMPI PUSH1 0x0 DUP1 REVERT JUMPDEST PUSH1 0x40 MLOAD PUSH2 0x120 DUP1 DUP3 ADD DUP3 DUP2 LT PUSH1 0x1 PUSH1 0x1 PUSH1 0x40 SHL SUB DUP3 GT OR ISZERO PUSH2 0x4221 JUMPI PUSH2 0x4221 PUSH2 0x3B33 JUMP JUMPDEST PUSH1 0x40 MSTORE DUP4 ADD DUP2 DUP6 DUP3 GT ISZERO PUSH2 0x4234 JUMPI PUSH1 0x0 DUP1 REVERT JUMPDEST DUP5 JUMPDEST DUP3 DUP2 LT ISZERO PUSH2 0x3DFA JUMPI PUSH2 0x4248 DUP8 DUP3 PUSH2 0x3BFC JUMP JUMPDEST DUP3 MSTORE PUSH1 0x20 SWAP2 DUP3 ADD SWAP2 ADD PUSH2 0x4236 JUMP JUMPDEST PUSH1 0x0 PUSH2 0x380 DUP3 DUP5 SUB SLT ISZERO PUSH2 0x4269 JUMPI PUSH1 0x0 DUP1 REVERT JUMPDEST PUSH2 0x4271 PUSH2 0x3B94 JUMP JUMPDEST SWAP1 POP PUSH2 0x427D DUP4 DUP4 PUSH2 0x3BFC JUMP JUMPDEST DUP2 MSTORE PUSH2 0x428C DUP4 PUSH1 0x20 DUP5 ADD PUSH2 0x3BFC JUMP JUMPDEST PUSH1 0x20 DUP3 ADD MSTORE PUSH2 0x429E DUP4 PUSH1 0x40 DUP5 ADD PUSH2 0x3BFC JUMP JUMPDEST PUSH1 0x40 DUP3 ADD MSTORE PUSH2 0x42B0 DUP4 PUSH1 0x60 DUP5 ADD PUSH2 0x3BFC JUMP JUMPDEST PUSH1 0x60 DUP3 ADD MSTORE PUSH2 0x42C2 DUP4 PUSH1 0x80 DUP5 ADD PUSH2 0x41EC JUMP JUMPDEST PUSH1 0x80 DUP3 ADD MSTORE PUSH2 0x1A0 PUSH2 0x42D6 DUP5 DUP3 DUP6 ADD PUSH2 0x3BFC JUMP JUMPDEST PUSH1 0xA0 DUP4 ADD MSTORE PUSH2 0x1C0 PUSH2 0x42EA DUP6 DUP3 DUP7 ADD PUSH2 0x3BFC JUMP JUMPDEST PUSH1 0xC0 DUP5 ADD MSTORE PUSH2 0x1E0 PUSH2 0x42FE DUP7 DUP3 DUP8 ADD PUSH2 0x3BFC JUMP JUMPDEST PUSH1 0xE0 DUP6 ADD MSTORE PUSH2 0x200 PUSH2 0x4312 DUP8 DUP3 DUP9 ADD PUSH2 0x3BFC JUMP JUMPDEST PUSH2 0x100 DUP7 ADD MSTORE PUSH2 0x220 PUSH2 0x4327 DUP9 DUP3 DUP10 ADD PUSH2 0x3BFC JUMP JUMPDEST PUSH2 0x120 DUP8 ADD MSTORE PUSH2 0x240 PUSH2 0x433C DUP10 DUP3 DUP11 ADD PUSH2 0x3BFC JUMP JUMPDEST PUSH2 0x140 DUP9 ADD MSTORE PUSH2 0x4350 DUP10 PUSH2 0x260 DUP11 ADD PUSH2 0x3BFC JUMP JUMPDEST PUSH2 0x160 DUP9 ADD MSTORE PUSH2 0x4364 DUP10 PUSH2 0x280 DUP11 ADD PUSH2 0x3BFC JUMP JUMPDEST PUSH2 0x180 DUP9 ADD MSTORE PUSH2 0x4378 DUP10 PUSH2 0x2A0 DUP11 ADD PUSH2 0x3BFC JUMP JUMPDEST DUP7 DUP9 ADD MSTORE PUSH2 0x438A DUP10 PUSH2 0x2C0 DUP11 ADD PUSH2 0x3BFC JUMP JUMPDEST DUP6 DUP9 ADD MSTORE PUSH2 0x439C DUP10 PUSH2 0x2E0 DUP11 ADD PUSH2 0x3BFC JUMP JUMPDEST DUP5 DUP9 ADD MSTORE PUSH2 0x43AE DUP10 PUSH2 0x300 DUP11 ADD PUSH2 0x3BFC JUMP JUMPDEST DUP4 DUP9 ADD MSTORE PUSH2 0x43C0 DUP10 PUSH2 0x320 DUP11 ADD PUSH2 0x3BFC JUMP JUMPDEST DUP3 DUP9 ADD MSTORE PUSH2 0x43D2 DUP10 PUSH2 0x340 DUP11 ADD PUSH2 0x3C3D JUMP JUMPDEST DUP2 DUP9 ADD MSTORE POP POP POP POP POP POP SWAP3 SWAP2 POP POP JUMP JUMPDEST PUSH1 0x0 DUP1 PUSH1 0x0 DUP4 DUP6 SUB PUSH2 0xA60 DUP2 SLT ISZERO PUSH2 0x43F9 JUMPI PUSH1 0x0 DUP1 REVERT JUMPDEST PUSH2 0x6C0 DUP1 DUP3 SLT ISZERO PUSH2 0x4409 JUMPI PUSH1 0x0 DUP1 REVERT JUMPDEST PUSH2 0x4411 PUSH2 0x3BB7 JUMP JUMPDEST SWAP2 POP DUP6 CALLDATALOAD DUP3 MSTORE PUSH1 0x20 DUP7 ADD CALLDATALOAD PUSH1 0x20 DUP4 ADD MSTORE PUSH2 0x442E DUP8 PUSH1 0x40 DUP9 ADD PUSH2 0x3BFC JUMP JUMPDEST PUSH1 0x40 DUP4 ADD MSTORE PUSH2 0x4440 DUP8 PUSH1 0x60 DUP9 ADD PUSH2 0x3C6D JUMP JUMPDEST PUSH1 0x60 DUP4 ADD MSTORE PUSH2 0x4452 DUP8 PUSH1 0xE0 DUP9 ADD PUSH2 0x3CC7 JUMP JUMPDEST PUSH1 0x80 DUP4 ADD MSTORE PUSH2 0x4465 DUP8 PUSH2 0x2E0 DUP9 ADD PUSH2 0x3D40 JUMP JUMPDEST PUSH1 0xA0 DUP4 ADD MSTORE PUSH2 0x4478 DUP8 PUSH2 0x3E0 DUP9 ADD PUSH2 0x3C3D JUMP JUMPDEST PUSH1 0xC0 DUP4 ADD MSTORE PUSH2 0x448B DUP8 PUSH2 0x420 DUP9 ADD PUSH2 0x3D40 JUMP JUMPDEST PUSH1 0xE0 DUP4 ADD MSTORE PUSH2 0x449E DUP8 PUSH2 0x520 DUP9 ADD PUSH2 0x3C3D JUMP JUMPDEST PUSH2 0x100 DUP4 ADD MSTORE PUSH2 0x44B2 DUP8 PUSH2 0x560 DUP9 ADD PUSH2 0x3D90 JUMP JUMPDEST PUSH2 0x120 DUP4 ADD MSTORE PUSH2 0x44C6 DUP8 PUSH2 0x5C0 DUP9 ADD PUSH2 0x3E4A JUMP JUMPDEST PUSH2 0x140 DUP4 ADD MSTORE SWAP1 SWAP4 POP DUP5 ADD CALLDATALOAD PUSH1 0x1 PUSH1 0x1 PUSH1 0x40 SHL SUB DUP2 GT ISZERO PUSH2 0x44E6 JUMPI PUSH1 0x0 DUP1 REVERT JUMPDEST PUSH2 0x44F2 DUP7 DUP3 DUP8 ADD PUSH2 0x401C JUMP JUMPDEST SWAP3 POP POP PUSH2 0x4503 DUP6 PUSH2 0x6E0 DUP7 ADD PUSH2 0x4256 JUMP JUMPDEST SWAP1 POP SWAP3 POP SWAP3 POP SWAP3 JUMP JUMPDEST DUP2 MLOAD DUP2 MSTORE PUSH1 0x20 DUP1 DUP4 ADD MLOAD SWAP1 DUP3 ADD MSTORE PUSH1 0x40 DUP2 ADD PUSH2 0x162D JUMP JUMPDEST DUP1 PUSH1 0x0 JUMPDEST PUSH1 0x2 DUP2 LT ISZERO PUSH2 0x455B JUMPI PUSH2 0x4545 DUP5 DUP4 MLOAD DUP1 MLOAD DUP3 MSTORE PUSH1 0x20 SWAP1 DUP2 ADD MLOAD SWAP2 ADD MSTORE JUMP JUMPDEST PUSH1 0x40 SWAP4 SWAP1 SWAP4 ADD SWAP3 PUSH1 0x20 SWAP2 SWAP1 SWAP2 ADD SWAP1 PUSH1 0x1 ADD PUSH2 0x4527 JUMP JUMPDEST POP POP POP POP JUMP JUMPDEST DUP1 PUSH1 0x0 JUMPDEST PUSH1 0x8 DUP2 LT ISZERO PUSH2 0x455B JUMPI PUSH2 0x4583 DUP5 DUP4 MLOAD DUP1 MLOAD DUP3 MSTORE PUSH1 0x20 SWAP1 DUP2 ADD MLOAD SWAP2 ADD MSTORE JUMP JUMPDEST PUSH1 0x40 SWAP4 SWAP1 SWAP4 ADD SWAP3 PUSH1 0x20 SWAP2 SWAP1 SWAP2 ADD SWAP1 PUSH1 0x1 ADD PUSH2 0x4565 JUMP JUMPDEST DUP1 PUSH1 0x0 JUMPDEST PUSH1 0x4 DUP2 LT ISZERO PUSH2 0x455B JUMPI PUSH2 0x45BB DUP5 DUP4 MLOAD DUP1 MLOAD DUP3 MSTORE PUSH1 0x20 SWAP1 DUP2 ADD MLOAD SWAP2 ADD MSTORE JUMP JUMPDEST PUSH1 0x40 SWAP4 SWAP1 SWAP4 ADD SWAP3 PUSH1 0x20 SWAP2 SWAP1 SWAP2 ADD SWAP1 PUSH1 0x1 ADD PUSH2 0x459D JUMP JUMPDEST DUP1 PUSH1 0x0 JUMPDEST PUSH1 0x3 DUP2 LT ISZERO PUSH2 0x455B JUMPI DUP2 MLOAD MLOAD DUP5 MSTORE PUSH1 0x20 SWAP4 DUP5 ADD SWAP4 SWAP1 SWAP2 ADD SWAP1 PUSH1 0x1 ADD PUSH2 0x45D5 JUMP JUMPDEST DUP1 PUSH1 0x0 JUMPDEST PUSH1 0x2 DUP2 LT ISZERO PUSH2 0x455B JUMPI DUP2 MLOAD DUP5 MSTORE PUSH1 0x20 SWAP4 DUP5 ADD SWAP4 SWAP1 SWAP2 ADD SWAP1 PUSH1 0x1 ADD PUSH2 0x45F9 JUMP JUMPDEST DUP1 PUSH1 0x0 JUMPDEST PUSH1 0x2 DUP2 LT ISZERO PUSH2 0x455B JUMPI DUP2 MLOAD PUSH2 0x4632 DUP6 DUP3 MLOAD PUSH2 0x45F5 JUMP JUMPDEST PUSH1 0x20 SWAP1 DUP2 ADD MLOAD SWAP1 PUSH2 0x4646 PUSH1 0x40 DUP8 ADD DUP4 PUSH2 0x45F5 JUMP JUMPDEST PUSH1 0x80 SWAP6 SWAP1 SWAP6 ADD SWAP5 SWAP3 SWAP1 SWAP3 ADD SWAP2 POP PUSH1 0x1 ADD PUSH2 0x461C JUMP JUMPDEST PUSH1 0x0 PUSH2 0x6C0 DUP3 ADD SWAP1 POP DUP3 MLOAD DUP3 MSTORE PUSH1 0x20 DUP4 ADD MLOAD PUSH1 0x20 DUP4 ADD MSTORE PUSH1 0x40 DUP4 ADD MLOAD PUSH2 0x4684 PUSH1 0x40 DUP5 ADD DUP3 MLOAD SWAP1 MSTORE JUMP JUMPDEST POP PUSH1 0x60 DUP4 ADD MLOAD PUSH2 0x4697 PUSH1 0x60 DUP5 ADD DUP3 PUSH2 0x4523 JUMP JUMPDEST POP PUSH1 0x80 DUP4 ADD MLOAD PUSH2 0x46AA PUSH1 0xE0 DUP5 ADD DUP3 PUSH2 0x4561 JUMP JUMPDEST POP PUSH1 0xA0 DUP4 ADD MLOAD PUSH2 0x46BE PUSH2 0x2E0 DUP5 ADD DUP3 PUSH2 0x4599 JUMP JUMPDEST POP PUSH1 0xC0 DUP4 ADD MLOAD DUP1 MLOAD PUSH2 0x3E0 DUP5 ADD MSTORE PUSH1 0x20 ADD MLOAD PUSH2 0x400 DUP4 ADD MSTORE PUSH1 0xE0 DUP4 ADD MLOAD PUSH2 0x46E9 PUSH2 0x420 DUP5 ADD DUP3 PUSH2 0x4599 JUMP JUMPDEST POP PUSH2 0x100 DUP4 ADD MLOAD DUP1 MLOAD PUSH2 0x520 DUP5 ADD MSTORE PUSH1 0x20 ADD MLOAD PUSH2 0x540 DUP4 ADD MSTORE PUSH2 0x120 DUP4 ADD MLOAD PUSH2 0x4716 PUSH2 0x560 DUP5 ADD DUP3 PUSH2 0x45D1 JUMP JUMPDEST POP PUSH2 0x140 DUP4 ADD MLOAD PUSH2 0x472B PUSH2 0x5C0 DUP5 ADD DUP3 PUSH2 0x4618 JUMP JUMPDEST POP SWAP3 SWAP2 POP POP JUMP JUMPDEST DUP1 PUSH1 0x0 JUMPDEST PUSH1 0x6 DUP2 LT ISZERO PUSH2 0x455B JUMPI PUSH2 0x4754 DUP5 DUP4 MLOAD DUP1 MLOAD DUP3 MSTORE PUSH1 0x20 SWAP1 DUP2 ADD MLOAD SWAP2 ADD MSTORE JUMP JUMPDEST PUSH1 0x40 SWAP4 SWAP1 SWAP4 ADD SWAP3 PUSH1 0x20 SWAP2 SWAP1 SWAP2 ADD SWAP1 PUSH1 0x1 ADD PUSH2 0x4736 JUMP JUMPDEST DUP1 PUSH1 0x0 JUMPDEST PUSH1 0x6 DUP2 LT ISZERO PUSH2 0x455B JUMPI DUP2 MLOAD MLOAD DUP5 MSTORE PUSH1 0x20 SWAP4 DUP5 ADD SWAP4 SWAP1 SWAP2 ADD SWAP1 PUSH1 0x1 ADD PUSH2 0x476E JUMP JUMPDEST DUP2 MLOAD PUSH2 0x720 DUP3 ADD SWAP1 DUP3 PUSH1 0x0 JUMPDEST PUSH1 0xD DUP2 LT ISZERO PUSH2 0x47CE JUMPI PUSH2 0x47B8 DUP3 DUP5 MLOAD DUP1 MLOAD DUP3 MSTORE PUSH1 0x20 SWAP1 DUP2 ADD MLOAD SWAP2 ADD MSTORE JUMP JUMPDEST PUSH1 0x20 SWAP3 SWAP1 SWAP3 ADD SWAP2 PUSH1 0x40 SWAP2 SWAP1 SWAP2 ADD SWAP1 PUSH1 0x1 ADD PUSH2 0x479A JUMP JUMPDEST POP POP POP PUSH1 0x20 DUP1 DUP5 ADD MLOAD PUSH2 0x340 DUP5 ADD PUSH1 0x0 JUMPDEST PUSH1 0xD DUP2 LT ISZERO PUSH2 0x47FD JUMPI DUP3 MLOAD MLOAD DUP3 MSTORE SWAP2 DUP4 ADD SWAP2 SWAP1 DUP4 ADD SWAP1 PUSH1 0x1 ADD PUSH2 0x47DF JUMP JUMPDEST POP POP POP POP PUSH1 0x40 DUP4 ADD MLOAD PUSH2 0x4814 PUSH2 0x4E0 DUP5 ADD DUP3 PUSH2 0x4732 JUMP JUMPDEST POP PUSH1 0x60 DUP4 ADD MLOAD PUSH2 0x472B PUSH2 0x660 DUP5 ADD DUP3 PUSH2 0x476A JUMP JUMPDEST PUSH1 0x0 PUSH2 0x380 DUP3 DUP5 SUB SLT ISZERO PUSH2 0x483B JUMPI PUSH1 0x0 DUP1 REVERT JUMPDEST PUSH2 0x4845 DUP4 DUP4 PUSH2 0x4256 JUMP JUMPDEST SWAP4 SWAP3 POP POP POP JUMP JUMPDEST PUSH4 0x4E487B71 PUSH1 0xE0 SHL PUSH1 0x0 MSTORE PUSH1 0x32 PUSH1 0x4 MSTORE PUSH1 0x24 PUSH1 0x0 REVERT JUMPDEST PUSH4 0x4E487B71 PUSH1 0xE0 SHL PUSH1 0x0 MSTORE PUSH1 0x11 PUSH1 0x4 MSTORE PUSH1 0x24 PUSH1 0x0 REVERT JUMPDEST DUP2 DUP2 SUB DUP2 DUP2 GT ISZERO PUSH2 0x162D JUMPI PUSH2 0x162D PUSH2 0x4862 JUMP JUMPDEST PUSH4 0xFFFFFFFF DUP2 DUP2 AND DUP4 DUP3 AND ADD SWAP1 DUP1 DUP3 GT ISZERO PUSH2 0x472B JUMPI PUSH2 0x472B PUSH2 0x4862 JUMP JUMPDEST DUP1 DUP3 MUL DUP2 ISZERO DUP3 DUP3 DIV DUP5 EQ OR PUSH2 0x162D JUMPI PUSH2 0x162D PUSH2 0x4862 JUMP JUMPDEST DUP1 DUP3 ADD DUP1 DUP3 GT ISZERO PUSH2 0x162D JUMPI PUSH2 0x162D PUSH2 0x4862 JUMP INVALID ADDRESS PUSH5 0x4E72E131A0 0x29 0xB8 POP GASLIMIT 0xB6 DUP2 DUP2 PC 0x5D SWAP8 DUP2 PUSH11 0x916871CA8D3C208C16D87C REVERT SELFBALANCE ADDRESS PUSH5 0x4E72E131A0 0x29 0xB8 POP GASLIMIT 0xB6 DUP2 DUP2 PC 0x5D 0x28 CALLER 0xE8 BASEFEE PUSH26 0xB9709143E1F593F0000001A264697066735822122093B5BC5101 EXTCODECOPY XOR NUMBER PUSH17 0x424E12B1C836AB5B130F43C86E1A8F5DF5 0x49 0xE6 0x5E 0xE2 0x4F RETURNDATASIZE PUSH5 0x736F6C6343 STOP ADDMOD EQ STOP CALLER "},"methodIdentifiers":{"compute_powers_of_alpha(((uint256),(uint256),(uint256),(uint256),(uint256)[9],(uint256),(uint256),(uint256),(uint256),(uint256),(uint256),(uint256),(uint256),(uint256),(uint256),(uint256),(uint256),(uint256),(uint256,uint256)))":"fec4e96e","get_verification_key()":"bd5794e2","prepare_queries((uint256,uint256,(uint256),(uint256,uint256)[2],(uint256,uint256)[8],(uint256,uint256)[4],(uint256,uint256),(uint256,uint256)[4],(uint256,uint256),(uint256)[3],(uint256[2],uint256[2])[2]),(uint256[],(uint256,uint256)[4],(uint256,uint256),(uint256,uint256)[4],(uint256)[4],(uint256)[1],(uint256)[1],(uint256)[3],(uint256),(uint256),(uint256),(uint256,uint256),(uint256,uint256),(uint256),(uint256),(uint256),(uint256),(uint256),(uint256),(uint256,uint256),(uint256,uint256)),((uint256),(uint256),(uint256),(uint256),(uint256)[9],(uint256),(uint256),(uint256),(uint256),(uint256),(uint256),(uint256),(uint256),(uint256),(uint256),(uint256),(uint256),(uint256),(uint256,uint256)))":"c2ef6041","rescue_custom_gate_linearization_contribution((uint256,uint256,(uint256),(uint256,uint256)[2],(uint256,uint256)[8],(uint256,uint256)[4],(uint256,uint256),(uint256,uint256)[4],(uint256,uint256),(uint256)[3],(uint256[2],uint256[2])[2]),(uint256[],(uint256,uint256)[4],(uint256,uint256),(uint256,uint256)[4],(uint256)[4],(uint256)[1],(uint256)[1],(uint256)[3],(uint256),(uint256),(uint256),(uint256,uint256),(uint256,uint256),(uint256),(uint256),(uint256),(uint256),(uint256),(uint256),(uint256,uint256),(uint256,uint256)),((uint256),(uint256),(uint256),(uint256),(uint256)[9],(uint256),(uint256),(uint256),(uint256),(uint256),(uint256),(uint256),(uint256),(uint256),(uint256),(uint256),(uint256),(uint256),(uint256,uint256)))":"3ec236cb","verify_serialized_proof(uint256[],uint256[])":"330deb9f"}},"storageLayout":{"storage":[],"types":null}}}}