{"@matterlabs/zksync-contracts/l1/contracts/zksync/Plonk4VerifierWithAccessToDNext.sol":{"Plonk4VerifierWithAccessToDNext":{"abi":[{"inputs":[{"components":[{"components":[{"internalType":"uint256","name":"value","type":"uint256"}],"internalType":"struct PairingsBn254.Fr","name":"zero","type":"tuple"},{"components":[{"internalType":"uint256","name":"value","type":"uint256"}],"internalType":"struct PairingsBn254.Fr","name":"alpha","type":"tuple"},{"components":[{"internalType":"uint256","name":"value","type":"uint256"}],"internalType":"struct PairingsBn254.Fr","name":"beta","type":"tuple"},{"components":[{"internalType":"uint256","name":"value","type":"uint256"}],"internalType":"struct PairingsBn254.Fr","name":"gamma","type":"tuple"},{"components":[{"internalType":"uint256","name":"value","type":"uint256"}],"internalType":"struct PairingsBn254.Fr[9]","name":"alpha_values","type":"tuple[9]"},{"components":[{"internalType":"uint256","name":"value","type":"uint256"}],"internalType":"struct PairingsBn254.Fr","name":"eta","type":"tuple"},{"components":[{"internalType":"uint256","name":"value","type":"uint256"}],"internalType":"struct PairingsBn254.Fr","name":"beta_lookup","type":"tuple"},{"components":[{"internalType":"uint256","name":"value","type":"uint256"}],"internalType":"struct PairingsBn254.Fr","name":"gamma_lookup","type":"tuple"},{"components":[{"internalType":"uint256","name":"value","type":"uint256"}],"internalType":"struct PairingsBn254.Fr","name":"beta_plus_one","type":"tuple"},{"components":[{"internalType":"uint256","name":"value","type":"uint256"}],"internalType":"struct PairingsBn254.Fr","name":"beta_gamma","type":"tuple"},{"components":[{"internalType":"uint256","name":"value","type":"uint256"}],"internalType":"struct PairingsBn254.Fr","name":"v","type":"tuple"},{"components":[{"internalType":"uint256","name":"value","type":"uint256"}],"internalType":"struct PairingsBn254.Fr","name":"u","type":"tuple"},{"components":[{"internalType":"uint256","name":"value","type":"uint256"}],"internalType":"struct PairingsBn254.Fr","name":"z","type":"tuple"},{"components":[{"internalType":"uint256","name":"value","type":"uint256"}],"internalType":"struct PairingsBn254.Fr","name":"z_omega","type":"tuple"},{"components":[{"internalType":"uint256","name":"value","type":"uint256"}],"internalType":"struct PairingsBn254.Fr","name":"z_minus_last_omega","type":"tuple"},{"components":[{"internalType":"uint256","name":"value","type":"uint256"}],"internalType":"struct PairingsBn254.Fr","name":"l_0_at_z","type":"tuple"},{"components":[{"internalType":"uint256","name":"value","type":"uint256"}],"internalType":"struct PairingsBn254.Fr","name":"l_n_minus_one_at_z","type":"tuple"},{"components":[{"internalType":"uint256","name":"value","type":"uint256"}],"internalType":"struct PairingsBn254.Fr","name":"t","type":"tuple"},{"components":[{"internalType":"uint256","name":"X","type":"uint256"},{"internalType":"uint256","name":"Y","type":"uint256"}],"internalType":"struct PairingsBn254.G1Point","name":"tp","type":"tuple"}],"internalType":"struct Plonk4VerifierWithAccessToDNext.PartialVerifierState","name":"state","type":"tuple"}],"name":"compute_powers_of_alpha","outputs":[],"stateMutability":"pure","type":"function"},{"inputs":[{"components":[{"internalType":"uint256","name":"domain_size","type":"uint256"},{"internalType":"uint256","name":"num_inputs","type":"uint256"},{"components":[{"internalType":"uint256","name":"value","type":"uint256"}],"internalType":"struct PairingsBn254.Fr","name":"omega","type":"tuple"},{"components":[{"internalType":"uint256","name":"X","type":"uint256"},{"internalType":"uint256","name":"Y","type":"uint256"}],"internalType":"struct PairingsBn254.G1Point[2]","name":"gate_selectors_commitments","type":"tuple[2]"},{"components":[{"internalType":"uint256","name":"X","type":"uint256"},{"internalType":"uint256","name":"Y","type":"uint256"}],"internalType":"struct PairingsBn254.G1Point[8]","name":"gate_setup_commitments","type":"tuple[8]"},{"components":[{"internalType":"uint256","name":"X","type":"uint256"},{"internalType":"uint256","name":"Y","type":"uint256"}],"internalType":"struct PairingsBn254.G1Point[4]","name":"permutation_commitments","type":"tuple[4]"},{"components":[{"internalType":"uint256","name":"X","type":"uint256"},{"internalType":"uint256","name":"Y","type":"uint256"}],"internalType":"struct PairingsBn254.G1Point","name":"lookup_selector_commitment","type":"tuple"},{"components":[{"internalType":"uint256","name":"X","type":"uint256"},{"internalType":"uint256","name":"Y","type":"uint256"}],"internalType":"struct PairingsBn254.G1Point[4]","name":"lookup_tables_commitments","type":"tuple[4]"},{"components":[{"internalType":"uint256","name":"X","type":"uint256"},{"internalType":"uint256","name":"Y","type":"uint256"}],"internalType":"struct PairingsBn254.G1Point","name":"lookup_table_type_commitment","type":"tuple"},{"components":[{"internalType":"uint256","name":"value","type":"uint256"}],"internalType":"struct PairingsBn254.Fr[3]","name":"non_residues","type":"tuple[3]"},{"components":[{"internalType":"uint256[2]","name":"X","type":"uint256[2]"},{"internalType":"uint256[2]","name":"Y","type":"uint256[2]"}],"internalType":"struct PairingsBn254.G2Point[2]","name":"g2_elements","type":"tuple[2]"}],"internalType":"struct VerificationKey","name":"vk","type":"tuple"},{"components":[{"internalType":"uint256[]","name":"input_values","type":"uint256[]"},{"components":[{"internalType":"uint256","name":"X","type":"uint256"},{"internalType":"uint256","name":"Y","type":"uint256"}],"internalType":"struct PairingsBn254.G1Point[4]","name":"state_polys_commitments","type":"tuple[4]"},{"components":[{"internalType":"uint256","name":"X","type":"uint256"},{"internalType":"uint256","name":"Y","type":"uint256"}],"internalType":"struct PairingsBn254.G1Point","name":"copy_permutation_grand_product_commitment","type":"tuple"},{"components":[{"internalType":"uint256","name":"X","type":"uint256"},{"internalType":"uint256","name":"Y","type":"uint256"}],"internalType":"struct PairingsBn254.G1Point[4]","name":"quotient_poly_parts_commitments","type":"tuple[4]"},{"components":[{"internalType":"uint256","name":"value","type":"uint256"}],"internalType":"struct PairingsBn254.Fr[4]","name":"state_polys_openings_at_z","type":"tuple[4]"},{"components":[{"internalType":"uint256","name":"value","type":"uint256"}],"internalType":"struct PairingsBn254.Fr[1]","name":"state_polys_openings_at_z_omega","type":"tuple[1]"},{"components":[{"internalType":"uint256","name":"value","type":"uint256"}],"internalType":"struct PairingsBn254.Fr[1]","name":"gate_selectors_openings_at_z","type":"tuple[1]"},{"components":[{"internalType":"uint256","name":"value","type":"uint256"}],"internalType":"struct PairingsBn254.Fr[3]","name":"copy_permutation_polys_openings_at_z","type":"tuple[3]"},{"components":[{"internalType":"uint256","name":"value","type":"uint256"}],"internalType":"struct PairingsBn254.Fr","name":"copy_permutation_grand_product_opening_at_z_omega","type":"tuple"},{"components":[{"internalType":"uint256","name":"value","type":"uint256"}],"internalType":"struct PairingsBn254.Fr","name":"quotient_poly_opening_at_z","type":"tuple"},{"components":[{"internalType":"uint256","name":"value","type":"uint256"}],"internalType":"struct PairingsBn254.Fr","name":"linearization_poly_opening_at_z","type":"tuple"},{"components":[{"internalType":"uint256","name":"X","type":"uint256"},{"internalType":"uint256","name":"Y","type":"uint256"}],"internalType":"struct PairingsBn254.G1Point","name":"lookup_s_poly_commitment","type":"tuple"},{"components":[{"internalType":"uint256","name":"X","type":"uint256"},{"internalType":"uint256","name":"Y","type":"uint256"}],"internalType":"struct PairingsBn254.G1Point","name":"lookup_grand_product_commitment","type":"tuple"},{"components":[{"internalType":"uint256","name":"value","type":"uint256"}],"internalType":"struct PairingsBn254.Fr","name":"lookup_s_poly_opening_at_z_omega","type":"tuple"},{"components":[{"internalType":"uint256","name":"value","type":"uint256"}],"internalType":"struct PairingsBn254.Fr","name":"lookup_grand_product_opening_at_z_omega","type":"tuple"},{"components":[{"internalType":"uint256","name":"value","type":"uint256"}],"internalType":"struct PairingsBn254.Fr","name":"lookup_t_poly_opening_at_z","type":"tuple"},{"components":[{"internalType":"uint256","name":"value","type":"uint256"}],"internalType":"struct PairingsBn254.Fr","name":"lookup_t_poly_opening_at_z_omega","type":"tuple"},{"components":[{"internalType":"uint256","name":"value","type":"uint256"}],"internalType":"struct PairingsBn254.Fr","name":"lookup_selector_poly_opening_at_z","type":"tuple"},{"components":[{"internalType":"uint256","name":"value","type":"uint256"}],"internalType":"struct PairingsBn254.Fr","name":"lookup_table_type_poly_opening_at_z","type":"tuple"},{"components":[{"internalType":"uint256","name":"X","type":"uint256"},{"internalType":"uint256","name":"Y","type":"uint256"}],"internalType":"struct PairingsBn254.G1Point","name":"opening_proof_at_z","type":"tuple"},{"components":[{"internalType":"uint256","name":"X","type":"uint256"},{"internalType":"uint256","name":"Y","type":"uint256"}],"internalType":"struct PairingsBn254.G1Point","name":"opening_proof_at_z_omega","type":"tuple"}],"internalType":"struct Plonk4VerifierWithAccessToDNext.Proof","name":"proof","type":"tuple"},{"components":[{"components":[{"internalType":"uint256","name":"value","type":"uint256"}],"internalType":"struct PairingsBn254.Fr","name":"zero","type":"tuple"},{"components":[{"internalType":"uint256","name":"value","type":"uint256"}],"internalType":"struct PairingsBn254.Fr","name":"alpha","type":"tuple"},{"components":[{"internalType":"uint256","name":"value","type":"uint256"}],"internalType":"struct PairingsBn254.Fr","name":"beta","type":"tuple"},{"components":[{"internalType":"uint256","name":"value","type":"uint256"}],"internalType":"struct PairingsBn254.Fr","name":"gamma","type":"tuple"},{"components":[{"internalType":"uint256","name":"value","type":"uint256"}],"internalType":"struct PairingsBn254.Fr[9]","name":"alpha_values","type":"tuple[9]"},{"components":[{"internalType":"uint256","name":"value","type":"uint256"}],"internalType":"struct PairingsBn254.Fr","name":"eta","type":"tuple"},{"components":[{"internalType":"uint256","name":"value","type":"uint256"}],"internalType":"struct PairingsBn254.Fr","name":"beta_lookup","type":"tuple"},{"components":[{"internalType":"uint256","name":"value","type":"uint256"}],"internalType":"struct PairingsBn254.Fr","name":"gamma_lookup","type":"tuple"},{"components":[{"internalType":"uint256","name":"value","type":"uint256"}],"internalType":"struct PairingsBn254.Fr","name":"beta_plus_one","type":"tuple"},{"components":[{"internalType":"uint256","name":"value","type":"uint256"}],"internalType":"struct PairingsBn254.Fr","name":"beta_gamma","type":"tuple"},{"components":[{"internalType":"uint256","name":"value","type":"uint256"}],"internalType":"struct PairingsBn254.Fr","name":"v","type":"tuple"},{"components":[{"internalType":"uint256","name":"value","type":"uint256"}],"internalType":"struct PairingsBn254.Fr","name":"u","type":"tuple"},{"components":[{"internalType":"uint256","name":"value","type":"uint256"}],"internalType":"struct PairingsBn254.Fr","name":"z","type":"tuple"},{"components":[{"internalType":"uint256","name":"value","type":"uint256"}],"internalType":"struct PairingsBn254.Fr","name":"z_omega","type":"tuple"},{"components":[{"internalType":"uint256","name":"value","type":"uint256"}],"internalType":"struct PairingsBn254.Fr","name":"z_minus_last_omega","type":"tuple"},{"components":[{"internalType":"uint256","name":"value","type":"uint256"}],"internalType":"struct PairingsBn254.Fr","name":"l_0_at_z","type":"tuple"},{"components":[{"internalType":"uint256","name":"value","type":"uint256"}],"internalType":"struct PairingsBn254.Fr","name":"l_n_minus_one_at_z","type":"tuple"},{"components":[{"internalType":"uint256","name":"value","type":"uint256"}],"internalType":"struct PairingsBn254.Fr","name":"t","type":"tuple"},{"components":[{"internalType":"uint256","name":"X","type":"uint256"},{"internalType":"uint256","name":"Y","type":"uint256"}],"internalType":"struct PairingsBn254.G1Point","name":"tp","type":"tuple"}],"internalType":"struct Plonk4VerifierWithAccessToDNext.PartialVerifierState","name":"state","type":"tuple"}],"name":"prepare_queries","outputs":[{"components":[{"components":[{"internalType":"uint256","name":"X","type":"uint256"},{"internalType":"uint256","name":"Y","type":"uint256"}],"internalType":"struct PairingsBn254.G1Point[13]","name":"commitments_at_z","type":"tuple[13]"},{"components":[{"internalType":"uint256","name":"value","type":"uint256"}],"internalType":"struct PairingsBn254.Fr[13]","name":"values_at_z","type":"tuple[13]"},{"components":[{"internalType":"uint256","name":"X","type":"uint256"},{"internalType":"uint256","name":"Y","type":"uint256"}],"internalType":"struct PairingsBn254.G1Point[6]","name":"commitments_at_z_omega","type":"tuple[6]"},{"components":[{"internalType":"uint256","name":"value","type":"uint256"}],"internalType":"struct PairingsBn254.Fr[6]","name":"values_at_z_omega","type":"tuple[6]"}],"internalType":"struct Plonk4VerifierWithAccessToDNext.Queries","name":"queries","type":"tuple"}],"stateMutability":"view","type":"function"},{"inputs":[{"components":[{"internalType":"uint256","name":"domain_size","type":"uint256"},{"internalType":"uint256","name":"num_inputs","type":"uint256"},{"components":[{"internalType":"uint256","name":"value","type":"uint256"}],"internalType":"struct PairingsBn254.Fr","name":"omega","type":"tuple"},{"components":[{"internalType":"uint256","name":"X","type":"uint256"},{"internalType":"uint256","name":"Y","type":"uint256"}],"internalType":"struct PairingsBn254.G1Point[2]","name":"gate_selectors_commitments","type":"tuple[2]"},{"components":[{"internalType":"uint256","name":"X","type":"uint256"},{"internalType":"uint256","name":"Y","type":"uint256"}],"internalType":"struct PairingsBn254.G1Point[8]","name":"gate_setup_commitments","type":"tuple[8]"},{"components":[{"internalType":"uint256","name":"X","type":"uint256"},{"internalType":"uint256","name":"Y","type":"uint256"}],"internalType":"struct PairingsBn254.G1Point[4]","name":"permutation_commitments","type":"tuple[4]"},{"components":[{"internalType":"uint256","name":"X","type":"uint256"},{"internalType":"uint256","name":"Y","type":"uint256"}],"internalType":"struct PairingsBn254.G1Point","name":"lookup_selector_commitment","type":"tuple"},{"components":[{"internalType":"uint256","name":"X","type":"uint256"},{"internalType":"uint256","name":"Y","type":"uint256"}],"internalType":"struct PairingsBn254.G1Point[4]","name":"lookup_tables_commitments","type":"tuple[4]"},{"components":[{"internalType":"uint256","name":"X","type":"uint256"},{"internalType":"uint256","name":"Y","type":"uint256"}],"internalType":"struct PairingsBn254.G1Point","name":"lookup_table_type_commitment","type":"tuple"},{"components":[{"internalType":"uint256","name":"value","type":"uint256"}],"internalType":"struct PairingsBn254.Fr[3]","name":"non_residues","type":"tuple[3]"},{"components":[{"internalType":"uint256[2]","name":"X","type":"uint256[2]"},{"internalType":"uint256[2]","name":"Y","type":"uint256[2]"}],"internalType":"struct PairingsBn254.G2Point[2]","name":"g2_elements","type":"tuple[2]"}],"internalType":"struct VerificationKey","name":"vk","type":"tuple"},{"components":[{"internalType":"uint256[]","name":"input_values","type":"uint256[]"},{"components":[{"internalType":"uint256","name":"X","type":"uint256"},{"internalType":"uint256","name":"Y","type":"uint256"}],"internalType":"struct PairingsBn254.G1Point[4]","name":"state_polys_commitments","type":"tuple[4]"},{"components":[{"internalType":"uint256","name":"X","type":"uint256"},{"internalType":"uint256","name":"Y","type":"uint256"}],"internalType":"struct PairingsBn254.G1Point","name":"copy_permutation_grand_product_commitment","type":"tuple"},{"components":[{"internalType":"uint256","name":"X","type":"uint256"},{"internalType":"uint256","name":"Y","type":"uint256"}],"internalType":"struct PairingsBn254.G1Point[4]","name":"quotient_poly_parts_commitments","type":"tuple[4]"},{"components":[{"internalType":"uint256","name":"value","type":"uint256"}],"internalType":"struct PairingsBn254.Fr[4]","name":"state_polys_openings_at_z","type":"tuple[4]"},{"components":[{"internalType":"uint256","name":"value","type":"uint256"}],"internalType":"struct PairingsBn254.Fr[1]","name":"state_polys_openings_at_z_omega","type":"tuple[1]"},{"components":[{"internalType":"uint256","name":"value","type":"uint256"}],"internalType":"struct PairingsBn254.Fr[1]","name":"gate_selectors_openings_at_z","type":"tuple[1]"},{"components":[{"internalType":"uint256","name":"value","type":"uint256"}],"internalType":"struct PairingsBn254.Fr[3]","name":"copy_permutation_polys_openings_at_z","type":"tuple[3]"},{"components":[{"internalType":"uint256","name":"value","type":"uint256"}],"internalType":"struct PairingsBn254.Fr","name":"copy_permutation_grand_product_opening_at_z_omega","type":"tuple"},{"components":[{"internalType":"uint256","name":"value","type":"uint256"}],"internalType":"struct PairingsBn254.Fr","name":"quotient_poly_opening_at_z","type":"tuple"},{"components":[{"internalType":"uint256","name":"value","type":"uint256"}],"internalType":"struct PairingsBn254.Fr","name":"linearization_poly_opening_at_z","type":"tuple"},{"components":[{"internalType":"uint256","name":"X","type":"uint256"},{"internalType":"uint256","name":"Y","type":"uint256"}],"internalType":"struct PairingsBn254.G1Point","name":"lookup_s_poly_commitment","type":"tuple"},{"components":[{"internalType":"uint256","name":"X","type":"uint256"},{"internalType":"uint256","name":"Y","type":"uint256"}],"internalType":"struct PairingsBn254.G1Point","name":"lookup_grand_product_commitment","type":"tuple"},{"components":[{"internalType":"uint256","name":"value","type":"uint256"}],"internalType":"struct PairingsBn254.Fr","name":"lookup_s_poly_opening_at_z_omega","type":"tuple"},{"components":[{"internalType":"uint256","name":"value","type":"uint256"}],"internalType":"struct PairingsBn254.Fr","name":"lookup_grand_product_opening_at_z_omega","type":"tuple"},{"components":[{"internalType":"uint256","name":"value","type":"uint256"}],"internalType":"struct PairingsBn254.Fr","name":"lookup_t_poly_opening_at_z","type":"tuple"},{"components":[{"internalType":"uint256","name":"value","type":"uint256"}],"internalType":"struct PairingsBn254.Fr","name":"lookup_t_poly_opening_at_z_omega","type":"tuple"},{"components":[{"internalType":"uint256","name":"value","type":"uint256"}],"internalType":"struct PairingsBn254.Fr","name":"lookup_selector_poly_opening_at_z","type":"tuple"},{"components":[{"internalType":"uint256","name":"value","type":"uint256"}],"internalType":"struct PairingsBn254.Fr","name":"lookup_table_type_poly_opening_at_z","type":"tuple"},{"components":[{"internalType":"uint256","name":"X","type":"uint256"},{"internalType":"uint256","name":"Y","type":"uint256"}],"internalType":"struct PairingsBn254.G1Point","name":"opening_proof_at_z","type":"tuple"},{"components":[{"internalType":"uint256","name":"X","type":"uint256"},{"internalType":"uint256","name":"Y","type":"uint256"}],"internalType":"struct PairingsBn254.G1Point","name":"opening_proof_at_z_omega","type":"tuple"}],"internalType":"struct Plonk4VerifierWithAccessToDNext.Proof","name":"proof","type":"tuple"},{"components":[{"components":[{"internalType":"uint256","name":"value","type":"uint256"}],"internalType":"struct PairingsBn254.Fr","name":"zero","type":"tuple"},{"components":[{"internalType":"uint256","name":"value","type":"uint256"}],"internalType":"struct PairingsBn254.Fr","name":"alpha","type":"tuple"},{"components":[{"internalType":"uint256","name":"value","type":"uint256"}],"internalType":"struct PairingsBn254.Fr","name":"beta","type":"tuple"},{"components":[{"internalType":"uint256","name":"value","type":"uint256"}],"internalType":"struct PairingsBn254.Fr","name":"gamma","type":"tuple"},{"components":[{"internalType":"uint256","name":"value","type":"uint256"}],"internalType":"struct PairingsBn254.Fr[9]","name":"alpha_values","type":"tuple[9]"},{"components":[{"internalType":"uint256","name":"value","type":"uint256"}],"internalType":"struct PairingsBn254.Fr","name":"eta","type":"tuple"},{"components":[{"internalType":"uint256","name":"value","type":"uint256"}],"internalType":"struct PairingsBn254.Fr","name":"beta_lookup","type":"tuple"},{"components":[{"internalType":"uint256","name":"value","type":"uint256"}],"internalType":"struct PairingsBn254.Fr","name":"gamma_lookup","type":"tuple"},{"components":[{"internalType":"uint256","name":"value","type":"uint256"}],"internalType":"struct PairingsBn254.Fr","name":"beta_plus_one","type":"tuple"},{"components":[{"internalType":"uint256","name":"value","type":"uint256"}],"internalType":"struct PairingsBn254.Fr","name":"beta_gamma","type":"tuple"},{"components":[{"internalType":"uint256","name":"value","type":"uint256"}],"internalType":"struct PairingsBn254.Fr","name":"v","type":"tuple"},{"components":[{"internalType":"uint256","name":"value","type":"uint256"}],"internalType":"struct PairingsBn254.Fr","name":"u","type":"tuple"},{"components":[{"internalType":"uint256","name":"value","type":"uint256"}],"internalType":"struct PairingsBn254.Fr","name":"z","type":"tuple"},{"components":[{"internalType":"uint256","name":"value","type":"uint256"}],"internalType":"struct PairingsBn254.Fr","name":"z_omega","type":"tuple"},{"components":[{"internalType":"uint256","name":"value","type":"uint256"}],"internalType":"struct PairingsBn254.Fr","name":"z_minus_last_omega","type":"tuple"},{"components":[{"internalType":"uint256","name":"value","type":"uint256"}],"internalType":"struct PairingsBn254.Fr","name":"l_0_at_z","type":"tuple"},{"components":[{"internalType":"uint256","name":"value","type":"uint256"}],"internalType":"struct PairingsBn254.Fr","name":"l_n_minus_one_at_z","type":"tuple"},{"components":[{"internalType":"uint256","name":"value","type":"uint256"}],"internalType":"struct PairingsBn254.Fr","name":"t","type":"tuple"},{"components":[{"internalType":"uint256","name":"X","type":"uint256"},{"internalType":"uint256","name":"Y","type":"uint256"}],"internalType":"struct PairingsBn254.G1Point","name":"tp","type":"tuple"}],"internalType":"struct Plonk4VerifierWithAccessToDNext.PartialVerifierState","name":"state","type":"tuple"}],"name":"rescue_custom_gate_linearization_contribution","outputs":[{"components":[{"internalType":"uint256","name":"X","type":"uint256"},{"internalType":"uint256","name":"Y","type":"uint256"}],"internalType":"struct PairingsBn254.G1Point","name":"result","type":"tuple"}],"stateMutability":"view","type":"function"}],"evm":{"bytecode":{"linkReferences":{},"object":"608060405234801561001057600080fd5b506114b6806100206000396000f3fe608060405234801561001057600080fd5b50600436106100415760003560e01c80633ec236cb14610046578063c2ef60411461006f578063fec4e96e1461008f575b600080fd5b6100596100543660046111c1565b6100a4565b60405161006691906112eb565b60405180910390f35b61008261007d3660046111c1565b6101f9565b6040516100669190611364565b6100a261009d366004611405565b61055d565b005b604080518082019091526000808252602082015260408051602081019091526000815260408051602081019091526000815260808501516100fd9060005b60200201516040805160208101909152600081529051815290565b9150610109828061060b565b60808501516101219060015b60200201518390610625565b60808401516101399060015b6020020151839061060b565b6101438183610657565b60808501516101539060016100e2565b915061015f828061060b565b608085015161016f906002610115565b608084015161017f90600261012d565b6101898183610657565b60808501516101999060026100e2565b60808601519092506101ac90600061012d565b60808501516101bc906003610115565b60808401516101cc90600361012d565b6101d68183610657565b60608601516101ef90829060015b602002015190610671565b9695505050505050565b6102016107d2565b600260005b6004811015610284578460200151816004811061022557610225611429565b6020020151835183600d811061023d5761023d611429565b60200201526080850151816004811061025857610258611429565b6020020151836020015183600d811061027357610273611429565b602002015260019182019101610206565b50606085015151825182600d811061029e5761029e611429565b602002015260c084015160006020020151826020015182600d81106102c5576102c5611429565b602002015260010160005b6102dc6001600461143f565b811015610358578560a0015181600481106102f9576102f9611429565b6020020151835183600d811061031157610311611429565b602002015260e0850151816003811061032c5761032c611429565b6020020151836020015183600d811061034757610347611429565b6020020152600191820191016102d0565b50604084810151908301515260208401516103756001600461143f565b6004811061038557610385611429565b6020908102919091015160408401518201526101008501516060840180519190915260a0808701515191519092015260e086015151908401516000906103db906040805160208101909152600081529051815290565b905060015b600481101561042e57610403828960e0015183600481106101e4576101e4611429565b61024087018190526104169084906106b6565b60a086015161042690839061060b565b6001016103e0565b508351829084600d811061044457610444611429565b6020020181905250856101e00151846020015184600d811061046857610468611429565b602002015260c087015184516001949094019384600d811061048c5761048c611429565b6020020181905250856102200151846020015184600d81106104b0576104b0611429565b602002015261010087015184516001949094019384600d81106104d5576104d5611429565b6020020181905250856102400151846020015184600d81106104f9576104f9611429565b602002015250610160850151604084810180518201929092526101a0870151606080870180519093019190915261018088015183518201526101c0880151825190910152905160809081019290925261020090950151945101939093529392505050565b60208101515160000361056f57600080fd5b61057960016106c5565b608082018051919091526020808301805160408051808501825260008082529251815294518401949094529051835192830190935281529051815260025b60098110156106065760208301516105d090839061060b565b60408051602081019091526000815282518152836080015182600981106105f9576105f9611429565b60200201526001016105b7565b505050565b600080516020611461833981519152815183510990915250565b600080516020611461833981519152815161064e9060008051602061146183398151915261143f565b83510890915250565b600080516020611461833981519152815183510890915250565b60408051808201909152600080825260208201528251158015610698575082602001516001145b156106a557600060208401525b6106b0838383610700565b92915050565b6106c1828284610742565b5050565b60408051602081019091526000815260008051602061146183398151915282106106ee57600080fd5b50604080516020810190915290815290565b610708610811565b835181526020840151816001602002015282518160026020020152600060408360608460075afa90508061073b57600080fd5b5050505050565b815115801561075357506020820151155b1561076b578251815260209283015192019190915250565b825115801561077c57506020830151155b15610791578151815260209182015191015250565b61079961082f565b835181526020808501518183015283516040808401919091529084015160608301526000908360808460065afa90508061073b57600080fd5b60405180608001604052806107e561084d565b81526020016107f2610887565b81526020016107ff6108bc565b815260200161080c6108e6565b905290565b60405180606001604052806003906020820280368337509192915050565b60405180608001604052806004906020820280368337509192915050565b604051806101a00160405280600d905b604080518082019091526000808252602082015281526020019060019003908161085d5790505090565b604051806101a00160405280600d905b6040805160208101909152600081528152602001906001900390816108975790505090565b604080516101008101909152600060c0820181815260e0830191909152815260056020820161085d565b6040805160e08101909152600060c082019081528152600560208201610897565b634e487b7160e01b600052604160045260246000fd5b604080519081016001600160401b038111828210171561093f5761093f610907565b60405290565b6040516102a081016001600160401b038111828210171561093f5761093f610907565b60405161026081016001600160401b038111828210171561093f5761093f610907565b60405161016081016001600160401b038111828210171561093f5761093f610907565b604051608081016001600160401b038111828210171561093f5761093f610907565b6000602082840312156109e257600080fd5b604051602081018181106001600160401b0382111715610a0457610a04610907565b6040529135825250919050565b600060408284031215610a2357600080fd5b610a2b61091d565b9050813581526020820135602082015292915050565b600082601f830112610a5257600080fd5b610a5a61091d565b806080840185811115610a6c57600080fd5b845b81811015610a9057610a808782610a11565b8452602090930192604001610a6e565b509095945050505050565b600082601f830112610aac57600080fd5b6040805161010081018181106001600160401b0382111715610ad057610ad0610907565b825280610200850186811115610ae557600080fd5b855b81811015610b0857610af98882610a11565b83526020909201918401610ae7565b50919695505050505050565b600082601f830112610b2557600080fd5b610b2d6109ae565b80610100840185811115610b4057600080fd5b845b81811015610a9057610b548782610a11565b8452602090930192604001610b42565b600082601f830112610b7557600080fd5b604051606081018181106001600160401b0382111715610b9757610b97610907565b604052806060840185811115610bac57600080fd5b845b81811015610bce57610bc087826109d0565b835260209283019201610bae565b509195945050505050565b600082601f830112610bea57600080fd5b610bf261091d565b806040840185811115610c0457600080fd5b845b81811015610a90578035845260209384019301610c06565b600082601f830112610c2f57600080fd5b610c3761091d565b80610100840185811115610c4a57600080fd5b845b81811015610a905760808188031215610c655760008081fd5b610c6d61091d565b610c778883610bd9565b8152610c868860408401610bd9565b6020828101919091529085529390930192608001610c4c565b600082601f830112610cb057600080fd5b813560206001600160401b0380831115610ccc57610ccc610907565b8260051b604051601f19603f83011681018181108482111715610cf157610cf1610907565b604052938452858101830193838101925087851115610d0f57600080fd5b83870191505b84821015610d2e57813583529183019190830190610d15565b979650505050505050565b600082601f830112610d4a57600080fd5b610d526109ae565b806080840185811115610d6457600080fd5b845b81811015610a9057610d7887826109d0565b845260209384019301610d66565b600082601f830112610d9757600080fd5b60405160208082018281106001600160401b0382111715610dba57610dba610907565b6040528184820186811115610dce57600080fd5b855b81811015610def57610de288826109d0565b8352918301918301610dd0565b50929695505050505050565b60006105a08284031215610e0e57600080fd5b610e16610945565b905081356001600160401b03811115610e2e57600080fd5b610e3a84828501610c9f565b825250610e4a8360208401610b14565b6020820152610120610e5e84828501610a11565b6040830152610160610e7285828601610b14565b6060840152610260610e8686828701610d39565b6080850152610e99866102e08701610d86565b60a0850152610eac866103008701610d86565b60c0850152610ebf866103208701610b64565b60e0850152610ed28661038087016109d0565b610100850152610ee6866103a087016109d0565b83850152610ef8866103c087016109d0565b610140850152610f0c866103e08701610a11565b82850152610f1e866104208701610a11565b610180850152610f328661046087016109d0565b6101a0850152610f468661048087016109d0565b6101c0850152610f5a866104a087016109d0565b6101e0850152610f6e866104c087016109d0565b610200850152610f82866104e087016109d0565b610220850152610f968661050087016109d0565b610240850152610faa866105208701610a11565b81850152505050610fbf836105608401610a11565b61028082015292915050565b600082601f830112610fdc57600080fd5b6040516101208082018281106001600160401b038211171561100057611000610907565b6040528301818582111561101357600080fd5b845b82811015610bce5761102787826109d0565b825260209182019101611015565b6000610380828403121561104857600080fd5b611050610968565b905061105c83836109d0565b815261106b83602084016109d0565b602082015261107d83604084016109d0565b604082015261108f83606084016109d0565b60608201526110a18360808401610fcb565b60808201526101a06110b5848285016109d0565b60a08301526101c06110c9858286016109d0565b60c08401526101e06110dd868287016109d0565b60e08501526102006110f1878288016109d0565b610100860152610220611106888289016109d0565b61012087015261024061111b89828a016109d0565b61014088015261112f896102608a016109d0565b610160880152611143896102808a016109d0565b610180880152611157896102a08a016109d0565b86880152611169896102c08a016109d0565b8588015261117b896102e08a016109d0565b8488015261118d896103008a016109d0565b8388015261119f896103208a016109d0565b828801526111b1896103408a01610a11565b8188015250505050505092915050565b6000806000838503610a608112156111d857600080fd5b6106c0808212156111e857600080fd5b6111f061098b565b9150853582526020860135602083015261120d87604088016109d0565b604083015261121f8760608801610a41565b60608301526112318760e08801610a9b565b6080830152611244876102e08801610b14565b60a0830152611257876103e08801610a11565b60c083015261126a876104208801610b14565b60e083015261127d876105208801610a11565b610100830152611291876105608801610b64565b6101208301526112a5876105c08801610c1e565b6101408301529093508401356001600160401b038111156112c557600080fd5b6112d186828701610dfb565b9250506112e2856106e08601611035565b90509250925092565b8151815260208083015190820152604081016106b0565b8060005b600681101561133a5761132484835180518252602090810151910152565b6040939093019260209190910190600101611306565b50505050565b8060005b600681101561133a57815151845260209384019390910190600101611344565b81516107208201908260005b600d8110156113a45761138e82845180518252602090810151910152565b6020929092019160409190910190600101611370565b505050602080840151610340840160005b600d8110156113d357825151825291830191908301906001016113b5565b5050505060408301516113ea6104e0840182611302565b5060608301516113fe610660840182611340565b5092915050565b6000610380828403121561141857600080fd5b6114228383611035565b9392505050565b634e487b7160e01b600052603260045260246000fd5b818103818111156106b057634e487b7160e01b600052601160045260246000fdfe30644e72e131a029b85045b68181585d2833e84879b9709143e1f593f0000001a2646970667358221220b8676f3f3c52a46eef1b2e63e684e2deb533d6beceea24fb79ec769855ac788664736f6c63430008140033","opcodes":"PUSH1 0x80 PUSH1 0x40 MSTORE CALLVALUE DUP1 ISZERO PUSH2 0x10 JUMPI PUSH1 0x0 DUP1 REVERT JUMPDEST POP PUSH2 0x14B6 DUP1 PUSH2 0x20 PUSH1 0x0 CODECOPY PUSH1 0x0 RETURN INVALID PUSH1 0x80 PUSH1 0x40 MSTORE CALLVALUE DUP1 ISZERO PUSH2 0x10 JUMPI PUSH1 0x0 DUP1 REVERT JUMPDEST POP PUSH1 0x4 CALLDATASIZE LT PUSH2 0x41 JUMPI PUSH1 0x0 CALLDATALOAD PUSH1 0xE0 SHR DUP1 PUSH4 0x3EC236CB EQ PUSH2 0x46 JUMPI DUP1 PUSH4 0xC2EF6041 EQ PUSH2 0x6F JUMPI DUP1 PUSH4 0xFEC4E96E EQ PUSH2 0x8F JUMPI JUMPDEST PUSH1 0x0 DUP1 REVERT JUMPDEST PUSH2 0x59 PUSH2 0x54 CALLDATASIZE PUSH1 0x4 PUSH2 0x11C1 JUMP JUMPDEST PUSH2 0xA4 JUMP JUMPDEST PUSH1 0x40 MLOAD PUSH2 0x66 SWAP2 SWAP1 PUSH2 0x12EB JUMP JUMPDEST PUSH1 0x40 MLOAD DUP1 SWAP2 SUB SWAP1 RETURN JUMPDEST PUSH2 0x82 PUSH2 0x7D CALLDATASIZE PUSH1 0x4 PUSH2 0x11C1 JUMP JUMPDEST PUSH2 0x1F9 JUMP JUMPDEST PUSH1 0x40 MLOAD PUSH2 0x66 SWAP2 SWAP1 PUSH2 0x1364 JUMP JUMPDEST PUSH2 0xA2 PUSH2 0x9D CALLDATASIZE PUSH1 0x4 PUSH2 0x1405 JUMP JUMPDEST PUSH2 0x55D JUMP JUMPDEST STOP JUMPDEST PUSH1 0x40 DUP1 MLOAD DUP1 DUP3 ADD SWAP1 SWAP2 MSTORE PUSH1 0x0 DUP1 DUP3 MSTORE PUSH1 0x20 DUP3 ADD MSTORE PUSH1 0x40 DUP1 MLOAD PUSH1 0x20 DUP2 ADD SWAP1 SWAP2 MSTORE PUSH1 0x0 DUP2 MSTORE PUSH1 0x40 DUP1 MLOAD PUSH1 0x20 DUP2 ADD SWAP1 SWAP2 MSTORE PUSH1 0x0 DUP2 MSTORE PUSH1 0x80 DUP6 ADD MLOAD PUSH2 0xFD SWAP1 PUSH1 0x0 JUMPDEST PUSH1 0x20 MUL ADD MLOAD PUSH1 0x40 DUP1 MLOAD PUSH1 0x20 DUP2 ADD SWAP1 SWAP2 MSTORE PUSH1 0x0 DUP2 MSTORE SWAP1 MLOAD DUP2 MSTORE SWAP1 JUMP JUMPDEST SWAP2 POP PUSH2 0x109 DUP3 DUP1 PUSH2 0x60B JUMP JUMPDEST PUSH1 0x80 DUP6 ADD MLOAD PUSH2 0x121 SWAP1 PUSH1 0x1 JUMPDEST PUSH1 0x20 MUL ADD MLOAD DUP4 SWAP1 PUSH2 0x625 JUMP JUMPDEST PUSH1 0x80 DUP5 ADD MLOAD PUSH2 0x139 SWAP1 PUSH1 0x1 JUMPDEST PUSH1 0x20 MUL ADD MLOAD DUP4 SWAP1 PUSH2 0x60B JUMP JUMPDEST PUSH2 0x143 DUP2 DUP4 PUSH2 0x657 JUMP JUMPDEST PUSH1 0x80 DUP6 ADD MLOAD PUSH2 0x153 SWAP1 PUSH1 0x1 PUSH2 0xE2 JUMP JUMPDEST SWAP2 POP PUSH2 0x15F DUP3 DUP1 PUSH2 0x60B JUMP JUMPDEST PUSH1 0x80 DUP6 ADD MLOAD PUSH2 0x16F SWAP1 PUSH1 0x2 PUSH2 0x115 JUMP JUMPDEST PUSH1 0x80 DUP5 ADD MLOAD PUSH2 0x17F SWAP1 PUSH1 0x2 PUSH2 0x12D JUMP JUMPDEST PUSH2 0x189 DUP2 DUP4 PUSH2 0x657 JUMP JUMPDEST PUSH1 0x80 DUP6 ADD MLOAD PUSH2 0x199 SWAP1 PUSH1 0x2 PUSH2 0xE2 JUMP JUMPDEST PUSH1 0x80 DUP7 ADD MLOAD SWAP1 SWAP3 POP PUSH2 0x1AC SWAP1 PUSH1 0x0 PUSH2 0x12D JUMP JUMPDEST PUSH1 0x80 DUP6 ADD MLOAD PUSH2 0x1BC SWAP1 PUSH1 0x3 PUSH2 0x115 JUMP JUMPDEST PUSH1 0x80 DUP5 ADD MLOAD PUSH2 0x1CC SWAP1 PUSH1 0x3 PUSH2 0x12D JUMP JUMPDEST PUSH2 0x1D6 DUP2 DUP4 PUSH2 0x657 JUMP JUMPDEST PUSH1 0x60 DUP7 ADD MLOAD PUSH2 0x1EF SWAP1 DUP3 SWAP1 PUSH1 0x1 JUMPDEST PUSH1 0x20 MUL ADD MLOAD SWAP1 PUSH2 0x671 JUMP JUMPDEST SWAP7 SWAP6 POP POP POP POP POP POP JUMP JUMPDEST PUSH2 0x201 PUSH2 0x7D2 JUMP JUMPDEST PUSH1 0x2 PUSH1 0x0 JUMPDEST PUSH1 0x4 DUP2 LT ISZERO PUSH2 0x284 JUMPI DUP5 PUSH1 0x20 ADD MLOAD DUP2 PUSH1 0x4 DUP2 LT PUSH2 0x225 JUMPI PUSH2 0x225 PUSH2 0x1429 JUMP JUMPDEST PUSH1 0x20 MUL ADD MLOAD DUP4 MLOAD DUP4 PUSH1 0xD DUP2 LT PUSH2 0x23D JUMPI PUSH2 0x23D PUSH2 0x1429 JUMP JUMPDEST PUSH1 0x20 MUL ADD MSTORE PUSH1 0x80 DUP6 ADD MLOAD DUP2 PUSH1 0x4 DUP2 LT PUSH2 0x258 JUMPI PUSH2 0x258 PUSH2 0x1429 JUMP JUMPDEST PUSH1 0x20 MUL ADD MLOAD DUP4 PUSH1 0x20 ADD MLOAD DUP4 PUSH1 0xD DUP2 LT PUSH2 0x273 JUMPI PUSH2 0x273 PUSH2 0x1429 JUMP JUMPDEST PUSH1 0x20 MUL ADD MSTORE PUSH1 0x1 SWAP2 DUP3 ADD SWAP2 ADD PUSH2 0x206 JUMP JUMPDEST POP PUSH1 0x60 DUP6 ADD MLOAD MLOAD DUP3 MLOAD DUP3 PUSH1 0xD DUP2 LT PUSH2 0x29E JUMPI PUSH2 0x29E PUSH2 0x1429 JUMP JUMPDEST PUSH1 0x20 MUL ADD MSTORE PUSH1 0xC0 DUP5 ADD MLOAD PUSH1 0x0 PUSH1 0x20 MUL ADD MLOAD DUP3 PUSH1 0x20 ADD MLOAD DUP3 PUSH1 0xD DUP2 LT PUSH2 0x2C5 JUMPI PUSH2 0x2C5 PUSH2 0x1429 JUMP JUMPDEST PUSH1 0x20 MUL ADD MSTORE PUSH1 0x1 ADD PUSH1 0x0 JUMPDEST PUSH2 0x2DC PUSH1 0x1 PUSH1 0x4 PUSH2 0x143F JUMP JUMPDEST DUP2 LT ISZERO PUSH2 0x358 JUMPI DUP6 PUSH1 0xA0 ADD MLOAD DUP2 PUSH1 0x4 DUP2 LT PUSH2 0x2F9 JUMPI PUSH2 0x2F9 PUSH2 0x1429 JUMP JUMPDEST PUSH1 0x20 MUL ADD MLOAD DUP4 MLOAD DUP4 PUSH1 0xD DUP2 LT PUSH2 0x311 JUMPI PUSH2 0x311 PUSH2 0x1429 JUMP JUMPDEST PUSH1 0x20 MUL ADD MSTORE PUSH1 0xE0 DUP6 ADD MLOAD DUP2 PUSH1 0x3 DUP2 LT PUSH2 0x32C JUMPI PUSH2 0x32C PUSH2 0x1429 JUMP JUMPDEST PUSH1 0x20 MUL ADD MLOAD DUP4 PUSH1 0x20 ADD MLOAD DUP4 PUSH1 0xD DUP2 LT PUSH2 0x347 JUMPI PUSH2 0x347 PUSH2 0x1429 JUMP JUMPDEST PUSH1 0x20 MUL ADD MSTORE PUSH1 0x1 SWAP2 DUP3 ADD SWAP2 ADD PUSH2 0x2D0 JUMP JUMPDEST POP PUSH1 0x40 DUP5 DUP2 ADD MLOAD SWAP1 DUP4 ADD MLOAD MSTORE PUSH1 0x20 DUP5 ADD MLOAD PUSH2 0x375 PUSH1 0x1 PUSH1 0x4 PUSH2 0x143F JUMP JUMPDEST PUSH1 0x4 DUP2 LT PUSH2 0x385 JUMPI PUSH2 0x385 PUSH2 0x1429 JUMP JUMPDEST PUSH1 0x20 SWAP1 DUP2 MUL SWAP2 SWAP1 SWAP2 ADD MLOAD PUSH1 0x40 DUP5 ADD MLOAD DUP3 ADD MSTORE PUSH2 0x100 DUP6 ADD MLOAD PUSH1 0x60 DUP5 ADD DUP1 MLOAD SWAP2 SWAP1 SWAP2 MSTORE PUSH1 0xA0 DUP1 DUP8 ADD MLOAD MLOAD SWAP2 MLOAD SWAP1 SWAP3 ADD MSTORE PUSH1 0xE0 DUP7 ADD MLOAD MLOAD SWAP1 DUP5 ADD MLOAD PUSH1 0x0 SWAP1 PUSH2 0x3DB SWAP1 PUSH1 0x40 DUP1 MLOAD PUSH1 0x20 DUP2 ADD SWAP1 SWAP2 MSTORE PUSH1 0x0 DUP2 MSTORE SWAP1 MLOAD DUP2 MSTORE SWAP1 JUMP JUMPDEST SWAP1 POP PUSH1 0x1 JUMPDEST PUSH1 0x4 DUP2 LT ISZERO PUSH2 0x42E JUMPI PUSH2 0x403 DUP3 DUP10 PUSH1 0xE0 ADD MLOAD DUP4 PUSH1 0x4 DUP2 LT PUSH2 0x1E4 JUMPI PUSH2 0x1E4 PUSH2 0x1429 JUMP JUMPDEST PUSH2 0x240 DUP8 ADD DUP2 SWAP1 MSTORE PUSH2 0x416 SWAP1 DUP5 SWAP1 PUSH2 0x6B6 JUMP JUMPDEST PUSH1 0xA0 DUP7 ADD MLOAD PUSH2 0x426 SWAP1 DUP4 SWAP1 PUSH2 0x60B JUMP JUMPDEST PUSH1 0x1 ADD PUSH2 0x3E0 JUMP JUMPDEST POP DUP4 MLOAD DUP3 SWAP1 DUP5 PUSH1 0xD DUP2 LT PUSH2 0x444 JUMPI PUSH2 0x444 PUSH2 0x1429 JUMP JUMPDEST PUSH1 0x20 MUL ADD DUP2 SWAP1 MSTORE POP DUP6 PUSH2 0x1E0 ADD MLOAD DUP5 PUSH1 0x20 ADD MLOAD DUP5 PUSH1 0xD DUP2 LT PUSH2 0x468 JUMPI PUSH2 0x468 PUSH2 0x1429 JUMP JUMPDEST PUSH1 0x20 MUL ADD MSTORE PUSH1 0xC0 DUP8 ADD MLOAD DUP5 MLOAD PUSH1 0x1 SWAP5 SWAP1 SWAP5 ADD SWAP4 DUP5 PUSH1 0xD DUP2 LT PUSH2 0x48C JUMPI PUSH2 0x48C PUSH2 0x1429 JUMP JUMPDEST PUSH1 0x20 MUL ADD DUP2 SWAP1 MSTORE POP DUP6 PUSH2 0x220 ADD MLOAD DUP5 PUSH1 0x20 ADD MLOAD DUP5 PUSH1 0xD DUP2 LT PUSH2 0x4B0 JUMPI PUSH2 0x4B0 PUSH2 0x1429 JUMP JUMPDEST PUSH1 0x20 MUL ADD MSTORE PUSH2 0x100 DUP8 ADD MLOAD DUP5 MLOAD PUSH1 0x1 SWAP5 SWAP1 SWAP5 ADD SWAP4 DUP5 PUSH1 0xD DUP2 LT PUSH2 0x4D5 JUMPI PUSH2 0x4D5 PUSH2 0x1429 JUMP JUMPDEST PUSH1 0x20 MUL ADD DUP2 SWAP1 MSTORE POP DUP6 PUSH2 0x240 ADD MLOAD DUP5 PUSH1 0x20 ADD MLOAD DUP5 PUSH1 0xD DUP2 LT PUSH2 0x4F9 JUMPI PUSH2 0x4F9 PUSH2 0x1429 JUMP JUMPDEST PUSH1 0x20 MUL ADD MSTORE POP PUSH2 0x160 DUP6 ADD MLOAD PUSH1 0x40 DUP5 DUP2 ADD DUP1 MLOAD DUP3 ADD SWAP3 SWAP1 SWAP3 MSTORE PUSH2 0x1A0 DUP8 ADD MLOAD PUSH1 0x60 DUP1 DUP8 ADD DUP1 MLOAD SWAP1 SWAP4 ADD SWAP2 SWAP1 SWAP2 MSTORE PUSH2 0x180 DUP9 ADD MLOAD DUP4 MLOAD DUP3 ADD MSTORE PUSH2 0x1C0 DUP9 ADD MLOAD DUP3 MLOAD SWAP1 SWAP2 ADD MSTORE SWAP1 MLOAD PUSH1 0x80 SWAP1 DUP2 ADD SWAP3 SWAP1 SWAP3 MSTORE PUSH2 0x200 SWAP1 SWAP6 ADD MLOAD SWAP5 MLOAD ADD SWAP4 SWAP1 SWAP4 MSTORE SWAP4 SWAP3 POP POP POP JUMP JUMPDEST PUSH1 0x20 DUP2 ADD MLOAD MLOAD PUSH1 0x0 SUB PUSH2 0x56F JUMPI PUSH1 0x0 DUP1 REVERT JUMPDEST PUSH2 0x579 PUSH1 0x1 PUSH2 0x6C5 JUMP JUMPDEST PUSH1 0x80 DUP3 ADD DUP1 MLOAD SWAP2 SWAP1 SWAP2 MSTORE PUSH1 0x20 DUP1 DUP4 ADD DUP1 MLOAD PUSH1 0x40 DUP1 MLOAD DUP1 DUP6 ADD DUP3 MSTORE PUSH1 0x0 DUP1 DUP3 MSTORE SWAP3 MLOAD DUP2 MSTORE SWAP5 MLOAD DUP5 ADD SWAP5 SWAP1 SWAP5 MSTORE SWAP1 MLOAD DUP4 MLOAD SWAP3 DUP4 ADD SWAP1 SWAP4 MSTORE DUP2 MSTORE SWAP1 MLOAD DUP2 MSTORE PUSH1 0x2 JUMPDEST PUSH1 0x9 DUP2 LT ISZERO PUSH2 0x606 JUMPI PUSH1 0x20 DUP4 ADD MLOAD PUSH2 0x5D0 SWAP1 DUP4 SWAP1 PUSH2 0x60B JUMP JUMPDEST PUSH1 0x40 DUP1 MLOAD PUSH1 0x20 DUP2 ADD SWAP1 SWAP2 MSTORE PUSH1 0x0 DUP2 MSTORE DUP3 MLOAD DUP2 MSTORE DUP4 PUSH1 0x80 ADD MLOAD DUP3 PUSH1 0x9 DUP2 LT PUSH2 0x5F9 JUMPI PUSH2 0x5F9 PUSH2 0x1429 JUMP JUMPDEST PUSH1 0x20 MUL ADD MSTORE PUSH1 0x1 ADD PUSH2 0x5B7 JUMP JUMPDEST POP POP POP JUMP JUMPDEST PUSH1 0x0 DUP1 MLOAD PUSH1 0x20 PUSH2 0x1461 DUP4 CODECOPY DUP2 MLOAD SWAP2 MSTORE DUP2 MLOAD DUP4 MLOAD MULMOD SWAP1 SWAP2 MSTORE POP JUMP JUMPDEST PUSH1 0x0 DUP1 MLOAD PUSH1 0x20 PUSH2 0x1461 DUP4 CODECOPY DUP2 MLOAD SWAP2 MSTORE DUP2 MLOAD PUSH2 0x64E SWAP1 PUSH1 0x0 DUP1 MLOAD PUSH1 0x20 PUSH2 0x1461 DUP4 CODECOPY DUP2 MLOAD SWAP2 MSTORE PUSH2 0x143F JUMP JUMPDEST DUP4 MLOAD ADDMOD SWAP1 SWAP2 MSTORE POP JUMP JUMPDEST PUSH1 0x0 DUP1 MLOAD PUSH1 0x20 PUSH2 0x1461 DUP4 CODECOPY DUP2 MLOAD SWAP2 MSTORE DUP2 MLOAD DUP4 MLOAD ADDMOD SWAP1 SWAP2 MSTORE POP JUMP JUMPDEST PUSH1 0x40 DUP1 MLOAD DUP1 DUP3 ADD SWAP1 SWAP2 MSTORE PUSH1 0x0 DUP1 DUP3 MSTORE PUSH1 0x20 DUP3 ADD MSTORE DUP3 MLOAD ISZERO DUP1 ISZERO PUSH2 0x698 JUMPI POP DUP3 PUSH1 0x20 ADD MLOAD PUSH1 0x1 EQ JUMPDEST ISZERO PUSH2 0x6A5 JUMPI PUSH1 0x0 PUSH1 0x20 DUP5 ADD MSTORE JUMPDEST PUSH2 0x6B0 DUP4 DUP4 DUP4 PUSH2 0x700 JUMP JUMPDEST SWAP3 SWAP2 POP POP JUMP JUMPDEST PUSH2 0x6C1 DUP3 DUP3 DUP5 PUSH2 0x742 JUMP JUMPDEST POP POP JUMP JUMPDEST PUSH1 0x40 DUP1 MLOAD PUSH1 0x20 DUP2 ADD SWAP1 SWAP2 MSTORE PUSH1 0x0 DUP2 MSTORE PUSH1 0x0 DUP1 MLOAD PUSH1 0x20 PUSH2 0x1461 DUP4 CODECOPY DUP2 MLOAD SWAP2 MSTORE DUP3 LT PUSH2 0x6EE JUMPI PUSH1 0x0 DUP1 REVERT JUMPDEST POP PUSH1 0x40 DUP1 MLOAD PUSH1 0x20 DUP2 ADD SWAP1 SWAP2 MSTORE SWAP1 DUP2 MSTORE SWAP1 JUMP JUMPDEST PUSH2 0x708 PUSH2 0x811 JUMP JUMPDEST DUP4 MLOAD DUP2 MSTORE PUSH1 0x20 DUP5 ADD MLOAD DUP2 PUSH1 0x1 PUSH1 0x20 MUL ADD MSTORE DUP3 MLOAD DUP2 PUSH1 0x2 PUSH1 0x20 MUL ADD MSTORE PUSH1 0x0 PUSH1 0x40 DUP4 PUSH1 0x60 DUP5 PUSH1 0x7 GAS STATICCALL SWAP1 POP DUP1 PUSH2 0x73B JUMPI PUSH1 0x0 DUP1 REVERT JUMPDEST POP POP POP POP POP JUMP JUMPDEST DUP2 MLOAD ISZERO DUP1 ISZERO PUSH2 0x753 JUMPI POP PUSH1 0x20 DUP3 ADD MLOAD ISZERO JUMPDEST ISZERO PUSH2 0x76B JUMPI DUP3 MLOAD DUP2 MSTORE PUSH1 0x20 SWAP3 DUP4 ADD MLOAD SWAP3 ADD SWAP2 SWAP1 SWAP2 MSTORE POP JUMP JUMPDEST DUP3 MLOAD ISZERO DUP1 ISZERO PUSH2 0x77C JUMPI POP PUSH1 0x20 DUP4 ADD MLOAD ISZERO JUMPDEST ISZERO PUSH2 0x791 JUMPI DUP2 MLOAD DUP2 MSTORE PUSH1 0x20 SWAP2 DUP3 ADD MLOAD SWAP2 ADD MSTORE POP JUMP JUMPDEST PUSH2 0x799 PUSH2 0x82F JUMP JUMPDEST DUP4 MLOAD DUP2 MSTORE PUSH1 0x20 DUP1 DUP6 ADD MLOAD DUP2 DUP4 ADD MSTORE DUP4 MLOAD PUSH1 0x40 DUP1 DUP5 ADD SWAP2 SWAP1 SWAP2 MSTORE SWAP1 DUP5 ADD MLOAD PUSH1 0x60 DUP4 ADD MSTORE PUSH1 0x0 SWAP1 DUP4 PUSH1 0x80 DUP5 PUSH1 0x6 GAS STATICCALL SWAP1 POP DUP1 PUSH2 0x73B JUMPI PUSH1 0x0 DUP1 REVERT JUMPDEST PUSH1 0x40 MLOAD DUP1 PUSH1 0x80 ADD PUSH1 0x40 MSTORE DUP1 PUSH2 0x7E5 PUSH2 0x84D JUMP JUMPDEST DUP2 MSTORE PUSH1 0x20 ADD PUSH2 0x7F2 PUSH2 0x887 JUMP JUMPDEST DUP2 MSTORE PUSH1 0x20 ADD PUSH2 0x7FF PUSH2 0x8BC JUMP JUMPDEST DUP2 MSTORE PUSH1 0x20 ADD PUSH2 0x80C PUSH2 0x8E6 JUMP JUMPDEST SWAP1 MSTORE SWAP1 JUMP JUMPDEST PUSH1 0x40 MLOAD DUP1 PUSH1 0x60 ADD PUSH1 0x40 MSTORE DUP1 PUSH1 0x3 SWAP1 PUSH1 0x20 DUP3 MUL DUP1 CALLDATASIZE DUP4 CALLDATACOPY POP SWAP2 SWAP3 SWAP2 POP POP JUMP JUMPDEST PUSH1 0x40 MLOAD DUP1 PUSH1 0x80 ADD PUSH1 0x40 MSTORE DUP1 PUSH1 0x4 SWAP1 PUSH1 0x20 DUP3 MUL DUP1 CALLDATASIZE DUP4 CALLDATACOPY POP SWAP2 SWAP3 SWAP2 POP POP JUMP JUMPDEST PUSH1 0x40 MLOAD DUP1 PUSH2 0x1A0 ADD PUSH1 0x40 MSTORE DUP1 PUSH1 0xD SWAP1 JUMPDEST PUSH1 0x40 DUP1 MLOAD DUP1 DUP3 ADD SWAP1 SWAP2 MSTORE PUSH1 0x0 DUP1 DUP3 MSTORE PUSH1 0x20 DUP3 ADD MSTORE DUP2 MSTORE PUSH1 0x20 ADD SWAP1 PUSH1 0x1 SWAP1 SUB SWAP1 DUP2 PUSH2 0x85D JUMPI SWAP1 POP POP SWAP1 JUMP JUMPDEST PUSH1 0x40 MLOAD DUP1 PUSH2 0x1A0 ADD PUSH1 0x40 MSTORE DUP1 PUSH1 0xD SWAP1 JUMPDEST PUSH1 0x40 DUP1 MLOAD PUSH1 0x20 DUP2 ADD SWAP1 SWAP2 MSTORE PUSH1 0x0 DUP2 MSTORE DUP2 MSTORE PUSH1 0x20 ADD SWAP1 PUSH1 0x1 SWAP1 SUB SWAP1 DUP2 PUSH2 0x897 JUMPI SWAP1 POP POP SWAP1 JUMP JUMPDEST PUSH1 0x40 DUP1 MLOAD PUSH2 0x100 DUP2 ADD SWAP1 SWAP2 MSTORE PUSH1 0x0 PUSH1 0xC0 DUP3 ADD DUP2 DUP2 MSTORE PUSH1 0xE0 DUP4 ADD SWAP2 SWAP1 SWAP2 MSTORE DUP2 MSTORE PUSH1 0x5 PUSH1 0x20 DUP3 ADD PUSH2 0x85D JUMP JUMPDEST PUSH1 0x40 DUP1 MLOAD PUSH1 0xE0 DUP2 ADD SWAP1 SWAP2 MSTORE PUSH1 0x0 PUSH1 0xC0 DUP3 ADD SWAP1 DUP2 MSTORE DUP2 MSTORE PUSH1 0x5 PUSH1 0x20 DUP3 ADD PUSH2 0x897 JUMP JUMPDEST PUSH4 0x4E487B71 PUSH1 0xE0 SHL PUSH1 0x0 MSTORE PUSH1 0x41 PUSH1 0x4 MSTORE PUSH1 0x24 PUSH1 0x0 REVERT JUMPDEST PUSH1 0x40 DUP1 MLOAD SWAP1 DUP2 ADD PUSH1 0x1 PUSH1 0x1 PUSH1 0x40 SHL SUB DUP2 GT DUP3 DUP3 LT OR ISZERO PUSH2 0x93F JUMPI PUSH2 0x93F PUSH2 0x907 JUMP JUMPDEST PUSH1 0x40 MSTORE SWAP1 JUMP JUMPDEST PUSH1 0x40 MLOAD PUSH2 0x2A0 DUP2 ADD PUSH1 0x1 PUSH1 0x1 PUSH1 0x40 SHL SUB DUP2 GT DUP3 DUP3 LT OR ISZERO PUSH2 0x93F JUMPI PUSH2 0x93F PUSH2 0x907 JUMP JUMPDEST PUSH1 0x40 MLOAD PUSH2 0x260 DUP2 ADD PUSH1 0x1 PUSH1 0x1 PUSH1 0x40 SHL SUB DUP2 GT DUP3 DUP3 LT OR ISZERO PUSH2 0x93F JUMPI PUSH2 0x93F PUSH2 0x907 JUMP JUMPDEST PUSH1 0x40 MLOAD PUSH2 0x160 DUP2 ADD PUSH1 0x1 PUSH1 0x1 PUSH1 0x40 SHL SUB DUP2 GT DUP3 DUP3 LT OR ISZERO PUSH2 0x93F JUMPI PUSH2 0x93F PUSH2 0x907 JUMP JUMPDEST PUSH1 0x40 MLOAD PUSH1 0x80 DUP2 ADD PUSH1 0x1 PUSH1 0x1 PUSH1 0x40 SHL SUB DUP2 GT DUP3 DUP3 LT OR ISZERO PUSH2 0x93F JUMPI PUSH2 0x93F PUSH2 0x907 JUMP JUMPDEST PUSH1 0x0 PUSH1 0x20 DUP3 DUP5 SUB SLT ISZERO PUSH2 0x9E2 JUMPI PUSH1 0x0 DUP1 REVERT JUMPDEST PUSH1 0x40 MLOAD PUSH1 0x20 DUP2 ADD DUP2 DUP2 LT PUSH1 0x1 PUSH1 0x1 PUSH1 0x40 SHL SUB DUP3 GT OR ISZERO PUSH2 0xA04 JUMPI PUSH2 0xA04 PUSH2 0x907 JUMP JUMPDEST PUSH1 0x40 MSTORE SWAP2 CALLDATALOAD DUP3 MSTORE POP SWAP2 SWAP1 POP JUMP JUMPDEST PUSH1 0x0 PUSH1 0x40 DUP3 DUP5 SUB SLT ISZERO PUSH2 0xA23 JUMPI PUSH1 0x0 DUP1 REVERT JUMPDEST PUSH2 0xA2B PUSH2 0x91D JUMP JUMPDEST SWAP1 POP DUP2 CALLDATALOAD DUP2 MSTORE PUSH1 0x20 DUP3 ADD CALLDATALOAD PUSH1 0x20 DUP3 ADD MSTORE SWAP3 SWAP2 POP POP JUMP JUMPDEST PUSH1 0x0 DUP3 PUSH1 0x1F DUP4 ADD SLT PUSH2 0xA52 JUMPI PUSH1 0x0 DUP1 REVERT JUMPDEST PUSH2 0xA5A PUSH2 0x91D JUMP JUMPDEST DUP1 PUSH1 0x80 DUP5 ADD DUP6 DUP2 GT ISZERO PUSH2 0xA6C JUMPI PUSH1 0x0 DUP1 REVERT JUMPDEST DUP5 JUMPDEST DUP2 DUP2 LT ISZERO PUSH2 0xA90 JUMPI PUSH2 0xA80 DUP8 DUP3 PUSH2 0xA11 JUMP JUMPDEST DUP5 MSTORE PUSH1 0x20 SWAP1 SWAP4 ADD SWAP3 PUSH1 0x40 ADD PUSH2 0xA6E JUMP JUMPDEST POP SWAP1 SWAP6 SWAP5 POP POP POP POP POP JUMP JUMPDEST PUSH1 0x0 DUP3 PUSH1 0x1F DUP4 ADD SLT PUSH2 0xAAC JUMPI PUSH1 0x0 DUP1 REVERT JUMPDEST PUSH1 0x40 DUP1 MLOAD PUSH2 0x100 DUP2 ADD DUP2 DUP2 LT PUSH1 0x1 PUSH1 0x1 PUSH1 0x40 SHL SUB DUP3 GT OR ISZERO PUSH2 0xAD0 JUMPI PUSH2 0xAD0 PUSH2 0x907 JUMP JUMPDEST DUP3 MSTORE DUP1 PUSH2 0x200 DUP6 ADD DUP7 DUP2 GT ISZERO PUSH2 0xAE5 JUMPI PUSH1 0x0 DUP1 REVERT JUMPDEST DUP6 JUMPDEST DUP2 DUP2 LT ISZERO PUSH2 0xB08 JUMPI PUSH2 0xAF9 DUP9 DUP3 PUSH2 0xA11 JUMP JUMPDEST DUP4 MSTORE PUSH1 0x20 SWAP1 SWAP3 ADD SWAP2 DUP5 ADD PUSH2 0xAE7 JUMP JUMPDEST POP SWAP2 SWAP7 SWAP6 POP POP POP POP POP POP JUMP JUMPDEST PUSH1 0x0 DUP3 PUSH1 0x1F DUP4 ADD SLT PUSH2 0xB25 JUMPI PUSH1 0x0 DUP1 REVERT JUMPDEST PUSH2 0xB2D PUSH2 0x9AE JUMP JUMPDEST DUP1 PUSH2 0x100 DUP5 ADD DUP6 DUP2 GT ISZERO PUSH2 0xB40 JUMPI PUSH1 0x0 DUP1 REVERT JUMPDEST DUP5 JUMPDEST DUP2 DUP2 LT ISZERO PUSH2 0xA90 JUMPI PUSH2 0xB54 DUP8 DUP3 PUSH2 0xA11 JUMP JUMPDEST DUP5 MSTORE PUSH1 0x20 SWAP1 SWAP4 ADD SWAP3 PUSH1 0x40 ADD PUSH2 0xB42 JUMP JUMPDEST PUSH1 0x0 DUP3 PUSH1 0x1F DUP4 ADD SLT PUSH2 0xB75 JUMPI PUSH1 0x0 DUP1 REVERT JUMPDEST PUSH1 0x40 MLOAD PUSH1 0x60 DUP2 ADD DUP2 DUP2 LT PUSH1 0x1 PUSH1 0x1 PUSH1 0x40 SHL SUB DUP3 GT OR ISZERO PUSH2 0xB97 JUMPI PUSH2 0xB97 PUSH2 0x907 JUMP JUMPDEST PUSH1 0x40 MSTORE DUP1 PUSH1 0x60 DUP5 ADD DUP6 DUP2 GT ISZERO PUSH2 0xBAC JUMPI PUSH1 0x0 DUP1 REVERT JUMPDEST DUP5 JUMPDEST DUP2 DUP2 LT ISZERO PUSH2 0xBCE JUMPI PUSH2 0xBC0 DUP8 DUP3 PUSH2 0x9D0 JUMP JUMPDEST DUP4 MSTORE PUSH1 0x20 SWAP3 DUP4 ADD SWAP3 ADD PUSH2 0xBAE JUMP JUMPDEST POP SWAP2 SWAP6 SWAP5 POP POP POP POP POP JUMP JUMPDEST PUSH1 0x0 DUP3 PUSH1 0x1F DUP4 ADD SLT PUSH2 0xBEA JUMPI PUSH1 0x0 DUP1 REVERT JUMPDEST PUSH2 0xBF2 PUSH2 0x91D JUMP JUMPDEST DUP1 PUSH1 0x40 DUP5 ADD DUP6 DUP2 GT ISZERO PUSH2 0xC04 JUMPI PUSH1 0x0 DUP1 REVERT JUMPDEST DUP5 JUMPDEST DUP2 DUP2 LT ISZERO PUSH2 0xA90 JUMPI DUP1 CALLDATALOAD DUP5 MSTORE PUSH1 0x20 SWAP4 DUP5 ADD SWAP4 ADD PUSH2 0xC06 JUMP JUMPDEST PUSH1 0x0 DUP3 PUSH1 0x1F DUP4 ADD SLT PUSH2 0xC2F JUMPI PUSH1 0x0 DUP1 REVERT JUMPDEST PUSH2 0xC37 PUSH2 0x91D JUMP JUMPDEST DUP1 PUSH2 0x100 DUP5 ADD DUP6 DUP2 GT ISZERO PUSH2 0xC4A JUMPI PUSH1 0x0 DUP1 REVERT JUMPDEST DUP5 JUMPDEST DUP2 DUP2 LT ISZERO PUSH2 0xA90 JUMPI PUSH1 0x80 DUP2 DUP9 SUB SLT ISZERO PUSH2 0xC65 JUMPI PUSH1 0x0 DUP1 DUP2 REVERT JUMPDEST PUSH2 0xC6D PUSH2 0x91D JUMP JUMPDEST PUSH2 0xC77 DUP9 DUP4 PUSH2 0xBD9 JUMP JUMPDEST DUP2 MSTORE PUSH2 0xC86 DUP9 PUSH1 0x40 DUP5 ADD PUSH2 0xBD9 JUMP JUMPDEST PUSH1 0x20 DUP3 DUP2 ADD SWAP2 SWAP1 SWAP2 MSTORE SWAP1 DUP6 MSTORE SWAP4 SWAP1 SWAP4 ADD SWAP3 PUSH1 0x80 ADD PUSH2 0xC4C JUMP JUMPDEST PUSH1 0x0 DUP3 PUSH1 0x1F DUP4 ADD SLT PUSH2 0xCB0 JUMPI PUSH1 0x0 DUP1 REVERT JUMPDEST DUP2 CALLDATALOAD PUSH1 0x20 PUSH1 0x1 PUSH1 0x1 PUSH1 0x40 SHL SUB DUP1 DUP4 GT ISZERO PUSH2 0xCCC JUMPI PUSH2 0xCCC PUSH2 0x907 JUMP JUMPDEST DUP3 PUSH1 0x5 SHL PUSH1 0x40 MLOAD PUSH1 0x1F NOT PUSH1 0x3F DUP4 ADD AND DUP2 ADD DUP2 DUP2 LT DUP5 DUP3 GT OR ISZERO PUSH2 0xCF1 JUMPI PUSH2 0xCF1 PUSH2 0x907 JUMP JUMPDEST PUSH1 0x40 MSTORE SWAP4 DUP5 MSTORE DUP6 DUP2 ADD DUP4 ADD SWAP4 DUP4 DUP2 ADD SWAP3 POP DUP8 DUP6 GT ISZERO PUSH2 0xD0F JUMPI PUSH1 0x0 DUP1 REVERT JUMPDEST DUP4 DUP8 ADD SWAP2 POP JUMPDEST DUP5 DUP3 LT ISZERO PUSH2 0xD2E JUMPI DUP2 CALLDATALOAD DUP4 MSTORE SWAP2 DUP4 ADD SWAP2 SWAP1 DUP4 ADD SWAP1 PUSH2 0xD15 JUMP JUMPDEST SWAP8 SWAP7 POP POP POP POP POP POP POP JUMP JUMPDEST PUSH1 0x0 DUP3 PUSH1 0x1F DUP4 ADD SLT PUSH2 0xD4A JUMPI PUSH1 0x0 DUP1 REVERT JUMPDEST PUSH2 0xD52 PUSH2 0x9AE JUMP JUMPDEST DUP1 PUSH1 0x80 DUP5 ADD DUP6 DUP2 GT ISZERO PUSH2 0xD64 JUMPI PUSH1 0x0 DUP1 REVERT JUMPDEST DUP5 JUMPDEST DUP2 DUP2 LT ISZERO PUSH2 0xA90 JUMPI PUSH2 0xD78 DUP8 DUP3 PUSH2 0x9D0 JUMP JUMPDEST DUP5 MSTORE PUSH1 0x20 SWAP4 DUP5 ADD SWAP4 ADD PUSH2 0xD66 JUMP JUMPDEST PUSH1 0x0 DUP3 PUSH1 0x1F DUP4 ADD SLT PUSH2 0xD97 JUMPI PUSH1 0x0 DUP1 REVERT JUMPDEST PUSH1 0x40 MLOAD PUSH1 0x20 DUP1 DUP3 ADD DUP3 DUP2 LT PUSH1 0x1 PUSH1 0x1 PUSH1 0x40 SHL SUB DUP3 GT OR ISZERO PUSH2 0xDBA JUMPI PUSH2 0xDBA PUSH2 0x907 JUMP JUMPDEST PUSH1 0x40 MSTORE DUP2 DUP5 DUP3 ADD DUP7 DUP2 GT ISZERO PUSH2 0xDCE JUMPI PUSH1 0x0 DUP1 REVERT JUMPDEST DUP6 JUMPDEST DUP2 DUP2 LT ISZERO PUSH2 0xDEF JUMPI PUSH2 0xDE2 DUP9 DUP3 PUSH2 0x9D0 JUMP JUMPDEST DUP4 MSTORE SWAP2 DUP4 ADD SWAP2 DUP4 ADD PUSH2 0xDD0 JUMP JUMPDEST POP SWAP3 SWAP7 SWAP6 POP POP POP POP POP POP JUMP JUMPDEST PUSH1 0x0 PUSH2 0x5A0 DUP3 DUP5 SUB SLT ISZERO PUSH2 0xE0E JUMPI PUSH1 0x0 DUP1 REVERT JUMPDEST PUSH2 0xE16 PUSH2 0x945 JUMP JUMPDEST SWAP1 POP DUP2 CALLDATALOAD PUSH1 0x1 PUSH1 0x1 PUSH1 0x40 SHL SUB DUP2 GT ISZERO PUSH2 0xE2E JUMPI PUSH1 0x0 DUP1 REVERT JUMPDEST PUSH2 0xE3A DUP5 DUP3 DUP6 ADD PUSH2 0xC9F JUMP JUMPDEST DUP3 MSTORE POP PUSH2 0xE4A DUP4 PUSH1 0x20 DUP5 ADD PUSH2 0xB14 JUMP JUMPDEST PUSH1 0x20 DUP3 ADD MSTORE PUSH2 0x120 PUSH2 0xE5E DUP5 DUP3 DUP6 ADD PUSH2 0xA11 JUMP JUMPDEST PUSH1 0x40 DUP4 ADD MSTORE PUSH2 0x160 PUSH2 0xE72 DUP6 DUP3 DUP7 ADD PUSH2 0xB14 JUMP JUMPDEST PUSH1 0x60 DUP5 ADD MSTORE PUSH2 0x260 PUSH2 0xE86 DUP7 DUP3 DUP8 ADD PUSH2 0xD39 JUMP JUMPDEST PUSH1 0x80 DUP6 ADD MSTORE PUSH2 0xE99 DUP7 PUSH2 0x2E0 DUP8 ADD PUSH2 0xD86 JUMP JUMPDEST PUSH1 0xA0 DUP6 ADD MSTORE PUSH2 0xEAC DUP7 PUSH2 0x300 DUP8 ADD PUSH2 0xD86 JUMP JUMPDEST PUSH1 0xC0 DUP6 ADD MSTORE PUSH2 0xEBF DUP7 PUSH2 0x320 DUP8 ADD PUSH2 0xB64 JUMP JUMPDEST PUSH1 0xE0 DUP6 ADD MSTORE PUSH2 0xED2 DUP7 PUSH2 0x380 DUP8 ADD PUSH2 0x9D0 JUMP JUMPDEST PUSH2 0x100 DUP6 ADD MSTORE PUSH2 0xEE6 DUP7 PUSH2 0x3A0 DUP8 ADD PUSH2 0x9D0 JUMP JUMPDEST DUP4 DUP6 ADD MSTORE PUSH2 0xEF8 DUP7 PUSH2 0x3C0 DUP8 ADD PUSH2 0x9D0 JUMP JUMPDEST PUSH2 0x140 DUP6 ADD MSTORE PUSH2 0xF0C DUP7 PUSH2 0x3E0 DUP8 ADD PUSH2 0xA11 JUMP JUMPDEST DUP3 DUP6 ADD MSTORE PUSH2 0xF1E DUP7 PUSH2 0x420 DUP8 ADD PUSH2 0xA11 JUMP JUMPDEST PUSH2 0x180 DUP6 ADD MSTORE PUSH2 0xF32 DUP7 PUSH2 0x460 DUP8 ADD PUSH2 0x9D0 JUMP JUMPDEST PUSH2 0x1A0 DUP6 ADD MSTORE PUSH2 0xF46 DUP7 PUSH2 0x480 DUP8 ADD PUSH2 0x9D0 JUMP JUMPDEST PUSH2 0x1C0 DUP6 ADD MSTORE PUSH2 0xF5A DUP7 PUSH2 0x4A0 DUP8 ADD PUSH2 0x9D0 JUMP JUMPDEST PUSH2 0x1E0 DUP6 ADD MSTORE PUSH2 0xF6E DUP7 PUSH2 0x4C0 DUP8 ADD PUSH2 0x9D0 JUMP JUMPDEST PUSH2 0x200 DUP6 ADD MSTORE PUSH2 0xF82 DUP7 PUSH2 0x4E0 DUP8 ADD PUSH2 0x9D0 JUMP JUMPDEST PUSH2 0x220 DUP6 ADD MSTORE PUSH2 0xF96 DUP7 PUSH2 0x500 DUP8 ADD PUSH2 0x9D0 JUMP JUMPDEST PUSH2 0x240 DUP6 ADD MSTORE PUSH2 0xFAA DUP7 PUSH2 0x520 DUP8 ADD PUSH2 0xA11 JUMP JUMPDEST DUP2 DUP6 ADD MSTORE POP POP POP PUSH2 0xFBF DUP4 PUSH2 0x560 DUP5 ADD PUSH2 0xA11 JUMP JUMPDEST PUSH2 0x280 DUP3 ADD MSTORE SWAP3 SWAP2 POP POP JUMP JUMPDEST PUSH1 0x0 DUP3 PUSH1 0x1F DUP4 ADD SLT PUSH2 0xFDC JUMPI PUSH1 0x0 DUP1 REVERT JUMPDEST PUSH1 0x40 MLOAD PUSH2 0x120 DUP1 DUP3 ADD DUP3 DUP2 LT PUSH1 0x1 PUSH1 0x1 PUSH1 0x40 SHL SUB DUP3 GT OR ISZERO PUSH2 0x1000 JUMPI PUSH2 0x1000 PUSH2 0x907 JUMP JUMPDEST PUSH1 0x40 MSTORE DUP4 ADD DUP2 DUP6 DUP3 GT ISZERO PUSH2 0x1013 JUMPI PUSH1 0x0 DUP1 REVERT JUMPDEST DUP5 JUMPDEST DUP3 DUP2 LT ISZERO PUSH2 0xBCE JUMPI PUSH2 0x1027 DUP8 DUP3 PUSH2 0x9D0 JUMP JUMPDEST DUP3 MSTORE PUSH1 0x20 SWAP2 DUP3 ADD SWAP2 ADD PUSH2 0x1015 JUMP JUMPDEST PUSH1 0x0 PUSH2 0x380 DUP3 DUP5 SUB SLT ISZERO PUSH2 0x1048 JUMPI PUSH1 0x0 DUP1 REVERT JUMPDEST PUSH2 0x1050 PUSH2 0x968 JUMP JUMPDEST SWAP1 POP PUSH2 0x105C DUP4 DUP4 PUSH2 0x9D0 JUMP JUMPDEST DUP2 MSTORE PUSH2 0x106B DUP4 PUSH1 0x20 DUP5 ADD PUSH2 0x9D0 JUMP JUMPDEST PUSH1 0x20 DUP3 ADD MSTORE PUSH2 0x107D DUP4 PUSH1 0x40 DUP5 ADD PUSH2 0x9D0 JUMP JUMPDEST PUSH1 0x40 DUP3 ADD MSTORE PUSH2 0x108F DUP4 PUSH1 0x60 DUP5 ADD PUSH2 0x9D0 JUMP JUMPDEST PUSH1 0x60 DUP3 ADD MSTORE PUSH2 0x10A1 DUP4 PUSH1 0x80 DUP5 ADD PUSH2 0xFCB JUMP JUMPDEST PUSH1 0x80 DUP3 ADD MSTORE PUSH2 0x1A0 PUSH2 0x10B5 DUP5 DUP3 DUP6 ADD PUSH2 0x9D0 JUMP JUMPDEST PUSH1 0xA0 DUP4 ADD MSTORE PUSH2 0x1C0 PUSH2 0x10C9 DUP6 DUP3 DUP7 ADD PUSH2 0x9D0 JUMP JUMPDEST PUSH1 0xC0 DUP5 ADD MSTORE PUSH2 0x1E0 PUSH2 0x10DD DUP7 DUP3 DUP8 ADD PUSH2 0x9D0 JUMP JUMPDEST PUSH1 0xE0 DUP6 ADD MSTORE PUSH2 0x200 PUSH2 0x10F1 DUP8 DUP3 DUP9 ADD PUSH2 0x9D0 JUMP JUMPDEST PUSH2 0x100 DUP7 ADD MSTORE PUSH2 0x220 PUSH2 0x1106 DUP9 DUP3 DUP10 ADD PUSH2 0x9D0 JUMP JUMPDEST PUSH2 0x120 DUP8 ADD MSTORE PUSH2 0x240 PUSH2 0x111B DUP10 DUP3 DUP11 ADD PUSH2 0x9D0 JUMP JUMPDEST PUSH2 0x140 DUP9 ADD MSTORE PUSH2 0x112F DUP10 PUSH2 0x260 DUP11 ADD PUSH2 0x9D0 JUMP JUMPDEST PUSH2 0x160 DUP9 ADD MSTORE PUSH2 0x1143 DUP10 PUSH2 0x280 DUP11 ADD PUSH2 0x9D0 JUMP JUMPDEST PUSH2 0x180 DUP9 ADD MSTORE PUSH2 0x1157 DUP10 PUSH2 0x2A0 DUP11 ADD PUSH2 0x9D0 JUMP JUMPDEST DUP7 DUP9 ADD MSTORE PUSH2 0x1169 DUP10 PUSH2 0x2C0 DUP11 ADD PUSH2 0x9D0 JUMP JUMPDEST DUP6 DUP9 ADD MSTORE PUSH2 0x117B DUP10 PUSH2 0x2E0 DUP11 ADD PUSH2 0x9D0 JUMP JUMPDEST DUP5 DUP9 ADD MSTORE PUSH2 0x118D DUP10 PUSH2 0x300 DUP11 ADD PUSH2 0x9D0 JUMP JUMPDEST DUP4 DUP9 ADD MSTORE PUSH2 0x119F DUP10 PUSH2 0x320 DUP11 ADD PUSH2 0x9D0 JUMP JUMPDEST DUP3 DUP9 ADD MSTORE PUSH2 0x11B1 DUP10 PUSH2 0x340 DUP11 ADD PUSH2 0xA11 JUMP JUMPDEST DUP2 DUP9 ADD MSTORE POP POP POP POP POP POP SWAP3 SWAP2 POP POP JUMP JUMPDEST PUSH1 0x0 DUP1 PUSH1 0x0 DUP4 DUP6 SUB PUSH2 0xA60 DUP2 SLT ISZERO PUSH2 0x11D8 JUMPI PUSH1 0x0 DUP1 REVERT JUMPDEST PUSH2 0x6C0 DUP1 DUP3 SLT ISZERO PUSH2 0x11E8 JUMPI PUSH1 0x0 DUP1 REVERT JUMPDEST PUSH2 0x11F0 PUSH2 0x98B JUMP JUMPDEST SWAP2 POP DUP6 CALLDATALOAD DUP3 MSTORE PUSH1 0x20 DUP7 ADD CALLDATALOAD PUSH1 0x20 DUP4 ADD MSTORE PUSH2 0x120D DUP8 PUSH1 0x40 DUP9 ADD PUSH2 0x9D0 JUMP JUMPDEST PUSH1 0x40 DUP4 ADD MSTORE PUSH2 0x121F DUP8 PUSH1 0x60 DUP9 ADD PUSH2 0xA41 JUMP JUMPDEST PUSH1 0x60 DUP4 ADD MSTORE PUSH2 0x1231 DUP8 PUSH1 0xE0 DUP9 ADD PUSH2 0xA9B JUMP JUMPDEST PUSH1 0x80 DUP4 ADD MSTORE PUSH2 0x1244 DUP8 PUSH2 0x2E0 DUP9 ADD PUSH2 0xB14 JUMP JUMPDEST PUSH1 0xA0 DUP4 ADD MSTORE PUSH2 0x1257 DUP8 PUSH2 0x3E0 DUP9 ADD PUSH2 0xA11 JUMP JUMPDEST PUSH1 0xC0 DUP4 ADD MSTORE PUSH2 0x126A DUP8 PUSH2 0x420 DUP9 ADD PUSH2 0xB14 JUMP JUMPDEST PUSH1 0xE0 DUP4 ADD MSTORE PUSH2 0x127D DUP8 PUSH2 0x520 DUP9 ADD PUSH2 0xA11 JUMP JUMPDEST PUSH2 0x100 DUP4 ADD MSTORE PUSH2 0x1291 DUP8 PUSH2 0x560 DUP9 ADD PUSH2 0xB64 JUMP JUMPDEST PUSH2 0x120 DUP4 ADD MSTORE PUSH2 0x12A5 DUP8 PUSH2 0x5C0 DUP9 ADD PUSH2 0xC1E JUMP JUMPDEST PUSH2 0x140 DUP4 ADD MSTORE SWAP1 SWAP4 POP DUP5 ADD CALLDATALOAD PUSH1 0x1 PUSH1 0x1 PUSH1 0x40 SHL SUB DUP2 GT ISZERO PUSH2 0x12C5 JUMPI PUSH1 0x0 DUP1 REVERT JUMPDEST PUSH2 0x12D1 DUP7 DUP3 DUP8 ADD PUSH2 0xDFB JUMP JUMPDEST SWAP3 POP POP PUSH2 0x12E2 DUP6 PUSH2 0x6E0 DUP7 ADD PUSH2 0x1035 JUMP JUMPDEST SWAP1 POP SWAP3 POP SWAP3 POP SWAP3 JUMP JUMPDEST DUP2 MLOAD DUP2 MSTORE PUSH1 0x20 DUP1 DUP4 ADD MLOAD SWAP1 DUP3 ADD MSTORE PUSH1 0x40 DUP2 ADD PUSH2 0x6B0 JUMP JUMPDEST DUP1 PUSH1 0x0 JUMPDEST PUSH1 0x6 DUP2 LT ISZERO PUSH2 0x133A JUMPI PUSH2 0x1324 DUP5 DUP4 MLOAD DUP1 MLOAD DUP3 MSTORE PUSH1 0x20 SWAP1 DUP2 ADD MLOAD SWAP2 ADD MSTORE JUMP JUMPDEST PUSH1 0x40 SWAP4 SWAP1 SWAP4 ADD SWAP3 PUSH1 0x20 SWAP2 SWAP1 SWAP2 ADD SWAP1 PUSH1 0x1 ADD PUSH2 0x1306 JUMP JUMPDEST POP POP POP POP JUMP JUMPDEST DUP1 PUSH1 0x0 JUMPDEST PUSH1 0x6 DUP2 LT ISZERO PUSH2 0x133A JUMPI DUP2 MLOAD MLOAD DUP5 MSTORE PUSH1 0x20 SWAP4 DUP5 ADD SWAP4 SWAP1 SWAP2 ADD SWAP1 PUSH1 0x1 ADD PUSH2 0x1344 JUMP JUMPDEST DUP2 MLOAD PUSH2 0x720 DUP3 ADD SWAP1 DUP3 PUSH1 0x0 JUMPDEST PUSH1 0xD DUP2 LT ISZERO PUSH2 0x13A4 JUMPI PUSH2 0x138E DUP3 DUP5 MLOAD DUP1 MLOAD DUP3 MSTORE PUSH1 0x20 SWAP1 DUP2 ADD MLOAD SWAP2 ADD MSTORE JUMP JUMPDEST PUSH1 0x20 SWAP3 SWAP1 SWAP3 ADD SWAP2 PUSH1 0x40 SWAP2 SWAP1 SWAP2 ADD SWAP1 PUSH1 0x1 ADD PUSH2 0x1370 JUMP JUMPDEST POP POP POP PUSH1 0x20 DUP1 DUP5 ADD MLOAD PUSH2 0x340 DUP5 ADD PUSH1 0x0 JUMPDEST PUSH1 0xD DUP2 LT ISZERO PUSH2 0x13D3 JUMPI DUP3 MLOAD MLOAD DUP3 MSTORE SWAP2 DUP4 ADD SWAP2 SWAP1 DUP4 ADD SWAP1 PUSH1 0x1 ADD PUSH2 0x13B5 JUMP JUMPDEST POP POP POP POP PUSH1 0x40 DUP4 ADD MLOAD PUSH2 0x13EA PUSH2 0x4E0 DUP5 ADD DUP3 PUSH2 0x1302 JUMP JUMPDEST POP PUSH1 0x60 DUP4 ADD MLOAD PUSH2 0x13FE PUSH2 0x660 DUP5 ADD DUP3 PUSH2 0x1340 JUMP JUMPDEST POP SWAP3 SWAP2 POP POP JUMP JUMPDEST PUSH1 0x0 PUSH2 0x380 DUP3 DUP5 SUB SLT ISZERO PUSH2 0x1418 JUMPI PUSH1 0x0 DUP1 REVERT JUMPDEST PUSH2 0x1422 DUP4 DUP4 PUSH2 0x1035 JUMP JUMPDEST SWAP4 SWAP3 POP POP POP JUMP JUMPDEST PUSH4 0x4E487B71 PUSH1 0xE0 SHL PUSH1 0x0 MSTORE PUSH1 0x32 PUSH1 0x4 MSTORE PUSH1 0x24 PUSH1 0x0 REVERT JUMPDEST DUP2 DUP2 SUB DUP2 DUP2 GT ISZERO PUSH2 0x6B0 JUMPI PUSH4 0x4E487B71 PUSH1 0xE0 SHL PUSH1 0x0 MSTORE PUSH1 0x11 PUSH1 0x4 MSTORE PUSH1 0x24 PUSH1 0x0 REVERT INVALID ADDRESS PUSH5 0x4E72E131A0 0x29 0xB8 POP GASLIMIT 0xB6 DUP2 DUP2 PC 0x5D 0x28 CALLER 0xE8 BASEFEE PUSH26 0xB9709143E1F593F0000001A2646970667358221220B8676F3F3C MSTORE LOG4 PUSH15 0xEF1B2E63E684E2DEB533D6BECEEA24 0xFB PUSH26 0xEC769855AC788664736F6C634300081400330000000000000000 "},"methodIdentifiers":{"compute_powers_of_alpha(((uint256),(uint256),(uint256),(uint256),(uint256)[9],(uint256),(uint256),(uint256),(uint256),(uint256),(uint256),(uint256),(uint256),(uint256),(uint256),(uint256),(uint256),(uint256),(uint256,uint256)))":"fec4e96e","prepare_queries((uint256,uint256,(uint256),(uint256,uint256)[2],(uint256,uint256)[8],(uint256,uint256)[4],(uint256,uint256),(uint256,uint256)[4],(uint256,uint256),(uint256)[3],(uint256[2],uint256[2])[2]),(uint256[],(uint256,uint256)[4],(uint256,uint256),(uint256,uint256)[4],(uint256)[4],(uint256)[1],(uint256)[1],(uint256)[3],(uint256),(uint256),(uint256),(uint256,uint256),(uint256,uint256),(uint256),(uint256),(uint256),(uint256),(uint256),(uint256),(uint256,uint256),(uint256,uint256)),((uint256),(uint256),(uint256),(uint256),(uint256)[9],(uint256),(uint256),(uint256),(uint256),(uint256),(uint256),(uint256),(uint256),(uint256),(uint256),(uint256),(uint256),(uint256),(uint256,uint256)))":"c2ef6041","rescue_custom_gate_linearization_contribution((uint256,uint256,(uint256),(uint256,uint256)[2],(uint256,uint256)[8],(uint256,uint256)[4],(uint256,uint256),(uint256,uint256)[4],(uint256,uint256),(uint256)[3],(uint256[2],uint256[2])[2]),(uint256[],(uint256,uint256)[4],(uint256,uint256),(uint256,uint256)[4],(uint256)[4],(uint256)[1],(uint256)[1],(uint256)[3],(uint256),(uint256),(uint256),(uint256,uint256),(uint256,uint256),(uint256),(uint256),(uint256),(uint256),(uint256),(uint256),(uint256,uint256),(uint256,uint256)),((uint256),(uint256),(uint256),(uint256),(uint256)[9],(uint256),(uint256),(uint256),(uint256),(uint256),(uint256),(uint256),(uint256),(uint256),(uint256),(uint256),(uint256),(uint256),(uint256,uint256)))":"3ec236cb"}},"storageLayout":{"storage":[],"types":null}}}}