{
  "_format": "hh-sol-artifact-1",
  "contractName": "L1ERC721Bridge",
  "sourceName": "contracts/L1ERC721Bridge.sol",
  "abi": [
    {
      "inputs": [
        {
          "internalType": "address",
          "name": "_token",
          "type": "address"
        },
        {
          "internalType": "address",
          "name": "_zkSyncMailbox",
          "type": "address"
        }
      ],
      "stateMutability": "nonpayable",
      "type": "constructor"
    },
    {
      "anonymous": false,
      "inputs": [
        {
          "indexed": false,
          "internalType": "uint256",
          "name": "tokenId",
          "type": "uint256"
        },
        {
          "indexed": true,
          "internalType": "address",
          "name": "from",
          "type": "address"
        },
        {
          "indexed": true,
          "internalType": "address",
          "name": "toL2",
          "type": "address"
        },
        {
          "indexed": false,
          "internalType": "bytes32",
          "name": "l2TxHash",
          "type": "bytes32"
        }
      ],
      "name": "DepositInitiated",
      "type": "event"
    },
    {
      "anonymous": false,
      "inputs": [
        {
          "indexed": false,
          "internalType": "uint256",
          "name": "tokenId",
          "type": "uint256"
        },
        {
          "indexed": true,
          "internalType": "address",
          "name": "to",
          "type": "address"
        }
      ],
      "name": "WithdrawalCompleted",
      "type": "event"
    },
    {
      "inputs": [
        {
          "internalType": "uint256",
          "name": "tokenId",
          "type": "uint256"
        },
        {
          "internalType": "address",
          "name": "toL2",
          "type": "address"
        }
      ],
      "name": "deposit",
      "outputs": [],
      "stateMutability": "nonpayable",
      "type": "function"
    },
    {
      "inputs": [
        {
          "internalType": "uint256",
          "name": "tokenId",
          "type": "uint256"
        },
        {
          "internalType": "address",
          "name": "to",
          "type": "address"
        }
      ],
      "name": "finalizeWithdrawal",
      "outputs": [],
      "stateMutability": "nonpayable",
      "type": "function"
    },
    {
      "inputs": [],
      "name": "l2BridgeAddress",
      "outputs": [
        {
          "internalType": "address",
          "name": "",
          "type": "address"
        }
      ],
      "stateMutability": "view",
      "type": "function"
    },
    {
      "inputs": [
        {
          "internalType": "address",
          "name": "_l2BridgeAddress",
          "type": "address"
        }
      ],
      "name": "setL2BridgeAddress",
      "outputs": [],
      "stateMutability": "nonpayable",
      "type": "function"
    },
    {
      "inputs": [],
      "name": "token",
      "outputs": [
        {
          "internalType": "contract IERC721",
          "name": "",
          "type": "address"
        }
      ],
      "stateMutability": "view",
      "type": "function"
    },
    {
      "inputs": [],
      "name": "zkSyncMailbox",
      "outputs": [
        {
          "internalType": "contract IMailbox",
          "name": "",
          "type": "address"
        }
      ],
      "stateMutability": "view",
      "type": "function"
    }
  ],
  "bytecode": "0x608060405234801561001057600080fd5b506040516107c33803806107c383398101604081905261002f916100e5565b60016000556001600160a01b0382161580159061005457506001600160a01b03811615155b6100985760405162461bcd60e51b8152602060048201526011602482015270496e76616c69642061646472657373657360781b604482015260640160405180910390fd5b600180546001600160a01b039384166001600160a01b03199182161790915560028054929093169116179055610118565b80516001600160a01b03811681146100e057600080fd5b919050565b600080604083850312156100f857600080fd5b610101836100c9565b915061010f602084016100c9565b90509250929050565b61069c806101276000396000f3fe608060405234801561001057600080fd5b50600436106100625760003560e01c8063556d89dd146100675780636e553f651461007c57806375b9083d1461008f578063934746a7146100a2578063d5c41c6f146100d1578063fc0c546a146100e4575b600080fd5b61007a61007536600461050d565b6100f7565b005b61007a61008a36600461052f565b610174565b61007a61009d36600461052f565b610388565b6003546100b5906001600160a01b031681565b6040516001600160a01b03909116815260200160405180910390f35b6002546100b5906001600160a01b031681565b6001546100b5906001600160a01b031681565b6001600160a01b0381166101525760405162461bcd60e51b815260206004820152601960248201527f496e76616c6964204c322062726964676520616464726573730000000000000060448201526064015b60405180910390fd5b600380546001600160a01b0319166001600160a01b0392909216919091179055565b6002600054036101c65760405162461bcd60e51b815260206004820152601f60248201527f5265656e7472616e637947756172643a207265656e7472616e742063616c6c006044820152606401610149565b6002600055600154604051632142170760e11b8152336004820152306024820152604481018490526001600160a01b03909116906342842e0e90606401600060405180830381600087803b15801561021d57600080fd5b505af1158015610231573d6000803e3d6000fd5b5050604080513360248201526001600160a01b03858116604483015260648083018890528351808403909101815260849092018352602080830180516001600160e01b03166358c3aeb560e11b1790526002546003548551600080825293810190965293965090945081169263eb6724199290911690849086906207a120908390816102cd565b60608152602001906001900390816102b85790505b50336040518863ffffffff1660e01b81526004016102f197969594939291906105a1565b6020604051808303816000875af1158015610310573d6000803e3d6000fd5b505050506040513d601f19601f82011682018060405250810190610334919061064d565b60408051868152602081018390529192506001600160a01b0385169133917f6f340743d5205839b1aa0c6255718dbfeb6d8f744fce5c99adbe2b7ac0d8b880910160405180910390a3505060016000555050565b6002600054036103da5760405162461bcd60e51b815260206004820152601f60248201527f5265656e7472616e637947756172643a207265656e7472616e742063616c6c006044820152606401610149565b60026000819055546001600160a01b031633146104395760405162461bcd60e51b815260206004820152601860248201527f43616c6c61626c65206f6e6c7920766961207a6b53796e6300000000000000006044820152606401610149565b600154604051632142170760e11b81523060048201526001600160a01b03838116602483015260448201859052909116906342842e0e90606401600060405180830381600087803b15801561048d57600080fd5b505af11580156104a1573d6000803e3d6000fd5b50505050806001600160a01b03167f51de73f18522187041dacf8eeae6371b677a43a6bee185c1e75eeb083d7c4332836040516104e091815260200190565b60405180910390a250506001600055565b80356001600160a01b038116811461050857600080fd5b919050565b60006020828403121561051f57600080fd5b610528826104f1565b9392505050565b6000806040838503121561054257600080fd5b82359150610552602084016104f1565b90509250929050565b6000815180845260005b8181101561058157602081850181015186830182015201610565565b506000602082860101526020601f19601f83011685010191505092915050565b60018060a01b038816815260006020888184015260e060408401526105c960e084018961055b565b87606085015286608085015283810360a08501528086518083528383019150838160051b84010184890160005b8381101561062457601f1986840301855261061283835161055b565b948701949250908601906001016105f6565b50506001600160a01b03881660c088015294506106419350505050565b98975050505050505050565b60006020828403121561065f57600080fd5b505191905056fea264697066735822122033878bbf48224c69a6db16e158b951795864c6469369302a85df93fffa604b2d64736f6c63430008140033",
  "linkReferences": {},
  "deployedLinkReferences": {}
}