{
  "_format": "hh-sol-artifact-1",
  "contractName": "L2ERC721Bridge",
  "sourceName": "contracts/L2ERC721Bridge.sol",
  "abi": [
    {
      "inputs": [
        {
          "internalType": "address",
          "name": "_token",
          "type": "address"
        }
      ],
      "stateMutability": "nonpayable",
      "type": "constructor"
    },
    {
      "anonymous": false,
      "inputs": [
        {
          "indexed": false,
          "internalType": "uint256",
          "name": "tokenId",
          "type": "uint256"
        },
        {
          "indexed": true,
          "internalType": "address",
          "name": "to",
          "type": "address"
        }
      ],
      "name": "DepositFinalized",
      "type": "event"
    },
    {
      "anonymous": false,
      "inputs": [
        {
          "indexed": false,
          "internalType": "uint256",
          "name": "tokenId",
          "type": "uint256"
        },
        {
          "indexed": true,
          "internalType": "address",
          "name": "to",
          "type": "address"
        }
      ],
      "name": "WithdrawalInitiated",
      "type": "event"
    },
    {
      "inputs": [
        {
          "internalType": "uint256",
          "name": "tokenId",
          "type": "uint256"
        },
        {
          "internalType": "address",
          "name": "to",
          "type": "address"
        }
      ],
      "name": "finalizeDeposit",
      "outputs": [],
      "stateMutability": "nonpayable",
      "type": "function"
    },
    {
      "inputs": [
        {
          "internalType": "uint256",
          "name": "tokenId",
          "type": "uint256"
        },
        {
          "internalType": "address",
          "name": "to",
          "type": "address"
        }
      ],
      "name": "initiateWithdrawal",
      "outputs": [],
      "stateMutability": "nonpayable",
      "type": "function"
    },
    {
      "inputs": [],
      "name": "l1Bridge",
      "outputs": [
        {
          "internalType": "address",
          "name": "",
          "type": "address"
        }
      ],
      "stateMutability": "view",
      "type": "function"
    },
    {
      "inputs": [
        {
          "internalType": "address",
          "name": "_l1Bridge",
          "type": "address"
        }
      ],
      "name": "setL1BridgeAddress",
      "outputs": [],
      "stateMutability": "nonpayable",
      "type": "function"
    },
    {
      "inputs": [],
      "name": "token",
      "outputs": [
        {
          "internalType": "contract IERC721",
          "name": "",
          "type": "address"
        }
      ],
      "stateMutability": "view",
      "type": "function"
    }
  ],
  "bytecode": "0x608060405234801561001057600080fd5b5060405161061c38038061061c83398101604081905261002f916100b3565b60016000556001600160a01b03811661008e5760405162461bcd60e51b815260206004820152601560248201527f496e76616c696420746f6b656e20616464726573730000000000000000000000604482015260640160405180910390fd5b600180546001600160a01b0319166001600160a01b03929092169190911790556100e3565b6000602082840312156100c557600080fd5b81516001600160a01b03811681146100dc57600080fd5b9392505050565b61052a806100f26000396000f3fe608060405234801561001057600080fd5b50600436106100575760003560e01c8063544381271461005c578063969b53da14610071578063b1875d6a146100a0578063e1825d06146100b3578063fc0c546a146100c6575b600080fd5b61006f61006a36600461040a565b6100d9565b005b600254610084906001600160a01b031681565b6040516001600160a01b03909116815260200160405180910390f35b61006f6100ae36600461040a565b6101e1565b61006f6100c1366004610436565b6102f3565b600154610084906001600160a01b031681565b600154604051632142170760e11b8152336004820152306024820152604481018490526001600160a01b03909116906342842e0e90606401600060405180830381600087803b15801561012b57600080fd5b505af115801561013f573d6000803e3d6000fd5b5050604051602481018590526001600160a01b038416604482015260009250606401905060408051601f198184030181529190526020810180516001600160e01b03166375b9083d60e01b17905290506101988161036b565b50816001600160a01b03167f2ed8868cc876e238b7cb346b1934d6327bd7d6435d28d0eac4b7fd0e44df3945846040516101d491815260200190565b60405180910390a2505050565b6002546001600160a01b031633146102405760405162461bcd60e51b815260206004820152601760248201527f4f6e6c79204c31206272696467652063616e2063616c6c00000000000000000060448201526064015b60405180910390fd5b600154604051632142170760e11b81523060048201526001600160a01b03838116602483015260448201859052909116906342842e0e90606401600060405180830381600087803b15801561029457600080fd5b505af11580156102a8573d6000803e3d6000fd5b50505050806001600160a01b03167f8f0bbedf5e30b53b498842f44a4bbdadc77b46faa226a1380267bb5d5ea6b834836040516102e791815260200190565b60405180910390a25050565b6001600160a01b0381166103495760405162461bcd60e51b815260206004820152601960248201527f496e76616c6964204c31206272696467652061646472657373000000000000006044820152606401610237565b600280546001600160a01b0319166001600160a01b0392909216919091179055565b600061037a6180006008610458565b6001600160a01b03166362f84b24836040518263ffffffff1660e01b81526004016103a5919061048d565b6020604051808303816000875af11580156103c4573d6000803e3d6000fd5b505050506040513d601f19601f820116820180604052508101906103e891906104db565b92915050565b80356001600160a01b038116811461040557600080fd5b919050565b6000806040838503121561041d57600080fd5b8235915061042d602084016103ee565b90509250929050565b60006020828403121561044857600080fd5b610451826103ee565b9392505050565b6001600160a01b0381811683821601908082111561048657634e487b7160e01b600052601160045260246000fd5b5092915050565b600060208083528351808285015260005b818110156104ba5785810183015185820160400152820161049e565b506000604082860101526040601f19601f8301168501019250505092915050565b6000602082840312156104ed57600080fd5b505191905056fea2646970667358221220b838fe615f12084eab1158efa2f1d9d74e549dafe66c73728d601c40488a1b1964736f6c63430008140033",
  "linkReferences": {},
  "deployedLinkReferences": {}
}