{
  "_format": "hh-sol-artifact-1",
  "contractName": "Verifier",
  "sourceName": "@matterlabs/zksync-contracts/l1/contracts/zksync/Verifier.sol",
  "abi": [
    {
      "inputs": [
        {
          "components": [
            {
              "components": [
                {
                  "internalType": "uint256",
                  "name": "value",
                  "type": "uint256"
                }
              ],
              "internalType": "struct PairingsBn254.Fr",
              "name": "zero",
              "type": "tuple"
            },
            {
              "components": [
                {
                  "internalType": "uint256",
                  "name": "value",
                  "type": "uint256"
                }
              ],
              "internalType": "struct PairingsBn254.Fr",
              "name": "alpha",
              "type": "tuple"
            },
            {
              "components": [
                {
                  "internalType": "uint256",
                  "name": "value",
                  "type": "uint256"
                }
              ],
              "internalType": "struct PairingsBn254.Fr",
              "name": "beta",
              "type": "tuple"
            },
            {
              "components": [
                {
                  "internalType": "uint256",
                  "name": "value",
                  "type": "uint256"
                }
              ],
              "internalType": "struct PairingsBn254.Fr",
              "name": "gamma",
              "type": "tuple"
            },
            {
              "components": [
                {
                  "internalType": "uint256",
                  "name": "value",
                  "type": "uint256"
                }
              ],
              "internalType": "struct PairingsBn254.Fr[9]",
              "name": "alpha_values",
              "type": "tuple[9]"
            },
            {
              "components": [
                {
                  "internalType": "uint256",
                  "name": "value",
                  "type": "uint256"
                }
              ],
              "internalType": "struct PairingsBn254.Fr",
              "name": "eta",
              "type": "tuple"
            },
            {
              "components": [
                {
                  "internalType": "uint256",
                  "name": "value",
                  "type": "uint256"
                }
              ],
              "internalType": "struct PairingsBn254.Fr",
              "name": "beta_lookup",
              "type": "tuple"
            },
            {
              "components": [
                {
                  "internalType": "uint256",
                  "name": "value",
                  "type": "uint256"
                }
              ],
              "internalType": "struct PairingsBn254.Fr",
              "name": "gamma_lookup",
              "type": "tuple"
            },
            {
              "components": [
                {
                  "internalType": "uint256",
                  "name": "value",
                  "type": "uint256"
                }
              ],
              "internalType": "struct PairingsBn254.Fr",
              "name": "beta_plus_one",
              "type": "tuple"
            },
            {
              "components": [
                {
                  "internalType": "uint256",
                  "name": "value",
                  "type": "uint256"
                }
              ],
              "internalType": "struct PairingsBn254.Fr",
              "name": "beta_gamma",
              "type": "tuple"
            },
            {
              "components": [
                {
                  "internalType": "uint256",
                  "name": "value",
                  "type": "uint256"
                }
              ],
              "internalType": "struct PairingsBn254.Fr",
              "name": "v",
              "type": "tuple"
            },
            {
              "components": [
                {
                  "internalType": "uint256",
                  "name": "value",
                  "type": "uint256"
                }
              ],
              "internalType": "struct PairingsBn254.Fr",
              "name": "u",
              "type": "tuple"
            },
            {
              "components": [
                {
                  "internalType": "uint256",
                  "name": "value",
                  "type": "uint256"
                }
              ],
              "internalType": "struct PairingsBn254.Fr",
              "name": "z",
              "type": "tuple"
            },
            {
              "components": [
                {
                  "internalType": "uint256",
                  "name": "value",
                  "type": "uint256"
                }
              ],
              "internalType": "struct PairingsBn254.Fr",
              "name": "z_omega",
              "type": "tuple"
            },
            {
              "components": [
                {
                  "internalType": "uint256",
                  "name": "value",
                  "type": "uint256"
                }
              ],
              "internalType": "struct PairingsBn254.Fr",
              "name": "z_minus_last_omega",
              "type": "tuple"
            },
            {
              "components": [
                {
                  "internalType": "uint256",
                  "name": "value",
                  "type": "uint256"
                }
              ],
              "internalType": "struct PairingsBn254.Fr",
              "name": "l_0_at_z",
              "type": "tuple"
            },
            {
              "components": [
                {
                  "internalType": "uint256",
                  "name": "value",
                  "type": "uint256"
                }
              ],
              "internalType": "struct PairingsBn254.Fr",
              "name": "l_n_minus_one_at_z",
              "type": "tuple"
            },
            {
              "components": [
                {
                  "internalType": "uint256",
                  "name": "value",
                  "type": "uint256"
                }
              ],
              "internalType": "struct PairingsBn254.Fr",
              "name": "t",
              "type": "tuple"
            },
            {
              "components": [
                {
                  "internalType": "uint256",
                  "name": "X",
                  "type": "uint256"
                },
                {
                  "internalType": "uint256",
                  "name": "Y",
                  "type": "uint256"
                }
              ],
              "internalType": "struct PairingsBn254.G1Point",
              "name": "tp",
              "type": "tuple"
            }
          ],
          "internalType": "struct Plonk4VerifierWithAccessToDNext.PartialVerifierState",
          "name": "state",
          "type": "tuple"
        }
      ],
      "name": "compute_powers_of_alpha",
      "outputs": [],
      "stateMutability": "pure",
      "type": "function"
    },
    {
      "inputs": [],
      "name": "get_verification_key",
      "outputs": [
        {
          "components": [
            {
              "internalType": "uint256",
              "name": "domain_size",
              "type": "uint256"
            },
            {
              "internalType": "uint256",
              "name": "num_inputs",
              "type": "uint256"
            },
            {
              "components": [
                {
                  "internalType": "uint256",
                  "name": "value",
                  "type": "uint256"
                }
              ],
              "internalType": "struct PairingsBn254.Fr",
              "name": "omega",
              "type": "tuple"
            },
            {
              "components": [
                {
                  "internalType": "uint256",
                  "name": "X",
                  "type": "uint256"
                },
                {
                  "internalType": "uint256",
                  "name": "Y",
                  "type": "uint256"
                }
              ],
              "internalType": "struct PairingsBn254.G1Point[2]",
              "name": "gate_selectors_commitments",
              "type": "tuple[2]"
            },
            {
              "components": [
                {
                  "internalType": "uint256",
                  "name": "X",
                  "type": "uint256"
                },
                {
                  "internalType": "uint256",
                  "name": "Y",
                  "type": "uint256"
                }
              ],
              "internalType": "struct PairingsBn254.G1Point[8]",
              "name": "gate_setup_commitments",
              "type": "tuple[8]"
            },
            {
              "components": [
                {
                  "internalType": "uint256",
                  "name": "X",
                  "type": "uint256"
                },
                {
                  "internalType": "uint256",
                  "name": "Y",
                  "type": "uint256"
                }
              ],
              "internalType": "struct PairingsBn254.G1Point[4]",
              "name": "permutation_commitments",
              "type": "tuple[4]"
            },
            {
              "components": [
                {
                  "internalType": "uint256",
                  "name": "X",
                  "type": "uint256"
                },
                {
                  "internalType": "uint256",
                  "name": "Y",
                  "type": "uint256"
                }
              ],
              "internalType": "struct PairingsBn254.G1Point",
              "name": "lookup_selector_commitment",
              "type": "tuple"
            },
            {
              "components": [
                {
                  "internalType": "uint256",
                  "name": "X",
                  "type": "uint256"
                },
                {
                  "internalType": "uint256",
                  "name": "Y",
                  "type": "uint256"
                }
              ],
              "internalType": "struct PairingsBn254.G1Point[4]",
              "name": "lookup_tables_commitments",
              "type": "tuple[4]"
            },
            {
              "components": [
                {
                  "internalType": "uint256",
                  "name": "X",
                  "type": "uint256"
                },
                {
                  "internalType": "uint256",
                  "name": "Y",
                  "type": "uint256"
                }
              ],
              "internalType": "struct PairingsBn254.G1Point",
              "name": "lookup_table_type_commitment",
              "type": "tuple"
            },
            {
              "components": [
                {
                  "internalType": "uint256",
                  "name": "value",
                  "type": "uint256"
                }
              ],
              "internalType": "struct PairingsBn254.Fr[3]",
              "name": "non_residues",
              "type": "tuple[3]"
            },
            {
              "components": [
                {
                  "internalType": "uint256[2]",
                  "name": "X",
                  "type": "uint256[2]"
                },
                {
                  "internalType": "uint256[2]",
                  "name": "Y",
                  "type": "uint256[2]"
                }
              ],
              "internalType": "struct PairingsBn254.G2Point[2]",
              "name": "g2_elements",
              "type": "tuple[2]"
            }
          ],
          "internalType": "struct VerificationKey",
          "name": "vk",
          "type": "tuple"
        }
      ],
      "stateMutability": "pure",
      "type": "function"
    },
    {
      "inputs": [
        {
          "components": [
            {
              "internalType": "uint256",
              "name": "domain_size",
              "type": "uint256"
            },
            {
              "internalType": "uint256",
              "name": "num_inputs",
              "type": "uint256"
            },
            {
              "components": [
                {
                  "internalType": "uint256",
                  "name": "value",
                  "type": "uint256"
                }
              ],
              "internalType": "struct PairingsBn254.Fr",
              "name": "omega",
              "type": "tuple"
            },
            {
              "components": [
                {
                  "internalType": "uint256",
                  "name": "X",
                  "type": "uint256"
                },
                {
                  "internalType": "uint256",
                  "name": "Y",
                  "type": "uint256"
                }
              ],
              "internalType": "struct PairingsBn254.G1Point[2]",
              "name": "gate_selectors_commitments",
              "type": "tuple[2]"
            },
            {
              "components": [
                {
                  "internalType": "uint256",
                  "name": "X",
                  "type": "uint256"
                },
                {
                  "internalType": "uint256",
                  "name": "Y",
                  "type": "uint256"
                }
              ],
              "internalType": "struct PairingsBn254.G1Point[8]",
              "name": "gate_setup_commitments",
              "type": "tuple[8]"
            },
            {
              "components": [
                {
                  "internalType": "uint256",
                  "name": "X",
                  "type": "uint256"
                },
                {
                  "internalType": "uint256",
                  "name": "Y",
                  "type": "uint256"
                }
              ],
              "internalType": "struct PairingsBn254.G1Point[4]",
              "name": "permutation_commitments",
              "type": "tuple[4]"
            },
            {
              "components": [
                {
                  "internalType": "uint256",
                  "name": "X",
                  "type": "uint256"
                },
                {
                  "internalType": "uint256",
                  "name": "Y",
                  "type": "uint256"
                }
              ],
              "internalType": "struct PairingsBn254.G1Point",
              "name": "lookup_selector_commitment",
              "type": "tuple"
            },
            {
              "components": [
                {
                  "internalType": "uint256",
                  "name": "X",
                  "type": "uint256"
                },
                {
                  "internalType": "uint256",
                  "name": "Y",
                  "type": "uint256"
                }
              ],
              "internalType": "struct PairingsBn254.G1Point[4]",
              "name": "lookup_tables_commitments",
              "type": "tuple[4]"
            },
            {
              "components": [
                {
                  "internalType": "uint256",
                  "name": "X",
                  "type": "uint256"
                },
                {
                  "internalType": "uint256",
                  "name": "Y",
                  "type": "uint256"
                }
              ],
              "internalType": "struct PairingsBn254.G1Point",
              "name": "lookup_table_type_commitment",
              "type": "tuple"
            },
            {
              "components": [
                {
                  "internalType": "uint256",
                  "name": "value",
                  "type": "uint256"
                }
              ],
              "internalType": "struct PairingsBn254.Fr[3]",
              "name": "non_residues",
              "type": "tuple[3]"
            },
            {
              "components": [
                {
                  "internalType": "uint256[2]",
                  "name": "X",
                  "type": "uint256[2]"
                },
                {
                  "internalType": "uint256[2]",
                  "name": "Y",
                  "type": "uint256[2]"
                }
              ],
              "internalType": "struct PairingsBn254.G2Point[2]",
              "name": "g2_elements",
              "type": "tuple[2]"
            }
          ],
          "internalType": "struct VerificationKey",
          "name": "vk",
          "type": "tuple"
        },
        {
          "components": [
            {
              "internalType": "uint256[]",
              "name": "input_values",
              "type": "uint256[]"
            },
            {
              "components": [
                {
                  "internalType": "uint256",
                  "name": "X",
                  "type": "uint256"
                },
                {
                  "internalType": "uint256",
                  "name": "Y",
                  "type": "uint256"
                }
              ],
              "internalType": "struct PairingsBn254.G1Point[4]",
              "name": "state_polys_commitments",
              "type": "tuple[4]"
            },
            {
              "components": [
                {
                  "internalType": "uint256",
                  "name": "X",
                  "type": "uint256"
                },
                {
                  "internalType": "uint256",
                  "name": "Y",
                  "type": "uint256"
                }
              ],
              "internalType": "struct PairingsBn254.G1Point",
              "name": "copy_permutation_grand_product_commitment",
              "type": "tuple"
            },
            {
              "components": [
                {
                  "internalType": "uint256",
                  "name": "X",
                  "type": "uint256"
                },
                {
                  "internalType": "uint256",
                  "name": "Y",
                  "type": "uint256"
                }
              ],
              "internalType": "struct PairingsBn254.G1Point[4]",
              "name": "quotient_poly_parts_commitments",
              "type": "tuple[4]"
            },
            {
              "components": [
                {
                  "internalType": "uint256",
                  "name": "value",
                  "type": "uint256"
                }
              ],
              "internalType": "struct PairingsBn254.Fr[4]",
              "name": "state_polys_openings_at_z",
              "type": "tuple[4]"
            },
            {
              "components": [
                {
                  "internalType": "uint256",
                  "name": "value",
                  "type": "uint256"
                }
              ],
              "internalType": "struct PairingsBn254.Fr[1]",
              "name": "state_polys_openings_at_z_omega",
              "type": "tuple[1]"
            },
            {
              "components": [
                {
                  "internalType": "uint256",
                  "name": "value",
                  "type": "uint256"
                }
              ],
              "internalType": "struct PairingsBn254.Fr[1]",
              "name": "gate_selectors_openings_at_z",
              "type": "tuple[1]"
            },
            {
              "components": [
                {
                  "internalType": "uint256",
                  "name": "value",
                  "type": "uint256"
                }
              ],
              "internalType": "struct PairingsBn254.Fr[3]",
              "name": "copy_permutation_polys_openings_at_z",
              "type": "tuple[3]"
            },
            {
              "components": [
                {
                  "internalType": "uint256",
                  "name": "value",
                  "type": "uint256"
                }
              ],
              "internalType": "struct PairingsBn254.Fr",
              "name": "copy_permutation_grand_product_opening_at_z_omega",
              "type": "tuple"
            },
            {
              "components": [
                {
                  "internalType": "uint256",
                  "name": "value",
                  "type": "uint256"
                }
              ],
              "internalType": "struct PairingsBn254.Fr",
              "name": "quotient_poly_opening_at_z",
              "type": "tuple"
            },
            {
              "components": [
                {
                  "internalType": "uint256",
                  "name": "value",
                  "type": "uint256"
                }
              ],
              "internalType": "struct PairingsBn254.Fr",
              "name": "linearization_poly_opening_at_z",
              "type": "tuple"
            },
            {
              "components": [
                {
                  "internalType": "uint256",
                  "name": "X",
                  "type": "uint256"
                },
                {
                  "internalType": "uint256",
                  "name": "Y",
                  "type": "uint256"
                }
              ],
              "internalType": "struct PairingsBn254.G1Point",
              "name": "lookup_s_poly_commitment",
              "type": "tuple"
            },
            {
              "components": [
                {
                  "internalType": "uint256",
                  "name": "X",
                  "type": "uint256"
                },
                {
                  "internalType": "uint256",
                  "name": "Y",
                  "type": "uint256"
                }
              ],
              "internalType": "struct PairingsBn254.G1Point",
              "name": "lookup_grand_product_commitment",
              "type": "tuple"
            },
            {
              "components": [
                {
                  "internalType": "uint256",
                  "name": "value",
                  "type": "uint256"
                }
              ],
              "internalType": "struct PairingsBn254.Fr",
              "name": "lookup_s_poly_opening_at_z_omega",
              "type": "tuple"
            },
            {
              "components": [
                {
                  "internalType": "uint256",
                  "name": "value",
                  "type": "uint256"
                }
              ],
              "internalType": "struct PairingsBn254.Fr",
              "name": "lookup_grand_product_opening_at_z_omega",
              "type": "tuple"
            },
            {
              "components": [
                {
                  "internalType": "uint256",
                  "name": "value",
                  "type": "uint256"
                }
              ],
              "internalType": "struct PairingsBn254.Fr",
              "name": "lookup_t_poly_opening_at_z",
              "type": "tuple"
            },
            {
              "components": [
                {
                  "internalType": "uint256",
                  "name": "value",
                  "type": "uint256"
                }
              ],
              "internalType": "struct PairingsBn254.Fr",
              "name": "lookup_t_poly_opening_at_z_omega",
              "type": "tuple"
            },
            {
              "components": [
                {
                  "internalType": "uint256",
                  "name": "value",
                  "type": "uint256"
                }
              ],
              "internalType": "struct PairingsBn254.Fr",
              "name": "lookup_selector_poly_opening_at_z",
              "type": "tuple"
            },
            {
              "components": [
                {
                  "internalType": "uint256",
                  "name": "value",
                  "type": "uint256"
                }
              ],
              "internalType": "struct PairingsBn254.Fr",
              "name": "lookup_table_type_poly_opening_at_z",
              "type": "tuple"
            },
            {
              "components": [
                {
                  "internalType": "uint256",
                  "name": "X",
                  "type": "uint256"
                },
                {
                  "internalType": "uint256",
                  "name": "Y",
                  "type": "uint256"
                }
              ],
              "internalType": "struct PairingsBn254.G1Point",
              "name": "opening_proof_at_z",
              "type": "tuple"
            },
            {
              "components": [
                {
                  "internalType": "uint256",
                  "name": "X",
                  "type": "uint256"
                },
                {
                  "internalType": "uint256",
                  "name": "Y",
                  "type": "uint256"
                }
              ],
              "internalType": "struct PairingsBn254.G1Point",
              "name": "opening_proof_at_z_omega",
              "type": "tuple"
            }
          ],
          "internalType": "struct Plonk4VerifierWithAccessToDNext.Proof",
          "name": "proof",
          "type": "tuple"
        },
        {
          "components": [
            {
              "components": [
                {
                  "internalType": "uint256",
                  "name": "value",
                  "type": "uint256"
                }
              ],
              "internalType": "struct PairingsBn254.Fr",
              "name": "zero",
              "type": "tuple"
            },
            {
              "components": [
                {
                  "internalType": "uint256",
                  "name": "value",
                  "type": "uint256"
                }
              ],
              "internalType": "struct PairingsBn254.Fr",
              "name": "alpha",
              "type": "tuple"
            },
            {
              "components": [
                {
                  "internalType": "uint256",
                  "name": "value",
                  "type": "uint256"
                }
              ],
              "internalType": "struct PairingsBn254.Fr",
              "name": "beta",
              "type": "tuple"
            },
            {
              "components": [
                {
                  "internalType": "uint256",
                  "name": "value",
                  "type": "uint256"
                }
              ],
              "internalType": "struct PairingsBn254.Fr",
              "name": "gamma",
              "type": "tuple"
            },
            {
              "components": [
                {
                  "internalType": "uint256",
                  "name": "value",
                  "type": "uint256"
                }
              ],
              "internalType": "struct PairingsBn254.Fr[9]",
              "name": "alpha_values",
              "type": "tuple[9]"
            },
            {
              "components": [
                {
                  "internalType": "uint256",
                  "name": "value",
                  "type": "uint256"
                }
              ],
              "internalType": "struct PairingsBn254.Fr",
              "name": "eta",
              "type": "tuple"
            },
            {
              "components": [
                {
                  "internalType": "uint256",
                  "name": "value",
                  "type": "uint256"
                }
              ],
              "internalType": "struct PairingsBn254.Fr",
              "name": "beta_lookup",
              "type": "tuple"
            },
            {
              "components": [
                {
                  "internalType": "uint256",
                  "name": "value",
                  "type": "uint256"
                }
              ],
              "internalType": "struct PairingsBn254.Fr",
              "name": "gamma_lookup",
              "type": "tuple"
            },
            {
              "components": [
                {
                  "internalType": "uint256",
                  "name": "value",
                  "type": "uint256"
                }
              ],
              "internalType": "struct PairingsBn254.Fr",
              "name": "beta_plus_one",
              "type": "tuple"
            },
            {
              "components": [
                {
                  "internalType": "uint256",
                  "name": "value",
                  "type": "uint256"
                }
              ],
              "internalType": "struct PairingsBn254.Fr",
              "name": "beta_gamma",
              "type": "tuple"
            },
            {
              "components": [
                {
                  "internalType": "uint256",
                  "name": "value",
                  "type": "uint256"
                }
              ],
              "internalType": "struct PairingsBn254.Fr",
              "name": "v",
              "type": "tuple"
            },
            {
              "components": [
                {
                  "internalType": "uint256",
                  "name": "value",
                  "type": "uint256"
                }
              ],
              "internalType": "struct PairingsBn254.Fr",
              "name": "u",
              "type": "tuple"
            },
            {
              "components": [
                {
                  "internalType": "uint256",
                  "name": "value",
                  "type": "uint256"
                }
              ],
              "internalType": "struct PairingsBn254.Fr",
              "name": "z",
              "type": "tuple"
            },
            {
              "components": [
                {
                  "internalType": "uint256",
                  "name": "value",
                  "type": "uint256"
                }
              ],
              "internalType": "struct PairingsBn254.Fr",
              "name": "z_omega",
              "type": "tuple"
            },
            {
              "components": [
                {
                  "internalType": "uint256",
                  "name": "value",
                  "type": "uint256"
                }
              ],
              "internalType": "struct PairingsBn254.Fr",
              "name": "z_minus_last_omega",
              "type": "tuple"
            },
            {
              "components": [
                {
                  "internalType": "uint256",
                  "name": "value",
                  "type": "uint256"
                }
              ],
              "internalType": "struct PairingsBn254.Fr",
              "name": "l_0_at_z",
              "type": "tuple"
            },
            {
              "components": [
                {
                  "internalType": "uint256",
                  "name": "value",
                  "type": "uint256"
                }
              ],
              "internalType": "struct PairingsBn254.Fr",
              "name": "l_n_minus_one_at_z",
              "type": "tuple"
            },
            {
              "components": [
                {
                  "internalType": "uint256",
                  "name": "value",
                  "type": "uint256"
                }
              ],
              "internalType": "struct PairingsBn254.Fr",
              "name": "t",
              "type": "tuple"
            },
            {
              "components": [
                {
                  "internalType": "uint256",
                  "name": "X",
                  "type": "uint256"
                },
                {
                  "internalType": "uint256",
                  "name": "Y",
                  "type": "uint256"
                }
              ],
              "internalType": "struct PairingsBn254.G1Point",
              "name": "tp",
              "type": "tuple"
            }
          ],
          "internalType": "struct Plonk4VerifierWithAccessToDNext.PartialVerifierState",
          "name": "state",
          "type": "tuple"
        }
      ],
      "name": "prepare_queries",
      "outputs": [
        {
          "components": [
            {
              "components": [
                {
                  "internalType": "uint256",
                  "name": "X",
                  "type": "uint256"
                },
                {
                  "internalType": "uint256",
                  "name": "Y",
                  "type": "uint256"
                }
              ],
              "internalType": "struct PairingsBn254.G1Point[13]",
              "name": "commitments_at_z",
              "type": "tuple[13]"
            },
            {
              "components": [
                {
                  "internalType": "uint256",
                  "name": "value",
                  "type": "uint256"
                }
              ],
              "internalType": "struct PairingsBn254.Fr[13]",
              "name": "values_at_z",
              "type": "tuple[13]"
            },
            {
              "components": [
                {
                  "internalType": "uint256",
                  "name": "X",
                  "type": "uint256"
                },
                {
                  "internalType": "uint256",
                  "name": "Y",
                  "type": "uint256"
                }
              ],
              "internalType": "struct PairingsBn254.G1Point[6]",
              "name": "commitments_at_z_omega",
              "type": "tuple[6]"
            },
            {
              "components": [
                {
                  "internalType": "uint256",
                  "name": "value",
                  "type": "uint256"
                }
              ],
              "internalType": "struct PairingsBn254.Fr[6]",
              "name": "values_at_z_omega",
              "type": "tuple[6]"
            }
          ],
          "internalType": "struct Plonk4VerifierWithAccessToDNext.Queries",
          "name": "queries",
          "type": "tuple"
        }
      ],
      "stateMutability": "view",
      "type": "function"
    },
    {
      "inputs": [
        {
          "components": [
            {
              "internalType": "uint256",
              "name": "domain_size",
              "type": "uint256"
            },
            {
              "internalType": "uint256",
              "name": "num_inputs",
              "type": "uint256"
            },
            {
              "components": [
                {
                  "internalType": "uint256",
                  "name": "value",
                  "type": "uint256"
                }
              ],
              "internalType": "struct PairingsBn254.Fr",
              "name": "omega",
              "type": "tuple"
            },
            {
              "components": [
                {
                  "internalType": "uint256",
                  "name": "X",
                  "type": "uint256"
                },
                {
                  "internalType": "uint256",
                  "name": "Y",
                  "type": "uint256"
                }
              ],
              "internalType": "struct PairingsBn254.G1Point[2]",
              "name": "gate_selectors_commitments",
              "type": "tuple[2]"
            },
            {
              "components": [
                {
                  "internalType": "uint256",
                  "name": "X",
                  "type": "uint256"
                },
                {
                  "internalType": "uint256",
                  "name": "Y",
                  "type": "uint256"
                }
              ],
              "internalType": "struct PairingsBn254.G1Point[8]",
              "name": "gate_setup_commitments",
              "type": "tuple[8]"
            },
            {
              "components": [
                {
                  "internalType": "uint256",
                  "name": "X",
                  "type": "uint256"
                },
                {
                  "internalType": "uint256",
                  "name": "Y",
                  "type": "uint256"
                }
              ],
              "internalType": "struct PairingsBn254.G1Point[4]",
              "name": "permutation_commitments",
              "type": "tuple[4]"
            },
            {
              "components": [
                {
                  "internalType": "uint256",
                  "name": "X",
                  "type": "uint256"
                },
                {
                  "internalType": "uint256",
                  "name": "Y",
                  "type": "uint256"
                }
              ],
              "internalType": "struct PairingsBn254.G1Point",
              "name": "lookup_selector_commitment",
              "type": "tuple"
            },
            {
              "components": [
                {
                  "internalType": "uint256",
                  "name": "X",
                  "type": "uint256"
                },
                {
                  "internalType": "uint256",
                  "name": "Y",
                  "type": "uint256"
                }
              ],
              "internalType": "struct PairingsBn254.G1Point[4]",
              "name": "lookup_tables_commitments",
              "type": "tuple[4]"
            },
            {
              "components": [
                {
                  "internalType": "uint256",
                  "name": "X",
                  "type": "uint256"
                },
                {
                  "internalType": "uint256",
                  "name": "Y",
                  "type": "uint256"
                }
              ],
              "internalType": "struct PairingsBn254.G1Point",
              "name": "lookup_table_type_commitment",
              "type": "tuple"
            },
            {
              "components": [
                {
                  "internalType": "uint256",
                  "name": "value",
                  "type": "uint256"
                }
              ],
              "internalType": "struct PairingsBn254.Fr[3]",
              "name": "non_residues",
              "type": "tuple[3]"
            },
            {
              "components": [
                {
                  "internalType": "uint256[2]",
                  "name": "X",
                  "type": "uint256[2]"
                },
                {
                  "internalType": "uint256[2]",
                  "name": "Y",
                  "type": "uint256[2]"
                }
              ],
              "internalType": "struct PairingsBn254.G2Point[2]",
              "name": "g2_elements",
              "type": "tuple[2]"
            }
          ],
          "internalType": "struct VerificationKey",
          "name": "vk",
          "type": "tuple"
        },
        {
          "components": [
            {
              "internalType": "uint256[]",
              "name": "input_values",
              "type": "uint256[]"
            },
            {
              "components": [
                {
                  "internalType": "uint256",
                  "name": "X",
                  "type": "uint256"
                },
                {
                  "internalType": "uint256",
                  "name": "Y",
                  "type": "uint256"
                }
              ],
              "internalType": "struct PairingsBn254.G1Point[4]",
              "name": "state_polys_commitments",
              "type": "tuple[4]"
            },
            {
              "components": [
                {
                  "internalType": "uint256",
                  "name": "X",
                  "type": "uint256"
                },
                {
                  "internalType": "uint256",
                  "name": "Y",
                  "type": "uint256"
                }
              ],
              "internalType": "struct PairingsBn254.G1Point",
              "name": "copy_permutation_grand_product_commitment",
              "type": "tuple"
            },
            {
              "components": [
                {
                  "internalType": "uint256",
                  "name": "X",
                  "type": "uint256"
                },
                {
                  "internalType": "uint256",
                  "name": "Y",
                  "type": "uint256"
                }
              ],
              "internalType": "struct PairingsBn254.G1Point[4]",
              "name": "quotient_poly_parts_commitments",
              "type": "tuple[4]"
            },
            {
              "components": [
                {
                  "internalType": "uint256",
                  "name": "value",
                  "type": "uint256"
                }
              ],
              "internalType": "struct PairingsBn254.Fr[4]",
              "name": "state_polys_openings_at_z",
              "type": "tuple[4]"
            },
            {
              "components": [
                {
                  "internalType": "uint256",
                  "name": "value",
                  "type": "uint256"
                }
              ],
              "internalType": "struct PairingsBn254.Fr[1]",
              "name": "state_polys_openings_at_z_omega",
              "type": "tuple[1]"
            },
            {
              "components": [
                {
                  "internalType": "uint256",
                  "name": "value",
                  "type": "uint256"
                }
              ],
              "internalType": "struct PairingsBn254.Fr[1]",
              "name": "gate_selectors_openings_at_z",
              "type": "tuple[1]"
            },
            {
              "components": [
                {
                  "internalType": "uint256",
                  "name": "value",
                  "type": "uint256"
                }
              ],
              "internalType": "struct PairingsBn254.Fr[3]",
              "name": "copy_permutation_polys_openings_at_z",
              "type": "tuple[3]"
            },
            {
              "components": [
                {
                  "internalType": "uint256",
                  "name": "value",
                  "type": "uint256"
                }
              ],
              "internalType": "struct PairingsBn254.Fr",
              "name": "copy_permutation_grand_product_opening_at_z_omega",
              "type": "tuple"
            },
            {
              "components": [
                {
                  "internalType": "uint256",
                  "name": "value",
                  "type": "uint256"
                }
              ],
              "internalType": "struct PairingsBn254.Fr",
              "name": "quotient_poly_opening_at_z",
              "type": "tuple"
            },
            {
              "components": [
                {
                  "internalType": "uint256",
                  "name": "value",
                  "type": "uint256"
                }
              ],
              "internalType": "struct PairingsBn254.Fr",
              "name": "linearization_poly_opening_at_z",
              "type": "tuple"
            },
            {
              "components": [
                {
                  "internalType": "uint256",
                  "name": "X",
                  "type": "uint256"
                },
                {
                  "internalType": "uint256",
                  "name": "Y",
                  "type": "uint256"
                }
              ],
              "internalType": "struct PairingsBn254.G1Point",
              "name": "lookup_s_poly_commitment",
              "type": "tuple"
            },
            {
              "components": [
                {
                  "internalType": "uint256",
                  "name": "X",
                  "type": "uint256"
                },
                {
                  "internalType": "uint256",
                  "name": "Y",
                  "type": "uint256"
                }
              ],
              "internalType": "struct PairingsBn254.G1Point",
              "name": "lookup_grand_product_commitment",
              "type": "tuple"
            },
            {
              "components": [
                {
                  "internalType": "uint256",
                  "name": "value",
                  "type": "uint256"
                }
              ],
              "internalType": "struct PairingsBn254.Fr",
              "name": "lookup_s_poly_opening_at_z_omega",
              "type": "tuple"
            },
            {
              "components": [
                {
                  "internalType": "uint256",
                  "name": "value",
                  "type": "uint256"
                }
              ],
              "internalType": "struct PairingsBn254.Fr",
              "name": "lookup_grand_product_opening_at_z_omega",
              "type": "tuple"
            },
            {
              "components": [
                {
                  "internalType": "uint256",
                  "name": "value",
                  "type": "uint256"
                }
              ],
              "internalType": "struct PairingsBn254.Fr",
              "name": "lookup_t_poly_opening_at_z",
              "type": "tuple"
            },
            {
              "components": [
                {
                  "internalType": "uint256",
                  "name": "value",
                  "type": "uint256"
                }
              ],
              "internalType": "struct PairingsBn254.Fr",
              "name": "lookup_t_poly_opening_at_z_omega",
              "type": "tuple"
            },
            {
              "components": [
                {
                  "internalType": "uint256",
                  "name": "value",
                  "type": "uint256"
                }
              ],
              "internalType": "struct PairingsBn254.Fr",
              "name": "lookup_selector_poly_opening_at_z",
              "type": "tuple"
            },
            {
              "components": [
                {
                  "internalType": "uint256",
                  "name": "value",
                  "type": "uint256"
                }
              ],
              "internalType": "struct PairingsBn254.Fr",
              "name": "lookup_table_type_poly_opening_at_z",
              "type": "tuple"
            },
            {
              "components": [
                {
                  "internalType": "uint256",
                  "name": "X",
                  "type": "uint256"
                },
                {
                  "internalType": "uint256",
                  "name": "Y",
                  "type": "uint256"
                }
              ],
              "internalType": "struct PairingsBn254.G1Point",
              "name": "opening_proof_at_z",
              "type": "tuple"
            },
            {
              "components": [
                {
                  "internalType": "uint256",
                  "name": "X",
                  "type": "uint256"
                },
                {
                  "internalType": "uint256",
                  "name": "Y",
                  "type": "uint256"
                }
              ],
              "internalType": "struct PairingsBn254.G1Point",
              "name": "opening_proof_at_z_omega",
              "type": "tuple"
            }
          ],
          "internalType": "struct Plonk4VerifierWithAccessToDNext.Proof",
          "name": "proof",
          "type": "tuple"
        },
        {
          "components": [
            {
              "components": [
                {
                  "internalType": "uint256",
                  "name": "value",
                  "type": "uint256"
                }
              ],
              "internalType": "struct PairingsBn254.Fr",
              "name": "zero",
              "type": "tuple"
            },
            {
              "components": [
                {
                  "internalType": "uint256",
                  "name": "value",
                  "type": "uint256"
                }
              ],
              "internalType": "struct PairingsBn254.Fr",
              "name": "alpha",
              "type": "tuple"
            },
            {
              "components": [
                {
                  "internalType": "uint256",
                  "name": "value",
                  "type": "uint256"
                }
              ],
              "internalType": "struct PairingsBn254.Fr",
              "name": "beta",
              "type": "tuple"
            },
            {
              "components": [
                {
                  "internalType": "uint256",
                  "name": "value",
                  "type": "uint256"
                }
              ],
              "internalType": "struct PairingsBn254.Fr",
              "name": "gamma",
              "type": "tuple"
            },
            {
              "components": [
                {
                  "internalType": "uint256",
                  "name": "value",
                  "type": "uint256"
                }
              ],
              "internalType": "struct PairingsBn254.Fr[9]",
              "name": "alpha_values",
              "type": "tuple[9]"
            },
            {
              "components": [
                {
                  "internalType": "uint256",
                  "name": "value",
                  "type": "uint256"
                }
              ],
              "internalType": "struct PairingsBn254.Fr",
              "name": "eta",
              "type": "tuple"
            },
            {
              "components": [
                {
                  "internalType": "uint256",
                  "name": "value",
                  "type": "uint256"
                }
              ],
              "internalType": "struct PairingsBn254.Fr",
              "name": "beta_lookup",
              "type": "tuple"
            },
            {
              "components": [
                {
                  "internalType": "uint256",
                  "name": "value",
                  "type": "uint256"
                }
              ],
              "internalType": "struct PairingsBn254.Fr",
              "name": "gamma_lookup",
              "type": "tuple"
            },
            {
              "components": [
                {
                  "internalType": "uint256",
                  "name": "value",
                  "type": "uint256"
                }
              ],
              "internalType": "struct PairingsBn254.Fr",
              "name": "beta_plus_one",
              "type": "tuple"
            },
            {
              "components": [
                {
                  "internalType": "uint256",
                  "name": "value",
                  "type": "uint256"
                }
              ],
              "internalType": "struct PairingsBn254.Fr",
              "name": "beta_gamma",
              "type": "tuple"
            },
            {
              "components": [
                {
                  "internalType": "uint256",
                  "name": "value",
                  "type": "uint256"
                }
              ],
              "internalType": "struct PairingsBn254.Fr",
              "name": "v",
              "type": "tuple"
            },
            {
              "components": [
                {
                  "internalType": "uint256",
                  "name": "value",
                  "type": "uint256"
                }
              ],
              "internalType": "struct PairingsBn254.Fr",
              "name": "u",
              "type": "tuple"
            },
            {
              "components": [
                {
                  "internalType": "uint256",
                  "name": "value",
                  "type": "uint256"
                }
              ],
              "internalType": "struct PairingsBn254.Fr",
              "name": "z",
              "type": "tuple"
            },
            {
              "components": [
                {
                  "internalType": "uint256",
                  "name": "value",
                  "type": "uint256"
                }
              ],
              "internalType": "struct PairingsBn254.Fr",
              "name": "z_omega",
              "type": "tuple"
            },
            {
              "components": [
                {
                  "internalType": "uint256",
                  "name": "value",
                  "type": "uint256"
                }
              ],
              "internalType": "struct PairingsBn254.Fr",
              "name": "z_minus_last_omega",
              "type": "tuple"
            },
            {
              "components": [
                {
                  "internalType": "uint256",
                  "name": "value",
                  "type": "uint256"
                }
              ],
              "internalType": "struct PairingsBn254.Fr",
              "name": "l_0_at_z",
              "type": "tuple"
            },
            {
              "components": [
                {
                  "internalType": "uint256",
                  "name": "value",
                  "type": "uint256"
                }
              ],
              "internalType": "struct PairingsBn254.Fr",
              "name": "l_n_minus_one_at_z",
              "type": "tuple"
            },
            {
              "components": [
                {
                  "internalType": "uint256",
                  "name": "value",
                  "type": "uint256"
                }
              ],
              "internalType": "struct PairingsBn254.Fr",
              "name": "t",
              "type": "tuple"
            },
            {
              "components": [
                {
                  "internalType": "uint256",
                  "name": "X",
                  "type": "uint256"
                },
                {
                  "internalType": "uint256",
                  "name": "Y",
                  "type": "uint256"
                }
              ],
              "internalType": "struct PairingsBn254.G1Point",
              "name": "tp",
              "type": "tuple"
            }
          ],
          "internalType": "struct Plonk4VerifierWithAccessToDNext.PartialVerifierState",
          "name": "state",
          "type": "tuple"
        }
      ],
      "name": "rescue_custom_gate_linearization_contribution",
      "outputs": [
        {
          "components": [
            {
              "internalType": "uint256",
              "name": "X",
              "type": "uint256"
            },
            {
              "internalType": "uint256",
              "name": "Y",
              "type": "uint256"
            }
          ],
          "internalType": "struct PairingsBn254.G1Point",
          "name": "result",
          "type": "tuple"
        }
      ],
      "stateMutability": "view",
      "type": "function"
    },
    {
      "inputs": [
        {
          "internalType": "uint256[]",
          "name": "public_inputs",
          "type": "uint256[]"
        },
        {
          "internalType": "uint256[]",
          "name": "serialized_proof",
          "type": "uint256[]"
        }
      ],
      "name": "verify_serialized_proof",
      "outputs": [
        {
          "internalType": "bool",
          "name": "",
          "type": "bool"
        }
      ],
      "stateMutability": "view",
      "type": "function"
    }
  ],
  "bytecode": "0x608060405234801561001057600080fd5b50614948806100206000396000f3fe608060405234801561001057600080fd5b50600436106100575760003560e01c8063330deb9f1461005c5780633ec236cb14610084578063bd5794e2146100a4578063c2ef6041146100b9578063fec4e96e146100d9575b600080fd5b61006f61006a366004613ac8565b6100ee565b60405190151581526020015b60405180910390f35b6100976100923660046143e2565b610131565b60405161007b919061450c565b6100ac610286565b60405161007b919061465b565b6100cc6100c73660046143e2565b610ae4565b60405161007b919061478e565b6100ec6100e7366004614828565b610e48565b005b6000806100f9610286565b6020810151909150851461010c57600080fd5b600061011a87878787610ef6565b9050610126818361134e565b979650505050505050565b6040805180820190915260008082526020820152604080516020810190915260008152604080516020810190915260008152608085015161018a9060005b60200201516040805160208101909152600081529051815290565b91506101968280611633565b60808501516101ae9060015b6020020151839061164d565b60808401516101c69060015b60200201518390611633565b6101d0818361167f565b60808501516101e090600161016f565b91506101ec8280611633565b60808501516101fc9060026101a2565b608084015161020c9060026101ba565b610216818361167f565b608085015161022690600261016f565b60808601519092506102399060006101ba565b60808501516102499060036101a2565b60808401516102599060036101ba565b610263818361167f565b606086015161027c90829060015b602002015190611699565b9695505050505050565b61028e613355565b60016020820152630400000081526102c57f1dba8b5bdd64ef6ce29a9039aca3c0e524395c43b9227b96c75090cc6cc7ec976116d8565b60408201526103147f08fa9d6f0dd6ac1cbeb94ae20fe7a23df05cb1095df66fb561190e615a4037ef7f196dcc8692fe322d21375920559944c12ba7b1ba8b732344cf4ba2e3aa0fc8b4611713565b6080820151526103637e74aaf5d97bd57551311a8b3e4aa7840bc55896502020b2f43ad6a98d81a4437f2d275a3ad153dc9d89ebb9c9b6a0afd2dde82470554e9738d905c328fbb4c8bc611713565b6080820151602001526103b67f287f1975a9aeaef5d2bb0767b5ef538f76e82f7da01c0cb6db8c6f920818ec4f7f2fff6f53594129f794a7731d963d27e72f385c5c6d8e08829e6f66a9d29a12ea611713565b6080820151604001526104097f038809fa3d4b7320d43e023454194f0a7878baa7e73a295d2d105260f1c34cbc7f25418b1105cf45b2a3da6c349bab1d9caaf145eaf24d1e8fb92c11654c000781611713565b60808201516060015261045c7f0561cafd527ac3f0bc550db77d87cd1c63938f7ec051e62ebf84a5bbe07f98407f28f87201b4cbe19f1517a1c29ca6d6cb074502ccfed4c31c8931c6992c3eea43611713565b60808281015101526104ae7f27e0af572bac6e36d31c33808cb44c0ef8ceee5e2850e916fb01f3747db724917f1da20087ba61c59366b21e31e4ac6889d357cf11bf16b94d875f94f41525c427611713565b608082015160a001526105017f2c2bcafea8f93d07f96874f470985a8d272c09c8ed49373f36497ee80bd8da177f299276cf6dca1a7e3780f6276c5d067403f6e024e83e0cc1ab4c5f7252b7f653611713565b608082015160c001526105547f0ba9d4a53e050da25b8410045b634f1ca065ff74acd35bab1a72bf1f20047ef37f1f1eefc8b0507a08f852f554bd7abcbd506e52de390ca127477a678d212abfe5611713565b608082015160e001526105a77f1c6b68d9920620012d85a4850dad9bd6d03ae8bbc7a08b827199e85dba1ef2b17f0f6380560d1b585628ed259289cec19d3a7c70c60e66bbfebfcb70c8c312d91e611713565b6060820151526105f67f0dfead780e5067181aae631ff734a33fca302773472997daca58ba49dbd20dcc7ef13fa6e356f525d2fd1c533acf2858c0d2b9f0a9b3180f94e1543929c75073611713565b6060820151602001526106497f1df0747c787934650d99c5696f9273088ad07ec3e0825c9d39685a9b9978ebed7f2ace2a277becbc69af4e89518eb50960a733d9d71354845ea43d2e65c8e0e4cb611713565b60a0820151526106997f06598c8236a5f5045cd7444dc87f3e1f66f99bf01251e13be4dc0ab1f7f1af4b7f14ca234fe9b3bb1e5517fc60d6b90f8ad44b0899a2d4f71a64c9640b3142ce8b611713565b60a0820151602001526106ec7f01889e2c684caefde60471748f4259196ecf4209a735ccdf7b1816f05bafa50a7f092d287a080bfe2fd40ad392ff290e462cd0e347b8fd9d05b90af234ce77a11b611713565b60a08201516040015261073f7f0dd98eeb5bc12c221da969398b67750a8774dbdd37a78da52367f9fc0e566d5c7f06750ceb40c9fb87fc424df9599340938b7552b759914a90cb0e41d3915c945b611713565b60a0820151606001526107927f2f491c662ae53ceb358f57a868dc00b89befa853bd9a449127ea2d46820995bd7f231fe6538634ff8b6fa21ca248fb15e7f43d82eb0bfa705490d24ddb3e3cad77611713565b60c08201526107e17f0ebe0de4a2f39df3b903da484c1641ffdffb77ff87ce4f9508c548659eb22d3c7f12a3209440242d5662729558f1017ed9dcc08fe49a99554dd45f5f15da5e4e0b611713565b60e0820151526108317f1b7d54f8065ca63bed0bfbb9280a1011b886d07e0c0a26a66ecc96af68c53bf97f2c51121fff5b8f58c302f03c74e0cb176ae5a1d1730dec4696eb9cce3fe284ca611713565b60e0820151602001526108847f0138733c5faa9db6d4b8df9748081e38405999e511fb22d40f77cf3aef293c447f269bee1c1ac28053238f7fe789f1ea2e481742d6d16ae78ed81e87c254af0765611713565b60e0820151604001526108d77f1b1be7279d59445065a95f01f16686adfa798ec4f1e6845ffcec9b837e88372e7f057c90cb96d8259238ed86b05f629efd55f472a721efeeb56926e979433e6c0e611713565b60e08201516060015261092a7f12cd873a6f18a4a590a846d9ebf61565197edf457efd26bc408eb61b72f37b597f19890cbdac892682e7a5910ca6c238c082130e1c71f33d0c9c901153377770d1611713565b61010082015261093a60056116d8565b6101208201515261094b60076116d8565b6101208201516020015261095f600a6116d8565b61012082015160026020020181905250610a2160405180604001604052807f198e9393920d483a7260bfb731fb5d25f1aa493335a9e71297e485b7aef312c281526020017f1800deef121f1e76426a00665e5c4479674322d4f75edadd46debd5cd992f6ed81525060405180604001604052807f090689d0585ff075ec9e99ad690c3395bc4b313370b38ef355acdadcd122975b81526020017f12c85ea5db8c6deb4aab71808dcb408fe3d1e7690c43d37b4ce6cc0166fa7daa81525061173e565b610140820151526040805180820182527f260e01b251f6f1c7e7ff4e580791dee8ea51d87a358e038b4efe30fac09383c181527f0118c4d5b837bcc2bc89b5b398b5974e9f5944073b32078b7e231fec938883b060208281019190915282518084019093527f04fc6369f7110fe3d25156c1bb9a72859cf2a04641f99ba4ee413c80da6a5fe483527f22febda3c0c0632a56475b4214e5615e11e6dd3f96e6cea2854a87d4dacc5e5590830152610ad79161173e565b6101408201516020015290565b610aec61341c565b600260005b6004811015610b6f5784602001518160048110610b1057610b1061484c565b6020020151835183600d8110610b2857610b2861484c565b602002015260808501518160048110610b4357610b4361484c565b6020020151836020015183600d8110610b5e57610b5e61484c565b602002015260019182019101610af1565b50606085015151825182600d8110610b8957610b8961484c565b602002015260c084015160006020020151826020015182600d8110610bb057610bb061484c565b602002015260010160005b610bc760016004614878565b811015610c43578560a001518160048110610be457610be461484c565b6020020151835183600d8110610bfc57610bfc61484c565b602002015260e08501518160038110610c1757610c1761484c565b6020020151836020015183600d8110610c3257610c3261484c565b602002015260019182019101610bbb565b5060408481015190830151526020840151610c6060016004614878565b60048110610c7057610c7061484c565b6020908102919091015160408401518201526101008501516060840180519190915260a0808701515191519092015260e08601515190840151600090610cc6906040805160208101909152600081529051815290565b905060015b6004811015610d1957610cee828960e0015183600481106102715761027161484c565b6102408701819052610d01908490611746565b60a0860151610d11908390611633565b600101610ccb565b508351829084600d8110610d2f57610d2f61484c565b6020020181905250856101e00151846020015184600d8110610d5357610d5361484c565b602002015260c087015184516001949094019384600d8110610d7757610d7761484c565b6020020181905250856102200151846020015184600d8110610d9b57610d9b61484c565b602002015261010087015184516001949094019384600d8110610dc057610dc061484c565b6020020181905250856102400151846020015184600d8110610de457610de461484c565b602002015250610160850151604084810180518201929092526101a0870151606080870180519093019190915261018088015183518201526101c0880151825190910152905160809081019290925261020090950151945101939093529392505050565b602081015151600003610e5a57600080fd5b610e6460016116d8565b608082018051919091526020808301805160408051808501825260008082529251815294518401949094529051835192830190935281529051815260025b6009811015610ef1576020830151610ebb908390611633565b6040805160208101909152600081528251815283608001518260098110610ee457610ee461484c565b6020020152600101610ea2565b505050565b610efe613456565b602c8214610f0b57600080fd5b836001600160401b03811115610f2357610f23613b33565b604051908082528060200260200182016040528015610f4c578160200160208202803683370190505b50815260005b84811015610f9c57858582818110610f6c57610f6c61484c565b9050602002013582600001518281518110610f8957610f8961484c565b6020908102919091010152600101610f52565b506000805b600481101561101657610fed858584818110610fbf57610fbf61484c565b905060200201358686610fd28660010190565b818110610fe157610fe161484c565b90506020020135611755565b836020015182600481106110035761100361484c565b6020020152600282019150600101610fa1565b5061103f84848381811061102c5761102c61484c565b905060200201358585610fd28560010190565b604083015260020161105c84848381811061102c5761102c61484c565b61016083015260020161107a84848381811061102c5761102c61484c565b61018083015260020160005b60048110156110cd576110a4858584818110610fbf57610fbf61484c565b836060015182600481106110ba576110ba61484c565b6020020152600282019150600101611086565b5060005b6004811015611122576110fb8585848181106110ef576110ef61484c565b905060200201356116d8565b836080015182600481106111115761111161484c565b6020020152600191820191016110d1565b5060005b600181101561116b576111448585848181106110ef576110ef61484c565b8360a00151826001811061115a5761115a61484c565b602002015260019182019101611126565b5060005b60018110156111b45761118d8585848181106110ef576110ef61484c565b8360c0015182600181106111a3576111a361484c565b60200201526001918201910161116f565b5060005b60038110156111fd576111d68585848181106110ef576110ef61484c565b8360e0015182600381106111ec576111ec61484c565b6020020152600191820191016111b8565b506112138484838181106110ef576110ef61484c565b6101008301526001016112318484838181106110ef576110ef61484c565b6101a083015260010161124f8484838181106110ef576110ef61484c565b6101c083015260010161126d8484838181106110ef576110ef61484c565b6101e083015260010161128b8484838181106110ef576110ef61484c565b6102008301526001016112a98484838181106110ef576110ef61484c565b6102208301526001016112c78484838181106110ef576110ef61484c565b6102408301526001016112e58484838181106110ef576110ef61484c565b6101208301526001016113038484838181106110ef576110ef61484c565b61014083015260010161132184848381811061102c5761102c61484c565b61026083015260020161133f84848381811061102c5761102c61484c565b61028083015250949350505050565b60008061135b84846118ed565b9050611368838583611c26565b151560000361137b57600091505061162d565b60608401516000906113b490825b6020020151604080518082019091526000808252602080830191825283518352929092015190915290565b84516101808401519192506000916113cb91611f30565b604080516020808201835260008083528451835283518085019094528084529083015291925060015b600481101561143e57611416896060015182600481106113895761138961484c565b91506114228284611faf565b61142c8583611746565b6114368385611633565b6001016113f4565b50505050600061144f858785610ae4565b8051839052610120870151602082015152905061146d858785611fba565b8151602090810191909152610140870151818301805190920152815151905151600061149960016116d8565b90506114b8604051806040016040528060008152602001600081525090565b60015b600d811015611541576101408801516114d5908490611633565b6114ef83876000015183600d81106102715761027161484c565b91506114fb8583611746565b856020015181600d81106115115761151161484c565b602002015161022089018190526115289084611633565b61022088015161153990859061167f565b6001016114bb565b50610140870151611553908390611633565b60006115708387604001516000600681106102715761027161484c565b6060870151519091506115838185611633565b60015b600681101561160c576101408a01516115a0908690611633565b6115ba85896040015183600681106102715761027161484c565b93506115c68385611746565b876060015181600681106115dc576115dc61484c565b60200201516102208b018190526115f39086611633565b6102208a015161160490839061167f565b600101611586565b506116218b61014001518d8b89868a8761240c565b99505050505050505050505b92915050565b6000805160206148f3833981519152815183510990915250565b6000805160206148f38339815191528151611676906000805160206148f3833981519152614878565b83510890915250565b6000805160206148f3833981519152815183510890915250565b604080518082019091526000808252602082015282511580156116c0575082602001516001145b156116cd57600060208401525b61162d8383836125a7565b6040805160208101909152600081526000805160206148f3833981519152821061170157600080fd5b50604080516020810190915290815290565b60408051808201909152600080825260208201525b5060408051808201909152918252602082015290565b611728613664565b6117518282846125e9565b5050565b604080518082019091526000808252602082015282158015611775575081155b1561179657604051806040016040528084815260200183815250905061162d565b6000805160206148d383398151915283106117ed5760405162461bcd60e51b81526020600482015260126024820152711e08185e1a5cc81a5cdb89dd081d985b1a5960721b60448201526064015b60405180910390fd5b6000805160206148d3833981519152821061183f5760405162461bcd60e51b81526020600482015260126024820152711e48185e1a5cc81a5cdb89dd081d985b1a5960721b60448201526064016117e4565b60006000805160206148d3833981519152838409905060006000805160206148d383398151915285860990506000805160206148d383398151915285820990506000805160206148d38339815191526003820890508082146118d55760405162461bcd60e51b815260206004820152600f60248201526e6973206e6f74206f6e20637572766560881b60448201526064016117e4565b50506040805180820190915292835250602082015290565b6118f5613684565b60408051606081018252600080825260208201819052918101829052905b83602001518110156119575761194f856000015182815181106119385761193861484c565b60200260200101518361267990919063ffffffff16565b600101611913565b5060005b6004811015611991576119898560200151826004811061197d5761197d61484c565b60200201518390612707565b60010161195b565b5061199b81612723565b60a08301526101608401516119b1908290612707565b6119ba81612723565b60408301526119c881612723565b606083015260408401516119dd908290612707565b6119e681612723565b60c08301526119f481612723565b60e0830152610180840151611a0a908290612707565b611a1381612723565b602083015260005b6004811015611a4557611a3d8560600151826004811061197d5761197d61484c565b600101611a1b565b50611a4f81612723565b610180830152610120840151611a669082906127c9565b60005b6004811015611a9f57611a9785608001518260048110611a8b57611a8b61484c565b602002015183906127c9565b600101611a69565b5060005b6001811015611acd57611ac58560a001518260018110611a8b57611a8b61484c565b600101611aa3565b5060005b6001811015611afb57611af38560c001518260018110611a8b57611a8b61484c565b600101611ad1565b5060005b6003811015611b2957611b218560e001518260038110611a8b57611a8b61484c565b600101611aff565b506101808201516040805160208101825260008152915182526101a08401829052840151611b579190611633565b610100840151611b689082906127c9565b6101e0840151611b799082906127c9565b610220840151611b8a9082906127c9565b610240840151611b9b9082906127c9565b6101a0840151611bac9082906127c9565b6101c0840151611bbd9082906127c9565b610200840151611bce9082906127c9565b610140840151611bdf9082906127c9565b611be881612723565b610140830152610260840151611bff908290612707565b610280840151611c10908290612707565b611c1981612723565b6101608301525092915050565b60008084602001516001600160401b03811115611c4557611c45613b33565b604051908082528060200260200182016040528015611c6e578160200160208202803683370190505b50905060005b8151811015611ca35780828281518110611c9057611c9061484c565b6020908102919091010152600101611c74565b506000856020015111611cb557600080fd5b6000611cc160006116d8565b905060005b8660200151811015611d3f57611ceb81886000015189604001518861018001516127d7565b61022086015285518051611d2691611d1a9184908110611d0d57611d0d61484c565b60200260200101516116d8565b61022087015190611633565b610220850151611d3790839061167f565b600101611cc6565b5060c0850151611d589060005b60200201518290611633565b61014085015160408051602081019091526000815290518152611d7b818361167f565b611d8485610e48565b6080850151600090611d9790600461016f565b9050611db18761010001518261163390919063ffffffff16565b611dbd60016004614878565b600314611dc957600080fd5b60408051602081019091526000815260005b6003811015611e5d57611dfd8960e00151826003811061016f5761016f61484c565b9150611e1688604001518361163390919063ffffffff16565b611e3b89608001518260048110611e2f57611e2f61484c565b6020020151839061167f565b6060880151611e4b90839061167f565b611e558383611633565b600101611ddb565b506080880151611e6e90600361016f565b9050611e8787606001518261167f90919063ffffffff16565b611e918282611633565b611e9b838361164d565b6000611eb08a60000151896101800151612885565b6080890151909150611ec3906005611d4c565b611ecd848261164d565b6000611eda8b8b8b61290b565b9050611ee6858261167f565b6101208a0151604080516020810190915260008152905181528b516101808b0151611f1b91611f1491612b5b565b8290611633565b945194519094149a9950505050505050505050565b604080516020808201835260008252825160c0810184528181528082018290529283015283516060830152608082018390526000805160206148f383398151915260a083015290611f7f613838565b600060208260c08560055afa905080611f9757600080fd5b50604080516020810190915290518152949350505050565b6117518282846125a7565b6040805180820190915260008082526020820152611fd9600080611713565b905060006120088460800151600060048110611ff757611ff761484c565b602002015160808701516000610271565b90506120148282611746565b6080840151612030906001602002015160808701516001610271565b905061203c8282611746565b6080840151612058906002602002015160808701516002610271565b90506120648282611746565b6080840151612080906003602002015160808701516003610271565b905061208c8282611746565b608084015160009061209e908261016f565b60808601519091506120b1906001611d4c565b60808601516120c39082906004610271565b91506120cf8383611746565b60808501516120df90600061016f565b60808601519091506120f2906002611d4c565b60808601516121049082906005610271565b91506121108383611746565b608086015160c00151612124908490611746565b60a085015151608087015161213b91906007610271565b91506121478383611746565b60c085015151612158908490611faf565b6000612165878787610131565b90506121718482611746565b61217d60016004614878565b60031461218957600080fd5b600061219560016116d8565b905060006121b3876080015160046009811061016f5761016f61484c565b905060005b600481101561227b57610180880151604080516020810190915260008152905181529450806000036121f3576121ee8584611633565b612224565b6101208a015161222490612208600184614878565b600381106122185761221861484c565b60200201518690611633565b6040880151612234908690611633565b606088015161224490869061167f565b6122698960800151826004811061225d5761225d61484c565b6020020151869061167f565b6122738286611633565b6001016121b8565b50604088015161228b9082611699565b94506122978686611746565b60808701516122a790600461016f565b90506122c087604001518261163390919063ffffffff16565b6101008801516122d1908290611633565b60005b6122e060016004614878565b811015612354576123008960e00151826003811061016f5761016f61484c565b945061231988604001518661163390919063ffffffff16565b606088015161232990869061167f565b6123428960800151826004811061225d5761225d61484c565b61234c8286611633565b6001016122d4565b5060a08901516123679082906003610271565b94506123738686612b8a565b61238d60008a600001518b604001518a61018001516127d7565b6101e08801819052516000036123a257600080fd5b506101e08601516040805160208101909152600081529051815260808701516123cc906005611d4c565b60408801516123db9082611699565b94506123e78686611746565b60006123f38989612b95565b90506123ff8782611746565b5050505050509392505050565b6040805180820190915260008082526020808301828152875184529087015190529061244687610160015186611faf90919063ffffffff16565b6124508186611746565b60408051602081019091526000815283518152610160880151612474908290611633565b61247e818661167f565b60006124b6826124b0604080518082018252600080825260209182015281518083019092526001825260029082015290565b90611699565b90506124c28382612b8a565b6101808901516102608b01516124d791611699565b905060006124fa8a6101a001516040805160208101909152600081529051815290565b90506125148a61016001518261163390919063ffffffff16565b6102808b01516000906125279083611699565b90506125338382611746565b61253d8584611746565b600061255c8c61016001518e610280015161169990919063ffffffff16565b90506125768d61026001518261174690919063ffffffff16565b61257f81612e63565b8d5160208f015161259288838584612ea3565b98505050505050505050979650505050505050565b6125af613856565b835181526020840151816001602002015282518160026020020152600060408360608460075afa9050806125e257600080fd5b5050505050565b81511580156125fa57506020820151155b15612612578251815260209283015192019190915250565b825115801561262357506020830151155b15612638578151815260209182015191015250565b612640613874565b8351815260208085015181830152835160408301528301518160035b6020020152600060408360808460065afa9050806125e257600080fd5b81516020808401516040516000928101929092526024820183905260448201526064810183905260840160408051808303601f1901815291815281516020928301208552848201519051600160e01b928101929092526024820183905260448201526064810183905260840160408051601f1981840301815291905280516020918201209301929092525050565b612715828260000151612679565b611751828260200151612679565b60408051602081019091526000815281516020808401516040808601519051600160e11b938101939093526024830193909352604482015260e09190911b6001600160e01b03191660648201526000906068016040516020818303038152906040528051906020012090506001836040018181516127a1919061488b565b63ffffffff1690525060408051602081019091526001600160fd1b0391909116815292915050565b611751828260000151612679565b6040805160208101909152600081528385106127f257600080fd5b60006127fe60016116d8565b9050600061280c8588611f30565b90506128188487611f30565b9250612824838361164d565b825160000361283257600080fd5b61283c8382611633565b60408051602081019091526000815284518152612859818361164d565b612865611f14886116d8565b61286e81612fa3565b905061287a8482611633565b505050949350505050565b60408051602081019091526000815260006128a060016116d8565b905060006128ad856116d8565b604080516020810190915260008152855181529091506128cd818461164d565b6128d78183611633565b6128e081612fa3565b90506128ec8587611f30565b93506128f8848461164d565b6129028482611633565b50505092915050565b604080516020810190915260008152604080516020810190915260008152600061293560016116d8565b90506129558460c001516040805160208101909152600081529051815290565b6101008501819052612967908261167f565b61010084015160408051602081019091526000815290518152610120850181905260e08501516129979190611633565b6101a08501516040805160208101909152600081529051815291506129c98460c001518361163390919063ffffffff16565b6101208401516129da90839061167f565b6101c08501516129eb908390611633565b60808401516129fb9060066101ba565b6000612a1c60018860000151612a119190614878565b604089015190611f30565b9050612a3d8561018001516040805160208101909152600081529051815290565b6101c08601819052612a4f908261164d565b6101c0850151612a60908490611633565b612a6a848461167f565b612a846000886000015189604001518861018001516127d7565b6101e0860181905260408051602081019091526000815290518152608086015160e00151909350612ab6908490611633565b612ac0848461164d565b6000612ae260018960000151612ad69190614878565b61012088015190611f30565b9050612b0a60018960000151612af89190614878565b895160408b01516101808a01516127d7565b6102008701819052604080516020810190915260008152905181529350612b318482611633565b60808601516101000151612b46908590611633565b612b50858561164d565b505050509392505050565b604080516020810190915260008152612b748284611f30565b905061162d612b8360016116d8565b829061164d565b611751828284612fe2565b60408051808201909152600080825260208201526000612bb560006116d8565b9050612bcd6040518060200160405280600081525090565b60408051602080820183526000918290526101c08801518351918201909352908152905181526080850151612c03906006611d4c565b6101c0850151612c14908290611633565b610160860151600090612c279083611699565b9050612c338582611746565b610200870151604080516020810190915260008152905181529150612c658660c001518361163390919063ffffffff16565b6101e0870151612c7690839061167f565b610120860151612c8790839061167f565b6040805160208101909152600081526000612ca260016116d8565b9050612cba6040518060200160405280600081525090565b60005b612cc960016004614878565b811015612d1757612ce98b60800151826004811061016f5761016f61484c565b9150612cf58284611633565b612cff848361167f565b60a08a0151612d0f908490611633565b600101612cbd565b506102408a0151604080516020810190915260008152905181529550612d3d8683611633565b612d47838761167f565b6102208a0151612d58908490611633565b60e0890151612d6890849061167f565b612d728584611633565b610100890151612d83908690611633565b604080516020810190915260008152875181529550612da2868661164d565b6080890151869550612db5906006612218565b6101c0890151612dc6908690611633565b6101e08901516040805160208101909152600081529051815260808a0151909650612dfa9060075b60200201518790611633565b612e04858761167f565b6102008901516040805160208101909152600081529051815260808a0151909650612e30906008612dee565b612e3a858761167f565b6101808a0151612e4a9086611699565b9350612e568885611746565b5050505050505092915050565b8060200151600003612e7e57805115612e7b57600080fd5b50565b6020810151612e9b906000805160206148d3833981519152614878565b602090910152565b60408051600280825260608201909252600091829190816020015b6040805180820190915260008082526020820152815260200190600190039081612ebe5750506040805160028082526060820190925291925060009190602082015b612f08613664565b815260200190600190039081612f005790505090508682600081518110612f3157612f3161484c565b60200260200101819052508482600181518110612f5057612f5061484c565b60200260200101819052508581600081518110612f6f57612f6f61484c565b60200260200101819052508381600181518110612f8e57612f8e61484c565b6020026020010181905250610126828261308c565b6040805160208101909152600081528151600003612fc057600080fd5b61162d82612fdd60026000805160206148f3833981519152614878565b611f30565b8151158015612ff357506020820151155b1561300b578251815260209283015192019190915250565b825115801561301c57506020830151155b1561304c57815181526020820151613042906000805160206148d3833981519152614878565b6020909101525050565b613054613874565b835181526020808501518183015283516040830152830151613084906000805160206148d3833981519152614878565b81600361265c565b6000815183511461309c57600080fd5b825160006130ab8260066148a8565b90506000816001600160401b038111156130c7576130c7613b33565b6040519080825280602002602001820160405280156130f0578160200160208202803683370190505b50905060005b83811015613321578681815181106131105761311061484c565b6020026020010151600001518282600661312a91906148a8565b6131359060006148bf565b815181106131455761314561484c565b6020026020010181815250508681815181106131635761316361484c565b6020026020010151602001518282600661317d91906148a8565b6131889060016148bf565b815181106131985761319861484c565b6020026020010181815250508581815181106131b6576131b661484c565b60209081029190910101515151826131cf8360066148a8565b6131da9060026148bf565b815181106131ea576131ea61484c565b6020026020010181815250508581815181106132085761320861484c565b602090810291909101810151510151826132238360066148a8565b61322e9060036148bf565b8151811061323e5761323e61484c565b60200260200101818152505085818151811061325c5761325c61484c565b60200260200101516020015160006002811061327a5761327a61484c565b60200201518261328b8360066148a8565b6132969060046148bf565b815181106132a6576132a661484c565b6020026020010181815250508581815181106132c4576132c461484c565b6020026020010151602001516001600281106132e2576132e261484c565b6020020151826132f38360066148a8565b6132fe9060056148bf565b8151811061330e5761330e61484c565b60209081029190910101526001016130f6565b5061332a613838565b6000602082602086026020860160085afa90508061334757600080fd5b505115159695505050505050565b60405180610160016040528060008152602001600081526020016133856040518060200160405280600081525090565b8152602001613392613892565b815260200161339f6138cb565b81526020016133ac6138f7565b81526020016133ce604051806040016040528060008152602001600081525090565b81526020016133db6138f7565b81526020016133fd604051806040016040528060008152602001600081525090565b815260200161340a613920565b8152602001613417613954565b905290565b604051806080016040528061342f613981565b815260200161343c6139ad565b81526020016134496139d0565b81526020016134176139fa565b604051806102a00160405280606081526020016134716138f7565b8152602001613493604051806040016040528060008152602001600081525090565b81526020016134a06138f7565b81526020016134ad613a1b565b815260408051808201825260006020808301828152835280850192909252825180840184529182019081528152908201526060016134e9613920565b81526020016135046040518060200160405280600081525090565b815260200161351f6040518060200160405280600081525090565b815260200161353a6040518060200160405280600081525090565b815260200161355c604051806040016040528060008152602001600081525090565b815260200161357e604051806040016040528060008152602001600081525090565b81526020016135996040518060200160405280600081525090565b81526020016135b46040518060200160405280600081525090565b81526020016135cf6040518060200160405280600081525090565b81526020016135ea6040518060200160405280600081525090565b81526020016136056040518060200160405280600081525090565b81526020016136206040518060200160405280600081525090565b8152602001613642604051806040016040528060008152602001600081525090565b8152602001613417604051806040016040528060008152602001600081525090565b6040518060400160405280613677613a3c565b8152602001613417613a3c565b60408051610280810182526000610260820181815282528251602080820185528282528084019190915283518082018552828152838501528351908101909352825290606082019081526020016136d9613a5a565b81526020016136f46040518060200160405280600081525090565b815260200161370f6040518060200160405280600081525090565b815260200161372a6040518060200160405280600081525090565b81526020016137456040518060200160405280600081525090565b81526020016137606040518060200160405280600081525090565b815260200161377b6040518060200160405280600081525090565b81526020016137966040518060200160405280600081525090565b81526020016137b16040518060200160405280600081525090565b81526020016137cc6040518060200160405280600081525090565b81526020016137e76040518060200160405280600081525090565b81526020016138026040518060200160405280600081525090565b815260200161381d6040518060200160405280600081525090565b81526020016136426040518060200160405280600081525090565b60405180602001604052806001906020820280368337509192915050565b60405180606001604052806003906020820280368337509192915050565b60405180608001604052806004906020820280368337509192915050565b60405180604001604052806002905b60408051808201909152600080825260208201528152602001906001900390816138a15790505090565b6040805161014081019091526000610100820181815261012083019190915281526007602082016138a1565b6040805160c0810190915260006080820181815260a083019190915281526003602082016138a1565b60405180606001604052806003905b60408051602081019091526000815281526020019060019003908161392f5790505090565b60405180604001604052806002905b61396b613664565b8152602001906001900390816139635790505090565b604080516101e0810190915260006101a082018181526101c08301919091528152600c602082016138a1565b604080516101c0810190915260006101a082019081528152600c6020820161392f565b604080516101008101909152600060c0820181815260e083019190915281526005602082016138a1565b6040805160e08101909152600060c08201908152815260056020820161392f565b6040805160a08101909152600060808201908152815260036020820161392f565b60405180604001604052806002906020820280368337509192915050565b60408051610140810190915260006101208201908152815260086020820161392f565b60008083601f840112613a8f57600080fd5b5081356001600160401b03811115613aa657600080fd5b6020830191508360208260051b8501011115613ac157600080fd5b9250929050565b60008060008060408587031215613ade57600080fd5b84356001600160401b0380821115613af557600080fd5b613b0188838901613a7d565b90965094506020870135915080821115613b1a57600080fd5b50613b2787828801613a7d565b95989497509550505050565b634e487b7160e01b600052604160045260246000fd5b604080519081016001600160401b0381118282101715613b6b57613b6b613b33565b60405290565b6040516102a081016001600160401b0381118282101715613b6b57613b6b613b33565b60405161026081016001600160401b0381118282101715613b6b57613b6b613b33565b60405161016081016001600160401b0381118282101715613b6b57613b6b613b33565b604051608081016001600160401b0381118282101715613b6b57613b6b613b33565b600060208284031215613c0e57600080fd5b604051602081018181106001600160401b0382111715613c3057613c30613b33565b6040529135825250919050565b600060408284031215613c4f57600080fd5b613c57613b49565b9050813581526020820135602082015292915050565b600082601f830112613c7e57600080fd5b613c86613b49565b806080840185811115613c9857600080fd5b845b81811015613cbc57613cac8782613c3d565b8452602090930192604001613c9a565b509095945050505050565b600082601f830112613cd857600080fd5b6040805161010081018181106001600160401b0382111715613cfc57613cfc613b33565b825280610200850186811115613d1157600080fd5b855b81811015613d3457613d258882613c3d565b83526020909201918401613d13565b50919695505050505050565b600082601f830112613d5157600080fd5b613d59613bda565b80610100840185811115613d6c57600080fd5b845b81811015613cbc57613d808782613c3d565b8452602090930192604001613d6e565b600082601f830112613da157600080fd5b604051606081018181106001600160401b0382111715613dc357613dc3613b33565b604052806060840185811115613dd857600080fd5b845b81811015613dfa57613dec8782613bfc565b835260209283019201613dda565b509195945050505050565b600082601f830112613e1657600080fd5b613e1e613b49565b806040840185811115613e3057600080fd5b845b81811015613cbc578035845260209384019301613e32565b600082601f830112613e5b57600080fd5b613e63613b49565b80610100840185811115613e7657600080fd5b845b81811015613cbc5760808188031215613e915760008081fd5b613e99613b49565b613ea38883613e05565b8152613eb28860408401613e05565b6020828101919091529085529390930192608001613e78565b600082601f830112613edc57600080fd5b813560206001600160401b0380831115613ef857613ef8613b33565b8260051b604051601f19603f83011681018181108482111715613f1d57613f1d613b33565b604052938452858101830193838101925087851115613f3b57600080fd5b83870191505b8482101561012657813583529183019190830190613f41565b600082601f830112613f6b57600080fd5b613f73613bda565b806080840185811115613f8557600080fd5b845b81811015613cbc57613f998782613bfc565b845260209384019301613f87565b600082601f830112613fb857600080fd5b60405160208082018281106001600160401b0382111715613fdb57613fdb613b33565b6040528184820186811115613fef57600080fd5b855b81811015614010576140038882613bfc565b8352918301918301613ff1565b50929695505050505050565b60006105a0828403121561402f57600080fd5b614037613b71565b905081356001600160401b0381111561404f57600080fd5b61405b84828501613ecb565b82525061406b8360208401613d40565b602082015261012061407f84828501613c3d565b604083015261016061409385828601613d40565b60608401526102606140a786828701613f5a565b60808501526140ba866102e08701613fa7565b60a08501526140cd866103008701613fa7565b60c08501526140e0866103208701613d90565b60e08501526140f3866103808701613bfc565b610100850152614107866103a08701613bfc565b83850152614119866103c08701613bfc565b61014085015261412d866103e08701613c3d565b8285015261413f866104208701613c3d565b610180850152614153866104608701613bfc565b6101a0850152614167866104808701613bfc565b6101c085015261417b866104a08701613bfc565b6101e085015261418f866104c08701613bfc565b6102008501526141a3866104e08701613bfc565b6102208501526141b7866105008701613bfc565b6102408501526141cb866105208701613c3d565b818501525050506141e0836105608401613c3d565b61028082015292915050565b600082601f8301126141fd57600080fd5b6040516101208082018281106001600160401b038211171561422157614221613b33565b6040528301818582111561423457600080fd5b845b82811015613dfa576142488782613bfc565b825260209182019101614236565b6000610380828403121561426957600080fd5b614271613b94565b905061427d8383613bfc565b815261428c8360208401613bfc565b602082015261429e8360408401613bfc565b60408201526142b08360608401613bfc565b60608201526142c283608084016141ec565b60808201526101a06142d684828501613bfc565b60a08301526101c06142ea85828601613bfc565b60c08401526101e06142fe86828701613bfc565b60e085015261020061431287828801613bfc565b61010086015261022061432788828901613bfc565b61012087015261024061433c89828a01613bfc565b610140880152614350896102608a01613bfc565b610160880152614364896102808a01613bfc565b610180880152614378896102a08a01613bfc565b8688015261438a896102c08a01613bfc565b8588015261439c896102e08a01613bfc565b848801526143ae896103008a01613bfc565b838801526143c0896103208a01613bfc565b828801526143d2896103408a01613c3d565b8188015250505050505092915050565b6000806000838503610a608112156143f957600080fd5b6106c08082121561440957600080fd5b614411613bb7565b9150853582526020860135602083015261442e8760408801613bfc565b60408301526144408760608801613c6d565b60608301526144528760e08801613cc7565b6080830152614465876102e08801613d40565b60a0830152614478876103e08801613c3d565b60c083015261448b876104208801613d40565b60e083015261449e876105208801613c3d565b6101008301526144b2876105608801613d90565b6101208301526144c6876105c08801613e4a565b6101408301529093508401356001600160401b038111156144e657600080fd5b6144f28682870161401c565b925050614503856106e08601614256565b90509250925092565b81518152602080830151908201526040810161162d565b8060005b600281101561455b5761454584835180518252602090810151910152565b6040939093019260209190910190600101614527565b50505050565b8060005b600881101561455b5761458384835180518252602090810151910152565b6040939093019260209190910190600101614565565b8060005b600481101561455b576145bb84835180518252602090810151910152565b604093909301926020919091019060010161459d565b8060005b600381101561455b578151518452602093840193909101906001016145d5565b8060005b600281101561455b5781518452602093840193909101906001016145f9565b8060005b600281101561455b5781516146328582516145f5565b6020908101519061464660408701836145f5565b6080959095019492909201915060010161461c565b60006106c082019050825182526020830151602083015260408301516146846040840182519052565b5060608301516146976060840182614523565b5060808301516146aa60e0840182614561565b5060a08301516146be6102e0840182614599565b5060c083015180516103e08401526020015161040083015260e08301516146e9610420840182614599565b506101008301518051610520840152602001516105408301526101208301516147166105608401826145d1565b5061014083015161472b6105c0840182614618565b5092915050565b8060005b600681101561455b5761475484835180518252602090810151910152565b6040939093019260209190910190600101614736565b8060005b600681101561455b5781515184526020938401939091019060010161476e565b81516107208201908260005b600d8110156147ce576147b882845180518252602090810151910152565b602092909201916040919091019060010161479a565b505050602080840151610340840160005b600d8110156147fd57825151825291830191908301906001016147df565b5050505060408301516148146104e0840182614732565b50606083015161472b61066084018261476a565b6000610380828403121561483b57600080fd5b6148458383614256565b9392505050565b634e487b7160e01b600052603260045260246000fd5b634e487b7160e01b600052601160045260246000fd5b8181038181111561162d5761162d614862565b63ffffffff81811683821601908082111561472b5761472b614862565b808202811582820484141761162d5761162d614862565b8082018082111561162d5761162d61486256fe30644e72e131a029b85045b68181585d97816a916871ca8d3c208c16d87cfd4730644e72e131a029b85045b68181585d2833e84879b9709143e1f593f0000001a264697066735822122093b5bc51013c184370424e12b1c836ab5b130f43c86e1a8f5df549e65ee24f3d64736f6c63430008140033",
  "linkReferences": {},
  "deployedLinkReferences": {}
}